{
  "contractName": "Voting",
  "abi": [
    {
      "anonymous": false,
      "inputs": [
        {
          "indexed": true,
          "internalType": "uint256",
          "name": "electionId",
          "type": "uint256"
        },
        {
          "indexed": false,
          "internalType": "string",
          "name": "name",
          "type": "string"
        },
        {
          "indexed": false,
          "internalType": "string",
          "name": "startDate",
          "type": "string"
        },
        {
          "indexed": false,
          "internalType": "string",
          "name": "endDate",
          "type": "string"
        },
        {
          "indexed": false,
          "internalType": "string",
          "name": "domainFilter",
          "type": "string"
        },
        {
          "indexed": false,
          "internalType": "string",
          "name": "ownerEmail",
          "type": "string"
        }
      ],
      "name": "ElectionCreated",
      "type": "event"
    },
    {
      "inputs": [],
      "name": "electionCount",
      "outputs": [
        {
          "internalType": "uint256",
          "name": "",
          "type": "uint256"
        }
      ],
      "stateMutability": "view",
      "type": "function"
    },
    {
      "inputs": [
        {
          "internalType": "uint256",
          "name": "",
          "type": "uint256"
        }
      ],
      "name": "elections",
      "outputs": [
        {
          "internalType": "string",
          "name": "name",
          "type": "string"
        },
        {
          "internalType": "bool",
          "name": "isOpen",
          "type": "bool"
        },
        {
          "internalType": "uint256",
          "name": "candidatesCount",
          "type": "uint256"
        },
        {
          "internalType": "string",
          "name": "startDate",
          "type": "string"
        },
        {
          "internalType": "string",
          "name": "endDate",
          "type": "string"
        },
        {
          "internalType": "string",
          "name": "domainFilter",
          "type": "string"
        }
      ],
      "stateMutability": "view",
      "type": "function"
    },
    {
      "inputs": [
        {
          "internalType": "string",
          "name": "",
          "type": "string"
        },
        {
          "internalType": "uint256",
          "name": "",
          "type": "uint256"
        }
      ],
      "name": "ownedElections",
      "outputs": [
        {
          "internalType": "uint256",
          "name": "electionId",
          "type": "uint256"
        },
        {
          "internalType": "string",
          "name": "electionName",
          "type": "string"
        },
        {
          "internalType": "bool",
          "name": "isOpen",
          "type": "bool"
        },
        {
          "internalType": "string",
          "name": "startDate",
          "type": "string"
        },
        {
          "internalType": "string",
          "name": "endDate",
          "type": "string"
        },
        {
          "internalType": "string",
          "name": "domainFilter",
          "type": "string"
        }
      ],
      "stateMutability": "view",
      "type": "function"
    },
    {
      "inputs": [
        {
          "internalType": "string",
          "name": "",
          "type": "string"
        },
        {
          "internalType": "uint256",
          "name": "",
          "type": "uint256"
        }
      ],
      "name": "positions",
      "outputs": [
        {
          "internalType": "string",
          "name": "",
          "type": "string"
        }
      ],
      "stateMutability": "view",
      "type": "function"
    },
    {
      "inputs": [
        {
          "internalType": "string",
          "name": "email",
          "type": "string"
        },
        {
          "internalType": "string[]",
          "name": "_positions",
          "type": "string[]"
        }
      ],
      "name": "listPositions",
      "outputs": [],
      "stateMutability": "nonpayable",
      "type": "function"
    },
    {
      "inputs": [
        {
          "internalType": "string",
          "name": "email",
          "type": "string"
        }
      ],
      "name": "getPositions",
      "outputs": [
        {
          "internalType": "string[]",
          "name": "",
          "type": "string[]"
        }
      ],
      "stateMutability": "view",
      "type": "function"
    },
    {
      "inputs": [
        {
          "internalType": "string",
          "name": "_name",
          "type": "string"
        },
        {
          "internalType": "string",
          "name": "_startDate",
          "type": "string"
        },
        {
          "internalType": "string",
          "name": "_endDate",
          "type": "string"
        },
        {
          "internalType": "string",
          "name": "_domainFilter",
          "type": "string"
        },
        {
          "internalType": "string",
          "name": "_email",
          "type": "string"
        }
      ],
      "name": "createElection",
      "outputs": [],
      "stateMutability": "nonpayable",
      "type": "function"
    },
    {
      "inputs": [],
      "name": "getElectionCount",
      "outputs": [
        {
          "internalType": "uint256",
          "name": "",
          "type": "uint256"
        }
      ],
      "stateMutability": "view",
      "type": "function"
    },
    {
      "inputs": [
        {
          "internalType": "uint256",
          "name": "_electionId",
          "type": "uint256"
        },
        {
          "internalType": "string",
          "name": "_title",
          "type": "string"
        },
        {
          "internalType": "string",
          "name": "_startDate",
          "type": "string"
        },
        {
          "internalType": "string",
          "name": "_endDate",
          "type": "string"
        },
        {
          "internalType": "string",
          "name": "_domainFilter",
          "type": "string"
        },
        {
          "internalType": "string",
          "name": "_email",
          "type": "string"
        }
      ],
      "name": "updateElection",
      "outputs": [],
      "stateMutability": "nonpayable",
      "type": "function"
    },
    {
      "inputs": [
        {
          "internalType": "string",
          "name": "_email",
          "type": "string"
        }
      ],
      "name": "getOwnedElections",
      "outputs": [
        {
          "components": [
            {
              "internalType": "uint256",
              "name": "electionId",
              "type": "uint256"
            },
            {
              "internalType": "string",
              "name": "electionName",
              "type": "string"
            },
            {
              "internalType": "bool",
              "name": "isOpen",
              "type": "bool"
            },
            {
              "internalType": "string",
              "name": "startDate",
              "type": "string"
            },
            {
              "internalType": "string",
              "name": "endDate",
              "type": "string"
            },
            {
              "internalType": "string",
              "name": "domainFilter",
              "type": "string"
            }
          ],
          "internalType": "struct Voting.CreatedElections[]",
          "name": "",
          "type": "tuple[]"
        }
      ],
      "stateMutability": "view",
      "type": "function"
    },
    {
      "inputs": [
        {
          "internalType": "string",
          "name": "_owner",
          "type": "string"
        }
      ],
      "name": "getOwnedElectionNames",
      "outputs": [
        {
          "internalType": "string[]",
          "name": "",
          "type": "string[]"
        }
      ],
      "stateMutability": "view",
      "type": "function"
    },
    {
      "inputs": [
        {
          "internalType": "string",
          "name": "_owner",
          "type": "string"
        }
      ],
      "name": "getOwnedElectionIds",
      "outputs": [
        {
          "internalType": "uint256[]",
          "name": "",
          "type": "uint256[]"
        }
      ],
      "stateMutability": "view",
      "type": "function"
    },
    {
      "inputs": [
        {
          "internalType": "string",
          "name": "_name",
          "type": "string"
        }
      ],
      "name": "getElectionIdByName",
      "outputs": [
        {
          "internalType": "uint256",
          "name": "",
          "type": "uint256"
        }
      ],
      "stateMutability": "view",
      "type": "function"
    },
    {
      "inputs": [
        {
          "internalType": "uint256",
          "name": "_electionId",
          "type": "uint256"
        }
      ],
      "name": "getElectionDetails",
      "outputs": [
        {
          "internalType": "string",
          "name": "",
          "type": "string"
        },
        {
          "internalType": "bool",
          "name": "",
          "type": "bool"
        },
        {
          "internalType": "uint256",
          "name": "",
          "type": "uint256"
        },
        {
          "internalType": "string",
          "name": "",
          "type": "string"
        },
        {
          "internalType": "string",
          "name": "",
          "type": "string"
        },
        {
          "internalType": "string",
          "name": "",
          "type": "string"
        }
      ],
      "stateMutability": "view",
      "type": "function"
    },
    {
      "inputs": [
        {
          "internalType": "uint256",
          "name": "_electionId",
          "type": "uint256"
        }
      ],
      "name": "closeElection",
      "outputs": [],
      "stateMutability": "nonpayable",
      "type": "function"
    },
    {
      "inputs": [
        {
          "internalType": "uint256",
          "name": "_electionId",
          "type": "uint256"
        },
        {
          "internalType": "string[]",
          "name": "_names",
          "type": "string[]"
        },
        {
          "internalType": "string[]",
          "name": "_positions",
          "type": "string[]"
        },
        {
          "internalType": "string[]",
          "name": "_platforms",
          "type": "string[]"
        },
        {
          "internalType": "string[]",
          "name": "_cdns",
          "type": "string[]"
        },
        {
          "internalType": "string[]",
          "name": "_partylists",
          "type": "string[]"
        }
      ],
      "name": "addCandidates",
      "outputs": [],
      "stateMutability": "nonpayable",
      "type": "function"
    },
    {
      "inputs": [
        {
          "internalType": "uint256",
          "name": "_electionId",
          "type": "uint256"
        }
      ],
      "name": "getElectionCandidates",
      "outputs": [
        {
          "internalType": "string[]",
          "name": "",
          "type": "string[]"
        },
        {
          "internalType": "string[]",
          "name": "",
          "type": "string[]"
        },
        {
          "internalType": "string[]",
          "name": "",
          "type": "string[]"
        },
        {
          "internalType": "string[]",
          "name": "",
          "type": "string[]"
        },
        {
          "internalType": "string[]",
          "name": "",
          "type": "string[]"
        }
      ],
      "stateMutability": "view",
      "type": "function"
    },
    {
      "inputs": [
        {
          "internalType": "uint256",
          "name": "_electionId",
          "type": "uint256"
        }
      ],
      "name": "getElectionCandidateCount",
      "outputs": [
        {
          "internalType": "uint256",
          "name": "",
          "type": "uint256"
        }
      ],
      "stateMutability": "view",
      "type": "function"
    },
    {
      "inputs": [
        {
          "internalType": "uint256",
          "name": "_electionId",
          "type": "uint256"
        },
        {
          "internalType": "uint256",
          "name": "_candidateId",
          "type": "uint256"
        }
      ],
      "name": "getElectionCandidate",
      "outputs": [
        {
          "internalType": "string",
          "name": "",
          "type": "string"
        },
        {
          "internalType": "string",
          "name": "",
          "type": "string"
        },
        {
          "internalType": "string",
          "name": "",
          "type": "string"
        },
        {
          "internalType": "string",
          "name": "",
          "type": "string"
        },
        {
          "internalType": "string",
          "name": "",
          "type": "string"
        },
        {
          "internalType": "uint256",
          "name": "",
          "type": "uint256"
        }
      ],
      "stateMutability": "view",
      "type": "function"
    },
    {
      "inputs": [
        {
          "internalType": "uint256",
          "name": "_electionId",
          "type": "uint256"
        },
        {
          "internalType": "string",
          "name": "_name",
          "type": "string"
        }
      ],
      "name": "getCandidateIdByName",
      "outputs": [
        {
          "internalType": "uint256",
          "name": "",
          "type": "uint256"
        }
      ],
      "stateMutability": "view",
      "type": "function"
    },
    {
      "inputs": [
        {
          "internalType": "uint256",
          "name": "_electionId",
          "type": "uint256"
        },
        {
          "internalType": "uint256",
          "name": "_candidateId",
          "type": "uint256"
        },
        {
          "internalType": "string",
          "name": "_name",
          "type": "string"
        },
        {
          "internalType": "string",
          "name": "_position",
          "type": "string"
        },
        {
          "internalType": "string",
          "name": "_platform",
          "type": "string"
        },
        {
          "internalType": "string",
          "name": "_cdn",
          "type": "string"
        },
        {
          "internalType": "string",
          "name": "_partylist",
          "type": "string"
        }
      ],
      "name": "updateCandidate",
      "outputs": [],
      "stateMutability": "nonpayable",
      "type": "function"
    },
    {
      "inputs": [
        {
          "internalType": "uint256",
          "name": "_electionId",
          "type": "uint256"
        },
        {
          "internalType": "uint256",
          "name": "_candidateId",
          "type": "uint256"
        }
      ],
      "name": "deleteCandidate",
      "outputs": [],
      "stateMutability": "nonpayable",
      "type": "function"
    },
    {
      "inputs": [
        {
          "internalType": "uint256",
          "name": "_electionId",
          "type": "uint256"
        },
        {
          "internalType": "uint256[]",
          "name": "_candidateIds",
          "type": "uint256[]"
        },
        {
          "internalType": "string",
          "name": "_email",
          "type": "string"
        }
      ],
      "name": "vote",
      "outputs": [],
      "stateMutability": "nonpayable",
      "type": "function"
    },
    {
      "inputs": [
        {
          "internalType": "uint256",
          "name": "_electionId",
          "type": "uint256"
        }
      ],
      "name": "getElectionResults",
      "outputs": [
        {
          "internalType": "string[]",
          "name": "names",
          "type": "string[]"
        },
        {
          "internalType": "string[]",
          "name": "positions",
          "type": "string[]"
        },
        {
          "internalType": "string[]",
          "name": "partylists",
          "type": "string[]"
        },
        {
          "internalType": "uint256[]",
          "name": "votes",
          "type": "uint256[]"
        }
      ],
      "stateMutability": "view",
      "type": "function"
    },
    {
      "inputs": [
        {
          "internalType": "uint256",
          "name": "_electionId",
          "type": "uint256"
        }
      ],
      "name": "isElectionOpen",
      "outputs": [
        {
          "internalType": "bool",
          "name": "",
          "type": "bool"
        }
      ],
      "stateMutability": "view",
      "type": "function"
    }
  ],
  "bytecode": "0x608060405234801561000f575f80fd5b5061492d8061001d5f395ff3fe608060405234801561000f575f80fd5b5060043610610171575f3560e01c80635f5db526116100dc578063cf4a606011610095578063f60499241161006f578063f6049924146104c6578063f70171fb146104fb578063fa65dd3214610530578063fc265f061461056057610171565b8063cf4a606014610447578063e3f27e3d14610463578063e8ededa61461049357610171565b80635f5db5261461035c5780637ea7af0414610391578063997d2830146103c15780639b1b5a35146103df578063bade1157146103fb578063c14cfa211461042b57610171565b806326324f3a1161012e57806326324f3a1461025b57806343e18910146102775780634ba6b821146102a757806350efbc75146102d75780635e12845e146102f35780635e6fef011461032757610171565b806307ccd61714610175578063088b0663146101a557806309e33d07146101d55780631227dd41146101f1578063193bdd8a14610221578063213785a01461023d575b5f80fd5b61018f600480360381019061018a91906131c8565b61057c565b60405161019c91906132cf565b60405180910390f35b6101bf60048036038101906101ba9190613319565b61065b565b6040516101cc9190613353565b60405180910390f35b6101ef60048036038101906101ea9190613319565b610678565b005b61020b600480360381019061020691906131c8565b610706565b6040516102189190613556565b60405180910390f35b61023b60048036038101906102369190613658565b6109e2565b005b610245610a19565b6040516102529190613353565b60405180910390f35b610275600480360381019061027091906136ce565b610a22565b005b610291600480360381019061028c91906137f7565b610b45565b60405161029e9190613353565b60405180910390f35b6102c160048036038101906102bc91906131c8565b610c3e565b6040516102ce919061390c565b60405180910390f35b6102f160048036038101906102ec919061392c565b610d30565b005b61030d60048036038101906103089190613319565b610fa7565b60405161031e959493929190613a2f565b60405180910390f35b610341600480360381019061033c9190613319565b611591565b60405161035396959493929190613afa565b60405180910390f35b61037660048036038101906103719190613b75565b6117ed565b60405161038896959493929190613bcf565b60405180910390f35b6103ab60048036038101906103a691906131c8565b611a7a565b6040516103b8919061390c565b60405180910390f35b6103c9611bf6565b6040516103d69190613353565b60405180910390f35b6103f960048036038101906103f49190613c4a565b611bfc565b005b610415600480360381019061041091906131c8565b611d90565b6040516104229190613353565b60405180910390f35b61044560048036038101906104409190613e1f565b611e6e565b005b610461600480360381019061045c9190613ea7565b612067565b005b61047d60048036038101906104789190613319565b612221565b60405161048a9190613ee5565b60405180910390f35b6104ad60048036038101906104a89190613319565b61224f565b6040516104bd9493929190613efe565b60405180910390f35b6104e060048036038101906104db9190613319565b61264d565b6040516104f296959493929190613afa565b60405180910390f35b61051560048036038101906105109190613ea7565b6128cd565b60405161052796959493929190613f5d565b60405180910390f35b61054a60048036038101906105459190613b75565b612c89565b6040516105579190613fdf565b60405180910390f35b61057a60048036038101906105759190613fff565b612d52565b005b60605f808360405161058e919061414e565b908152602001604051809103902090505f818054905067ffffffffffffffff8111156105bd576105bc6130a4565b5b6040519080825280602002602001820160405280156105eb5781602001602082028036833780820191505090505b5090505f5b82805490508110156106505782818154811061060f5761060e614164565b5b905f5260205f2090600602015f015482828151811061063157610630614164565b5b6020026020010181815250508080610648906141be565b9150506105f0565b508092505050919050565b5f60025f8381526020019081526020015f20600301549050919050565b60025f8281526020019081526020015f206001015f9054906101000a900460ff166106d8576040517f08c379a00000000000000000000000000000000000000000000000000000000081526004016106cf9061424f565b60405180910390fd5b5f60025f8381526020019081526020015f206001015f6101000a81548160ff02191690831515021790555050565b60605f82604051610717919061414e565b9081526020016040518091039020805480602002602001604051908101604052809291908181526020015f905b828210156109d7578382905f5260205f2090600602016040518060c00160405290815f820154815260200160018201805461077e9061429a565b80601f01602080910402602001604051908101604052809291908181526020018280546107aa9061429a565b80156107f55780601f106107cc576101008083540402835291602001916107f5565b820191905f5260205f20905b8154815290600101906020018083116107d857829003601f168201915b50505050508152602001600282015f9054906101000a900460ff161515151581526020016003820180546108289061429a565b80601f01602080910402602001604051908101604052809291908181526020018280546108549061429a565b801561089f5780601f106108765761010080835404028352916020019161089f565b820191905f5260205f20905b81548152906001019060200180831161088257829003601f168201915b505050505081526020016004820180546108b89061429a565b80601f01602080910402602001604051908101604052809291908181526020018280546108e49061429a565b801561092f5780601f106109065761010080835404028352916020019161092f565b820191905f5260205f20905b81548152906001019060200180831161091257829003601f168201915b505050505081526020016005820180546109489061429a565b80601f01602080910402602001604051908101604052809291908181526020018280546109749061429a565b80156109bf5780601f10610996576101008083540402835291602001916109bf565b820191905f5260205f20905b8154815290600101906020018083116109a257829003601f168201915b50505050508152505081526020019060010190610744565b505050509050919050565b806001836040516109f3919061414e565b90815260200160405180910390209080519060200190610a14929190612fa9565b505050565b5f600354905090565b5f60025f8981526020019081526020015f2090505f87118015610a49575080600301548711155b610a88576040517f08c379a0000000000000000000000000000000000000000000000000000000008152600401610a7f90614314565b60405180910390fd5b85816002015f8981526020019081526020015f205f019081610aaa91906144cf565b5084816002015f8981526020019081526020015f206002019081610ace91906144cf565b5083816002015f8981526020019081526020015f206003019081610af291906144cf565b5082816002015f8981526020019081526020015f206004019081610b1691906144cf565b5081816002015f8981526020019081526020015f206001019081610b3a91906144cf565b505050505050505050565b5f8060025f8581526020019081526020015f2090505f600190505b81600301548111610c3257610c10826002015f8381526020019081526020015f205f018054610b8e9061429a565b80601f0160208091040260200160405190810160405280929190818152602001828054610bba9061429a565b8015610c055780601f10610bdc57610100808354040283529160200191610c05565b820191905f5260205f20905b815481529060010190602001808311610be857829003601f168201915b505050505085612f51565b15610c1f578092505050610c38565b8080610c2a906141be565b915050610b60565b505f9150505b92915050565b6060600182604051610c50919061414e565b9081526020016040518091039020805480602002602001604051908101604052809291908181526020015f905b82821015610d25578382905f5260205f20018054610c9a9061429a565b80601f0160208091040260200160405190810160405280929190818152602001828054610cc69061429a565b8015610d115780601f10610ce857610100808354040283529160200191610d11565b820191905f5260205f20905b815481529060010190602001808311610cf457829003601f168201915b505050505081526020019060010190610c7d565b505050509050919050565b60035f815480929190610d42906141be565b91905055508460025f60035481526020019081526020015f205f019081610d6991906144cf565b50600160025f60035481526020019081526020015f206001015f6101000a81548160ff0219169083151502179055505f60025f60035481526020019081526020015f20600301819055508360025f60035481526020019081526020015f206004019081610dd691906144cf565b508260025f60035481526020019081526020015f206005019081610dfa91906144cf565b508160025f60035481526020019081526020015f206006019081610e1e91906144cf565b505f60025f60035481526020019081526020015f2060070182604051610e44919061414e565b90815260200160405180910390205f6101000a81548160ff0219169083151502179055505f81604051610e77919061414e565b90815260200160405180910390206040518060c00160405280600354815260200187815260200160011515815260200186815260200185815260200184815250908060018154018082558091505060019003905f5260205f2090600602015f909190919091505f820151815f01556020820151816001019081610efa91906144cf565b506040820151816002015f6101000a81548160ff0219169083151502179055506060820151816003019081610f2f91906144cf565b506080820151816004019081610f4591906144cf565b5060a0820151816005019081610f5b91906144cf565b5050506003547f435a551a24152de0a9f215e3ae7a91ffbdb1f80ec47fa68eb04bfaf5d434de078686868686604051610f9895949392919061459e565b60405180910390a25050505050565b60608060608060605f60025f8881526020019081526020015f2090505f816003015467ffffffffffffffff811115610fe257610fe16130a4565b5b60405190808252806020026020018201604052801561101557816020015b60608152602001906001900390816110005790505b5090505f826003015467ffffffffffffffff811115611037576110366130a4565b5b60405190808252806020026020018201604052801561106a57816020015b60608152602001906001900390816110555790505b5090505f836003015467ffffffffffffffff81111561108c5761108b6130a4565b5b6040519080825280602002602001820160405280156110bf57816020015b60608152602001906001900390816110aa5790505b5090505f846003015467ffffffffffffffff8111156110e1576110e06130a4565b5b60405190808252806020026020018201604052801561111457816020015b60608152602001906001900390816110ff5790505b5090505f856003015467ffffffffffffffff811115611136576111356130a4565b5b60405190808252806020026020018201604052801561116957816020015b60608152602001906001900390816111545790505b5090505f600190505b8660030154811161157257866002015f8281526020019081526020015f205f01805461119d9061429a565b80601f01602080910402602001604051908101604052809291908181526020018280546111c99061429a565b80156112145780601f106111eb57610100808354040283529160200191611214565b820191905f5260205f20905b8154815290600101906020018083116111f757829003601f168201915b5050505050866001836112279190614612565b8151811061123857611237614164565b5b6020026020010181905250866002015f8281526020019081526020015f2060020180546112649061429a565b80601f01602080910402602001604051908101604052809291908181526020018280546112909061429a565b80156112db5780601f106112b2576101008083540402835291602001916112db565b820191905f5260205f20905b8154815290600101906020018083116112be57829003601f168201915b5050505050856001836112ee9190614612565b815181106112ff576112fe614164565b5b6020026020010181905250866002015f8281526020019081526020015f20600301805461132b9061429a565b80601f01602080910402602001604051908101604052809291908181526020018280546113579061429a565b80156113a25780601f10611379576101008083540402835291602001916113a2565b820191905f5260205f20905b81548152906001019060200180831161138557829003601f168201915b5050505050846001836113b59190614612565b815181106113c6576113c5614164565b5b6020026020010181905250866002015f8281526020019081526020015f2060040180546113f29061429a565b80601f016020809104026020016040519081016040528092919081815260200182805461141e9061429a565b80156114695780601f1061144057610100808354040283529160200191611469565b820191905f5260205f20905b81548152906001019060200180831161144c57829003601f168201915b50505050508360018361147c9190614612565b8151811061148d5761148c614164565b5b6020026020010181905250866002015f8281526020019081526020015f2060010180546114b99061429a565b80601f01602080910402602001604051908101604052809291908181526020018280546114e59061429a565b80156115305780601f1061150757610100808354040283529160200191611530565b820191905f5260205f20905b81548152906001019060200180831161151357829003601f168201915b5050505050826001836115439190614612565b8151811061155457611553614164565b5b6020026020010181905250808061156a906141be565b915050611172565b5084848484849a509a509a509a509a5050505050505091939590929450565b6002602052805f5260405f205f91509050805f0180546115b09061429a565b80601f01602080910402602001604051908101604052809291908181526020018280546115dc9061429a565b80156116275780601f106115fe57610100808354040283529160200191611627565b820191905f5260205f20905b81548152906001019060200180831161160a57829003601f168201915b505050505090806001015f9054906101000a900460ff16908060030154908060040180546116549061429a565b80601f01602080910402602001604051908101604052809291908181526020018280546116809061429a565b80156116cb5780601f106116a2576101008083540402835291602001916116cb565b820191905f5260205f20905b8154815290600101906020018083116116ae57829003601f168201915b5050505050908060050180546116e09061429a565b80601f016020809104026020016040519081016040528092919081815260200182805461170c9061429a565b80156117575780601f1061172e57610100808354040283529160200191611757565b820191905f5260205f20905b81548152906001019060200180831161173a57829003601f168201915b50505050509080600601805461176c9061429a565b80601f01602080910402602001604051908101604052809291908181526020018280546117989061429a565b80156117e35780601f106117ba576101008083540402835291602001916117e3565b820191905f5260205f20905b8154815290600101906020018083116117c657829003601f168201915b5050505050905086565b5f82805160208101820180518482526020830160208501208183528095505050505050818154811061181d575f80fd5b905f5260205f2090600602015f9150915050805f0154908060010180546118439061429a565b80601f016020809104026020016040519081016040528092919081815260200182805461186f9061429a565b80156118ba5780601f10611891576101008083540402835291602001916118ba565b820191905f5260205f20905b81548152906001019060200180831161189d57829003601f168201915b505050505090806002015f9054906101000a900460ff16908060030180546118e19061429a565b80601f016020809104026020016040519081016040528092919081815260200182805461190d9061429a565b80156119585780601f1061192f57610100808354040283529160200191611958565b820191905f5260205f20905b81548152906001019060200180831161193b57829003601f168201915b50505050509080600401805461196d9061429a565b80601f01602080910402602001604051908101604052809291908181526020018280546119999061429a565b80156119e45780601f106119bb576101008083540402835291602001916119e4565b820191905f5260205f20905b8154815290600101906020018083116119c757829003601f168201915b5050505050908060050180546119f99061429a565b80601f0160208091040260200160405190810160405280929190818152602001828054611a259061429a565b8015611a705780601f10611a4757610100808354040283529160200191611a70565b820191905f5260205f20905b815481529060010190602001808311611a5357829003601f168201915b5050505050905086565b60605f8083604051611a8c919061414e565b908152602001604051809103902090505f818054905067ffffffffffffffff811115611abb57611aba6130a4565b5b604051908082528060200260200182016040528015611aee57816020015b6060815260200190600190039081611ad95790505b5090505f5b8280549050811015611beb5760025f848381548110611b1557611b14614164565b5b905f5260205f2090600602015f015481526020019081526020015f205f018054611b3e9061429a565b80601f0160208091040260200160405190810160405280929190818152602001828054611b6a9061429a565b8015611bb55780601f10611b8c57610100808354040283529160200191611bb5565b820191905f5260205f20905b815481529060010190602001808311611b9857829003601f168201915b5050505050828281518110611bcd57611bcc614164565b5b60200260200101819052508080611be3906141be565b915050611af3565b508092505050919050565b60035481565b5f60025f8881526020019081526020015f20905085815f019081611c2091906144cf565b5084816004019081611c3291906144cf565b5083816005019081611c4491906144cf565b5082816006019081611c5691906144cf565b505f8083604051611c67919061414e565b908152602001604051809103902090505f5b8180549050811015611d855788828281548110611c9957611c98614164565b5b905f5260205f2090600602015f015403611d725787828281548110611cc157611cc0614164565b5b905f5260205f2090600602016001019081611cdc91906144cf565b5086828281548110611cf157611cf0614164565b5b905f5260205f2090600602016003019081611d0c91906144cf565b5085828281548110611d2157611d20614164565b5b905f5260205f2090600602016004019081611d3c91906144cf565b5084828281548110611d5157611d50614164565b5b905f5260205f2090600602016005019081611d6c91906144cf565b50611d85565b8080611d7d906141be565b915050611c79565b505050505050505050565b5f80600190505b6003548111611e6457611e4360025f8381526020019081526020015f205f018054611dc19061429a565b80601f0160208091040260200160405190810160405280929190818152602001828054611ded9061429a565b8015611e385780601f10611e0f57610100808354040283529160200191611e38565b820191905f5260205f20905b815481529060010190602001808311611e1b57829003601f168201915b505050505084612f51565b15611e515780915050611e69565b8080611e5c906141be565b915050611d97565b505f90505b919050565b5f60025f8581526020019081526020015f209050806001015f9054906101000a900460ff16611ed2576040517f08c379a0000000000000000000000000000000000000000000000000000000008152600401611ec99061468f565b60405180910390fd5b8060070182604051611ee4919061414e565b90815260200160405180910390205f9054906101000a900460ff1615611f3f576040517f08c379a0000000000000000000000000000000000000000000000000000000008152600401611f36906146f7565b60405180910390fd5b5f5b8351811015612028575f848281518110611f5e57611f5d614164565b5b6020026020010151118015611f9157508160030154848281518110611f8657611f85614164565b5b602002602001015111155b611fd0576040517f08c379a0000000000000000000000000000000000000000000000000000000008152600401611fc790614314565b60405180910390fd5b816002015f858381518110611fe857611fe7614164565b5b602002602001015181526020019081526020015f206005015f815480929190612010906141be565b91905055508080612020906141be565b915050611f41565b506001816007018360405161203d919061414e565b90815260200160405180910390205f6101000a81548160ff02191690831515021790555050505050565b5f60025f8481526020019081526020015f2090505f8211801561208e575080600301548211155b6120cd576040517f08c379a00000000000000000000000000000000000000000000000000000000081526004016120c490614314565b60405180910390fd5b5f8290505b816003015481101561219757816002015f6001836120f09190614715565b81526020019081526020015f20826002015f8381526020019081526020015f205f8201815f019081612122919061475d565b5060018201816001019081612137919061475d565b506002820181600201908161214c919061475d565b5060038201816003019081612161919061475d565b5060048201816004019081612176919061475d565b5060058201548160050155905050808061218f906141be565b9150506120d2565b50806002015f826003015481526020019081526020015f205f8082015f6121be9190613000565b600182015f6121cd9190613000565b600282015f6121dc9190613000565b600382015f6121eb9190613000565b600482015f6121fa9190613000565b600582015f90555050806003015f81548092919061221790614842565b9190505550505050565b5f8060025f8481526020019081526020015f209050806001015f9054906101000a900460ff16915050919050565b6060806060805f60025f8781526020019081526020015f2090505f816003015490508067ffffffffffffffff81111561228b5761228a6130a4565b5b6040519080825280602002602001820160405280156122be57816020015b60608152602001906001900390816122a95790505b5095508067ffffffffffffffff8111156122db576122da6130a4565b5b60405190808252806020026020018201604052801561230e57816020015b60608152602001906001900390816122f95790505b5094508067ffffffffffffffff81111561232b5761232a6130a4565b5b60405190808252806020026020018201604052801561235e57816020015b60608152602001906001900390816123495790505b5093508067ffffffffffffffff81111561237b5761237a6130a4565b5b6040519080825280602002602001820160405280156123a95781602001602082028036833780820191505090505b5092505f600190505b818111612643575f6001826123c79190614612565b9050836002015f8381526020019081526020015f205f0180546123e99061429a565b80601f01602080910402602001604051908101604052809291908181526020018280546124159061429a565b80156124605780601f1061243757610100808354040283529160200191612460565b820191905f5260205f20905b81548152906001019060200180831161244357829003601f168201915b505050505088828151811061247857612477614164565b5b6020026020010181905250836002015f8381526020019081526020015f2060020180546124a49061429a565b80601f01602080910402602001604051908101604052809291908181526020018280546124d09061429a565b801561251b5780601f106124f25761010080835404028352916020019161251b565b820191905f5260205f20905b8154815290600101906020018083116124fe57829003601f168201915b505050505087828151811061253357612532614164565b5b6020026020010181905250836002015f8381526020019081526020015f20600101805461255f9061429a565b80601f016020809104026020016040519081016040528092919081815260200182805461258b9061429a565b80156125d65780601f106125ad576101008083540402835291602001916125d6565b820191905f5260205f20905b8154815290600101906020018083116125b957829003601f168201915b50505050508682815181106125ee576125ed614164565b5b6020026020010181905250836002015f8381526020019081526020015f206005015485828151811061262357612622614164565b5b60200260200101818152505050808061263b906141be565b9150506123b2565b5050509193509193565b60605f8060608060605f60025f8981526020019081526020015f209050805f01816001015f9054906101000a900460ff16826003015483600401846005018560060185805461269b9061429a565b80601f01602080910402602001604051908101604052809291908181526020018280546126c79061429a565b80156127125780601f106126e957610100808354040283529160200191612712565b820191905f5260205f20905b8154815290600101906020018083116126f557829003601f168201915b505050505095508280546127259061429a565b80601f01602080910402602001604051908101604052809291908181526020018280546127519061429a565b801561279c5780601f106127735761010080835404028352916020019161279c565b820191905f5260205f20905b81548152906001019060200180831161277f57829003601f168201915b505050505092508180546127af9061429a565b80601f01602080910402602001604051908101604052809291908181526020018280546127db9061429a565b80156128265780601f106127fd57610100808354040283529160200191612826565b820191905f5260205f20905b81548152906001019060200180831161280957829003601f168201915b505050505091508080546128399061429a565b80601f01602080910402602001604051908101604052809291908181526020018280546128659061429a565b80156128b05780601f10612887576101008083540402835291602001916128b0565b820191905f5260205f20905b81548152906001019060200180831161289357829003601f168201915b505050505090509650965096509650965096505091939550919395565b60608060608060605f8060025f8a81526020019081526020015f2090505f881180156128fd575080600301548811155b61293c576040517f08c379a000000000000000000000000000000000000000000000000000000000815260040161293390614314565b60405180910390fd5b806002015f8981526020019081526020015f205f01816002015f8a81526020019081526020015f20600201826002015f8b81526020019081526020015f20600301836002015f8c81526020019081526020015f20600401846002015f8d81526020019081526020015f20600101856002015f8e81526020019081526020015f20600501548580546129cc9061429a565b80601f01602080910402602001604051908101604052809291908181526020018280546129f89061429a565b8015612a435780601f10612a1a57610100808354040283529160200191612a43565b820191905f5260205f20905b815481529060010190602001808311612a2657829003601f168201915b50505050509550848054612a569061429a565b80601f0160208091040260200160405190810160405280929190818152602001828054612a829061429a565b8015612acd5780601f10612aa457610100808354040283529160200191612acd565b820191905f5260205f20905b815481529060010190602001808311612ab057829003601f168201915b50505050509450838054612ae09061429a565b80601f0160208091040260200160405190810160405280929190818152602001828054612b0c9061429a565b8015612b575780601f10612b2e57610100808354040283529160200191612b57565b820191905f5260205f20905b815481529060010190602001808311612b3a57829003601f168201915b50505050509350828054612b6a9061429a565b80601f0160208091040260200160405190810160405280929190818152602001828054612b969061429a565b8015612be15780601f10612bb857610100808354040283529160200191612be1565b820191905f5260205f20905b815481529060010190602001808311612bc457829003601f168201915b50505050509250818054612bf49061429a565b80601f0160208091040260200160405190810160405280929190818152602001828054612c209061429a565b8015612c6b5780601f10612c4257610100808354040283529160200191612c6b565b820191905f5260205f20905b815481529060010190602001808311612c4e57829003601f168201915b50505050509150965096509650965096509650509295509295509295565b6001828051602081018201805184825260208301602085012081835280955050505050508181548110612cba575f80fd5b905f5260205f20015f91509150508054612cd39061429a565b80601f0160208091040260200160405190810160405280929190818152602001828054612cff9061429a565b8015612d4a5780601f10612d2157610100808354040283529160200191612d4a565b820191905f5260205f20905b815481529060010190602001808311612d2d57829003601f168201915b505050505081565b83518551148015612d64575082518451145b8015612d71575081518351145b8015612d7e575080518251145b612dbd576040517f08c379a0000000000000000000000000000000000000000000000000000000008152600401612db4906148d9565b60405180910390fd5b5f60025f8881526020019081526020015f2090505f5b8651811015612f4757816003015f815480929190612df0906141be565b91905055506040518060c00160405280888381518110612e1357612e12614164565b5b60200260200101518152602001848381518110612e3357612e32614164565b5b60200260200101518152602001878381518110612e5357612e52614164565b5b60200260200101518152602001868381518110612e7357612e72614164565b5b60200260200101518152602001858381518110612e9357612e92614164565b5b602002602001015181526020015f815250826002015f846003015481526020019081526020015f205f820151815f019081612ece91906144cf565b506020820151816001019081612ee491906144cf565b506040820151816002019081612efa91906144cf565b506060820151816003019081612f1091906144cf565b506080820151816004019081612f2691906144cf565b5060a082015181600501559050508080612f3f906141be565b915050612dd3565b5050505050505050565b5f81604051602001612f63919061414e565b6040516020818303038152906040528051906020012083604051602001612f8a919061414e565b6040516020818303038152906040528051906020012014905092915050565b828054828255905f5260205f20908101928215612fef579160200282015b82811115612fee578251829081612fde91906144cf565b5091602001919060010190612fc7565b5b509050612ffc919061303d565b5090565b50805461300c9061429a565b5f825580601f1061301d575061303a565b601f0160209004905f5260205f20908101906130399190613060565b5b50565b5b8082111561305c575f81816130539190613000565b5060010161303e565b5090565b5b80821115613077575f815f905550600101613061565b5090565b5f604051905090565b5f80fd5b5f80fd5b5f80fd5b5f80fd5b5f601f19601f8301169050919050565b7f4e487b71000000000000000000000000000000000000000000000000000000005f52604160045260245ffd5b6130da82613094565b810181811067ffffffffffffffff821117156130f9576130f86130a4565b5b80604052505050565b5f61310b61307b565b905061311782826130d1565b919050565b5f67ffffffffffffffff821115613136576131356130a4565b5b61313f82613094565b9050602081019050919050565b828183375f83830152505050565b5f61316c6131678461311c565b613102565b90508281526020810184848401111561318857613187613090565b5b61319384828561314c565b509392505050565b5f82601f8301126131af576131ae61308c565b5b81356131bf84826020860161315a565b91505092915050565b5f602082840312156131dd576131dc613084565b5b5f82013567ffffffffffffffff8111156131fa576131f9613088565b5b6132068482850161319b565b91505092915050565b5f81519050919050565b5f82825260208201905092915050565b5f819050602082019050919050565b5f819050919050565b61324a81613238565b82525050565b5f61325b8383613241565b60208301905092915050565b5f602082019050919050565b5f61327d8261320f565b6132878185613219565b935061329283613229565b805f5b838110156132c25781516132a98882613250565b97506132b483613267565b925050600181019050613295565b5085935050505092915050565b5f6020820190508181035f8301526132e78184613273565b905092915050565b6132f881613238565b8114613302575f80fd5b50565b5f81359050613313816132ef565b92915050565b5f6020828403121561332e5761332d613084565b5b5f61333b84828501613305565b91505092915050565b61334d81613238565b82525050565b5f6020820190506133665f830184613344565b92915050565b5f81519050919050565b5f82825260208201905092915050565b5f819050602082019050919050565b5f81519050919050565b5f82825260208201905092915050565b5f5b838110156133cc5780820151818401526020810190506133b1565b5f8484015250505050565b5f6133e182613395565b6133eb818561339f565b93506133fb8185602086016133af565b61340481613094565b840191505092915050565b5f8115159050919050565b6134238161340f565b82525050565b5f60c083015f83015161343e5f860182613241565b506020830151848203602086015261345682826133d7565b915050604083015161346b604086018261341a565b506060830151848203606086015261348382826133d7565b9150506080830151848203608086015261349d82826133d7565b91505060a083015184820360a08601526134b782826133d7565b9150508091505092915050565b5f6134cf8383613429565b905092915050565b5f602082019050919050565b5f6134ed8261336c565b6134f78185613376565b93508360208202850161350985613386565b805f5b85811015613544578484038952815161352585826134c4565b9450613530836134d7565b925060208a0199505060018101905061350c565b50829750879550505050505092915050565b5f6020820190508181035f83015261356e81846134e3565b905092915050565b5f67ffffffffffffffff8211156135905761358f6130a4565b5b602082029050602081019050919050565b5f80fd5b5f6135b76135b284613576565b613102565b905080838252602082019050602084028301858111156135da576135d96135a1565b5b835b8181101561362157803567ffffffffffffffff8111156135ff576135fe61308c565b5b80860161360c898261319b565b855260208501945050506020810190506135dc565b5050509392505050565b5f82601f83011261363f5761363e61308c565b5b813561364f8482602086016135a5565b91505092915050565b5f806040838503121561366e5761366d613084565b5b5f83013567ffffffffffffffff81111561368b5761368a613088565b5b6136978582860161319b565b925050602083013567ffffffffffffffff8111156136b8576136b7613088565b5b6136c48582860161362b565b9150509250929050565b5f805f805f805f60e0888a0312156136e9576136e8613084565b5b5f6136f68a828b01613305565b97505060206137078a828b01613305565b965050604088013567ffffffffffffffff81111561372857613727613088565b5b6137348a828b0161319b565b955050606088013567ffffffffffffffff81111561375557613754613088565b5b6137618a828b0161319b565b945050608088013567ffffffffffffffff81111561378257613781613088565b5b61378e8a828b0161319b565b93505060a088013567ffffffffffffffff8111156137af576137ae613088565b5b6137bb8a828b0161319b565b92505060c088013567ffffffffffffffff8111156137dc576137db613088565b5b6137e88a828b0161319b565b91505092959891949750929550565b5f806040838503121561380d5761380c613084565b5b5f61381a85828601613305565b925050602083013567ffffffffffffffff81111561383b5761383a613088565b5b6138478582860161319b565b9150509250929050565b5f81519050919050565b5f82825260208201905092915050565b5f819050602082019050919050565b5f61388583836133d7565b905092915050565b5f602082019050919050565b5f6138a382613851565b6138ad818561385b565b9350836020820285016138bf8561386b565b805f5b858110156138fa57848403895281516138db858261387a565b94506138e68361388d565b925060208a019950506001810190506138c2565b50829750879550505050505092915050565b5f6020820190508181035f8301526139248184613899565b905092915050565b5f805f805f60a0868803121561394557613944613084565b5b5f86013567ffffffffffffffff81111561396257613961613088565b5b61396e8882890161319b565b955050602086013567ffffffffffffffff81111561398f5761398e613088565b5b61399b8882890161319b565b945050604086013567ffffffffffffffff8111156139bc576139bb613088565b5b6139c88882890161319b565b935050606086013567ffffffffffffffff8111156139e9576139e8613088565b5b6139f58882890161319b565b925050608086013567ffffffffffffffff811115613a1657613a15613088565b5b613a228882890161319b565b9150509295509295909350565b5f60a0820190508181035f830152613a478188613899565b90508181036020830152613a5b8187613899565b90508181036040830152613a6f8186613899565b90508181036060830152613a838185613899565b90508181036080830152613a978184613899565b90509695505050505050565b5f82825260208201905092915050565b5f613abd82613395565b613ac78185613aa3565b9350613ad78185602086016133af565b613ae081613094565b840191505092915050565b613af48161340f565b82525050565b5f60c0820190508181035f830152613b128189613ab3565b9050613b216020830188613aeb565b613b2e6040830187613344565b8181036060830152613b408186613ab3565b90508181036080830152613b548185613ab3565b905081810360a0830152613b688184613ab3565b9050979650505050505050565b5f8060408385031215613b8b57613b8a613084565b5b5f83013567ffffffffffffffff811115613ba857613ba7613088565b5b613bb48582860161319b565b9250506020613bc585828601613305565b9150509250929050565b5f60c082019050613be25f830189613344565b8181036020830152613bf48188613ab3565b9050613c036040830187613aeb565b8181036060830152613c158186613ab3565b90508181036080830152613c298185613ab3565b905081810360a0830152613c3d8184613ab3565b9050979650505050505050565b5f805f805f8060c08789031215613c6457613c63613084565b5b5f613c7189828a01613305565b965050602087013567ffffffffffffffff811115613c9257613c91613088565b5b613c9e89828a0161319b565b955050604087013567ffffffffffffffff811115613cbf57613cbe613088565b5b613ccb89828a0161319b565b945050606087013567ffffffffffffffff811115613cec57613ceb613088565b5b613cf889828a0161319b565b935050608087013567ffffffffffffffff811115613d1957613d18613088565b5b613d2589828a0161319b565b92505060a087013567ffffffffffffffff811115613d4657613d45613088565b5b613d5289828a0161319b565b9150509295509295509295565b5f67ffffffffffffffff821115613d7957613d786130a4565b5b602082029050602081019050919050565b5f613d9c613d9784613d5f565b613102565b90508083825260208201905060208402830185811115613dbf57613dbe6135a1565b5b835b81811015613de85780613dd48882613305565b845260208401935050602081019050613dc1565b5050509392505050565b5f82601f830112613e0657613e0561308c565b5b8135613e16848260208601613d8a565b91505092915050565b5f805f60608486031215613e3657613e35613084565b5b5f613e4386828701613305565b935050602084013567ffffffffffffffff811115613e6457613e63613088565b5b613e7086828701613df2565b925050604084013567ffffffffffffffff811115613e9157613e90613088565b5b613e9d8682870161319b565b9150509250925092565b5f8060408385031215613ebd57613ebc613084565b5b5f613eca85828601613305565b9250506020613edb85828601613305565b9150509250929050565b5f602082019050613ef85f830184613aeb565b92915050565b5f6080820190508181035f830152613f168187613899565b90508181036020830152613f2a8186613899565b90508181036040830152613f3e8185613899565b90508181036060830152613f528184613273565b905095945050505050565b5f60c0820190508181035f830152613f758189613ab3565b90508181036020830152613f898188613ab3565b90508181036040830152613f9d8187613ab3565b90508181036060830152613fb18186613ab3565b90508181036080830152613fc58185613ab3565b9050613fd460a0830184613344565b979650505050505050565b5f6020820190508181035f830152613ff78184613ab3565b905092915050565b5f805f805f8060c0878903121561401957614018613084565b5b5f61402689828a01613305565b965050602087013567ffffffffffffffff81111561404757614046613088565b5b61405389828a0161362b565b955050604087013567ffffffffffffffff81111561407457614073613088565b5b61408089828a0161362b565b945050606087013567ffffffffffffffff8111156140a1576140a0613088565b5b6140ad89828a0161362b565b935050608087013567ffffffffffffffff8111156140ce576140cd613088565b5b6140da89828a0161362b565b92505060a087013567ffffffffffffffff8111156140fb576140fa613088565b5b61410789828a0161362b565b9150509295509295509295565b5f81905092915050565b5f61412882613395565b6141328185614114565b93506141428185602086016133af565b80840191505092915050565b5f614159828461411e565b915081905092915050565b7f4e487b71000000000000000000000000000000000000000000000000000000005f52603260045260245ffd5b7f4e487b71000000000000000000000000000000000000000000000000000000005f52601160045260245ffd5b5f6141c882613238565b91507fffffffffffffffffffffffffffffffffffffffffffffffffffffffffffffffff82036141fa576141f9614191565b5b600182019050919050565b7f456c656374696f6e20697320616c726561647920636c6f7365640000000000005f82015250565b5f614239601a83613aa3565b915061424482614205565b602082019050919050565b5f6020820190508181035f8301526142668161422d565b9050919050565b7f4e487b71000000000000000000000000000000000000000000000000000000005f52602260045260245ffd5b5f60028204905060018216806142b157607f821691505b6020821081036142c4576142c361426d565b5b50919050565b7f496e76616c69642063616e6469646174652049440000000000000000000000005f82015250565b5f6142fe601483613aa3565b9150614309826142ca565b602082019050919050565b5f6020820190508181035f83015261432b816142f2565b9050919050565b5f819050815f5260205f209050919050565b5f6020601f8301049050919050565b5f82821b905092915050565b5f6008830261438e7fffffffffffffffffffffffffffffffffffffffffffffffffffffffffffffffff82614353565b6143988683614353565b95508019841693508086168417925050509392505050565b5f819050919050565b5f6143d36143ce6143c984613238565b6143b0565b613238565b9050919050565b5f819050919050565b6143ec836143b9565b6144006143f8826143da565b84845461435f565b825550505050565b5f90565b614414614408565b61441f8184846143e3565b505050565b5b81811015614442576144375f8261440c565b600181019050614425565b5050565b601f8211156144875761445881614332565b61446184614344565b81016020851015614470578190505b61448461447c85614344565b830182614424565b50505b505050565b5f82821c905092915050565b5f6144a75f198460080261448c565b1980831691505092915050565b5f6144bf8383614498565b9150826002028217905092915050565b6144d882613395565b67ffffffffffffffff8111156144f1576144f06130a4565b5b6144fb825461429a565b614506828285614446565b5f60209050601f831160018114614537575f8415614525578287015190505b61452f85826144b4565b865550614596565b601f19841661454586614332565b5f5b8281101561456c57848901518255600182019150602085019450602081019050614547565b868310156145895784890151614585601f891682614498565b8355505b6001600288020188555050505b505050505050565b5f60a0820190508181035f8301526145b68188613ab3565b905081810360208301526145ca8187613ab3565b905081810360408301526145de8186613ab3565b905081810360608301526145f28185613ab3565b905081810360808301526146068184613ab3565b90509695505050505050565b5f61461c82613238565b915061462783613238565b925082820390508181111561463f5761463e614191565b5b92915050565b7f456c656374696f6e20697320636c6f73656400000000000000000000000000005f82015250565b5f614679601283613aa3565b915061468482614645565b602082019050919050565b5f6020820190508181035f8301526146a68161466d565b9050919050565b7f416c726561647920766f746564000000000000000000000000000000000000005f82015250565b5f6146e1600d83613aa3565b91506146ec826146ad565b602082019050919050565b5f6020820190508181035f83015261470e816146d5565b9050919050565b5f61471f82613238565b915061472a83613238565b925082820190508082111561474257614741614191565b5b92915050565b5f815490506147568161429a565b9050919050565b81810361476b575050614840565b61477482614748565b67ffffffffffffffff81111561478d5761478c6130a4565b5b614797825461429a565b6147a2828285614446565b5f601f8311600181146147cf575f84156147bd578287015490505b6147c785826144b4565b865550614839565b601f1984166147dd87614332565b96506147e886614332565b5f5b8281101561480f578489015482556001820191506001850194506020810190506147ea565b8683101561482c5784890154614828601f891682614498565b8355505b6001600288020188555050505b5050505050505b565b5f61484c82613238565b91505f820361485e5761485d614191565b5b600182039050919050565b7f496e70757420617272617973206d75737420686176652073616d65206c656e675f8201527f7468000000000000000000000000000000000000000000000000000000000000602082015250565b5f6148c3602283613aa3565b91506148ce82614869565b604082019050919050565b5f6020820190508181035f8301526148f0816148b7565b905091905056fea264697066735822122097d39f702a992a4daf5d3394b811e63c18dc94fd48cabef543125584ba3dca9264736f6c63430008140033",
  "immutableReferences": {},
  "source": "// SPDX-License-Identifier: MIT\r\npragma solidity >=0.4.21 <=0.8.20;\r\npragma experimental ABIEncoderV2;\r\n\r\ncontract Voting {\r\n    // ============================\r\n    // Structs & Storage\r\n    // ============================\r\n\r\n    struct CreatedElections {\r\n        uint256 electionId;\r\n        string electionName;\r\n        bool isOpen;\r\n        string startDate;\r\n        string endDate;\r\n        string domainFilter;\r\n    }\r\n\r\n    struct Candidate {\r\n        string name;\r\n        string partylist;\r\n        string position;\r\n        string platform;\r\n        string cdn;\r\n        uint256 voteCount;\r\n    }\r\n\r\n    event ElectionCreated(\r\n        uint256 indexed electionId,\r\n        string name,\r\n        string startDate,\r\n        string endDate,\r\n        string domainFilter,\r\n        string ownerEmail\r\n    );\r\n\r\n    struct Election {\r\n        string name;\r\n        bool isOpen;\r\n        mapping(uint256 => Candidate) candidates; // 1-based index\r\n        uint256 candidatesCount; // number of candidates\r\n        string startDate;\r\n        string endDate;\r\n        string domainFilter;\r\n        mapping(string => bool) hasVoted;\r\n    }\r\n\r\n    mapping (string => CreatedElections[]) public ownedElections;\r\n    mapping (string => string[]) public positions;\r\n    mapping (uint256 => Election) public elections;\r\n    uint256 public electionCount;\r\n\r\n    // ============================\r\n    // Position Management\r\n    // ============================\r\n\r\n    function listPositions(string memory email, string[] memory _positions) public {\r\n        positions[email] = _positions;\r\n    }\r\n\r\n    function getPositions(string memory email) public view returns (string[] memory) {\r\n        return positions[email];\r\n    }\r\n\r\n    // ============================\r\n    // Election Management\r\n    // ============================\r\n\r\n    function createElection (\r\n        string memory _name,\r\n        string memory _startDate,\r\n        string memory _endDate,\r\n        string memory _domainFilter,\r\n        string memory _email\r\n    ) public {\r\n        electionCount++;\r\n        elections[electionCount].name = _name;\r\n        elections[electionCount].isOpen = true;\r\n        elections[electionCount].candidatesCount = 0;\r\n        elections[electionCount].startDate = _startDate;\r\n        elections[electionCount].endDate = _endDate;\r\n        elections[electionCount].domainFilter = _domainFilter;\r\n        elections[electionCount].hasVoted[_email] = false;\r\n\r\n        ownedElections[_email].push(\r\n            CreatedElections(electionCount, _name, true, _startDate, _endDate, _domainFilter)\r\n        );\r\n        emit ElectionCreated(\r\n            electionCount,\r\n            _name,\r\n            _startDate,\r\n            _endDate,\r\n            _domainFilter,\r\n            _email\r\n        );\r\n\r\n        \r\n    }\r\n\r\n    function getElectionCount() public view returns (uint256) {\r\n        return electionCount;\r\n    }\r\n\r\n    function updateElection(\r\n        uint256 _electionId,\r\n        string memory _title,\r\n        string memory _startDate,\r\n        string memory _endDate,\r\n        string memory _domainFilter,\r\n        string memory _email\r\n    ) public {\r\n        Election storage e = elections[_electionId];\r\n        e.name = _title;\r\n        e.startDate = _startDate;\r\n        e.endDate = _endDate;\r\n        e.domainFilter = _domainFilter;\r\n\r\n        CreatedElections[] storage ownedElectionsList = ownedElections[_email];\r\n        for (uint256 i = 0; i < ownedElectionsList.length; i++) {\r\n            if (ownedElectionsList[i].electionId == _electionId) {\r\n                ownedElectionsList[i].electionName = _title;\r\n                ownedElectionsList[i].startDate = _startDate;\r\n                ownedElectionsList[i].endDate = _endDate;\r\n                ownedElectionsList[i].domainFilter = _domainFilter;\r\n                break;\r\n            }\r\n        }\r\n    }\r\n\r\n    function getOwnedElections(string memory _email) public view returns (CreatedElections[] memory) {\r\n        return ownedElections[_email];\r\n    }\r\n\r\n    function getOwnedElectionNames(string memory _owner) public view returns (string[] memory) {\r\n        CreatedElections[] storage ownedElectionsList = ownedElections[_owner];\r\n        string[] memory names = new string[](ownedElectionsList.length);\r\n        for (uint256 i = 0; i < ownedElectionsList.length; i++) {\r\n            names[i] = elections[ownedElectionsList[i].electionId].name;\r\n        }\r\n        return names;\r\n    }\r\n\r\n    function getOwnedElectionIds(string memory _owner) public view returns (uint256[] memory) {\r\n        CreatedElections[] storage ownedElectionsList = ownedElections[_owner];\r\n        uint256[] memory ids = new uint256[](ownedElectionsList.length);\r\n        for (uint256 i = 0; i < ownedElectionsList.length; i++) {\r\n            ids[i] = ownedElectionsList[i].electionId;\r\n        }\r\n        return ids;\r\n    }\r\n\r\n    function getElectionIdByName(string memory _name) public view returns (uint256) {\r\n        for (uint256 i = 1; i <= electionCount; i++) {\r\n            if (compareStrings(elections[i].name, _name)) {\r\n                return i;\r\n            }\r\n        }\r\n        return 0;\r\n    }\r\n\r\n    function compareStrings(string memory s1, string memory s2) internal pure returns (bool) {\r\n        return keccak256(abi.encodePacked(s1)) == keccak256(abi.encodePacked(s2));\r\n    }\r\n\r\n    function getElectionDetails(uint256 _electionId)\r\n        public\r\n        view\r\n        returns (string memory, bool, uint256, string memory, string memory, string memory)\r\n    {\r\n        Election storage e = elections[_electionId];\r\n        return (e.name, e.isOpen, e.candidatesCount, e.startDate, e.endDate, e.domainFilter);\r\n    }\r\n\r\n    function closeElection(uint256 _electionId) public {\r\n        require(elections[_electionId].isOpen, \"Election is already closed\");\r\n        elections[_electionId].isOpen = false;\r\n    }\r\n\r\n    // ============================\r\n    // Candidate Management\r\n    // ============================\r\n\r\n    function addCandidates(\r\n        uint256 _electionId,\r\n        string[] memory _names,\r\n        string[] memory _positions,\r\n        string[] memory _platforms,\r\n        string[] memory _cdns,\r\n        string[] memory _partylists\r\n    ) public {\r\n        require(\r\n            _names.length == _positions.length &&\r\n            _positions.length == _platforms.length &&\r\n            _platforms.length == _cdns.length &&\r\n            _cdns.length == _partylists.length,\r\n            \"Input arrays must have same length\"\r\n        );\r\n\r\n        Election storage e = elections[_electionId];\r\n        for (uint256 i = 0; i < _names.length; i++) {\r\n            e.candidatesCount++; // start at 1\r\n            e.candidates[e.candidatesCount] = Candidate(\r\n                _names[i],\r\n                _partylists[i],\r\n                _positions[i],\r\n                _platforms[i],\r\n                _cdns[i],\r\n                0\r\n            );\r\n        }\r\n    }\r\n\r\n    function getElectionCandidates(uint256 _electionId)\r\n        public\r\n        view\r\n        returns (string[] memory, string[] memory, string[] memory, string[] memory, string[] memory)\r\n    {\r\n        Election storage e = elections[_electionId];\r\n        string[] memory names = new string[](e.candidatesCount);\r\n        string[] memory _positions = new string[](e.candidatesCount);\r\n        string[] memory platforms = new string[](e.candidatesCount);\r\n        string[] memory cdns = new string[](e.candidatesCount);\r\n        string[] memory partylists = new string[](e.candidatesCount);\r\n\r\n        for (uint256 i = 1; i <= e.candidatesCount; i++) {\r\n            names[i-1] = e.candidates[i].name;\r\n            _positions[i-1] = e.candidates[i].position;\r\n            platforms[i-1] = e.candidates[i].platform;\r\n            cdns[i-1] = e.candidates[i].cdn;\r\n            partylists[i-1] = e.candidates[i].partylist;\r\n        }\r\n\r\n        return (names, _positions, platforms, cdns, partylists);\r\n    }\r\n\r\n    function getElectionCandidateCount(uint256 _electionId) public view returns (uint256) {\r\n        return elections[_electionId].candidatesCount;\r\n    }\r\n\r\n    function getElectionCandidate(uint256 _electionId, uint256 _candidateId)\r\n        public\r\n        view\r\n        returns (string memory, string memory, string memory, string memory, string memory, uint256)\r\n    {\r\n        Election storage e = elections[_electionId];\r\n        require(_candidateId > 0 && _candidateId <= e.candidatesCount, \"Invalid candidate ID\");\r\n\r\n        return (\r\n            e.candidates[_candidateId].name,\r\n            e.candidates[_candidateId].position,\r\n            e.candidates[_candidateId].platform,\r\n            e.candidates[_candidateId].cdn,\r\n            e.candidates[_candidateId].partylist,\r\n            e.candidates[_candidateId].voteCount\r\n        );\r\n    }\r\n\r\n    function getCandidateIdByName(uint256 _electionId, string memory _name) public view returns (uint256) {\r\n        Election storage e = elections[_electionId];\r\n        for (uint256 i = 1; i <= e.candidatesCount; i++) {\r\n            if (compareStrings(e.candidates[i].name, _name)) {\r\n                return i;\r\n            }\r\n        }\r\n        return 0;\r\n    }\r\n\r\n    function updateCandidate(\r\n        uint256 _electionId,\r\n        uint256 _candidateId,\r\n        string memory _name,\r\n        string memory _position,\r\n        string memory _platform,\r\n        string memory _cdn,\r\n        string memory _partylist\r\n    ) public {\r\n        Election storage e = elections[_electionId];\r\n        require(_candidateId > 0 && _candidateId <= e.candidatesCount, \"Invalid candidate ID\");\r\n\r\n        e.candidates[_candidateId].name = _name;\r\n        e.candidates[_candidateId].position = _position;\r\n        e.candidates[_candidateId].platform = _platform;\r\n        e.candidates[_candidateId].cdn = _cdn;\r\n        e.candidates[_candidateId].partylist = _partylist;\r\n    }\r\n\r\n    function deleteCandidate(uint256 _electionId, uint256 _candidateId) public {\r\n        Election storage e = elections[_electionId];\r\n        require(_candidateId > 0 && _candidateId <= e.candidatesCount, \"Invalid candidate ID\");\r\n\r\n        // Shift down (1-based indexing)\r\n        for (uint256 i = _candidateId; i < e.candidatesCount; i++) {\r\n            e.candidates[i] = e.candidates[i + 1];\r\n        }\r\n\r\n        delete e.candidates[e.candidatesCount];\r\n        e.candidatesCount--;\r\n    }\r\n\r\n    // ============================\r\n    // Voting\r\n    // ============================\r\n\r\n    function vote(uint256 _electionId, uint256[] memory _candidateIds, string memory _email) public {\r\n        Election storage e = elections[_electionId];\r\n        require(e.isOpen, \"Election is closed\");\r\n        require(!e.hasVoted[_email], \"Already voted\");\r\n\r\n        for (uint256 i = 0; i < _candidateIds.length; i++) {\r\n            require(_candidateIds[i] > 0 && _candidateIds[i] <= e.candidatesCount, \"Invalid candidate ID\");\r\n            e.candidates[_candidateIds[i]].voteCount++;\r\n        }\r\n\r\n        e.hasVoted[_email] = true;\r\n    }\r\n\r\n    function getElectionResults(uint256 _electionId)\r\n    public\r\n    view\r\n    returns (\r\n        string[] memory names,\r\n        string[] memory positions,\r\n        string[] memory partylists,\r\n        uint256[] memory votes\r\n    )\r\n    {\r\n        Election storage e = elections[_electionId];\r\n        uint256 count = e.candidatesCount;\r\n\r\n        names = new string[](count);\r\n        positions = new string[](count);\r\n        partylists = new string[](count);\r\n        votes = new uint256[](count);\r\n\r\n        // your candidates mapping is 1-based, so iterate from 1..count\r\n        for (uint256 i = 1; i <= count; i++) {\r\n            uint256 idx = i - 1; // array index (0-based)\r\n            names[idx] = e.candidates[i].name;\r\n            positions[idx] = e.candidates[i].position;\r\n            partylists[idx] = e.candidates[i].partylist;\r\n            votes[idx] = e.candidates[i].voteCount;\r\n        }\r\n\r\n        return (names, positions, partylists, votes);\r\n    }\r\n\r\n\r\n    function isElectionOpen(uint256 _electionId) public view returns (bool) {\r\n        Election storage e = elections[_electionId];\r\n        return e.isOpen;\r\n    }\r\n\r\n\r\n\r\n}\r\n",
  "sourcePath": "C:\\Users\\dizon\\OneDrive\\Documents\\GitHub\\SE2-BV\\contracts\\contracts\\Voting.sol",
  "compiler": {
    "name": "solc",
    "version": "0.8.20+commit.a1b79de6.Emscripten.clang"
  },
  "schemaVersion": "3.4.16",
  "updatedAt": "2025-10-04T16:23:05.024Z",
  "devdoc": {
    "kind": "dev",
    "methods": {},
    "version": 1
  },
  "userdoc": {
    "kind": "user",
    "methods": {},
    "version": 1
  }
}