{
  "contractName": "Voting",
  "abi": [
    {
      "constant": true,
      "inputs": [],
      "name": "electionCount",
      "outputs": [
        {
          "internalType": "uint256",
          "name": "",
          "type": "uint256"
        }
      ],
      "payable": false,
      "stateMutability": "view",
      "type": "function"
    },
    {
      "constant": true,
      "inputs": [
        {
          "internalType": "uint256",
          "name": "",
          "type": "uint256"
        }
      ],
      "name": "elections",
      "outputs": [
        {
          "internalType": "string",
          "name": "title",
          "type": "string"
        },
        {
          "internalType": "bool",
          "name": "isOpen",
          "type": "bool"
        },
        {
          "internalType": "uint256",
          "name": "candidatesCount",
          "type": "uint256"
        }
      ],
      "payable": false,
      "stateMutability": "view",
      "type": "function"
    },
    {
      "constant": false,
      "inputs": [
        {
          "internalType": "string",
          "name": "_title",
          "type": "string"
        }
      ],
      "name": "createElection",
      "outputs": [],
      "payable": false,
      "stateMutability": "nonpayable",
      "type": "function"
    },
    {
      "constant": false,
      "inputs": [
        {
          "internalType": "uint256",
          "name": "_electionId",
          "type": "uint256"
        },
        {
          "internalType": "string",
          "name": "_name",
          "type": "string"
        }
      ],
      "name": "addCandidate",
      "outputs": [],
      "payable": false,
      "stateMutability": "nonpayable",
      "type": "function"
    },
    {
      "constant": false,
      "inputs": [
        {
          "internalType": "uint256",
          "name": "_electionId",
          "type": "uint256"
        },
        {
          "internalType": "uint256",
          "name": "_candidateId",
          "type": "uint256"
        }
      ],
      "name": "vote",
      "outputs": [],
      "payable": false,
      "stateMutability": "nonpayable",
      "type": "function"
    },
    {
      "constant": false,
      "inputs": [
        {
          "internalType": "uint256",
          "name": "_electionId",
          "type": "uint256"
        }
      ],
      "name": "closeElection",
      "outputs": [],
      "payable": false,
      "stateMutability": "nonpayable",
      "type": "function"
    }
  ],
  "bytecode": "0x608060405234801561001057600080fd5b5061088a806100206000396000f3fe608060405234801561001057600080fd5b50600436106100625760003560e01c806309e33d071461006757806315cf4a5f146100835780631750a3d01461009f5780635e6fef01146100bb578063997d2830146100ed578063b384abef1461010b575b600080fd5b610081600480360361007c9190810190610589565b610127565b005b61009d60048036036100989190810190610548565b610158565b005b6100b960048036036100b491908101906105b2565b6101c9565b005b6100d560048036036100d09190810190610589565b610251565b6040516100e4939291906106d9565b60405180910390f35b6100f5610320565b6040516101029190610737565b60405180910390f35b61012560048036036101209190810190610606565b610326565b005b600080600083815260200190815260200160002060010160006101000a81548160ff02191690831515021790555050565b60016000815480929190600101919050555080600080600154815260200190815260200160002060000190805190602001906101959291906103ba565b506001600080600154815260200190815260200160002060010160006101000a81548160ff02191690831515021790555050565b6000806000848152602001908152602001600020905080600301600081548092919060010191905055506040518060400160405280838152602001600081525081600201600083600301548152602001908152602001600020600082015181600001908051906020019061023e92919061043a565b5060208201518160010155905050505050565b6000602052806000526040600020600091509050806000018054600181600116156101000203166002900480601f0160208091040260200160405190810160405280929190818152602001828054600181600116156101000203166002900480156102fd5780601f106102d2576101008083540402835291602001916102fd565b820191906000526020600020905b8154815290600101906020018083116102e057829003601f168201915b5050505050908060010160009054906101000a900460ff16908060030154905083565b60015481565b600080600084815260200190815260200160002090508060010160009054906101000a900460ff1661038d576040517f08c379a000000000000000000000000000000000000000000000000000000000815260040161038490610717565b60405180910390fd5b80600201600083815260200190815260200160002060010160008154809291906001019190505550505050565b828054600181600116156101000203166002900490600052602060002090601f016020900481019282601f106103fb57805160ff1916838001178555610429565b82800160010185558215610429579182015b8281111561042857825182559160200191906001019061040d565b5b50905061043691906104ba565b5090565b828054600181600116156101000203166002900490600052602060002090601f016020900481019282601f1061047b57805160ff19168380011785556104a9565b828001600101855582156104a9579182015b828111156104a857825182559160200191906001019061048d565b5b5090506104b691906104ba565b5090565b6104dc91905b808211156104d85760008160009055506001016104c0565b5090565b90565b600082601f8301126104f057600080fd5b81356105036104fe8261077f565b610752565b9150808252602083016020830185838301111561051f57600080fd5b61052a8382846107dd565b50505092915050565b60008135905061054281610830565b92915050565b60006020828403121561055a57600080fd5b600082013567ffffffffffffffff81111561057457600080fd5b610580848285016104df565b91505092915050565b60006020828403121561059b57600080fd5b60006105a984828501610533565b91505092915050565b600080604083850312156105c557600080fd5b60006105d385828601610533565b925050602083013567ffffffffffffffff8111156105f057600080fd5b6105fc858286016104df565b9150509250929050565b6000806040838503121561061957600080fd5b600061062785828601610533565b925050602061063885828601610533565b9150509250929050565b61064b816107c7565b82525050565b600061065c826107ab565b61066681856107b6565b93506106768185602086016107ec565b61067f8161081f565b840191505092915050565b60006106976012836107b6565b91507f456c656374696f6e20697320636c6f73656400000000000000000000000000006000830152602082019050919050565b6106d3816107d3565b82525050565b600060608201905081810360008301526106f38186610651565b90506107026020830185610642565b61070f60408301846106ca565b949350505050565b600060208201905081810360008301526107308161068a565b9050919050565b600060208201905061074c60008301846106ca565b92915050565b6000604051905081810181811067ffffffffffffffff8211171561077557600080fd5b8060405250919050565b600067ffffffffffffffff82111561079657600080fd5b601f19601f8301169050602081019050919050565b600081519050919050565b600082825260208201905092915050565b60008115159050919050565b6000819050919050565b82818337600083830152505050565b60005b8381101561080a5780820151818401526020810190506107ef565b83811115610819576000848401525b50505050565b6000601f19601f8301169050919050565b610839816107d3565b811461084457600080fd5b5056fea365627a7a72315820068d04af268d596758c41ef8fe37809e8b1306a6b1026a2d85d83179f22af61f6c6578706572696d656e74616cf564736f6c63430005100040",
  "source": "// SPDX-License-Identifier: MIT\r\npragma solidity >=0.4.21 <=0.8.20;\r\npragma experimental ABIEncoderV2;\r\n\r\ncontract Voting {\r\n    struct Candidate {\r\n        string name;\r\n        uint256 votes;\r\n    }\r\n\r\n    struct Election {\r\n        string title;\r\n        bool isOpen;\r\n        mapping(uint256 => Candidate) candidates;\r\n        uint256 candidatesCount;\r\n    }\r\n\r\n    mapping(uint256 => Election) public elections;\r\n    uint256 public electionCount;\r\n\r\n    function createElection(string memory _title) public {\r\n        electionCount++;\r\n        elections[electionCount].title = _title;\r\n        elections[electionCount].isOpen = true;\r\n    }\r\n\r\n    function addCandidate(uint256 _electionId, string memory _name) public {\r\n        Election storage e = elections[_electionId];\r\n        e.candidatesCount++;\r\n        e.candidates[e.candidatesCount] = Candidate(_name, 0);\r\n    }\r\n\r\n    function vote(uint256 _electionId, uint256 _candidateId) public {\r\n        Election storage e = elections[_electionId];\r\n        require(e.isOpen, \"Election is closed\");\r\n        e.candidates[_candidateId].votes++;\r\n    }\r\n\r\n    function closeElection(uint256 _electionId) public {\r\n        elections[_electionId].isOpen = false;\r\n    }\r\n}\r\n",
  "sourcePath": "C:\\Users\\dizon\\OneDrive\\Desktop\\Gordon College\\SE2\\SE2VoteTest\\contracts\\contracts\\Voting.sol",
  "compiler": {
    "name": "solc",
    "version": "0.5.16+commit.9c3226ce.Emscripten.clang"
  },
  "schemaVersion": "3.4.16",
  "updatedAt": "2025-09-08T13:01:30.076Z",
  "networkType": "ethereum",
  "devdoc": {
    "methods": {}
  },
  "userdoc": {
    "methods": {}
  }
}