{
  "contractName": "Voting",
  "abi": [
    {
      "constant": true,
      "inputs": [],
      "name": "electionCount",
      "outputs": [
        {
          "internalType": "uint256",
          "name": "",
          "type": "uint256"
        }
      ],
      "payable": false,
      "stateMutability": "view",
      "type": "function"
    },
    {
      "constant": true,
      "inputs": [
        {
          "internalType": "uint256",
          "name": "",
          "type": "uint256"
        }
      ],
      "name": "elections",
      "outputs": [
        {
          "internalType": "string",
          "name": "name",
          "type": "string"
        },
        {
          "internalType": "bool",
          "name": "isOpen",
          "type": "bool"
        },
        {
          "internalType": "uint256",
          "name": "candidatesCount",
          "type": "uint256"
        },
        {
          "internalType": "string",
          "name": "startDate",
          "type": "string"
        },
        {
          "internalType": "string",
          "name": "endDate",
          "type": "string"
        },
        {
          "internalType": "string",
          "name": "domainFilter",
          "type": "string"
        }
      ],
      "payable": false,
      "stateMutability": "view",
      "type": "function"
    },
    {
      "constant": true,
      "inputs": [
        {
          "internalType": "string",
          "name": "",
          "type": "string"
        },
        {
          "internalType": "uint256",
          "name": "",
          "type": "uint256"
        }
      ],
      "name": "ownedElections",
      "outputs": [
        {
          "internalType": "uint256",
          "name": "electionId",
          "type": "uint256"
        },
        {
          "internalType": "string",
          "name": "electionName",
          "type": "string"
        },
        {
          "internalType": "bool",
          "name": "isOpen",
          "type": "bool"
        },
        {
          "internalType": "string",
          "name": "startDate",
          "type": "string"
        },
        {
          "internalType": "string",
          "name": "endDate",
          "type": "string"
        },
        {
          "internalType": "string",
          "name": "domainFilter",
          "type": "string"
        }
      ],
      "payable": false,
      "stateMutability": "view",
      "type": "function"
    },
    {
      "constant": true,
      "inputs": [
        {
          "internalType": "string",
          "name": "",
          "type": "string"
        },
        {
          "internalType": "uint256",
          "name": "",
          "type": "uint256"
        }
      ],
      "name": "positions",
      "outputs": [
        {
          "internalType": "string",
          "name": "",
          "type": "string"
        }
      ],
      "payable": false,
      "stateMutability": "view",
      "type": "function"
    },
    {
      "constant": false,
      "inputs": [
        {
          "internalType": "string",
          "name": "email",
          "type": "string"
        },
        {
          "internalType": "string[]",
          "name": "_positions",
          "type": "string[]"
        }
      ],
      "name": "listPositions",
      "outputs": [],
      "payable": false,
      "stateMutability": "nonpayable",
      "type": "function"
    },
    {
      "constant": true,
      "inputs": [
        {
          "internalType": "string",
          "name": "email",
          "type": "string"
        }
      ],
      "name": "getPositions",
      "outputs": [
        {
          "internalType": "string[]",
          "name": "",
          "type": "string[]"
        }
      ],
      "payable": false,
      "stateMutability": "view",
      "type": "function"
    },
    {
      "constant": false,
      "inputs": [
        {
          "internalType": "string",
          "name": "_name",
          "type": "string"
        },
        {
          "internalType": "string",
          "name": "_startDate",
          "type": "string"
        },
        {
          "internalType": "string",
          "name": "_endDate",
          "type": "string"
        },
        {
          "internalType": "string",
          "name": "_domainFilter",
          "type": "string"
        },
        {
          "internalType": "string",
          "name": "_email",
          "type": "string"
        }
      ],
      "name": "createElection",
      "outputs": [],
      "payable": false,
      "stateMutability": "nonpayable",
      "type": "function"
    },
    {
      "constant": true,
      "inputs": [],
      "name": "getElectionCount",
      "outputs": [
        {
          "internalType": "uint256",
          "name": "",
          "type": "uint256"
        }
      ],
      "payable": false,
      "stateMutability": "view",
      "type": "function"
    },
    {
      "constant": false,
      "inputs": [
        {
          "internalType": "uint256",
          "name": "_electionId",
          "type": "uint256"
        },
        {
          "internalType": "string",
          "name": "_title",
          "type": "string"
        },
        {
          "internalType": "string",
          "name": "_startDate",
          "type": "string"
        },
        {
          "internalType": "string",
          "name": "_endDate",
          "type": "string"
        },
        {
          "internalType": "string",
          "name": "_domainFilter",
          "type": "string"
        },
        {
          "internalType": "string",
          "name": "_email",
          "type": "string"
        }
      ],
      "name": "updateElection",
      "outputs": [],
      "payable": false,
      "stateMutability": "nonpayable",
      "type": "function"
    },
    {
      "constant": true,
      "inputs": [
        {
          "internalType": "string",
          "name": "_email",
          "type": "string"
        }
      ],
      "name": "getOwnedElections",
      "outputs": [
        {
          "components": [
            {
              "internalType": "uint256",
              "name": "electionId",
              "type": "uint256"
            },
            {
              "internalType": "string",
              "name": "electionName",
              "type": "string"
            },
            {
              "internalType": "bool",
              "name": "isOpen",
              "type": "bool"
            },
            {
              "internalType": "string",
              "name": "startDate",
              "type": "string"
            },
            {
              "internalType": "string",
              "name": "endDate",
              "type": "string"
            },
            {
              "internalType": "string",
              "name": "domainFilter",
              "type": "string"
            }
          ],
          "internalType": "struct Voting.CreatedElections[]",
          "name": "",
          "type": "tuple[]"
        }
      ],
      "payable": false,
      "stateMutability": "view",
      "type": "function"
    },
    {
      "constant": true,
      "inputs": [
        {
          "internalType": "string",
          "name": "_owner",
          "type": "string"
        }
      ],
      "name": "getOwnedElectionNames",
      "outputs": [
        {
          "internalType": "string[]",
          "name": "",
          "type": "string[]"
        }
      ],
      "payable": false,
      "stateMutability": "view",
      "type": "function"
    },
    {
      "constant": true,
      "inputs": [
        {
          "internalType": "string",
          "name": "_owner",
          "type": "string"
        }
      ],
      "name": "getOwnedElectionIds",
      "outputs": [
        {
          "internalType": "uint256[]",
          "name": "",
          "type": "uint256[]"
        }
      ],
      "payable": false,
      "stateMutability": "view",
      "type": "function"
    },
    {
      "constant": true,
      "inputs": [
        {
          "internalType": "string",
          "name": "_name",
          "type": "string"
        }
      ],
      "name": "getElectionIdByName",
      "outputs": [
        {
          "internalType": "uint256",
          "name": "",
          "type": "uint256"
        }
      ],
      "payable": false,
      "stateMutability": "view",
      "type": "function"
    },
    {
      "constant": true,
      "inputs": [
        {
          "internalType": "uint256",
          "name": "_electionId",
          "type": "uint256"
        }
      ],
      "name": "getElectionResults",
      "outputs": [
        {
          "internalType": "string[]",
          "name": "",
          "type": "string[]"
        },
        {
          "internalType": "uint256[]",
          "name": "",
          "type": "uint256[]"
        }
      ],
      "payable": false,
      "stateMutability": "view",
      "type": "function"
    },
    {
      "constant": true,
      "inputs": [
        {
          "internalType": "uint256",
          "name": "_electionId",
          "type": "uint256"
        }
      ],
      "name": "getElectionDetails",
      "outputs": [
        {
          "internalType": "string",
          "name": "",
          "type": "string"
        },
        {
          "internalType": "bool",
          "name": "",
          "type": "bool"
        },
        {
          "internalType": "uint256",
          "name": "",
          "type": "uint256"
        },
        {
          "internalType": "string",
          "name": "",
          "type": "string"
        },
        {
          "internalType": "string",
          "name": "",
          "type": "string"
        },
        {
          "internalType": "string",
          "name": "",
          "type": "string"
        }
      ],
      "payable": false,
      "stateMutability": "view",
      "type": "function"
    },
    {
      "constant": false,
      "inputs": [
        {
          "internalType": "uint256",
          "name": "_electionId",
          "type": "uint256"
        },
        {
          "internalType": "string[]",
          "name": "_names",
          "type": "string[]"
        },
        {
          "internalType": "string[]",
          "name": "_positions",
          "type": "string[]"
        },
        {
          "internalType": "string[]",
          "name": "_platforms",
          "type": "string[]"
        },
        {
          "internalType": "string[]",
          "name": "_cdns",
          "type": "string[]"
        },
        {
          "internalType": "string[]",
          "name": "_partylists",
          "type": "string[]"
        }
      ],
      "name": "addCandidates",
      "outputs": [],
      "payable": false,
      "stateMutability": "nonpayable",
      "type": "function"
    },
    {
      "constant": true,
      "inputs": [
        {
          "internalType": "uint256",
          "name": "_electionId",
          "type": "uint256"
        }
      ],
      "name": "getElectionCandidates",
      "outputs": [
        {
          "internalType": "string[]",
          "name": "",
          "type": "string[]"
        },
        {
          "internalType": "string[]",
          "name": "",
          "type": "string[]"
        },
        {
          "internalType": "string[]",
          "name": "",
          "type": "string[]"
        },
        {
          "internalType": "string[]",
          "name": "",
          "type": "string[]"
        },
        {
          "internalType": "string[]",
          "name": "",
          "type": "string[]"
        }
      ],
      "payable": false,
      "stateMutability": "view",
      "type": "function"
    },
    {
      "constant": true,
      "inputs": [
        {
          "internalType": "uint256",
          "name": "_electionId",
          "type": "uint256"
        }
      ],
      "name": "getElectionCandidateCount",
      "outputs": [
        {
          "internalType": "uint256",
          "name": "",
          "type": "uint256"
        }
      ],
      "payable": false,
      "stateMutability": "view",
      "type": "function"
    },
    {
      "constant": false,
      "inputs": [
        {
          "internalType": "uint256",
          "name": "_electionId",
          "type": "uint256"
        },
        {
          "internalType": "uint256",
          "name": "_candidateId",
          "type": "uint256"
        },
        {
          "internalType": "string",
          "name": "_name",
          "type": "string"
        },
        {
          "internalType": "string",
          "name": "_position",
          "type": "string"
        },
        {
          "internalType": "string",
          "name": "_platform",
          "type": "string"
        },
        {
          "internalType": "string",
          "name": "_cdn",
          "type": "string"
        }
      ],
      "name": "updateCandidate",
      "outputs": [],
      "payable": false,
      "stateMutability": "nonpayable",
      "type": "function"
    },
    {
      "constant": false,
      "inputs": [
        {
          "internalType": "uint256",
          "name": "_electionId",
          "type": "uint256"
        },
        {
          "internalType": "uint256",
          "name": "_candidateId",
          "type": "uint256"
        }
      ],
      "name": "deleteCandidate",
      "outputs": [],
      "payable": false,
      "stateMutability": "nonpayable",
      "type": "function"
    },
    {
      "constant": true,
      "inputs": [
        {
          "internalType": "uint256",
          "name": "_electionId",
          "type": "uint256"
        },
        {
          "internalType": "uint256",
          "name": "_candidateId",
          "type": "uint256"
        }
      ],
      "name": "getElectionCandidate",
      "outputs": [
        {
          "internalType": "string",
          "name": "",
          "type": "string"
        },
        {
          "internalType": "string",
          "name": "",
          "type": "string"
        },
        {
          "internalType": "string",
          "name": "",
          "type": "string"
        },
        {
          "internalType": "string",
          "name": "",
          "type": "string"
        },
        {
          "internalType": "string",
          "name": "",
          "type": "string"
        },
        {
          "internalType": "uint256",
          "name": "",
          "type": "uint256"
        }
      ],
      "payable": false,
      "stateMutability": "view",
      "type": "function"
    },
    {
      "constant": false,
      "inputs": [
        {
          "internalType": "uint256",
          "name": "_electionId",
          "type": "uint256"
        },
        {
          "internalType": "uint256[]",
          "name": "_candidateIds",
          "type": "uint256[]"
        },
        {
          "internalType": "string",
          "name": "_email",
          "type": "string"
        }
      ],
      "name": "vote",
      "outputs": [],
      "payable": false,
      "stateMutability": "nonpayable",
      "type": "function"
    },
    {
      "constant": false,
      "inputs": [
        {
          "internalType": "uint256",
          "name": "_electionId",
          "type": "uint256"
        }
      ],
      "name": "closeElection",
      "outputs": [],
      "payable": false,
      "stateMutability": "nonpayable",
      "type": "function"
    }
  ],
  "bytecode": "0x608060405234801561001057600080fd5b50613fb8806100206000396000f3fe608060405234801561001057600080fd5b506004361061014d5760003560e01c80635f5db526116100c3578063cf4a60601161007c578063cf4a6060146103f4578063e8ededa614610410578063f604992414610441578063f70171fb14610476578063fa65dd32146104ab578063fc265f06146104db5761014d565b80635f5db526146103095780637ea7af041461033e578063997d28301461036e5780639b1b5a351461038c578063bade1157146103a8578063c14cfa21146103d85761014d565b8063213785a011610115578063213785a01461021a5780634628ba7f146102385780634ba6b8211461025457806350efbc75146102845780635e12845e146102a05780635e6fef01146102d45761014d565b806307ccd61714610152578063088b06631461018257806309e33d07146101b25780631227dd41146101ce578063193bdd8a146101fe575b600080fd5b61016c60048036036101679190810190612f8d565b6104f7565b6040516101799190613a78565b60405180910390f35b61019c6004803603610197919081019061317d565b6105b2565b6040516101a99190613c9a565b60405180910390f35b6101cc60048036036101c7919081019061317d565b6105d7565b005b6101e860048036036101e39190810190612f8d565b610673565b6040516101f59190613a56565b60405180910390f35b61021860048036036102139190810190612fce565b61099d565b005b6102226109d4565b60405161022f9190613c9a565b60405180910390f35b610252600480360361024d9190810190613463565b6109de565b005b61026e60048036036102699190810190612f8d565b610ab2565b60405161027b9190613987565b60405180910390f35b61029e6004803603610299919081019061303a565b610bb9565b005b6102ba60048036036102b5919081019061317d565b610e3e565b6040516102cb9594939291906139a9565b60405180910390f35b6102ee60048036036102e9919081019061317d565b6113c3565b60405161030096959493929190613bbd565b60405180910390f35b610323600480360361031e9190810190613129565b61166c565b60405161033596959493929190613cb5565b60405180910390f35b61035860048036036103539190810190612f8d565b611945565b6040516103659190613987565b60405180910390f35b610376611ab2565b6040516103839190613c9a565b60405180910390f35b6103a660048036036103a19190810190613326565b611ab8565b005b6103c260048036036103bd9190810190612f8d565b611c70565b6040516103cf9190613c9a565b60405180910390f35b6103f260048036036103ed91908101906132a7565b611d5f565b005b61040e60048036036104099190810190613427565b611e5e565b005b61042a6004803603610425919081019061317d565b611fc6565b604051610438929190613a1f565b60405180910390f35b61045b6004803603610456919081019061317d565b612182565b60405161046d96959493929190613abc565b60405180910390f35b610490600480360361048b9190810190613427565b612450565b6040516104a296959493929190613b39565b60405180910390f35b6104c560048036036104c09190810190613129565b612824565b6040516104d29190613a9a565b60405180910390f35b6104f560048036036104f091908101906131a6565b612900565b005b60606000808360405161050a9190613970565b908152602001604051809103902090506060818054905060405190808252806020026020018201604052801561054f5781602001602082028038833980820191505090505b50905060008090505b82805490508110156105a75782818154811061057057fe5b90600052602060002090600602016000015482828151811061058e57fe5b6020026020010181815250508080600101915050610558565b508092505050919050565b6000806002600084815260200190815260200160002090508060030154915050919050565b6002600082815260200190815260200160002060010160009054906101000a900460ff161561063b576040517f08c379a000000000000000000000000000000000000000000000000000000000815260040161063290613c3a565b60405180910390fd5b600060026000838152602001908152602001600020905060008160010160006101000a81548160ff0219169083151502179055505050565b60606000826040516106859190613970565b9081526020016040518091039020805480602002602001604051908101604052809291908181526020016000905b8282101561099257838290600052602060002090600602016040518060c001604052908160008201548152602001600182018054600181600116156101000203166002900480601f0160208091040260200160405190810160405280929190818152602001828054600181600116156101000203166002900480156107795780601f1061074e57610100808354040283529160200191610779565b820191906000526020600020905b81548152906001019060200180831161075c57829003601f168201915b505050505081526020016002820160009054906101000a900460ff16151515158152602001600382018054600181600116156101000203166002900480601f0160208091040260200160405190810160405280929190818152602001828054600181600116156101000203166002900480156108365780601f1061080b57610100808354040283529160200191610836565b820191906000526020600020905b81548152906001019060200180831161081957829003601f168201915b50505050508152602001600482018054600181600116156101000203166002900480601f0160208091040260200160405190810160405280929190818152602001828054600181600116156101000203166002900480156108d85780601f106108ad576101008083540402835291602001916108d8565b820191906000526020600020905b8154815290600101906020018083116108bb57829003601f168201915b50505050508152602001600582018054600181600116156101000203166002900480601f01602080910402602001604051908101604052809291908181526020018280546001816001161561010002031660029004801561097a5780601f1061094f5761010080835404028352916020019161097a565b820191906000526020600020905b81548152906001019060200180831161095d57829003601f168201915b505050505081525050815260200190600101906106b3565b505050509050919050565b806001836040516109ae9190613970565b908152602001604051809103902090805190602001906109cf929190612b59565b505050565b6000600354905090565b6000600260008881526020019081526020016000209050848160020160008881526020019081526020016000206000019080519060200190610a21929190612bb9565b50838160020160008881526020019081526020016000206002019080519060200190610a4e929190612bb9565b50828160020160008881526020019081526020016000206003019080519060200190610a7b929190612bb9565b50818160020160008881526020019081526020016000206004019080519060200190610aa8929190612bb9565b5050505050505050565b6060600182604051610ac49190613970565b9081526020016040518091039020805480602002602001604051908101604052809291908181526020016000905b82821015610bae578382906000526020600020018054600181600116156101000203166002900480601f016020809104026020016040519081016040528092919081815260200182805460018160011615610100020316600290048015610b9a5780601f10610b6f57610100808354040283529160200191610b9a565b820191906000526020600020905b815481529060010190602001808311610b7d57829003601f168201915b505050505081526020019060010190610af2565b505050509050919050565b600360008154809291906001019190505550846002600060035481526020019081526020016000206000019080519060200190610bf7929190612bb9565b50600160026000600354815260200190815260200160002060010160006101000a81548160ff021916908315150217905550600060026000600354815260200190815260200160002060030181905550836002600060035481526020019081526020016000206004019080519060200190610c73929190612bb9565b50826002600060035481526020019081526020016000206005019080519060200190610ca0929190612bb9565b50816002600060035481526020019081526020016000206006019080519060200190610ccd929190612bb9565b50600060026000600354815260200190815260200160002060070182604051610cf69190613970565b908152602001604051809103902060006101000a81548160ff021916908315150217905550600081604051610d2b9190613970565b90815260200160405180910390206040518060c0016040528060035481526020018781526020016001151581526020018681526020018581526020018481525090806001815401808255809150509060018203906000526020600020906006020160009091929091909150600082015181600001556020820151816001019080519060200190610dbc929190612c39565b5060408201518160020160006101000a81548160ff0219169083151502179055506060820151816003019080519060200190610df9929190612c39565b506080820151816004019080519060200190610e16929190612c39565b5060a0820151816005019080519060200190610e33929190612c39565b505050505050505050565b6060806060806060600060026000888152602001908152602001600020905060608160030154604051908082528060200260200182016040528015610e9757816020015b6060815260200190600190039081610e825790505b50905060608260030154604051908082528060200260200182016040528015610ed457816020015b6060815260200190600190039081610ebf5790505b50905060608360030154604051908082528060200260200182016040528015610f1157816020015b6060815260200190600190039081610efc5790505b50905060608460030154604051908082528060200260200182016040528015610f4e57816020015b6060815260200190600190039081610f395790505b50905060608560030154604051908082528060200260200182016040528015610f8b57816020015b6060815260200190600190039081610f765790505b5090506000600190505b866003015481116113a4578660020160008281526020019081526020016000206000018054600181600116156101000203166002900480601f01602080910402602001604051908101604052809291908181526020018280546001816001161561010002031660029004801561104c5780601f106110215761010080835404028352916020019161104c565b820191906000526020600020905b81548152906001019060200180831161102f57829003601f168201915b505050505086600183038151811061106057fe5b60200260200101819052508660020160008281526020019081526020016000206002018054600181600116156101000203166002900480601f0160208091040260200160405190810160405280929190818152602001828054600181600116156101000203166002900480156111175780601f106110ec57610100808354040283529160200191611117565b820191906000526020600020905b8154815290600101906020018083116110fa57829003601f168201915b505050505085600183038151811061112b57fe5b60200260200101819052508660020160008281526020019081526020016000206003018054600181600116156101000203166002900480601f0160208091040260200160405190810160405280929190818152602001828054600181600116156101000203166002900480156111e25780601f106111b7576101008083540402835291602001916111e2565b820191906000526020600020905b8154815290600101906020018083116111c557829003601f168201915b50505050508460018303815181106111f657fe5b60200260200101819052508660020160008281526020019081526020016000206004018054600181600116156101000203166002900480601f0160208091040260200160405190810160405280929190818152602001828054600181600116156101000203166002900480156112ad5780601f10611282576101008083540402835291602001916112ad565b820191906000526020600020905b81548152906001019060200180831161129057829003601f168201915b50505050508360018303815181106112c157fe5b60200260200101819052508660020160008281526020019081526020016000206001018054600181600116156101000203166002900480601f0160208091040260200160405190810160405280929190818152602001828054600181600116156101000203166002900480156113785780601f1061134d57610100808354040283529160200191611378565b820191906000526020600020905b81548152906001019060200180831161135b57829003601f168201915b505050505082600183038151811061138c57fe5b60200260200101819052508080600101915050610f95565b5084848484849a509a509a509a509a5050505050505091939590929450565b6002602052806000526040600020600091509050806000018054600181600116156101000203166002900480601f01602080910402602001604051908101604052809291908181526020018280546001816001161561010002031660029004801561146f5780601f106114445761010080835404028352916020019161146f565b820191906000526020600020905b81548152906001019060200180831161145257829003601f168201915b5050505050908060010160009054906101000a900460ff1690806003015490806004018054600181600116156101000203166002900480601f0160208091040260200160405190810160405280929190818152602001828054600181600116156101000203166002900480156115265780601f106114fb57610100808354040283529160200191611526565b820191906000526020600020905b81548152906001019060200180831161150957829003601f168201915b505050505090806005018054600181600116156101000203166002900480601f0160208091040260200160405190810160405280929190818152602001828054600181600116156101000203166002900480156115c45780601f10611599576101008083540402835291602001916115c4565b820191906000526020600020905b8154815290600101906020018083116115a757829003601f168201915b505050505090806006018054600181600116156101000203166002900480601f0160208091040260200160405190810160405280929190818152602001828054600181600116156101000203166002900480156116625780601f1061163757610100808354040283529160200191611662565b820191906000526020600020905b81548152906001019060200180831161164557829003601f168201915b5050505050905086565b600082805160208101820180518482526020830160208501208183528095505050505050818154811061169b57fe5b906000526020600020906006020160009150915050806000015490806001018054600181600116156101000203166002900480601f01602080910402602001604051908101604052809291908181526020018280546001816001161561010002031660029004801561174e5780601f106117235761010080835404028352916020019161174e565b820191906000526020600020905b81548152906001019060200180831161173157829003601f168201915b5050505050908060020160009054906101000a900460ff1690806003018054600181600116156101000203166002900480601f0160208091040260200160405190810160405280929190818152602001828054600181600116156101000203166002900480156117ff5780601f106117d4576101008083540402835291602001916117ff565b820191906000526020600020905b8154815290600101906020018083116117e257829003601f168201915b505050505090806004018054600181600116156101000203166002900480601f01602080910402602001604051908101604052809291908181526020018280546001816001161561010002031660029004801561189d5780601f106118725761010080835404028352916020019161189d565b820191906000526020600020905b81548152906001019060200180831161188057829003601f168201915b505050505090806005018054600181600116156101000203166002900480601f01602080910402602001604051908101604052809291908181526020018280546001816001161561010002031660029004801561193b5780601f106119105761010080835404028352916020019161193b565b820191906000526020600020905b81548152906001019060200180831161191e57829003601f168201915b5050505050905086565b6060600080836040516119589190613970565b90815260200160405180910390209050606081805490506040519080825280602002602001820160405280156119a257816020015b606081526020019060019003908161198d5790505b50905060008090505b8280549050811015611aa757600260008483815481106119c757fe5b90600052602060002090600602016000015481526020019081526020016000206000018054600181600116156101000203166002900480601f016020809104026020016040519081016040528092919081815260200182805460018160011615610100020316600290048015611a7e5780601f10611a5357610100808354040283529160200191611a7e565b820191906000526020600020905b815481529060010190602001808311611a6157829003601f168201915b5050505050828281518110611a8f57fe5b602002602001018190525080806001019150506119ab565b508092505050919050565b60035481565b600060026000888152602001908152602001600020905085816000019080519060200190611ae7929190612bb9565b5084816004019080519060200190611b00929190612bb9565b5083816005019080519060200190611b19929190612bb9565b5082816006019080519060200190611b32929190612bb9565b5060008083604051611b449190613970565b9081526020016040518091039020905060008090505b8180549050811015611c655788828281548110611b7357fe5b9060005260206000209060060201600001541415611c585787828281548110611b9857fe5b90600052602060002090600602016001019080519060200190611bbc929190612bb9565b5086828281548110611bca57fe5b90600052602060002090600602016003019080519060200190611bee929190612bb9565b5085828281548110611bfc57fe5b90600052602060002090600602016004019080519060200190611c20929190612bb9565b5084828281548110611c2e57fe5b90600052602060002090600602016005019080519060200190611c52929190612bb9565b50611c65565b8080600101915050611b5a565b505050505050505050565b600080600190505b6003548111611d5457611d39600260008381526020019081526020016000206000018054600181600116156101000203166002900480601f016020809104026020016040519081016040528092919081815260200182805460018160011615610100020316600290048015611d2e5780601f10611d0357610100808354040283529160200191611d2e565b820191906000526020600020905b815481529060010190602001808311611d1157829003601f168201915b505050505084612b00565b15611d475780915050611d5a565b8080600101915050611c78565b50600090505b919050565b60006002600085815260200190815260200160002090508060010160009054906101000a900460ff16611dc7576040517f08c379a0000000000000000000000000000000000000000000000000000000008152600401611dbe90613c5a565b60405180910390fd5b60008090505b8351811015611e1e57816002016000858381518110611de857fe5b60200260200101518152602001908152602001600020600501600081548092919060010191905055508080600101915050611dcd565b5060018160070183604051611e339190613970565b908152602001604051809103902060006101000a81548160ff02191690831515021790555050505050565b600060026000848152602001908152602001600020905080600301548210611e865750611fc2565b60008290505b6001826003015403811015611faa5781600201600060018301815260200190815260200160002082600201600083815260200190815260200160002060008201816000019080546001816001161561010002031660029004611eef929190612cb9565b5060018201816001019080546001816001161561010002031660029004611f17929190612cb9565b5060028201816002019080546001816001161561010002031660029004611f3f929190612cb9565b5060038201816003019080546001816001161561010002031660029004611f67929190612cb9565b5060048201816004019080546001816001161561010002031660029004611f8f929190612cb9565b50600582015481600501559050508080600101915050611e8c565b50806003016000815480929190600190039190505550505b5050565b60608060006002600085815260200190815260200160002090506060816003015460405190808252806020026020018201604052801561201a57816020015b60608152602001906001900390816120055790505b509050606082600301546040519080825280602002602001820160405280156120525781602001602082028038833980820191505090505b5090506000600190505b83600301548111612173578360020160008281526020019081526020016000206000018054600181600116156101000203166002900480601f0160208091040260200160405190810160405280929190818152602001828054600181600116156101000203166002900480156121135780601f106120e857610100808354040283529160200191612113565b820191906000526020600020905b8154815290600101906020018083116120f657829003601f168201915b505050505083600183038151811061212757fe5b60200260200101819052508360020160008281526020019081526020016000206005015482600183038151811061215a57fe5b602002602001018181525050808060010191505061205c565b50818194509450505050915091565b606060008060608060606000600260008981526020019081526020016000209050806000018160010160009054906101000a900460ff168260030154836004018460050185600601858054600181600116156101000203166002900480601f01602080910402602001604051908101604052809291908181526020018280546001816001161561010002031660029004801561225f5780601f106122345761010080835404028352916020019161225f565b820191906000526020600020905b81548152906001019060200180831161224257829003601f168201915b50505050509550828054600181600116156101000203166002900480601f0160208091040260200160405190810160405280929190818152602001828054600181600116156101000203166002900480156122fb5780601f106122d0576101008083540402835291602001916122fb565b820191906000526020600020905b8154815290600101906020018083116122de57829003601f168201915b50505050509250818054600181600116156101000203166002900480601f0160208091040260200160405190810160405280929190818152602001828054600181600116156101000203166002900480156123975780601f1061236c57610100808354040283529160200191612397565b820191906000526020600020905b81548152906001019060200180831161237a57829003601f168201915b50505050509150808054600181600116156101000203166002900480601f0160208091040260200160405190810160405280929190818152602001828054600181600116156101000203166002900480156124335780601f1061240857610100808354040283529160200191612433565b820191906000526020600020905b81548152906001019060200180831161241657829003601f168201915b505050505090509650965096509650965096505091939550919395565b6060806060806060600080600260008a815260200190815260200160002090508060020160008981526020019081526020016000206000018160020160008a81526020019081526020016000206002018260020160008b81526020019081526020016000206003018360020160008c81526020019081526020016000206004018460020160008d81526020019081526020016000206001018560020160008e815260200190815260200160002060050154858054600181600116156101000203166002900480601f0160208091040260200160405190810160405280929190818152602001828054600181600116156101000203166002900480156125965780601f1061256b57610100808354040283529160200191612596565b820191906000526020600020905b81548152906001019060200180831161257957829003601f168201915b50505050509550848054600181600116156101000203166002900480601f0160208091040260200160405190810160405280929190818152602001828054600181600116156101000203166002900480156126325780601f1061260757610100808354040283529160200191612632565b820191906000526020600020905b81548152906001019060200180831161261557829003601f168201915b50505050509450838054600181600116156101000203166002900480601f0160208091040260200160405190810160405280929190818152602001828054600181600116156101000203166002900480156126ce5780601f106126a3576101008083540402835291602001916126ce565b820191906000526020600020905b8154815290600101906020018083116126b157829003601f168201915b50505050509350828054600181600116156101000203166002900480601f01602080910402602001604051908101604052809291908181526020018280546001816001161561010002031660029004801561276a5780601f1061273f5761010080835404028352916020019161276a565b820191906000526020600020905b81548152906001019060200180831161274d57829003601f168201915b50505050509250818054600181600116156101000203166002900480601f0160208091040260200160405190810160405280929190818152602001828054600181600116156101000203166002900480156128065780601f106127db57610100808354040283529160200191612806565b820191906000526020600020905b8154815290600101906020018083116127e957829003601f168201915b50505050509150965096509650965096509650509295509295509295565b600182805160208101820180518482526020830160208501208183528095505050505050818154811061285357fe5b90600052602060002001600091509150508054600181600116156101000203166002900480601f0160208091040260200160405190810160405280929190818152602001828054600181600116156101000203166002900480156128f85780601f106128cd576101008083540402835291602001916128f8565b820191906000526020600020905b8154815290600101906020018083116128db57829003601f168201915b505050505081565b83518551148015612912575082518451145b801561291f575081518351145b801561292c575080518251145b61296b576040517f08c379a000000000000000000000000000000000000000000000000000000000815260040161296290613c7a565b60405180910390fd5b600060026000888152602001908152602001600020905060008090505b8651811015612af65781600301600081548092919060010191905055506040518060c001604052808883815181106129bc57fe5b602002602001015181526020018483815181106129d557fe5b602002602001015181526020018783815181106129ee57fe5b60200260200101518152602001868381518110612a0757fe5b60200260200101518152602001858381518110612a2057fe5b602002602001015181526020016000815250826002016000846003015481526020019081526020016000206000820151816000019080519060200190612a67929190612c39565b506020820151816001019080519060200190612a84929190612c39565b506040820151816002019080519060200190612aa1929190612c39565b506060820151816003019080519060200190612abe929190612c39565b506080820151816004019080519060200190612adb929190612c39565b5060a082015181600501559050508080600101915050612988565b5050505050505050565b600081604051602001612b139190613970565b6040516020818303038152906040528051906020012083604051602001612b3a9190613970565b6040516020818303038152906040528051906020012014905092915050565b828054828255906000526020600020908101928215612ba8579160200282015b82811115612ba7578251829080519060200190612b97929190612c39565b5091602001919060010190612b79565b5b509050612bb59190612d40565b5090565b828054600181600116156101000203166002900490600052602060002090601f016020900481019282601f10612bfa57805160ff1916838001178555612c28565b82800160010185558215612c28579182015b82811115612c27578251825591602001919060010190612c0c565b5b509050612c359190612d6c565b5090565b828054600181600116156101000203166002900490600052602060002090601f016020900481019282601f10612c7a57805160ff1916838001178555612ca8565b82800160010185558215612ca8579182015b82811115612ca7578251825591602001919060010190612c8c565b5b509050612cb59190612d6c565b5090565b828054600181600116156101000203166002900490600052602060002090601f016020900481019282601f10612cf25780548555612d2f565b82800160010185558215612d2f57600052602060002091601f016020900482015b82811115612d2e578254825591600101919060010190612d13565b5b509050612d3c9190612d6c565b5090565b612d6991905b80821115612d655760008181612d5c9190612d91565b50600101612d46565b5090565b90565b612d8e91905b80821115612d8a576000816000905550600101612d72565b5090565b90565b50805460018160011615610100020316600290046000825580601f10612db75750612dd6565b601f016020900490600052602060002090810190612dd59190612d6c565b5b50565b600082601f830112612dea57600080fd5b8135612dfd612df882613d5f565b613d32565b9150818183526020840193506020810190508360005b83811015612e435781358601612e298882612ed0565b845260208401935060208301925050600181019050612e13565b5050505092915050565b600082601f830112612e5e57600080fd5b8135612e71612e6c82613d87565b613d32565b91508181835260208401935060208101905083856020840282011115612e9657600080fd5b60005b83811015612ec65781612eac8882612f78565b845260208401935060208301925050600181019050612e99565b5050505092915050565b600082601f830112612ee157600080fd5b8135612ef4612eef82613daf565b613d32565b91508082526020830160208301858383011115612f1057600080fd5b612f1b838284613f0b565b50505092915050565b600082601f830112612f3557600080fd5b8135612f48612f4382613ddb565b613d32565b91508082526020830160208301858383011115612f6457600080fd5b612f6f838284613f0b565b50505092915050565b600081359050612f8781613f5e565b92915050565b600060208284031215612f9f57600080fd5b600082013567ffffffffffffffff811115612fb957600080fd5b612fc584828501612f24565b91505092915050565b60008060408385031215612fe157600080fd5b600083013567ffffffffffffffff811115612ffb57600080fd5b61300785828601612f24565b925050602083013567ffffffffffffffff81111561302457600080fd5b61303085828601612dd9565b9150509250929050565b600080600080600060a0868803121561305257600080fd5b600086013567ffffffffffffffff81111561306c57600080fd5b61307888828901612f24565b955050602086013567ffffffffffffffff81111561309557600080fd5b6130a188828901612f24565b945050604086013567ffffffffffffffff8111156130be57600080fd5b6130ca88828901612f24565b935050606086013567ffffffffffffffff8111156130e757600080fd5b6130f388828901612f24565b925050608086013567ffffffffffffffff81111561311057600080fd5b61311c88828901612f24565b9150509295509295909350565b6000806040838503121561313c57600080fd5b600083013567ffffffffffffffff81111561315657600080fd5b61316285828601612ed0565b925050602061317385828601612f78565b9150509250929050565b60006020828403121561318f57600080fd5b600061319d84828501612f78565b91505092915050565b60008060008060008060c087890312156131bf57600080fd5b60006131cd89828a01612f78565b965050602087013567ffffffffffffffff8111156131ea57600080fd5b6131f689828a01612dd9565b955050604087013567ffffffffffffffff81111561321357600080fd5b61321f89828a01612dd9565b945050606087013567ffffffffffffffff81111561323c57600080fd5b61324889828a01612dd9565b935050608087013567ffffffffffffffff81111561326557600080fd5b61327189828a01612dd9565b92505060a087013567ffffffffffffffff81111561328e57600080fd5b61329a89828a01612dd9565b9150509295509295509295565b6000806000606084860312156132bc57600080fd5b60006132ca86828701612f78565b935050602084013567ffffffffffffffff8111156132e757600080fd5b6132f386828701612e4d565b925050604084013567ffffffffffffffff81111561331057600080fd5b61331c86828701612f24565b9150509250925092565b60008060008060008060c0878903121561333f57600080fd5b600061334d89828a01612f78565b965050602087013567ffffffffffffffff81111561336a57600080fd5b61337689828a01612f24565b955050604087013567ffffffffffffffff81111561339357600080fd5b61339f89828a01612f24565b945050606087013567ffffffffffffffff8111156133bc57600080fd5b6133c889828a01612f24565b935050608087013567ffffffffffffffff8111156133e557600080fd5b6133f189828a01612f24565b92505060a087013567ffffffffffffffff81111561340e57600080fd5b61341a89828a01612f24565b9150509295509295509295565b6000806040838503121561343a57600080fd5b600061344885828601612f78565b925050602061345985828601612f78565b9150509250929050565b60008060008060008060c0878903121561347c57600080fd5b600061348a89828a01612f78565b965050602061349b89828a01612f78565b955050604087013567ffffffffffffffff8111156134b857600080fd5b6134c489828a01612f24565b945050606087013567ffffffffffffffff8111156134e157600080fd5b6134ed89828a01612f24565b935050608087013567ffffffffffffffff81111561350a57600080fd5b61351689828a01612f24565b92505060a087013567ffffffffffffffff81111561353357600080fd5b61353f89828a01612f24565b9150509295509295509295565b6000613558838361375c565b905092915050565b600061356c83836138b4565b905092915050565b60006135808383613952565b60208301905092915050565b600061359782613e37565b6135a18185613e95565b9350836020820285016135b385613e07565b8060005b858110156135ef57848403895281516135d0858261354c565b94506135db83613e6e565b925060208a019950506001810190506135b7565b50829750879550505050505092915050565b600061360c82613e42565b6136168185613ea6565b93508360208202850161362885613e17565b8060005b8581101561366457848403895281516136458582613560565b945061365083613e7b565b925060208a0199505060018101905061362c565b50829750879550505050505092915050565b600061368182613e4d565b61368b8185613eb7565b935061369683613e27565b8060005b838110156136c75781516136ae8882613574565b97506136b983613e88565b92505060018101905061369a565b5085935050505092915050565b6136dd81613ef5565b82525050565b6136ec81613ef5565b82525050565b60006136fd82613e63565b6137078185613ed9565b9350613717818560208601613f1a565b61372081613f4d565b840191505092915050565b600061373682613e63565b6137408185613eea565b9350613750818560208601613f1a565b80840191505092915050565b600061376782613e58565b6137718185613ec8565b9350613781818560208601613f1a565b61378a81613f4d565b840191505092915050565b60006137a082613e58565b6137aa8185613ed9565b93506137ba818560208601613f1a565b6137c381613f4d565b840191505092915050565b60006137db601a83613ed9565b91507f456c656374696f6e20697320616c726561647920636c6f7365640000000000006000830152602082019050919050565b600061381b601283613ed9565b91507f456c656374696f6e20697320636c6f73656400000000000000000000000000006000830152602082019050919050565b600061385b602283613ed9565b91507f496e70757420617272617973206d75737420686176652073616d65206c656e6760008301527f74680000000000000000000000000000000000000000000000000000000000006020830152604082019050919050565b600060c0830160008301516138cc6000860182613952565b50602083015184820360208601526138e4828261375c565b91505060408301516138f960408601826136d4565b5060608301518482036060860152613911828261375c565b9150506080830151848203608086015261392b828261375c565b91505060a083015184820360a0860152613945828261375c565b9150508091505092915050565b61395b81613f01565b82525050565b61396a81613f01565b82525050565b600061397c828461372b565b915081905092915050565b600060208201905081810360008301526139a1818461358c565b905092915050565b600060a08201905081810360008301526139c3818861358c565b905081810360208301526139d7818761358c565b905081810360408301526139eb818661358c565b905081810360608301526139ff818561358c565b90508181036080830152613a13818461358c565b90509695505050505050565b60006040820190508181036000830152613a39818561358c565b90508181036020830152613a4d8184613676565b90509392505050565b60006020820190508181036000830152613a708184613601565b905092915050565b60006020820190508181036000830152613a928184613676565b905092915050565b60006020820190508181036000830152613ab48184613795565b905092915050565b600060c0820190508181036000830152613ad681896136f2565b9050613ae560208301886136e3565b613af26040830187613961565b8181036060830152613b0481866136f2565b90508181036080830152613b1881856136f2565b905081810360a0830152613b2c81846136f2565b9050979650505050505050565b600060c0820190508181036000830152613b5381896136f2565b90508181036020830152613b6781886136f2565b90508181036040830152613b7b81876136f2565b90508181036060830152613b8f81866136f2565b90508181036080830152613ba381856136f2565b9050613bb260a0830184613961565b979650505050505050565b600060c0820190508181036000830152613bd78189613795565b9050613be660208301886136e3565b613bf36040830187613961565b8181036060830152613c058186613795565b90508181036080830152613c198185613795565b905081810360a0830152613c2d8184613795565b9050979650505050505050565b60006020820190508181036000830152613c53816137ce565b9050919050565b60006020820190508181036000830152613c738161380e565b9050919050565b60006020820190508181036000830152613c938161384e565b9050919050565b6000602082019050613caf6000830184613961565b92915050565b600060c082019050613cca6000830189613961565b8181036020830152613cdc8188613795565b9050613ceb60408301876136e3565b8181036060830152613cfd8186613795565b90508181036080830152613d118185613795565b905081810360a0830152613d258184613795565b9050979650505050505050565b6000604051905081810181811067ffffffffffffffff82111715613d5557600080fd5b8060405250919050565b600067ffffffffffffffff821115613d7657600080fd5b602082029050602081019050919050565b600067ffffffffffffffff821115613d9e57600080fd5b602082029050602081019050919050565b600067ffffffffffffffff821115613dc657600080fd5b601f19601f8301169050602081019050919050565b600067ffffffffffffffff821115613df257600080fd5b601f19601f8301169050602081019050919050565b6000819050602082019050919050565b6000819050602082019050919050565b6000819050602082019050919050565b600081519050919050565b600081519050919050565b600081519050919050565b600081519050919050565b600081519050919050565b6000602082019050919050565b6000602082019050919050565b6000602082019050919050565b600082825260208201905092915050565b600082825260208201905092915050565b600082825260208201905092915050565b600082825260208201905092915050565b600082825260208201905092915050565b600081905092915050565b60008115159050919050565b6000819050919050565b82818337600083830152505050565b60005b83811015613f38578082015181840152602081019050613f1d565b83811115613f47576000848401525b50505050565b6000601f19601f8301169050919050565b613f6781613f01565b8114613f7257600080fd5b5056fea365627a7a723158202594180c6c87b3242640704d0541ec7c215b27bdbfbaf4f2145101e865a9eee96c6578706572696d656e74616cf564736f6c63430005100040",
  "source": "// SPDX-License-Identifier: MIT\r\npragma solidity  >=0.4.21 <=0.8.20;\r\npragma experimental ABIEncoderV2;\r\n\r\ncontract Voting {\r\n    mapping (string => CreatedElections[]) public ownedElections;\r\n\r\n    struct CreatedElections {\r\n        uint256 electionId;\r\n        string electionName;\r\n        bool isOpen;\r\n        string startDate;\r\n        string endDate;\r\n        string domainFilter;\r\n    }\r\n\r\n    mapping (string => string[]) public positions;\r\n\r\n    struct Candidate {\r\n        string name;\r\n        string partylist;\r\n        string position;\r\n        string platform;\r\n        string cdn;\r\n        uint256 voteCount;\r\n    }\r\n\r\n    struct Election {\r\n        string name;\r\n        bool isOpen;\r\n        mapping(uint256 => Candidate) candidates;\r\n        uint256 candidatesCount;\r\n        string startDate;\r\n        string endDate;\r\n        string domainFilter;\r\n        mapping(string => bool) hasVoted;\r\n    }\r\n\r\n    mapping(uint256 => Election) public elections;\r\n    uint256 public electionCount;\r\n\r\n    function listPositions(string memory email, string[] memory _positions) public {\r\n        positions[email] = _positions;\r\n    }\r\n\r\n    \r\n    function getPositions(string memory email) public view returns (string[] memory) {\r\n        return positions[email];\r\n    }\r\n\r\n\r\n\r\n    function createElection(string memory _name, string memory _startDate, string memory _endDate, string memory _domainFilter, string memory _email) public {\r\n        electionCount++;\r\n        elections[electionCount].name = _name;\r\n        elections[electionCount].isOpen = true;\r\n        elections[electionCount].candidatesCount = 0;\r\n        elections[electionCount].startDate = _startDate;\r\n        elections[electionCount].endDate = _endDate;\r\n        elections[electionCount].domainFilter = _domainFilter;\r\n        elections[electionCount].hasVoted[_email] = false;\r\n        ownedElections[_email].push(CreatedElections(electionCount, _name, true, _startDate, _endDate, _domainFilter));\r\n    }\r\n\r\n    function getElectionCount() public view returns (uint256) {\r\n        return electionCount;\r\n    }\r\n    \r\n    function updateElection(uint256 _electionId, string memory _title, string memory _startDate, string memory _endDate, string memory _domainFilter, string memory _email) public {\r\n        Election storage e = elections[_electionId];\r\n        e.name = _title;\r\n        e.startDate = _startDate;\r\n        e.endDate = _endDate;\r\n        e.domainFilter = _domainFilter;\r\n        \r\n         CreatedElections[] storage ownedElectionsList = ownedElections[_email];\r\n        for (uint256 i = 0; i < ownedElectionsList.length; i++) {\r\n        if (ownedElectionsList[i].electionId == _electionId) {\r\n            ownedElectionsList[i].electionName = _title;\r\n            ownedElectionsList[i].startDate = _startDate;\r\n            ownedElectionsList[i].endDate = _endDate;\r\n            ownedElectionsList[i].domainFilter = _domainFilter;\r\n            break;\r\n        }\r\n    }\r\n    }\r\n\r\n    \r\n    function getOwnedElections(string memory _email) public view returns (CreatedElections[] memory) {\r\n        return ownedElections[_email];\r\n    }\r\n\r\n    function getOwnedElectionNames(string memory _owner) public view returns (string[] memory) {\r\n        CreatedElections[] storage ownedElectionsList = ownedElections[_owner];\r\n        string[] memory names = new string[](ownedElectionsList.length);\r\n        for (uint256 i = 0; i < ownedElectionsList.length; i++) {\r\n            names[i] = elections[ownedElectionsList[i].electionId].name;\r\n        }\r\n        return names;\r\n    }\r\n\r\n    function getOwnedElectionIds(string memory _owner) public view returns (uint256[] memory) {\r\n        CreatedElections[] storage ownedElectionsList = ownedElections[_owner];\r\n        uint256[] memory ids = new uint256[](ownedElectionsList.length);\r\n        for (uint256 i = 0; i < ownedElectionsList.length; i++) {\r\n            ids[i] = ownedElectionsList[i].electionId;\r\n        }\r\n        return ids;\r\n    }\r\n\r\n    \r\n    function getElectionIdByName(string memory _name) public view returns (uint256) {\r\n        for (uint256 i = 1; i <= electionCount; i++) {\r\n            if (compareStrings(elections[i].name, _name)) {\r\n                return i;\r\n            }\r\n        }\r\n        return 0;\r\n    }\r\n\r\n    function compareStrings(string memory s1, string memory s2) internal pure returns (bool) {\r\n        return keccak256(abi.encodePacked(s1)) == keccak256(abi.encodePacked(s2));\r\n    }\r\n\r\n\r\n    \r\n    function getElectionResults(uint256 _electionId) public view returns (string[] memory, uint256[] memory) {\r\n        Election storage e = elections[_electionId];\r\n        string[] memory names = new string[](e.candidatesCount);\r\n        uint256[] memory votes = new uint256[](e.candidatesCount);\r\n        for (uint256 i = 1; i <= e.candidatesCount; i++) {\r\n            names[i-1] = e.candidates[i].name;\r\n            votes[i-1] = e.candidates[i].voteCount;\r\n        }\r\n        return (names, votes);\r\n    }\r\n\r\n    \r\n    \r\n    function getElectionDetails(uint256 _electionId) public view returns (string memory, bool, uint256, string memory, string memory, string memory) {\r\n        Election storage e = elections[_electionId];\r\n        return (e.name, e.isOpen, e.candidatesCount, e.startDate, e.endDate, e.domainFilter);\r\n    }\r\n\r\n    \r\n    function addCandidates(uint256 _electionId, string[] memory _names, string[] memory _positions, string[] memory _platforms, string[] memory _cdns, string[] memory _partylists) public {\r\n        require(_names.length == _positions.length && _positions.length == _platforms.length && _platforms.length == _cdns.length && _cdns.length == _partylists.length, \"Input arrays must have same length\");\r\n        Election storage e = elections[_electionId];\r\n        for (uint256 i = 0; i < _names.length; i++) {\r\n            e.candidatesCount++;\r\n            e.candidates[e.candidatesCount] = Candidate(_names[i], _partylists[i], _positions[i], _platforms[i], _cdns[i], 0);\r\n        }\r\n    }\r\n\r\n    \r\n    \r\n    function getElectionCandidates(uint256 _electionId) public view returns (string[] memory, string[] memory, string[] memory, string[] memory, string[] memory) {\r\n        Election storage e = elections[_electionId];\r\n        string[] memory names = new string[](e.candidatesCount);\r\n        string[] memory _positions = new string[](e.candidatesCount);\r\n        string[] memory platforms = new string[](e.candidatesCount);\r\n        string[] memory cdns = new string[](e.candidatesCount);\r\n        string[] memory partylists = new string[](e.candidatesCount);\r\n        for (uint256 i = 1; i <= e.candidatesCount; i++) {\r\n            names[i-1] = e.candidates[i].name;\r\n            _positions[i-1] = e.candidates[i].position;\r\n            platforms[i-1] = e.candidates[i].platform;\r\n            cdns[i-1] = e.candidates[i].cdn;\r\n            partylists[i-1] = e.candidates[i].partylist;\r\n        }\r\n        return (names, _positions, platforms, cdns, partylists);\r\n    }\r\n\r\n    \r\n    function getElectionCandidateCount(uint256 _electionId) public view returns (uint256) {\r\n        Election storage e = elections[_electionId];\r\n        return e.candidatesCount;\r\n    }\r\n\r\n    \r\n    function updateCandidate(uint256 _electionId, uint256 _candidateId, string memory _name, string memory _position, string memory _platform, string memory _cdn) public {\r\n        Election storage e = elections[_electionId];\r\n        e.candidates[_candidateId].name = _name;\r\n        e.candidates[_candidateId].position = _position;\r\n        e.candidates[_candidateId].platform = _platform;\r\n        e.candidates[_candidateId].cdn = _cdn;\r\n    }\r\n\r\n    \r\n    function deleteCandidate(uint256 _electionId, uint256 _candidateId) public {\r\n        Election storage e = elections[_electionId];\r\n        if (_candidateId >= e.candidatesCount) return;\r\n\r\n        for (uint256 i = _candidateId; i < e.candidatesCount - 1; i++) {\r\n            e.candidates[i] = e.candidates[i+1];\r\n        }\r\n        e.candidatesCount--;\r\n    }\r\n\r\n    \r\n    function getElectionCandidate(uint256 _electionId, uint256 _candidateId) public view returns (string memory, string memory, string memory, string memory, string memory, uint) {\r\n        Election storage e = elections[_electionId];\r\n        return (e.candidates[_candidateId].name, e.candidates[_candidateId].position, e.candidates[_candidateId].platform, e.candidates[_candidateId].cdn, e.candidates[_candidateId].partylist, e.candidates[_candidateId].voteCount);\r\n    }\r\n\r\n\r\n    \r\n    function vote(uint256 _electionId, uint256[] memory _candidateIds, string memory _email) public {\r\n        Election storage e = elections[_electionId];\r\n        require(e.isOpen, \"Election is closed\");\r\n        for (uint256 i = 0; i < _candidateIds.length; i++) {\r\n            e.candidates[_candidateIds[i]].voteCount++;\r\n        }\r\n        e.hasVoted[_email] = true;\r\n    }\r\n\r\n    \r\n    function closeElection(uint256 _electionId) public {\r\n        require(!elections[_electionId].isOpen, \"Election is already closed\");\r\n        Election storage e = elections[_electionId];\r\n        e.isOpen = false;\r\n    }\r\n\r\n}\r\n",
  "sourcePath": "C:\\Users\\dizon\\OneDrive\\Documents\\GitHub\\SE2-BV\\contracts\\contracts\\Voting.sol",
  "compiler": {
    "name": "solc",
    "version": "0.5.16+commit.9c3226ce.Emscripten.clang"
  },
  "schemaVersion": "3.4.16",
  "updatedAt": "2025-09-19T04:28:08.554Z",
  "networkType": "ethereum",
  "devdoc": {
    "methods": {}
  },
  "userdoc": {
    "methods": {}
  }
}