{
  "contractName": "Voting",
  "abi": [
    {
      "constant": true,
      "inputs": [],
      "name": "electionCount",
      "outputs": [
        {
          "internalType": "uint256",
          "name": "",
          "type": "uint256"
        }
      ],
      "payable": false,
      "stateMutability": "view",
      "type": "function"
    },
    {
      "constant": true,
      "inputs": [
        {
          "internalType": "uint256",
          "name": "",
          "type": "uint256"
        }
      ],
      "name": "elections",
      "outputs": [
        {
          "internalType": "string",
          "name": "name",
          "type": "string"
        },
        {
          "internalType": "bool",
          "name": "isOpen",
          "type": "bool"
        },
        {
          "internalType": "uint256",
          "name": "candidatesCount",
          "type": "uint256"
        },
        {
          "internalType": "string",
          "name": "startDate",
          "type": "string"
        },
        {
          "internalType": "string",
          "name": "endDate",
          "type": "string"
        },
        {
          "internalType": "string",
          "name": "domainFilter",
          "type": "string"
        }
      ],
      "payable": false,
      "stateMutability": "view",
      "type": "function"
    },
    {
      "constant": true,
      "inputs": [
        {
          "internalType": "string",
          "name": "",
          "type": "string"
        },
        {
          "internalType": "uint256",
          "name": "",
          "type": "uint256"
        }
      ],
      "name": "ownedElections",
      "outputs": [
        {
          "internalType": "uint256",
          "name": "electionId",
          "type": "uint256"
        },
        {
          "internalType": "string",
          "name": "electionName",
          "type": "string"
        }
      ],
      "payable": false,
      "stateMutability": "view",
      "type": "function"
    },
    {
      "constant": false,
      "inputs": [
        {
          "internalType": "string",
          "name": "_name",
          "type": "string"
        },
        {
          "internalType": "string",
          "name": "_startDate",
          "type": "string"
        },
        {
          "internalType": "string",
          "name": "_endDate",
          "type": "string"
        },
        {
          "internalType": "string",
          "name": "_domainFilter",
          "type": "string"
        },
        {
          "internalType": "string",
          "name": "_email",
          "type": "string"
        }
      ],
      "name": "createElection",
      "outputs": [],
      "payable": false,
      "stateMutability": "nonpayable",
      "type": "function"
    },
    {
      "constant": false,
      "inputs": [
        {
          "internalType": "uint256",
          "name": "_electionId",
          "type": "uint256"
        },
        {
          "internalType": "string",
          "name": "_title",
          "type": "string"
        },
        {
          "internalType": "string",
          "name": "_startDate",
          "type": "string"
        },
        {
          "internalType": "string",
          "name": "_endDate",
          "type": "string"
        },
        {
          "internalType": "string",
          "name": "_domainFilter",
          "type": "string"
        }
      ],
      "name": "updateElection",
      "outputs": [],
      "payable": false,
      "stateMutability": "nonpayable",
      "type": "function"
    },
    {
      "constant": true,
      "inputs": [
        {
          "internalType": "string",
          "name": "_email",
          "type": "string"
        }
      ],
      "name": "getOwnedElections",
      "outputs": [
        {
          "components": [
            {
              "internalType": "uint256",
              "name": "electionId",
              "type": "uint256"
            },
            {
              "internalType": "string",
              "name": "electionName",
              "type": "string"
            }
          ],
          "internalType": "struct Voting.CreatedElections[]",
          "name": "",
          "type": "tuple[]"
        }
      ],
      "payable": false,
      "stateMutability": "view",
      "type": "function"
    },
    {
      "constant": true,
      "inputs": [
        {
          "internalType": "string",
          "name": "_owner",
          "type": "string"
        }
      ],
      "name": "getOwnedElectionNames",
      "outputs": [
        {
          "internalType": "string[]",
          "name": "",
          "type": "string[]"
        }
      ],
      "payable": false,
      "stateMutability": "view",
      "type": "function"
    },
    {
      "constant": true,
      "inputs": [
        {
          "internalType": "string",
          "name": "_owner",
          "type": "string"
        }
      ],
      "name": "getOwnedElectionIds",
      "outputs": [
        {
          "internalType": "uint256[]",
          "name": "",
          "type": "uint256[]"
        }
      ],
      "payable": false,
      "stateMutability": "view",
      "type": "function"
    },
    {
      "constant": true,
      "inputs": [
        {
          "internalType": "string",
          "name": "_name",
          "type": "string"
        }
      ],
      "name": "getElectionIdByName",
      "outputs": [
        {
          "internalType": "uint256",
          "name": "",
          "type": "uint256"
        }
      ],
      "payable": false,
      "stateMutability": "view",
      "type": "function"
    },
    {
      "constant": true,
      "inputs": [
        {
          "internalType": "uint256",
          "name": "_electionId",
          "type": "uint256"
        }
      ],
      "name": "getElectionResults",
      "outputs": [
        {
          "internalType": "string[]",
          "name": "",
          "type": "string[]"
        },
        {
          "internalType": "uint256[]",
          "name": "",
          "type": "uint256[]"
        }
      ],
      "payable": false,
      "stateMutability": "view",
      "type": "function"
    },
    {
      "constant": true,
      "inputs": [
        {
          "internalType": "uint256",
          "name": "_electionId",
          "type": "uint256"
        }
      ],
      "name": "getElectionDetails",
      "outputs": [
        {
          "internalType": "string",
          "name": "",
          "type": "string"
        },
        {
          "internalType": "bool",
          "name": "",
          "type": "bool"
        },
        {
          "internalType": "uint256",
          "name": "",
          "type": "uint256"
        },
        {
          "internalType": "string",
          "name": "",
          "type": "string"
        },
        {
          "internalType": "string",
          "name": "",
          "type": "string"
        },
        {
          "internalType": "string",
          "name": "",
          "type": "string"
        }
      ],
      "payable": false,
      "stateMutability": "view",
      "type": "function"
    },
    {
      "constant": false,
      "inputs": [
        {
          "internalType": "uint256",
          "name": "_electionId",
          "type": "uint256"
        },
        {
          "internalType": "string[]",
          "name": "_names",
          "type": "string[]"
        },
        {
          "internalType": "string[]",
          "name": "_positions",
          "type": "string[]"
        },
        {
          "internalType": "string[]",
          "name": "_platforms",
          "type": "string[]"
        },
        {
          "internalType": "string[]",
          "name": "_cdns",
          "type": "string[]"
        }
      ],
      "name": "addCandidates",
      "outputs": [],
      "payable": false,
      "stateMutability": "nonpayable",
      "type": "function"
    },
    {
      "constant": true,
      "inputs": [
        {
          "internalType": "uint256",
          "name": "_electionId",
          "type": "uint256"
        }
      ],
      "name": "getElectionCandidates",
      "outputs": [
        {
          "internalType": "string[]",
          "name": "",
          "type": "string[]"
        },
        {
          "internalType": "string[]",
          "name": "",
          "type": "string[]"
        },
        {
          "internalType": "string[]",
          "name": "",
          "type": "string[]"
        },
        {
          "internalType": "string[]",
          "name": "",
          "type": "string[]"
        }
      ],
      "payable": false,
      "stateMutability": "view",
      "type": "function"
    },
    {
      "constant": true,
      "inputs": [
        {
          "internalType": "uint256",
          "name": "_electionId",
          "type": "uint256"
        }
      ],
      "name": "getElectionCandidateCount",
      "outputs": [
        {
          "internalType": "uint256",
          "name": "",
          "type": "uint256"
        }
      ],
      "payable": false,
      "stateMutability": "view",
      "type": "function"
    },
    {
      "constant": false,
      "inputs": [
        {
          "internalType": "uint256",
          "name": "_electionId",
          "type": "uint256"
        },
        {
          "internalType": "uint256",
          "name": "_candidateId",
          "type": "uint256"
        },
        {
          "internalType": "string",
          "name": "_name",
          "type": "string"
        },
        {
          "internalType": "string",
          "name": "_position",
          "type": "string"
        },
        {
          "internalType": "string",
          "name": "_platform",
          "type": "string"
        },
        {
          "internalType": "string",
          "name": "_cdn",
          "type": "string"
        }
      ],
      "name": "updateCandidate",
      "outputs": [],
      "payable": false,
      "stateMutability": "nonpayable",
      "type": "function"
    },
    {
      "constant": false,
      "inputs": [
        {
          "internalType": "uint256",
          "name": "_electionId",
          "type": "uint256"
        },
        {
          "internalType": "uint256",
          "name": "_candidateId",
          "type": "uint256"
        }
      ],
      "name": "deleteCandidate",
      "outputs": [],
      "payable": false,
      "stateMutability": "nonpayable",
      "type": "function"
    },
    {
      "constant": true,
      "inputs": [
        {
          "internalType": "uint256",
          "name": "_electionId",
          "type": "uint256"
        },
        {
          "internalType": "uint256",
          "name": "_candidateId",
          "type": "uint256"
        }
      ],
      "name": "getElectionCandidate",
      "outputs": [
        {
          "internalType": "string",
          "name": "",
          "type": "string"
        },
        {
          "internalType": "string",
          "name": "",
          "type": "string"
        },
        {
          "internalType": "string",
          "name": "",
          "type": "string"
        },
        {
          "internalType": "string",
          "name": "",
          "type": "string"
        },
        {
          "internalType": "uint256",
          "name": "",
          "type": "uint256"
        }
      ],
      "payable": false,
      "stateMutability": "view",
      "type": "function"
    },
    {
      "constant": false,
      "inputs": [
        {
          "internalType": "uint256",
          "name": "_electionId",
          "type": "uint256"
        },
        {
          "internalType": "uint256[]",
          "name": "_candidateIds",
          "type": "uint256[]"
        },
        {
          "internalType": "string",
          "name": "_email",
          "type": "string"
        }
      ],
      "name": "vote",
      "outputs": [],
      "payable": false,
      "stateMutability": "nonpayable",
      "type": "function"
    },
    {
      "constant": false,
      "inputs": [
        {
          "internalType": "uint256",
          "name": "_electionId",
          "type": "uint256"
        }
      ],
      "name": "closeElection",
      "outputs": [],
      "payable": false,
      "stateMutability": "nonpayable",
      "type": "function"
    }
  ],
  "bytecode": "0x608060405234801561001057600080fd5b5061317e806100206000396000f3fe608060405234801561001057600080fd5b50600436106101215760003560e01c80635f5db526116100ad578063c14cfa2111610071578063c14cfa2114610359578063cf4a606014610375578063e8ededa614610391578063f6049924146103c2578063f70171fb146103f757610121565b80635f5db5261461028e5780637ea7af04146102bf5780638def48da146102ef578063997d28301461030b578063bade11571461032957610121565b80631a73f771116100f45780631a73f771146101d25780634628ba7f146101ee57806350efbc751461020a5780635e12845e146102265780635e6fef011461025957610121565b806307ccd61714610126578063088b06631461015657806309e33d07146101865780631227dd41146101a2575b600080fd5b610140600480360361013b919081019061237c565b61042b565b60405161014d9190612ce2565b60405180910390f35b610170600480360361016b9190810190612500565b6104e6565b60405161017d9190612ead565b60405180910390f35b6101a0600480360361019b9190810190612500565b61050b565b005b6101bc60048036036101b7919081019061237c565b610543565b6040516101c99190612cc0565b60405180910390f35b6101ec60048036036101e79190810190612529565b61066c565b005b61020860048036036102039190810190612792565b610828565b005b610224600480360361021f91908101906123bd565b6108fc565b005b610240600480360361023b9190810190612500565b610aef565b6040516102509493929190612c28565b60405180910390f35b610273600480360361026e9190810190612500565b610f64565b60405161028596959493929190612df0565b60405180910390f35b6102a860048036036102a391908101906124ac565b61120d565b6040516102b6929190612ec8565b60405180910390f35b6102d960048036036102d4919081019061237c565b6112f9565b6040516102e69190612c06565b60405180910390f35b6103096004803603610304919081019061267f565b611466565b005b6103136114e9565b6040516103209190612ead565b60405180910390f35b610343600480360361033e919081019061237c565b6114ef565b6040516103509190612ead565b60405180910390f35b610373600480360361036e9190810190612600565b6115de565b005b61038f600480360361038a9190810190612756565b6116dd565b005b6103ab60048036036103a69190810190612500565b61181d565b6040516103b9929190612c89565b60405180910390f35b6103dc60048036036103d79190810190612500565b6119d9565b6040516103ee96959493929190612d04565b60405180910390f35b610411600480360361040c9190810190612756565b611ca7565b604051610422959493929190612d81565b60405180910390f35b60606000808360405161043e9190612bef565b90815260200160405180910390209050606081805490506040519080825280602002602001820160405280156104835781602001602082028038833980820191505090505b50905060008090505b82805490508110156104db578281815481106104a457fe5b9060005260206000209060020201600001548282815181106104c257fe5b602002602001018181525050808060010191505061048c565b508092505050919050565b6000806002600084815260200190815260200160002090508060030154915050919050565b600060026000838152602001908152602001600020905060008160010160006101000a81548160ff0219169083151502179055505050565b60606000826040516105559190612bef565b9081526020016040518091039020805480602002602001604051908101604052809291908181526020016000905b82821015610661578382906000526020600020906002020160405180604001604052908160008201548152602001600182018054600181600116156101000203166002900480601f0160208091040260200160405190810160405280929190818152602001828054600181600116156101000203166002900480156106495780601f1061061e57610100808354040283529160200191610649565b820191906000526020600020905b81548152906001019060200180831161062c57829003601f168201915b50505050508152505081526020019060010190610583565b505050509050919050565b8251845114801561067e575081518351145b801561068b575080518251145b6106ca576040517f08c379a00000000000000000000000000000000000000000000000000000000081526004016106c190612e8d565b60405180910390fd5b600060026000878152602001908152602001600020905060008090505b855181101561081f5781600301600081548092919060010191905055506040518060a0016040528087838151811061071b57fe5b6020026020010151815260200186838151811061073457fe5b6020026020010151815260200185838151811061074d57fe5b6020026020010151815260200184838151811061076657fe5b6020026020010151815260200160008152508260020160008460030154815260200190815260200160002060008201518160000190805190602001906107ad92919061201c565b5060208201518160010190805190602001906107ca92919061201c565b5060408201518160020190805190602001906107e792919061201c565b50606082015181600301908051906020019061080492919061201c565b506080820151816004015590505080806001019150506106e7565b50505050505050565b600060026000888152602001908152602001600020905084816002016000888152602001908152602001600020600001908051906020019061086b92919061209c565b5083816002016000888152602001908152602001600020600101908051906020019061089892919061209c565b508281600201600088815260200190815260200160002060020190805190602001906108c592919061209c565b508181600201600088815260200190815260200160002060030190805190602001906108f292919061209c565b5050505050505050565b60036000815480929190600101919050555084600260006003548152602001908152602001600020600001908051906020019061093a92919061209c565b50600160026000600354815260200190815260200160002060010160006101000a81548160ff0219169083151502179055506000600260006003548152602001908152602001600020600301819055508360026000600354815260200190815260200160002060040190805190602001906109b692919061209c565b508260026000600354815260200190815260200160002060050190805190602001906109e392919061209c565b50816002600060035481526020019081526020016000206006019080519060200190610a1092919061209c565b50600060026000600354815260200190815260200160002060070182604051610a399190612bef565b908152602001604051809103902060006101000a81548160ff021916908315150217905550600081604051610a6e9190612bef565b9081526020016040518091039020604051806040016040528060035481526020018781525090806001815401808255809150509060018203906000526020600020906002020160009091929091909150600082015181600001556020820151816001019080519060200190610ae492919061201c565b505050505050505050565b606080606080600060026000878152602001908152602001600020905060608160030154604051908082528060200260200182016040528015610b4657816020015b6060815260200190600190039081610b315790505b50905060608260030154604051908082528060200260200182016040528015610b8357816020015b6060815260200190600190039081610b6e5790505b50905060608360030154604051908082528060200260200182016040528015610bc057816020015b6060815260200190600190039081610bab5790505b50905060608460030154604051908082528060200260200182016040528015610bfd57816020015b6060815260200190600190039081610be85790505b5090506000600190505b85600301548111610f4b578560020160008281526020019081526020016000206000018054600181600116156101000203166002900480601f016020809104026020016040519081016040528092919081815260200182805460018160011615610100020316600290048015610cbe5780601f10610c9357610100808354040283529160200191610cbe565b820191906000526020600020905b815481529060010190602001808311610ca157829003601f168201915b5050505050856001830381518110610cd257fe5b60200260200101819052508560020160008281526020019081526020016000206001018054600181600116156101000203166002900480601f016020809104026020016040519081016040528092919081815260200182805460018160011615610100020316600290048015610d895780601f10610d5e57610100808354040283529160200191610d89565b820191906000526020600020905b815481529060010190602001808311610d6c57829003601f168201915b5050505050846001830381518110610d9d57fe5b60200260200101819052508560020160008281526020019081526020016000206002018054600181600116156101000203166002900480601f016020809104026020016040519081016040528092919081815260200182805460018160011615610100020316600290048015610e545780601f10610e2957610100808354040283529160200191610e54565b820191906000526020600020905b815481529060010190602001808311610e3757829003601f168201915b5050505050836001830381518110610e6857fe5b60200260200101819052508560020160008281526020019081526020016000206003018054600181600116156101000203166002900480601f016020809104026020016040519081016040528092919081815260200182805460018160011615610100020316600290048015610f1f5780601f10610ef457610100808354040283529160200191610f1f565b820191906000526020600020905b815481529060010190602001808311610f0257829003601f168201915b5050505050826001830381518110610f3357fe5b60200260200101819052508080600101915050610c07565b5083838383985098509850985050505050509193509193565b6002602052806000526040600020600091509050806000018054600181600116156101000203166002900480601f0160208091040260200160405190810160405280929190818152602001828054600181600116156101000203166002900480156110105780601f10610fe557610100808354040283529160200191611010565b820191906000526020600020905b815481529060010190602001808311610ff357829003601f168201915b5050505050908060010160009054906101000a900460ff1690806003015490806004018054600181600116156101000203166002900480601f0160208091040260200160405190810160405280929190818152602001828054600181600116156101000203166002900480156110c75780601f1061109c576101008083540402835291602001916110c7565b820191906000526020600020905b8154815290600101906020018083116110aa57829003601f168201915b505050505090806005018054600181600116156101000203166002900480601f0160208091040260200160405190810160405280929190818152602001828054600181600116156101000203166002900480156111655780601f1061113a57610100808354040283529160200191611165565b820191906000526020600020905b81548152906001019060200180831161114857829003601f168201915b505050505090806006018054600181600116156101000203166002900480601f0160208091040260200160405190810160405280929190818152602001828054600181600116156101000203166002900480156112035780601f106111d857610100808354040283529160200191611203565b820191906000526020600020905b8154815290600101906020018083116111e657829003601f168201915b5050505050905086565b600082805160208101820180518482526020830160208501208183528095505050505050818154811061123c57fe5b906000526020600020906002020160009150915050806000015490806001018054600181600116156101000203166002900480601f0160208091040260200160405190810160405280929190818152602001828054600181600116156101000203166002900480156112ef5780601f106112c4576101008083540402835291602001916112ef565b820191906000526020600020905b8154815290600101906020018083116112d257829003601f168201915b5050505050905082565b60606000808360405161130c9190612bef565b908152602001604051809103902090506060818054905060405190808252806020026020018201604052801561135657816020015b60608152602001906001900390816113415790505b50905060008090505b828054905081101561145b576002600084838154811061137b57fe5b90600052602060002090600202016000015481526020019081526020016000206000018054600181600116156101000203166002900480601f0160208091040260200160405190810160405280929190818152602001828054600181600116156101000203166002900480156114325780601f1061140757610100808354040283529160200191611432565b820191906000526020600020905b81548152906001019060200180831161141557829003601f168201915b505050505082828151811061144357fe5b6020026020010181905250808060010191505061135f565b508092505050919050565b60006002600087815260200190815260200160002090508481600001908051906020019061149592919061209c565b50838160040190805190602001906114ae92919061209c565b50828160050190805190602001906114c792919061209c565b50818160060190805190602001906114e092919061209c565b50505050505050565b60035481565b600080600190505b60035481116115d3576115b8600260008381526020019081526020016000206000018054600181600116156101000203166002900480601f0160208091040260200160405190810160405280929190818152602001828054600181600116156101000203166002900480156115ad5780601f10611582576101008083540402835291602001916115ad565b820191906000526020600020905b81548152906001019060200180831161159057829003601f168201915b505050505084611fc3565b156115c657809150506115d9565b80806001019150506114f7565b50600090505b919050565b60006002600085815260200190815260200160002090508060010160009054906101000a900460ff16611646576040517f08c379a000000000000000000000000000000000000000000000000000000000815260040161163d90612e6d565b60405180910390fd5b60008090505b835181101561169d5781600201600085838151811061166757fe5b6020026020010151815260200190815260200160002060040160008154809291906001019190505550808060010191505061164c565b50600181600701836040516116b29190612bef565b908152602001604051809103902060006101000a81548160ff02191690831515021790555050505050565b6000600260008481526020019081526020016000209050806003015482106117055750611819565b60008290505b6001826003015403811015611801578160020160006001830181526020019081526020016000208260020160008381526020019081526020016000206000820181600001908054600181600116156101000203166002900461176e92919061211c565b506001820181600101908054600181600116156101000203166002900461179692919061211c565b50600282018160020190805460018160011615610100020316600290046117be92919061211c565b50600382018160030190805460018160011615610100020316600290046117e692919061211c565b5060048201548160040155905050808060010191505061170b565b50806003016000815480929190600190039190505550505b5050565b60608060006002600085815260200190815260200160002090506060816003015460405190808252806020026020018201604052801561187157816020015b606081526020019060019003908161185c5790505b509050606082600301546040519080825280602002602001820160405280156118a95781602001602082028038833980820191505090505b5090506000600190505b836003015481116119ca578360020160008281526020019081526020016000206000018054600181600116156101000203166002900480601f01602080910402602001604051908101604052809291908181526020018280546001816001161561010002031660029004801561196a5780601f1061193f5761010080835404028352916020019161196a565b820191906000526020600020905b81548152906001019060200180831161194d57829003601f168201915b505050505083600183038151811061197e57fe5b6020026020010181905250836002016000828152602001908152602001600020600401548260018303815181106119b157fe5b60200260200101818152505080806001019150506118b3565b50818194509450505050915091565b606060008060608060606000600260008981526020019081526020016000209050806000018160010160009054906101000a900460ff168260030154836004018460050185600601858054600181600116156101000203166002900480601f016020809104026020016040519081016040528092919081815260200182805460018160011615610100020316600290048015611ab65780601f10611a8b57610100808354040283529160200191611ab6565b820191906000526020600020905b815481529060010190602001808311611a9957829003601f168201915b50505050509550828054600181600116156101000203166002900480601f016020809104026020016040519081016040528092919081815260200182805460018160011615610100020316600290048015611b525780601f10611b2757610100808354040283529160200191611b52565b820191906000526020600020905b815481529060010190602001808311611b3557829003601f168201915b50505050509250818054600181600116156101000203166002900480601f016020809104026020016040519081016040528092919081815260200182805460018160011615610100020316600290048015611bee5780601f10611bc357610100808354040283529160200191611bee565b820191906000526020600020905b815481529060010190602001808311611bd157829003601f168201915b50505050509150808054600181600116156101000203166002900480601f016020809104026020016040519081016040528092919081815260200182805460018160011615610100020316600290048015611c8a5780601f10611c5f57610100808354040283529160200191611c8a565b820191906000526020600020905b815481529060010190602001808311611c6d57829003601f168201915b505050505090509650965096509650965096505091939550919395565b6060806060806000806002600089815260200190815260200160002090508060020160008881526020019081526020016000206000018160020160008981526020019081526020016000206001018260020160008a81526020019081526020016000206002018360020160008b81526020019081526020016000206003018460020160008c815260200190815260200160002060040154848054600181600116156101000203166002900480601f016020809104026020016040519081016040528092919081815260200182805460018160011615610100020316600290048015611dd35780601f10611da857610100808354040283529160200191611dd3565b820191906000526020600020905b815481529060010190602001808311611db657829003601f168201915b50505050509450838054600181600116156101000203166002900480601f016020809104026020016040519081016040528092919081815260200182805460018160011615610100020316600290048015611e6f5780601f10611e4457610100808354040283529160200191611e6f565b820191906000526020600020905b815481529060010190602001808311611e5257829003601f168201915b50505050509350828054600181600116156101000203166002900480601f016020809104026020016040519081016040528092919081815260200182805460018160011615610100020316600290048015611f0b5780601f10611ee057610100808354040283529160200191611f0b565b820191906000526020600020905b815481529060010190602001808311611eee57829003601f168201915b50505050509250818054600181600116156101000203166002900480601f016020809104026020016040519081016040528092919081815260200182805460018160011615610100020316600290048015611fa75780601f10611f7c57610100808354040283529160200191611fa7565b820191906000526020600020905b815481529060010190602001808311611f8a57829003601f168201915b5050505050915095509550955095509550509295509295909350565b600081604051602001611fd69190612bef565b6040516020818303038152906040528051906020012083604051602001611ffd9190612bef565b6040516020818303038152906040528051906020012014905092915050565b828054600181600116156101000203166002900490600052602060002090601f016020900481019282601f1061205d57805160ff191683800117855561208b565b8280016001018555821561208b579182015b8281111561208a57825182559160200191906001019061206f565b5b50905061209891906121a3565b5090565b828054600181600116156101000203166002900490600052602060002090601f016020900481019282601f106120dd57805160ff191683800117855561210b565b8280016001018555821561210b579182015b8281111561210a5782518255916020019190600101906120ef565b5b50905061211891906121a3565b5090565b828054600181600116156101000203166002900490600052602060002090601f016020900481019282601f106121555780548555612192565b8280016001018555821561219257600052602060002091601f016020900482015b82811115612191578254825591600101919060010190612176565b5b50905061219f91906121a3565b5090565b6121c591905b808211156121c15760008160009055506001016121a9565b5090565b90565b600082601f8301126121d957600080fd5b81356121ec6121e782612f25565b612ef8565b9150818183526020840193506020810190508360005b83811015612232578135860161221888826122bf565b845260208401935060208301925050600181019050612202565b5050505092915050565b600082601f83011261224d57600080fd5b813561226061225b82612f4d565b612ef8565b9150818183526020840193506020810190508385602084028201111561228557600080fd5b60005b838110156122b5578161229b8882612367565b845260208401935060208301925050600181019050612288565b5050505092915050565b600082601f8301126122d057600080fd5b81356122e36122de82612f75565b612ef8565b915080825260208301602083018583830111156122ff57600080fd5b61230a8382846130d1565b50505092915050565b600082601f83011261232457600080fd5b813561233761233282612fa1565b612ef8565b9150808252602083016020830185838301111561235357600080fd5b61235e8382846130d1565b50505092915050565b60008135905061237681613124565b92915050565b60006020828403121561238e57600080fd5b600082013567ffffffffffffffff8111156123a857600080fd5b6123b484828501612313565b91505092915050565b600080600080600060a086880312156123d557600080fd5b600086013567ffffffffffffffff8111156123ef57600080fd5b6123fb88828901612313565b955050602086013567ffffffffffffffff81111561241857600080fd5b61242488828901612313565b945050604086013567ffffffffffffffff81111561244157600080fd5b61244d88828901612313565b935050606086013567ffffffffffffffff81111561246a57600080fd5b61247688828901612313565b925050608086013567ffffffffffffffff81111561249357600080fd5b61249f88828901612313565b9150509295509295909350565b600080604083850312156124bf57600080fd5b600083013567ffffffffffffffff8111156124d957600080fd5b6124e5858286016122bf565b92505060206124f685828601612367565b9150509250929050565b60006020828403121561251257600080fd5b600061252084828501612367565b91505092915050565b600080600080600060a0868803121561254157600080fd5b600061254f88828901612367565b955050602086013567ffffffffffffffff81111561256c57600080fd5b612578888289016121c8565b945050604086013567ffffffffffffffff81111561259557600080fd5b6125a1888289016121c8565b935050606086013567ffffffffffffffff8111156125be57600080fd5b6125ca888289016121c8565b925050608086013567ffffffffffffffff8111156125e757600080fd5b6125f3888289016121c8565b9150509295509295909350565b60008060006060848603121561261557600080fd5b600061262386828701612367565b935050602084013567ffffffffffffffff81111561264057600080fd5b61264c8682870161223c565b925050604084013567ffffffffffffffff81111561266957600080fd5b61267586828701612313565b9150509250925092565b600080600080600060a0868803121561269757600080fd5b60006126a588828901612367565b955050602086013567ffffffffffffffff8111156126c257600080fd5b6126ce88828901612313565b945050604086013567ffffffffffffffff8111156126eb57600080fd5b6126f788828901612313565b935050606086013567ffffffffffffffff81111561271457600080fd5b61272088828901612313565b925050608086013567ffffffffffffffff81111561273d57600080fd5b61274988828901612313565b9150509295509295909350565b6000806040838503121561276957600080fd5b600061277785828601612367565b925050602061278885828601612367565b9150509250929050565b60008060008060008060c087890312156127ab57600080fd5b60006127b989828a01612367565b96505060206127ca89828a01612367565b955050604087013567ffffffffffffffff8111156127e757600080fd5b6127f389828a01612313565b945050606087013567ffffffffffffffff81111561281057600080fd5b61281c89828a01612313565b935050608087013567ffffffffffffffff81111561283957600080fd5b61284589828a01612313565b92505060a087013567ffffffffffffffff81111561286257600080fd5b61286e89828a01612313565b9150509295509295509295565b60006128878383612a7c565b905092915050565b600061289b8383612b94565b905092915050565b60006128af8383612bd1565b60208301905092915050565b60006128c682612ffd565b6128d0818561305b565b9350836020820285016128e285612fcd565b8060005b8581101561291e57848403895281516128ff858261287b565b945061290a83613034565b925060208a019950506001810190506128e6565b50829750879550505050505092915050565b600061293b82613008565b612945818561306c565b93508360208202850161295785612fdd565b8060005b858110156129935784840389528151612974858261288f565b945061297f83613041565b925060208a0199505060018101905061295b565b50829750879550505050505092915050565b60006129b082613013565b6129ba818561307d565b93506129c583612fed565b8060005b838110156129f65781516129dd88826128a3565b97506129e88361304e565b9250506001810190506129c9565b5085935050505092915050565b612a0c816130bb565b82525050565b6000612a1d82613029565b612a27818561309f565b9350612a378185602086016130e0565b612a4081613113565b840191505092915050565b6000612a5682613029565b612a6081856130b0565b9350612a708185602086016130e0565b80840191505092915050565b6000612a878261301e565b612a91818561308e565b9350612aa18185602086016130e0565b612aaa81613113565b840191505092915050565b6000612ac08261301e565b612aca818561309f565b9350612ada8185602086016130e0565b612ae381613113565b840191505092915050565b6000612afb60128361309f565b91507f456c656374696f6e20697320636c6f73656400000000000000000000000000006000830152602082019050919050565b6000612b3b60228361309f565b91507f496e70757420617272617973206d75737420686176652073616d65206c656e6760008301527f74680000000000000000000000000000000000000000000000000000000000006020830152604082019050919050565b6000604083016000830151612bac6000860182612bd1565b5060208301518482036020860152612bc48282612a7c565b9150508091505092915050565b612bda816130c7565b82525050565b612be9816130c7565b82525050565b6000612bfb8284612a4b565b915081905092915050565b60006020820190508181036000830152612c2081846128bb565b905092915050565b60006080820190508181036000830152612c4281876128bb565b90508181036020830152612c5681866128bb565b90508181036040830152612c6a81856128bb565b90508181036060830152612c7e81846128bb565b905095945050505050565b60006040820190508181036000830152612ca381856128bb565b90508181036020830152612cb781846129a5565b90509392505050565b60006020820190508181036000830152612cda8184612930565b905092915050565b60006020820190508181036000830152612cfc81846129a5565b905092915050565b600060c0820190508181036000830152612d1e8189612a12565b9050612d2d6020830188612a03565b612d3a6040830187612be0565b8181036060830152612d4c8186612a12565b90508181036080830152612d608185612a12565b905081810360a0830152612d748184612a12565b9050979650505050505050565b600060a0820190508181036000830152612d9b8188612a12565b90508181036020830152612daf8187612a12565b90508181036040830152612dc38186612a12565b90508181036060830152612dd78185612a12565b9050612de66080830184612be0565b9695505050505050565b600060c0820190508181036000830152612e0a8189612ab5565b9050612e196020830188612a03565b612e266040830187612be0565b8181036060830152612e388186612ab5565b90508181036080830152612e4c8185612ab5565b905081810360a0830152612e608184612ab5565b9050979650505050505050565b60006020820190508181036000830152612e8681612aee565b9050919050565b60006020820190508181036000830152612ea681612b2e565b9050919050565b6000602082019050612ec26000830184612be0565b92915050565b6000604082019050612edd6000830185612be0565b8181036020830152612eef8184612ab5565b90509392505050565b6000604051905081810181811067ffffffffffffffff82111715612f1b57600080fd5b8060405250919050565b600067ffffffffffffffff821115612f3c57600080fd5b602082029050602081019050919050565b600067ffffffffffffffff821115612f6457600080fd5b602082029050602081019050919050565b600067ffffffffffffffff821115612f8c57600080fd5b601f19601f8301169050602081019050919050565b600067ffffffffffffffff821115612fb857600080fd5b601f19601f8301169050602081019050919050565b6000819050602082019050919050565b6000819050602082019050919050565b6000819050602082019050919050565b600081519050919050565b600081519050919050565b600081519050919050565b600081519050919050565b600081519050919050565b6000602082019050919050565b6000602082019050919050565b6000602082019050919050565b600082825260208201905092915050565b600082825260208201905092915050565b600082825260208201905092915050565b600082825260208201905092915050565b600082825260208201905092915050565b600081905092915050565b60008115159050919050565b6000819050919050565b82818337600083830152505050565b60005b838110156130fe5780820151818401526020810190506130e3565b8381111561310d576000848401525b50505050565b6000601f19601f8301169050919050565b61312d816130c7565b811461313857600080fd5b5056fea365627a7a723158201e7cc8dfe4e362df26c70af6fc6eb01322b06c764854c10142594278cc3f640c6c6578706572696d656e74616cf564736f6c63430005100040",
  "source": "// SPDX-License-Identifier: MIT\r\npragma solidity  >=0.4.21 <=0.8.20;\r\npragma experimental ABIEncoderV2;\r\n\r\ncontract Voting {\r\n    mapping (string => CreatedElections[]) public ownedElections;\r\n\r\n    struct CreatedElections {\r\n        uint256 electionId;\r\n        string electionName;\r\n    }\r\n\r\n    \r\n\r\n    address deployer;\r\n\r\n    struct Candidate {\r\n        string name;\r\n        string position;\r\n        string platform;\r\n        string cdn;\r\n        uint256 voteCount;\r\n    }\r\n\r\n    struct Election {\r\n        string name;\r\n        bool isOpen;\r\n        mapping(uint256 => Candidate) candidates;\r\n        uint256 candidatesCount;\r\n        string startDate;\r\n        string endDate;\r\n        string domainFilter;\r\n        mapping(string => bool) hasVoted;\r\n    }\r\n\r\n    mapping(uint256 => Election) public elections;\r\n    uint256 public electionCount;\r\n\r\n    function createElection(string memory _name, string memory _startDate, string memory _endDate, string memory _domainFilter, string memory _email) public {\r\n        electionCount++;\r\n        elections[electionCount].name = _name;\r\n        elections[electionCount].isOpen = true;\r\n        elections[electionCount].candidatesCount = 0;\r\n        elections[electionCount].startDate = _startDate;\r\n        elections[electionCount].endDate = _endDate;\r\n        elections[electionCount].domainFilter = _domainFilter;\r\n        elections[electionCount].hasVoted[_email] = false;\r\n        ownedElections[_email].push(CreatedElections(electionCount, _name));\r\n    }\r\n\r\n    \r\n    function updateElection(uint256 _electionId, string memory _title, string memory _startDate, string memory _endDate, string memory _domainFilter) public {\r\n        Election storage e = elections[_electionId];\r\n        e.name = _title;\r\n        e.startDate = _startDate;\r\n        e.endDate = _endDate;\r\n        e.domainFilter = _domainFilter;\r\n    }\r\n\r\n    \r\n    function getOwnedElections(string memory _email) public view returns (CreatedElections[] memory) {\r\n        return ownedElections[_email];\r\n    }\r\n\r\n    function getOwnedElectionNames(string memory _owner) public view returns (string[] memory) {\r\n        CreatedElections[] storage ownedElectionsList = ownedElections[_owner];\r\n        string[] memory names = new string[](ownedElectionsList.length);\r\n        for (uint256 i = 0; i < ownedElectionsList.length; i++) {\r\n            names[i] = elections[ownedElectionsList[i].electionId].name;\r\n        }\r\n        return names;\r\n    }\r\n\r\n    function getOwnedElectionIds(string memory _owner) public view returns (uint256[] memory) {\r\n        CreatedElections[] storage ownedElectionsList = ownedElections[_owner];\r\n        uint256[] memory ids = new uint256[](ownedElectionsList.length);\r\n        for (uint256 i = 0; i < ownedElectionsList.length; i++) {\r\n            ids[i] = ownedElectionsList[i].electionId;\r\n        }\r\n        return ids;\r\n    }\r\n\r\n    \r\n    function getElectionIdByName(string memory _name) public view returns (uint256) {\r\n        for (uint256 i = 1; i <= electionCount; i++) {\r\n            if (compareStrings(elections[i].name, _name)) {\r\n                return i;\r\n            }\r\n        }\r\n        return 0;\r\n    }\r\n\r\n    function compareStrings(string memory s1, string memory s2) internal pure returns (bool) {\r\n        return keccak256(abi.encodePacked(s1)) == keccak256(abi.encodePacked(s2));\r\n    }\r\n\r\n\r\n    \r\n    function getElectionResults(uint256 _electionId) public view returns (string[] memory, uint256[] memory) {\r\n        Election storage e = elections[_electionId];\r\n        string[] memory names = new string[](e.candidatesCount);\r\n        uint256[] memory votes = new uint256[](e.candidatesCount);\r\n        for (uint256 i = 1; i <= e.candidatesCount; i++) {\r\n            names[i-1] = e.candidates[i].name;\r\n            votes[i-1] = e.candidates[i].voteCount;\r\n        }\r\n        return (names, votes);\r\n    }\r\n\r\n    \r\n    \r\n    function getElectionDetails(uint256 _electionId) public view returns (string memory, bool, uint256, string memory, string memory, string memory) {\r\n        Election storage e = elections[_electionId];\r\n        return (e.name, e.isOpen, e.candidatesCount, e.startDate, e.endDate, e.domainFilter);\r\n    }\r\n\r\n    \r\n    function addCandidates(uint256 _electionId, string[] memory _names, string[] memory _positions, string[] memory _platforms, string[] memory _cdns) public {\r\n        require(_names.length == _positions.length && _positions.length == _platforms.length && _platforms.length == _cdns.length, \"Input arrays must have same length\");\r\n        Election storage e = elections[_electionId];\r\n        for (uint256 i = 0; i < _names.length; i++) {\r\n            e.candidatesCount++;\r\n            e.candidates[e.candidatesCount] = Candidate(_names[i], _positions[i], _platforms[i], _cdns[i], 0);\r\n        }\r\n    }\r\n\r\n    \r\n    \r\n    function getElectionCandidates(uint256 _electionId) public view returns (string[] memory, string[] memory, string[] memory, string[] memory) {\r\n        Election storage e = elections[_electionId];\r\n        string[] memory names = new string[](e.candidatesCount);\r\n        string[] memory positions = new string[](e.candidatesCount);\r\n        string[] memory platforms = new string[](e.candidatesCount);\r\n        string[] memory cdns = new string[](e.candidatesCount);\r\n        for (uint256 i = 1; i <= e.candidatesCount; i++) {\r\n            names[i-1] = e.candidates[i].name;\r\n            positions[i-1] = e.candidates[i].position;\r\n            platforms[i-1] = e.candidates[i].platform;\r\n            cdns[i-1] = e.candidates[i].cdn;\r\n        }\r\n        return (names, positions, platforms, cdns);\r\n    }\r\n\r\n    \r\n    function getElectionCandidateCount(uint256 _electionId) public view returns (uint256) {\r\n        Election storage e = elections[_electionId];\r\n        return e.candidatesCount;\r\n    }\r\n\r\n    \r\n    function updateCandidate(uint256 _electionId, uint256 _candidateId, string memory _name, string memory _position, string memory _platform, string memory _cdn) public {\r\n        Election storage e = elections[_electionId];\r\n        e.candidates[_candidateId].name = _name;\r\n        e.candidates[_candidateId].position = _position;\r\n        e.candidates[_candidateId].platform = _platform;\r\n        e.candidates[_candidateId].cdn = _cdn;\r\n    }\r\n\r\n    \r\n    function deleteCandidate(uint256 _electionId, uint256 _candidateId) public {\r\n        Election storage e = elections[_electionId];\r\n        if (_candidateId >= e.candidatesCount) return;\r\n\r\n        for (uint256 i = _candidateId; i < e.candidatesCount - 1; i++) {\r\n            e.candidates[i] = e.candidates[i+1];\r\n        }\r\n        e.candidatesCount--;\r\n    }\r\n\r\n    \r\n    function getElectionCandidate(uint256 _electionId, uint256 _candidateId) public view returns (string memory, string memory, string memory, string memory, uint) {\r\n        Election storage e = elections[_electionId];\r\n        return (e.candidates[_candidateId].name, e.candidates[_candidateId].position, e.candidates[_candidateId].platform, e.candidates[_candidateId].cdn, e.candidates[_candidateId].voteCount);\r\n    }\r\n\r\n\r\n    \r\n    function vote(uint256 _electionId, uint256[] memory _candidateIds, string memory _email) public {\r\n        Election storage e = elections[_electionId];\r\n        require(e.isOpen, \"Election is closed\");\r\n        for (uint256 i = 0; i < _candidateIds.length; i++) {\r\n            e.candidates[_candidateIds[i]].voteCount++;\r\n        }\r\n        e.hasVoted[_email] = true;\r\n    }\r\n\r\n    \r\n    function closeElection(uint256 _electionId) public {\r\n        Election storage e = elections[_electionId];\r\n        e.isOpen = false;\r\n    }\r\n\r\n}\r\n",
  "sourcePath": "C:\\Users\\dizon\\OneDrive\\Documents\\GitHub\\SE2-BV\\contracts\\contracts\\Voting.sol",
  "compiler": {
    "name": "solc",
    "version": "0.5.16+commit.9c3226ce.Emscripten.clang"
  },
  "schemaVersion": "3.4.16",
  "updatedAt": "2025-09-08T21:02:46.398Z",
  "networkType": "ethereum",
  "devdoc": {
    "methods": {}
  },
  "userdoc": {
    "methods": {}
  }
}