{
  "contractName": "Voting",
  "abi": [
    {
      "constant": true,
      "inputs": [],
      "name": "electionCount",
      "outputs": [
        {
          "internalType": "uint256",
          "name": "",
          "type": "uint256"
        }
      ],
      "payable": false,
      "stateMutability": "view",
      "type": "function"
    },
    {
      "constant": true,
      "inputs": [
        {
          "internalType": "uint256",
          "name": "",
          "type": "uint256"
        }
      ],
      "name": "elections",
      "outputs": [
        {
          "internalType": "string",
          "name": "name",
          "type": "string"
        },
        {
          "internalType": "bool",
          "name": "isOpen",
          "type": "bool"
        },
        {
          "internalType": "uint256",
          "name": "candidatesCount",
          "type": "uint256"
        },
        {
          "internalType": "string",
          "name": "startDate",
          "type": "string"
        },
        {
          "internalType": "string",
          "name": "endDate",
          "type": "string"
        },
        {
          "internalType": "string",
          "name": "domainFilter",
          "type": "string"
        }
      ],
      "payable": false,
      "stateMutability": "view",
      "type": "function"
    },
    {
      "constant": true,
      "inputs": [
        {
          "internalType": "string",
          "name": "",
          "type": "string"
        },
        {
          "internalType": "uint256",
          "name": "",
          "type": "uint256"
        }
      ],
      "name": "ownedElections",
      "outputs": [
        {
          "internalType": "uint256",
          "name": "electionId",
          "type": "uint256"
        },
        {
          "internalType": "string",
          "name": "electionName",
          "type": "string"
        },
        {
          "internalType": "bool",
          "name": "isOpen",
          "type": "bool"
        },
        {
          "internalType": "string",
          "name": "startDate",
          "type": "string"
        },
        {
          "internalType": "string",
          "name": "endDate",
          "type": "string"
        },
        {
          "internalType": "string",
          "name": "domainFilter",
          "type": "string"
        }
      ],
      "payable": false,
      "stateMutability": "view",
      "type": "function"
    },
    {
      "constant": true,
      "inputs": [
        {
          "internalType": "string",
          "name": "",
          "type": "string"
        },
        {
          "internalType": "uint256",
          "name": "",
          "type": "uint256"
        }
      ],
      "name": "positions",
      "outputs": [
        {
          "internalType": "string",
          "name": "",
          "type": "string"
        }
      ],
      "payable": false,
      "stateMutability": "view",
      "type": "function"
    },
    {
      "constant": false,
      "inputs": [
        {
          "internalType": "string",
          "name": "email",
          "type": "string"
        },
        {
          "internalType": "string[]",
          "name": "_positions",
          "type": "string[]"
        }
      ],
      "name": "listPositions",
      "outputs": [],
      "payable": false,
      "stateMutability": "nonpayable",
      "type": "function"
    },
    {
      "constant": true,
      "inputs": [
        {
          "internalType": "string",
          "name": "email",
          "type": "string"
        }
      ],
      "name": "getPositions",
      "outputs": [
        {
          "internalType": "string[]",
          "name": "",
          "type": "string[]"
        }
      ],
      "payable": false,
      "stateMutability": "view",
      "type": "function"
    },
    {
      "constant": false,
      "inputs": [
        {
          "internalType": "string",
          "name": "_name",
          "type": "string"
        },
        {
          "internalType": "string",
          "name": "_startDate",
          "type": "string"
        },
        {
          "internalType": "string",
          "name": "_endDate",
          "type": "string"
        },
        {
          "internalType": "string",
          "name": "_domainFilter",
          "type": "string"
        },
        {
          "internalType": "string",
          "name": "_email",
          "type": "string"
        }
      ],
      "name": "createElection",
      "outputs": [],
      "payable": false,
      "stateMutability": "nonpayable",
      "type": "function"
    },
    {
      "constant": true,
      "inputs": [],
      "name": "getElectionCount",
      "outputs": [
        {
          "internalType": "uint256",
          "name": "",
          "type": "uint256"
        }
      ],
      "payable": false,
      "stateMutability": "view",
      "type": "function"
    },
    {
      "constant": false,
      "inputs": [
        {
          "internalType": "uint256",
          "name": "_electionId",
          "type": "uint256"
        },
        {
          "internalType": "string",
          "name": "_title",
          "type": "string"
        },
        {
          "internalType": "string",
          "name": "_startDate",
          "type": "string"
        },
        {
          "internalType": "string",
          "name": "_endDate",
          "type": "string"
        },
        {
          "internalType": "string",
          "name": "_domainFilter",
          "type": "string"
        },
        {
          "internalType": "string",
          "name": "_email",
          "type": "string"
        }
      ],
      "name": "updateElection",
      "outputs": [],
      "payable": false,
      "stateMutability": "nonpayable",
      "type": "function"
    },
    {
      "constant": true,
      "inputs": [
        {
          "internalType": "string",
          "name": "_email",
          "type": "string"
        }
      ],
      "name": "getOwnedElections",
      "outputs": [
        {
          "components": [
            {
              "internalType": "uint256",
              "name": "electionId",
              "type": "uint256"
            },
            {
              "internalType": "string",
              "name": "electionName",
              "type": "string"
            },
            {
              "internalType": "bool",
              "name": "isOpen",
              "type": "bool"
            },
            {
              "internalType": "string",
              "name": "startDate",
              "type": "string"
            },
            {
              "internalType": "string",
              "name": "endDate",
              "type": "string"
            },
            {
              "internalType": "string",
              "name": "domainFilter",
              "type": "string"
            }
          ],
          "internalType": "struct Voting.CreatedElections[]",
          "name": "",
          "type": "tuple[]"
        }
      ],
      "payable": false,
      "stateMutability": "view",
      "type": "function"
    },
    {
      "constant": true,
      "inputs": [
        {
          "internalType": "string",
          "name": "_owner",
          "type": "string"
        }
      ],
      "name": "getOwnedElectionNames",
      "outputs": [
        {
          "internalType": "string[]",
          "name": "",
          "type": "string[]"
        }
      ],
      "payable": false,
      "stateMutability": "view",
      "type": "function"
    },
    {
      "constant": true,
      "inputs": [
        {
          "internalType": "string",
          "name": "_owner",
          "type": "string"
        }
      ],
      "name": "getOwnedElectionIds",
      "outputs": [
        {
          "internalType": "uint256[]",
          "name": "",
          "type": "uint256[]"
        }
      ],
      "payable": false,
      "stateMutability": "view",
      "type": "function"
    },
    {
      "constant": true,
      "inputs": [
        {
          "internalType": "string",
          "name": "_name",
          "type": "string"
        }
      ],
      "name": "getElectionIdByName",
      "outputs": [
        {
          "internalType": "uint256",
          "name": "",
          "type": "uint256"
        }
      ],
      "payable": false,
      "stateMutability": "view",
      "type": "function"
    },
    {
      "constant": true,
      "inputs": [
        {
          "internalType": "uint256",
          "name": "_electionId",
          "type": "uint256"
        }
      ],
      "name": "getElectionDetails",
      "outputs": [
        {
          "internalType": "string",
          "name": "",
          "type": "string"
        },
        {
          "internalType": "bool",
          "name": "",
          "type": "bool"
        },
        {
          "internalType": "uint256",
          "name": "",
          "type": "uint256"
        },
        {
          "internalType": "string",
          "name": "",
          "type": "string"
        },
        {
          "internalType": "string",
          "name": "",
          "type": "string"
        },
        {
          "internalType": "string",
          "name": "",
          "type": "string"
        }
      ],
      "payable": false,
      "stateMutability": "view",
      "type": "function"
    },
    {
      "constant": false,
      "inputs": [
        {
          "internalType": "uint256",
          "name": "_electionId",
          "type": "uint256"
        }
      ],
      "name": "closeElection",
      "outputs": [],
      "payable": false,
      "stateMutability": "nonpayable",
      "type": "function"
    },
    {
      "constant": false,
      "inputs": [
        {
          "internalType": "uint256",
          "name": "_electionId",
          "type": "uint256"
        },
        {
          "internalType": "string[]",
          "name": "_names",
          "type": "string[]"
        },
        {
          "internalType": "string[]",
          "name": "_positions",
          "type": "string[]"
        },
        {
          "internalType": "string[]",
          "name": "_platforms",
          "type": "string[]"
        },
        {
          "internalType": "string[]",
          "name": "_cdns",
          "type": "string[]"
        },
        {
          "internalType": "string[]",
          "name": "_partylists",
          "type": "string[]"
        }
      ],
      "name": "addCandidates",
      "outputs": [],
      "payable": false,
      "stateMutability": "nonpayable",
      "type": "function"
    },
    {
      "constant": true,
      "inputs": [
        {
          "internalType": "uint256",
          "name": "_electionId",
          "type": "uint256"
        }
      ],
      "name": "getElectionCandidates",
      "outputs": [
        {
          "internalType": "string[]",
          "name": "",
          "type": "string[]"
        },
        {
          "internalType": "string[]",
          "name": "",
          "type": "string[]"
        },
        {
          "internalType": "string[]",
          "name": "",
          "type": "string[]"
        },
        {
          "internalType": "string[]",
          "name": "",
          "type": "string[]"
        },
        {
          "internalType": "string[]",
          "name": "",
          "type": "string[]"
        }
      ],
      "payable": false,
      "stateMutability": "view",
      "type": "function"
    },
    {
      "constant": true,
      "inputs": [
        {
          "internalType": "uint256",
          "name": "_electionId",
          "type": "uint256"
        }
      ],
      "name": "getElectionCandidateCount",
      "outputs": [
        {
          "internalType": "uint256",
          "name": "",
          "type": "uint256"
        }
      ],
      "payable": false,
      "stateMutability": "view",
      "type": "function"
    },
    {
      "constant": true,
      "inputs": [
        {
          "internalType": "uint256",
          "name": "_electionId",
          "type": "uint256"
        },
        {
          "internalType": "uint256",
          "name": "_candidateId",
          "type": "uint256"
        }
      ],
      "name": "getElectionCandidate",
      "outputs": [
        {
          "internalType": "string",
          "name": "",
          "type": "string"
        },
        {
          "internalType": "string",
          "name": "",
          "type": "string"
        },
        {
          "internalType": "string",
          "name": "",
          "type": "string"
        },
        {
          "internalType": "string",
          "name": "",
          "type": "string"
        },
        {
          "internalType": "string",
          "name": "",
          "type": "string"
        },
        {
          "internalType": "uint256",
          "name": "",
          "type": "uint256"
        }
      ],
      "payable": false,
      "stateMutability": "view",
      "type": "function"
    },
    {
      "constant": true,
      "inputs": [
        {
          "internalType": "uint256",
          "name": "_electionId",
          "type": "uint256"
        },
        {
          "internalType": "string",
          "name": "_name",
          "type": "string"
        }
      ],
      "name": "getCandidateIdByName",
      "outputs": [
        {
          "internalType": "uint256",
          "name": "",
          "type": "uint256"
        }
      ],
      "payable": false,
      "stateMutability": "view",
      "type": "function"
    },
    {
      "constant": false,
      "inputs": [
        {
          "internalType": "uint256",
          "name": "_electionId",
          "type": "uint256"
        },
        {
          "internalType": "uint256",
          "name": "_candidateId",
          "type": "uint256"
        },
        {
          "internalType": "string",
          "name": "_name",
          "type": "string"
        },
        {
          "internalType": "string",
          "name": "_position",
          "type": "string"
        },
        {
          "internalType": "string",
          "name": "_platform",
          "type": "string"
        },
        {
          "internalType": "string",
          "name": "_cdn",
          "type": "string"
        }
      ],
      "name": "updateCandidate",
      "outputs": [],
      "payable": false,
      "stateMutability": "nonpayable",
      "type": "function"
    },
    {
      "constant": false,
      "inputs": [
        {
          "internalType": "uint256",
          "name": "_electionId",
          "type": "uint256"
        },
        {
          "internalType": "uint256",
          "name": "_candidateId",
          "type": "uint256"
        }
      ],
      "name": "deleteCandidate",
      "outputs": [],
      "payable": false,
      "stateMutability": "nonpayable",
      "type": "function"
    },
    {
      "constant": false,
      "inputs": [
        {
          "internalType": "uint256",
          "name": "_electionId",
          "type": "uint256"
        },
        {
          "internalType": "uint256[]",
          "name": "_candidateIds",
          "type": "uint256[]"
        },
        {
          "internalType": "string",
          "name": "_email",
          "type": "string"
        }
      ],
      "name": "vote",
      "outputs": [],
      "payable": false,
      "stateMutability": "nonpayable",
      "type": "function"
    },
    {
      "constant": true,
      "inputs": [
        {
          "internalType": "uint256",
          "name": "_electionId",
          "type": "uint256"
        }
      ],
      "name": "getElectionResults",
      "outputs": [
        {
          "internalType": "string[]",
          "name": "names",
          "type": "string[]"
        },
        {
          "internalType": "string[]",
          "name": "positions",
          "type": "string[]"
        },
        {
          "internalType": "string[]",
          "name": "partylists",
          "type": "string[]"
        },
        {
          "internalType": "uint256[]",
          "name": "votes",
          "type": "uint256[]"
        }
      ],
      "payable": false,
      "stateMutability": "view",
      "type": "function"
    },
    {
      "constant": true,
      "inputs": [
        {
          "internalType": "uint256",
          "name": "_electionId",
          "type": "uint256"
        }
      ],
      "name": "isElectionOpen",
      "outputs": [
        {
          "internalType": "bool",
          "name": "",
          "type": "bool"
        }
      ],
      "payable": false,
      "stateMutability": "view",
      "type": "function"
    }
  ],
  "bytecode": "0x608060405234801561001057600080fd5b5061470f806100206000396000f3fe608060405234801561001057600080fd5b50600436106101735760003560e01c80635f5db526116100de578063cf4a606011610097578063f604992411610071578063f6049924146104c9578063f70171fb146104fe578063fa65dd3214610533578063fc265f061461056357610173565b8063cf4a60601461044a578063e3f27e3d14610466578063e8ededa61461049657610173565b80635f5db5261461035f5780637ea7af0414610394578063997d2830146103c45780639b1b5a35146103e2578063bade1157146103fe578063c14cfa211461042e57610173565b806343e189101161013057806343e189101461025e5780634628ba7f1461028e5780634ba6b821146102aa57806350efbc75146102da5780635e12845e146102f65780635e6fef011461032a57610173565b806307ccd61714610178578063088b0663146101a857806309e33d07146101d85780631227dd41146101f4578063193bdd8a14610224578063213785a014610240575b600080fd5b610192600480360361018d919081019061358b565b61057f565b60405161019f9190614174565b60405180910390f35b6101c260048036036101bd919081019061377b565b61063a565b6040516101cf91906143f1565b60405180910390f35b6101f260048036036101ed919081019061377b565b61065a565b005b61020e6004803603610209919081019061358b565b6106ef565b60405161021b9190614152565b60405180910390f35b61023e600480360361023991908101906135cc565b610a19565b005b610248610a50565b60405161025591906143f1565b60405180910390f35b61027860048036036102739190810190613924565b610a5a565b60405161028591906143f1565b60405180910390f35b6102a860048036036102a39190810190613ab5565b610b67565b005b6102c460048036036102bf919081019061358b565b610c8e565b6040516102d19190614059565b60405180910390f35b6102f460048036036102ef9190810190613638565b610d95565b005b610310600480360361030b919081019061377b565b61101a565b60405161032195949392919061407b565b60405180910390f35b610344600480360361033f919081019061377b565b61159f565b604051610356969594939291906142d4565b60405180910390f35b61037960048036036103749190810190613727565b611848565b60405161038b9695949392919061440c565b60405180910390f35b6103ae60048036036103a9919081019061358b565b611b21565b6040516103bb9190614059565b60405180910390f35b6103cc611c8e565b6040516103d991906143f1565b60405180910390f35b6103fc60048036036103f79190810190613978565b611c94565b005b6104186004803603610413919081019061358b565b611e4c565b60405161042591906143f1565b60405180910390f35b610448600480360361044391908101906138a5565b611f3b565b005b610464600480360361045f9190810190613a79565b612121565b005b610480600480360361047b919081019061377b565b61233b565b60405161048d9190614196565b60405180910390f35b6104b060048036036104ab919081019061377b565b61236d565b6040516104c094939291906140f1565b60405180910390f35b6104e360048036036104de919081019061377b565b61272d565b6040516104f5969594939291906141d3565b60405180910390f35b61051860048036036105139190810190613a79565b6129fb565b60405161052a96959493929190614250565b60405180910390f35b61054d60048036036105489190810190613727565b612e22565b60405161055a91906141b1565b60405180910390f35b61057d600480360361057891908101906137a4565b612efe565b005b6060600080836040516105929190614042565b90815260200160405180910390209050606081805490506040519080825280602002602001820160405280156105d75781602001602082028038833980820191505090505b50905060008090505b828054905081101561062f578281815481106105f857fe5b90600052602060002090600602016000015482828151811061061657fe5b60200260200101818152505080806001019150506105e0565b508092505050919050565b600060026000838152602001908152602001600020600301549050919050565b6002600082815260200190815260200160002060010160009054906101000a900460ff166106bd576040517f08c379a00000000000000000000000000000000000000000000000000000000081526004016106b490614371565b60405180910390fd5b60006002600083815260200190815260200160002060010160006101000a81548160ff02191690831515021790555050565b60606000826040516107019190614042565b9081526020016040518091039020805480602002602001604051908101604052809291908181526020016000905b82821015610a0e57838290600052602060002090600602016040518060c001604052908160008201548152602001600182018054600181600116156101000203166002900480601f0160208091040260200160405190810160405280929190818152602001828054600181600116156101000203166002900480156107f55780601f106107ca576101008083540402835291602001916107f5565b820191906000526020600020905b8154815290600101906020018083116107d857829003601f168201915b505050505081526020016002820160009054906101000a900460ff16151515158152602001600382018054600181600116156101000203166002900480601f0160208091040260200160405190810160405280929190818152602001828054600181600116156101000203166002900480156108b25780601f10610887576101008083540402835291602001916108b2565b820191906000526020600020905b81548152906001019060200180831161089557829003601f168201915b50505050508152602001600482018054600181600116156101000203166002900480601f0160208091040260200160405190810160405280929190818152602001828054600181600116156101000203166002900480156109545780601f1061092957610100808354040283529160200191610954565b820191906000526020600020905b81548152906001019060200180831161093757829003601f168201915b50505050508152602001600582018054600181600116156101000203166002900480601f0160208091040260200160405190810160405280929190818152602001828054600181600116156101000203166002900480156109f65780601f106109cb576101008083540402835291602001916109f6565b820191906000526020600020905b8154815290600101906020018083116109d957829003601f168201915b5050505050815250508152602001906001019061072f565b505050509050919050565b80600183604051610a2a9190614042565b90815260200160405180910390209080519060200190610a4b929190613157565b505050565b6000600354905090565b6000806002600085815260200190815260200160002090506000600190505b81600301548111610b5a57610b3e8260020160008381526020019081526020016000206000018054600181600116156101000203166002900480601f016020809104026020016040519081016040528092919081815260200182805460018160011615610100020316600290048015610b335780601f10610b0857610100808354040283529160200191610b33565b820191906000526020600020905b815481529060010190602001808311610b1657829003601f168201915b5050505050856130fe565b15610b4d578092505050610b61565b8080600101915050610a79565b5060009150505b92915050565b6000600260008881526020019081526020016000209050600086118015610b92575080600301548611155b610bd1576040517f08c379a0000000000000000000000000000000000000000000000000000000008152600401610bc8906143b1565b60405180910390fd5b848160020160008881526020019081526020016000206000019080519060200190610bfd9291906131b7565b50838160020160008881526020019081526020016000206002019080519060200190610c2a9291906131b7565b50828160020160008881526020019081526020016000206003019080519060200190610c579291906131b7565b50818160020160008881526020019081526020016000206004019080519060200190610c849291906131b7565b5050505050505050565b6060600182604051610ca09190614042565b9081526020016040518091039020805480602002602001604051908101604052809291908181526020016000905b82821015610d8a578382906000526020600020018054600181600116156101000203166002900480601f016020809104026020016040519081016040528092919081815260200182805460018160011615610100020316600290048015610d765780601f10610d4b57610100808354040283529160200191610d76565b820191906000526020600020905b815481529060010190602001808311610d5957829003601f168201915b505050505081526020019060010190610cce565b505050509050919050565b600360008154809291906001019190505550846002600060035481526020019081526020016000206000019080519060200190610dd39291906131b7565b50600160026000600354815260200190815260200160002060010160006101000a81548160ff021916908315150217905550600060026000600354815260200190815260200160002060030181905550836002600060035481526020019081526020016000206004019080519060200190610e4f9291906131b7565b50826002600060035481526020019081526020016000206005019080519060200190610e7c9291906131b7565b50816002600060035481526020019081526020016000206006019080519060200190610ea99291906131b7565b50600060026000600354815260200190815260200160002060070182604051610ed29190614042565b908152602001604051809103902060006101000a81548160ff021916908315150217905550600081604051610f079190614042565b90815260200160405180910390206040518060c0016040528060035481526020018781526020016001151581526020018681526020018581526020018481525090806001815401808255809150509060018203906000526020600020906006020160009091929091909150600082015181600001556020820151816001019080519060200190610f98929190613237565b5060408201518160020160006101000a81548160ff0219169083151502179055506060820151816003019080519060200190610fd5929190613237565b506080820151816004019080519060200190610ff2929190613237565b5060a082015181600501908051906020019061100f929190613237565b505050505050505050565b606080606080606060006002600088815260200190815260200160002090506060816003015460405190808252806020026020018201604052801561107357816020015b606081526020019060019003908161105e5790505b509050606082600301546040519080825280602002602001820160405280156110b057816020015b606081526020019060019003908161109b5790505b509050606083600301546040519080825280602002602001820160405280156110ed57816020015b60608152602001906001900390816110d85790505b5090506060846003015460405190808252806020026020018201604052801561112a57816020015b60608152602001906001900390816111155790505b5090506060856003015460405190808252806020026020018201604052801561116757816020015b60608152602001906001900390816111525790505b5090506000600190505b86600301548111611580578660020160008281526020019081526020016000206000018054600181600116156101000203166002900480601f0160208091040260200160405190810160405280929190818152602001828054600181600116156101000203166002900480156112285780601f106111fd57610100808354040283529160200191611228565b820191906000526020600020905b81548152906001019060200180831161120b57829003601f168201915b505050505086600183038151811061123c57fe5b60200260200101819052508660020160008281526020019081526020016000206002018054600181600116156101000203166002900480601f0160208091040260200160405190810160405280929190818152602001828054600181600116156101000203166002900480156112f35780601f106112c8576101008083540402835291602001916112f3565b820191906000526020600020905b8154815290600101906020018083116112d657829003601f168201915b505050505085600183038151811061130757fe5b60200260200101819052508660020160008281526020019081526020016000206003018054600181600116156101000203166002900480601f0160208091040260200160405190810160405280929190818152602001828054600181600116156101000203166002900480156113be5780601f10611393576101008083540402835291602001916113be565b820191906000526020600020905b8154815290600101906020018083116113a157829003601f168201915b50505050508460018303815181106113d257fe5b60200260200101819052508660020160008281526020019081526020016000206004018054600181600116156101000203166002900480601f0160208091040260200160405190810160405280929190818152602001828054600181600116156101000203166002900480156114895780601f1061145e57610100808354040283529160200191611489565b820191906000526020600020905b81548152906001019060200180831161146c57829003601f168201915b505050505083600183038151811061149d57fe5b60200260200101819052508660020160008281526020019081526020016000206001018054600181600116156101000203166002900480601f0160208091040260200160405190810160405280929190818152602001828054600181600116156101000203166002900480156115545780601f1061152957610100808354040283529160200191611554565b820191906000526020600020905b81548152906001019060200180831161153757829003601f168201915b505050505082600183038151811061156857fe5b60200260200101819052508080600101915050611171565b5084848484849a509a509a509a509a5050505050505091939590929450565b6002602052806000526040600020600091509050806000018054600181600116156101000203166002900480601f01602080910402602001604051908101604052809291908181526020018280546001816001161561010002031660029004801561164b5780601f106116205761010080835404028352916020019161164b565b820191906000526020600020905b81548152906001019060200180831161162e57829003601f168201915b5050505050908060010160009054906101000a900460ff1690806003015490806004018054600181600116156101000203166002900480601f0160208091040260200160405190810160405280929190818152602001828054600181600116156101000203166002900480156117025780601f106116d757610100808354040283529160200191611702565b820191906000526020600020905b8154815290600101906020018083116116e557829003601f168201915b505050505090806005018054600181600116156101000203166002900480601f0160208091040260200160405190810160405280929190818152602001828054600181600116156101000203166002900480156117a05780601f10611775576101008083540402835291602001916117a0565b820191906000526020600020905b81548152906001019060200180831161178357829003601f168201915b505050505090806006018054600181600116156101000203166002900480601f01602080910402602001604051908101604052809291908181526020018280546001816001161561010002031660029004801561183e5780601f106118135761010080835404028352916020019161183e565b820191906000526020600020905b81548152906001019060200180831161182157829003601f168201915b5050505050905086565b600082805160208101820180518482526020830160208501208183528095505050505050818154811061187757fe5b906000526020600020906006020160009150915050806000015490806001018054600181600116156101000203166002900480601f01602080910402602001604051908101604052809291908181526020018280546001816001161561010002031660029004801561192a5780601f106118ff5761010080835404028352916020019161192a565b820191906000526020600020905b81548152906001019060200180831161190d57829003601f168201915b5050505050908060020160009054906101000a900460ff1690806003018054600181600116156101000203166002900480601f0160208091040260200160405190810160405280929190818152602001828054600181600116156101000203166002900480156119db5780601f106119b0576101008083540402835291602001916119db565b820191906000526020600020905b8154815290600101906020018083116119be57829003601f168201915b505050505090806004018054600181600116156101000203166002900480601f016020809104026020016040519081016040528092919081815260200182805460018160011615610100020316600290048015611a795780601f10611a4e57610100808354040283529160200191611a79565b820191906000526020600020905b815481529060010190602001808311611a5c57829003601f168201915b505050505090806005018054600181600116156101000203166002900480601f016020809104026020016040519081016040528092919081815260200182805460018160011615610100020316600290048015611b175780601f10611aec57610100808354040283529160200191611b17565b820191906000526020600020905b815481529060010190602001808311611afa57829003601f168201915b5050505050905086565b606060008083604051611b349190614042565b9081526020016040518091039020905060608180549050604051908082528060200260200182016040528015611b7e57816020015b6060815260200190600190039081611b695790505b50905060008090505b8280549050811015611c835760026000848381548110611ba357fe5b90600052602060002090600602016000015481526020019081526020016000206000018054600181600116156101000203166002900480601f016020809104026020016040519081016040528092919081815260200182805460018160011615610100020316600290048015611c5a5780601f10611c2f57610100808354040283529160200191611c5a565b820191906000526020600020905b815481529060010190602001808311611c3d57829003601f168201915b5050505050828281518110611c6b57fe5b60200260200101819052508080600101915050611b87565b508092505050919050565b60035481565b600060026000888152602001908152602001600020905085816000019080519060200190611cc39291906131b7565b5084816004019080519060200190611cdc9291906131b7565b5083816005019080519060200190611cf59291906131b7565b5082816006019080519060200190611d0e9291906131b7565b5060008083604051611d209190614042565b9081526020016040518091039020905060008090505b8180549050811015611e415788828281548110611d4f57fe5b9060005260206000209060060201600001541415611e345787828281548110611d7457fe5b90600052602060002090600602016001019080519060200190611d989291906131b7565b5086828281548110611da657fe5b90600052602060002090600602016003019080519060200190611dca9291906131b7565b5085828281548110611dd857fe5b90600052602060002090600602016004019080519060200190611dfc9291906131b7565b5084828281548110611e0a57fe5b90600052602060002090600602016005019080519060200190611e2e9291906131b7565b50611e41565b8080600101915050611d36565b505050505050505050565b600080600190505b6003548111611f3057611f15600260008381526020019081526020016000206000018054600181600116156101000203166002900480601f016020809104026020016040519081016040528092919081815260200182805460018160011615610100020316600290048015611f0a5780601f10611edf57610100808354040283529160200191611f0a565b820191906000526020600020905b815481529060010190602001808311611eed57829003601f168201915b5050505050846130fe565b15611f235780915050611f36565b8080600101915050611e54565b50600090505b919050565b60006002600085815260200190815260200160002090508060010160009054906101000a900460ff16611fa3576040517f08c379a0000000000000000000000000000000000000000000000000000000008152600401611f9a90614391565b60405180910390fd5b8060070182604051611fb59190614042565b908152602001604051809103902060009054906101000a900460ff1615612011576040517f08c379a000000000000000000000000000000000000000000000000000000000815260040161200890614351565b60405180910390fd5b60008090505b83518110156120e157600084828151811061202e57fe5b602002602001015111801561205a5750816003015484828151811061204f57fe5b602002602001015111155b612099576040517f08c379a0000000000000000000000000000000000000000000000000000000008152600401612090906143b1565b60405180910390fd5b8160020160008583815181106120ab57fe5b60200260200101518152602001908152602001600020600501600081548092919060010191905055508080600101915050612017565b50600181600701836040516120f69190614042565b908152602001604051809103902060006101000a81548160ff02191690831515021790555050505050565b600060026000848152602001908152602001600020905060008211801561214c575080600301548211155b61218b576040517f08c379a0000000000000000000000000000000000000000000000000000000008152600401612182906143b1565b60405180910390fd5b60008290505b81600301548110156122ac57816002016000600183018152602001908152602001600020826002016000838152602001908152602001600020600082018160000190805460018160011615610100020316600290046121f19291906132b7565b50600182018160010190805460018160011615610100020316600290046122199291906132b7565b50600282018160020190805460018160011615610100020316600290046122419291906132b7565b50600382018160030190805460018160011615610100020316600290046122699291906132b7565b50600482018160040190805460018160011615610100020316600290046122919291906132b7565b50600582015481600501559050508080600101915050612191565b5080600201600082600301548152602001908152602001600020600080820160006122d7919061333e565b6001820160006122e7919061333e565b6002820160006122f7919061333e565b600382016000612307919061333e565b600482016000612317919061333e565b60058201600090555050806003016000815480929190600190039190505550505050565b6000806002600084815260200190815260200160002090508060010160009054906101000a900460ff16915050919050565b6060806060806000600260008781526020019081526020016000209050600081600301549050806040519080825280602002602001820160405280156123c757816020015b60608152602001906001900390816123b25790505b509550806040519080825280602002602001820160405280156123fe57816020015b60608152602001906001900390816123e95790505b5094508060405190808252806020026020018201604052801561243557816020015b60608152602001906001900390816124205790505b509350806040519080825280602002602001820160405280156124675781602001602082028038833980820191505090505b5092506000600190505b8181116127175760006001820390508360020160008381526020019081526020016000206000018054600181600116156101000203166002900480601f01602080910402602001604051908101604052809291908181526020018280546001816001161561010002031660029004801561252c5780601f106125015761010080835404028352916020019161252c565b820191906000526020600020905b81548152906001019060200180831161250f57829003601f168201915b505050505088828151811061253d57fe5b60200260200101819052508360020160008381526020019081526020016000206002018054600181600116156101000203166002900480601f0160208091040260200160405190810160405280929190818152602001828054600181600116156101000203166002900480156125f45780601f106125c9576101008083540402835291602001916125f4565b820191906000526020600020905b8154815290600101906020018083116125d757829003601f168201915b505050505087828151811061260557fe5b60200260200101819052508360020160008381526020019081526020016000206001018054600181600116156101000203166002900480601f0160208091040260200160405190810160405280929190818152602001828054600181600116156101000203166002900480156126bc5780601f10612691576101008083540402835291602001916126bc565b820191906000526020600020905b81548152906001019060200180831161269f57829003601f168201915b50505050508682815181106126cd57fe5b6020026020010181905250836002016000838152602001908152602001600020600501548582815181106126fd57fe5b602002602001018181525050508080600101915050612471565b5085858585955095509550955050509193509193565b606060008060608060606000600260008981526020019081526020016000209050806000018160010160009054906101000a900460ff168260030154836004018460050185600601858054600181600116156101000203166002900480601f01602080910402602001604051908101604052809291908181526020018280546001816001161561010002031660029004801561280a5780601f106127df5761010080835404028352916020019161280a565b820191906000526020600020905b8154815290600101906020018083116127ed57829003601f168201915b50505050509550828054600181600116156101000203166002900480601f0160208091040260200160405190810160405280929190818152602001828054600181600116156101000203166002900480156128a65780601f1061287b576101008083540402835291602001916128a6565b820191906000526020600020905b81548152906001019060200180831161288957829003601f168201915b50505050509250818054600181600116156101000203166002900480601f0160208091040260200160405190810160405280929190818152602001828054600181600116156101000203166002900480156129425780601f1061291757610100808354040283529160200191612942565b820191906000526020600020905b81548152906001019060200180831161292557829003601f168201915b50505050509150808054600181600116156101000203166002900480601f0160208091040260200160405190810160405280929190818152602001828054600181600116156101000203166002900480156129de5780601f106129b3576101008083540402835291602001916129de565b820191906000526020600020905b8154815290600101906020018083116129c157829003601f168201915b505050505090509650965096509650965096505091939550919395565b6060806060806060600080600260008a81526020019081526020016000209050600088118015612a2f575080600301548811155b612a6e576040517f08c379a0000000000000000000000000000000000000000000000000000000008152600401612a65906143b1565b60405180910390fd5b8060020160008981526020019081526020016000206000018160020160008a81526020019081526020016000206002018260020160008b81526020019081526020016000206003018360020160008c81526020019081526020016000206004018460020160008d81526020019081526020016000206001018560020160008e815260200190815260200160002060050154858054600181600116156101000203166002900480601f016020809104026020016040519081016040528092919081815260200182805460018160011615610100020316600290048015612b945780601f10612b6957610100808354040283529160200191612b94565b820191906000526020600020905b815481529060010190602001808311612b7757829003601f168201915b50505050509550848054600181600116156101000203166002900480601f016020809104026020016040519081016040528092919081815260200182805460018160011615610100020316600290048015612c305780601f10612c0557610100808354040283529160200191612c30565b820191906000526020600020905b815481529060010190602001808311612c1357829003601f168201915b50505050509450838054600181600116156101000203166002900480601f016020809104026020016040519081016040528092919081815260200182805460018160011615610100020316600290048015612ccc5780601f10612ca157610100808354040283529160200191612ccc565b820191906000526020600020905b815481529060010190602001808311612caf57829003601f168201915b50505050509350828054600181600116156101000203166002900480601f016020809104026020016040519081016040528092919081815260200182805460018160011615610100020316600290048015612d685780601f10612d3d57610100808354040283529160200191612d68565b820191906000526020600020905b815481529060010190602001808311612d4b57829003601f168201915b50505050509250818054600181600116156101000203166002900480601f016020809104026020016040519081016040528092919081815260200182805460018160011615610100020316600290048015612e045780601f10612dd957610100808354040283529160200191612e04565b820191906000526020600020905b815481529060010190602001808311612de757829003601f168201915b50505050509150965096509650965096509650509295509295509295565b6001828051602081018201805184825260208301602085012081835280955050505050508181548110612e5157fe5b90600052602060002001600091509150508054600181600116156101000203166002900480601f016020809104026020016040519081016040528092919081815260200182805460018160011615610100020316600290048015612ef65780601f10612ecb57610100808354040283529160200191612ef6565b820191906000526020600020905b815481529060010190602001808311612ed957829003601f168201915b505050505081565b83518551148015612f10575082518451145b8015612f1d575081518351145b8015612f2a575080518251145b612f69576040517f08c379a0000000000000000000000000000000000000000000000000000000008152600401612f60906143d1565b60405180910390fd5b600060026000888152602001908152602001600020905060008090505b86518110156130f45781600301600081548092919060010191905055506040518060c00160405280888381518110612fba57fe5b60200260200101518152602001848381518110612fd357fe5b60200260200101518152602001878381518110612fec57fe5b6020026020010151815260200186838151811061300557fe5b6020026020010151815260200185838151811061301e57fe5b602002602001015181526020016000815250826002016000846003015481526020019081526020016000206000820151816000019080519060200190613065929190613237565b506020820151816001019080519060200190613082929190613237565b50604082015181600201908051906020019061309f929190613237565b5060608201518160030190805190602001906130bc929190613237565b5060808201518160040190805190602001906130d9929190613237565b5060a082015181600501559050508080600101915050612f86565b5050505050505050565b6000816040516020016131119190614042565b60405160208183030381529060405280519060200120836040516020016131389190614042565b6040516020818303038152906040528051906020012014905092915050565b8280548282559060005260206000209081019282156131a6579160200282015b828111156131a5578251829080519060200190613195929190613237565b5091602001919060010190613177565b5b5090506131b39190613386565b5090565b828054600181600116156101000203166002900490600052602060002090601f016020900481019282601f106131f857805160ff1916838001178555613226565b82800160010185558215613226579182015b8281111561322557825182559160200191906001019061320a565b5b50905061323391906133b2565b5090565b828054600181600116156101000203166002900490600052602060002090601f016020900481019282601f1061327857805160ff19168380011785556132a6565b828001600101855582156132a6579182015b828111156132a557825182559160200191906001019061328a565b5b5090506132b391906133b2565b5090565b828054600181600116156101000203166002900490600052602060002090601f016020900481019282601f106132f0578054855561332d565b8280016001018555821561332d57600052602060002091601f016020900482015b8281111561332c578254825591600101919060010190613311565b5b50905061333a91906133b2565b5090565b50805460018160011615610100020316600290046000825580601f106133645750613383565b601f01602090049060005260206000209081019061338291906133b2565b5b50565b6133af91905b808211156133ab57600081816133a2919061333e565b5060010161338c565b5090565b90565b6133d491905b808211156133d05760008160009055506001016133b8565b5090565b90565b600082601f8301126133e857600080fd5b81356133fb6133f6826144b6565b614489565b9150818183526020840193506020810190508360005b83811015613441578135860161342788826134ce565b845260208401935060208301925050600181019050613411565b5050505092915050565b600082601f83011261345c57600080fd5b813561346f61346a826144de565b614489565b9150818183526020840193506020810190508385602084028201111561349457600080fd5b60005b838110156134c457816134aa8882613576565b845260208401935060208301925050600181019050613497565b5050505092915050565b600082601f8301126134df57600080fd5b81356134f26134ed82614506565b614489565b9150808252602083016020830185838301111561350e57600080fd5b613519838284614662565b50505092915050565b600082601f83011261353357600080fd5b813561354661354182614532565b614489565b9150808252602083016020830185838301111561356257600080fd5b61356d838284614662565b50505092915050565b600081359050613585816146b5565b92915050565b60006020828403121561359d57600080fd5b600082013567ffffffffffffffff8111156135b757600080fd5b6135c384828501613522565b91505092915050565b600080604083850312156135df57600080fd5b600083013567ffffffffffffffff8111156135f957600080fd5b61360585828601613522565b925050602083013567ffffffffffffffff81111561362257600080fd5b61362e858286016133d7565b9150509250929050565b600080600080600060a0868803121561365057600080fd5b600086013567ffffffffffffffff81111561366a57600080fd5b61367688828901613522565b955050602086013567ffffffffffffffff81111561369357600080fd5b61369f88828901613522565b945050604086013567ffffffffffffffff8111156136bc57600080fd5b6136c888828901613522565b935050606086013567ffffffffffffffff8111156136e557600080fd5b6136f188828901613522565b925050608086013567ffffffffffffffff81111561370e57600080fd5b61371a88828901613522565b9150509295509295909350565b6000806040838503121561373a57600080fd5b600083013567ffffffffffffffff81111561375457600080fd5b613760858286016134ce565b925050602061377185828601613576565b9150509250929050565b60006020828403121561378d57600080fd5b600061379b84828501613576565b91505092915050565b60008060008060008060c087890312156137bd57600080fd5b60006137cb89828a01613576565b965050602087013567ffffffffffffffff8111156137e857600080fd5b6137f489828a016133d7565b955050604087013567ffffffffffffffff81111561381157600080fd5b61381d89828a016133d7565b945050606087013567ffffffffffffffff81111561383a57600080fd5b61384689828a016133d7565b935050608087013567ffffffffffffffff81111561386357600080fd5b61386f89828a016133d7565b92505060a087013567ffffffffffffffff81111561388c57600080fd5b61389889828a016133d7565b9150509295509295509295565b6000806000606084860312156138ba57600080fd5b60006138c886828701613576565b935050602084013567ffffffffffffffff8111156138e557600080fd5b6138f18682870161344b565b925050604084013567ffffffffffffffff81111561390e57600080fd5b61391a86828701613522565b9150509250925092565b6000806040838503121561393757600080fd5b600061394585828601613576565b925050602083013567ffffffffffffffff81111561396257600080fd5b61396e85828601613522565b9150509250929050565b60008060008060008060c0878903121561399157600080fd5b600061399f89828a01613576565b965050602087013567ffffffffffffffff8111156139bc57600080fd5b6139c889828a01613522565b955050604087013567ffffffffffffffff8111156139e557600080fd5b6139f189828a01613522565b945050606087013567ffffffffffffffff811115613a0e57600080fd5b613a1a89828a01613522565b935050608087013567ffffffffffffffff811115613a3757600080fd5b613a4389828a01613522565b92505060a087013567ffffffffffffffff811115613a6057600080fd5b613a6c89828a01613522565b9150509295509295509295565b60008060408385031215613a8c57600080fd5b6000613a9a85828601613576565b9250506020613aab85828601613576565b9150509250929050565b60008060008060008060c08789031215613ace57600080fd5b6000613adc89828a01613576565b9650506020613aed89828a01613576565b955050604087013567ffffffffffffffff811115613b0a57600080fd5b613b1689828a01613522565b945050606087013567ffffffffffffffff811115613b3357600080fd5b613b3f89828a01613522565b935050608087013567ffffffffffffffff811115613b5c57600080fd5b613b6889828a01613522565b92505060a087013567ffffffffffffffff811115613b8557600080fd5b613b9189828a01613522565b9150509295509295509295565b6000613baa8383613dae565b905092915050565b6000613bbe8383613f86565b905092915050565b6000613bd28383614024565b60208301905092915050565b6000613be98261458e565b613bf381856145ec565b935083602082028501613c058561455e565b8060005b85811015613c415784840389528151613c228582613b9e565b9450613c2d836145c5565b925060208a01995050600181019050613c09565b50829750879550505050505092915050565b6000613c5e82614599565b613c6881856145fd565b935083602082028501613c7a8561456e565b8060005b85811015613cb65784840389528151613c978582613bb2565b9450613ca2836145d2565b925060208a01995050600181019050613c7e565b50829750879550505050505092915050565b6000613cd3826145a4565b613cdd818561460e565b9350613ce88361457e565b8060005b83811015613d19578151613d008882613bc6565b9750613d0b836145df565b925050600181019050613cec565b5085935050505092915050565b613d2f8161464c565b82525050565b613d3e8161464c565b82525050565b6000613d4f826145ba565b613d598185614630565b9350613d69818560208601614671565b613d72816146a4565b840191505092915050565b6000613d88826145ba565b613d928185614641565b9350613da2818560208601614671565b80840191505092915050565b6000613db9826145af565b613dc3818561461f565b9350613dd3818560208601614671565b613ddc816146a4565b840191505092915050565b6000613df2826145af565b613dfc8185614630565b9350613e0c818560208601614671565b613e15816146a4565b840191505092915050565b6000613e2d600d83614630565b91507f416c726561647920766f746564000000000000000000000000000000000000006000830152602082019050919050565b6000613e6d601a83614630565b91507f456c656374696f6e20697320616c726561647920636c6f7365640000000000006000830152602082019050919050565b6000613ead601283614630565b91507f456c656374696f6e20697320636c6f73656400000000000000000000000000006000830152602082019050919050565b6000613eed601483614630565b91507f496e76616c69642063616e6469646174652049440000000000000000000000006000830152602082019050919050565b6000613f2d602283614630565b91507f496e70757420617272617973206d75737420686176652073616d65206c656e6760008301527f74680000000000000000000000000000000000000000000000000000000000006020830152604082019050919050565b600060c083016000830151613f9e6000860182614024565b5060208301518482036020860152613fb68282613dae565b9150506040830151613fcb6040860182613d26565b5060608301518482036060860152613fe38282613dae565b91505060808301518482036080860152613ffd8282613dae565b91505060a083015184820360a08601526140178282613dae565b9150508091505092915050565b61402d81614658565b82525050565b61403c81614658565b82525050565b600061404e8284613d7d565b915081905092915050565b600060208201905081810360008301526140738184613bde565b905092915050565b600060a08201905081810360008301526140958188613bde565b905081810360208301526140a98187613bde565b905081810360408301526140bd8186613bde565b905081810360608301526140d18185613bde565b905081810360808301526140e58184613bde565b90509695505050505050565b6000608082019050818103600083015261410b8187613bde565b9050818103602083015261411f8186613bde565b905081810360408301526141338185613bde565b905081810360608301526141478184613cc8565b905095945050505050565b6000602082019050818103600083015261416c8184613c53565b905092915050565b6000602082019050818103600083015261418e8184613cc8565b905092915050565b60006020820190506141ab6000830184613d35565b92915050565b600060208201905081810360008301526141cb8184613de7565b905092915050565b600060c08201905081810360008301526141ed8189613d44565b90506141fc6020830188613d35565b6142096040830187614033565b818103606083015261421b8186613d44565b9050818103608083015261422f8185613d44565b905081810360a08301526142438184613d44565b9050979650505050505050565b600060c082019050818103600083015261426a8189613d44565b9050818103602083015261427e8188613d44565b905081810360408301526142928187613d44565b905081810360608301526142a68186613d44565b905081810360808301526142ba8185613d44565b90506142c960a0830184614033565b979650505050505050565b600060c08201905081810360008301526142ee8189613de7565b90506142fd6020830188613d35565b61430a6040830187614033565b818103606083015261431c8186613de7565b905081810360808301526143308185613de7565b905081810360a08301526143448184613de7565b9050979650505050505050565b6000602082019050818103600083015261436a81613e20565b9050919050565b6000602082019050818103600083015261438a81613e60565b9050919050565b600060208201905081810360008301526143aa81613ea0565b9050919050565b600060208201905081810360008301526143ca81613ee0565b9050919050565b600060208201905081810360008301526143ea81613f20565b9050919050565b60006020820190506144066000830184614033565b92915050565b600060c0820190506144216000830189614033565b81810360208301526144338188613de7565b90506144426040830187613d35565b81810360608301526144548186613de7565b905081810360808301526144688185613de7565b905081810360a083015261447c8184613de7565b9050979650505050505050565b6000604051905081810181811067ffffffffffffffff821117156144ac57600080fd5b8060405250919050565b600067ffffffffffffffff8211156144cd57600080fd5b602082029050602081019050919050565b600067ffffffffffffffff8211156144f557600080fd5b602082029050602081019050919050565b600067ffffffffffffffff82111561451d57600080fd5b601f19601f8301169050602081019050919050565b600067ffffffffffffffff82111561454957600080fd5b601f19601f8301169050602081019050919050565b6000819050602082019050919050565b6000819050602082019050919050565b6000819050602082019050919050565b600081519050919050565b600081519050919050565b600081519050919050565b600081519050919050565b600081519050919050565b6000602082019050919050565b6000602082019050919050565b6000602082019050919050565b600082825260208201905092915050565b600082825260208201905092915050565b600082825260208201905092915050565b600082825260208201905092915050565b600082825260208201905092915050565b600081905092915050565b60008115159050919050565b6000819050919050565b82818337600083830152505050565b60005b8381101561468f578082015181840152602081019050614674565b8381111561469e576000848401525b50505050565b6000601f19601f8301169050919050565b6146be81614658565b81146146c957600080fd5b5056fea365627a7a72315820b2e558dd1e61548f2bbeb393f8ad288945c5c9cf62a65f4d18ec506dae47e2d56c6578706572696d656e74616cf564736f6c63430005100040",
  "source": "// SPDX-License-Identifier: MIT\r\npragma solidity >=0.4.21 <=0.8.20;\r\npragma experimental ABIEncoderV2;\r\n\r\ncontract Voting {\r\n    // ============================\r\n    // Structs & Storage\r\n    // ============================\r\n\r\n    struct CreatedElections {\r\n        uint256 electionId;\r\n        string electionName;\r\n        bool isOpen;\r\n        string startDate;\r\n        string endDate;\r\n        string domainFilter;\r\n    }\r\n\r\n    struct Candidate {\r\n        string name;\r\n        string partylist;\r\n        string position;\r\n        string platform;\r\n        string cdn;\r\n        uint256 voteCount;\r\n    }\r\n\r\n    struct Election {\r\n        string name;\r\n        bool isOpen;\r\n        mapping(uint256 => Candidate) candidates; // 1-based index\r\n        uint256 candidatesCount; // number of candidates\r\n        string startDate;\r\n        string endDate;\r\n        string domainFilter;\r\n        mapping(string => bool) hasVoted;\r\n    }\r\n\r\n    mapping (string => CreatedElections[]) public ownedElections;\r\n    mapping (string => string[]) public positions;\r\n    mapping (uint256 => Election) public elections;\r\n    uint256 public electionCount;\r\n\r\n    // ============================\r\n    // Position Management\r\n    // ============================\r\n\r\n    function listPositions(string memory email, string[] memory _positions) public {\r\n        positions[email] = _positions;\r\n    }\r\n\r\n    function getPositions(string memory email) public view returns (string[] memory) {\r\n        return positions[email];\r\n    }\r\n\r\n    // ============================\r\n    // Election Management\r\n    // ============================\r\n\r\n    function createElection(\r\n        string memory _name,\r\n        string memory _startDate,\r\n        string memory _endDate,\r\n        string memory _domainFilter,\r\n        string memory _email\r\n    ) public {\r\n        electionCount++;\r\n        elections[electionCount].name = _name;\r\n        elections[electionCount].isOpen = true;\r\n        elections[electionCount].candidatesCount = 0;\r\n        elections[electionCount].startDate = _startDate;\r\n        elections[electionCount].endDate = _endDate;\r\n        elections[electionCount].domainFilter = _domainFilter;\r\n        elections[electionCount].hasVoted[_email] = false;\r\n\r\n        ownedElections[_email].push(\r\n            CreatedElections(electionCount, _name, true, _startDate, _endDate, _domainFilter)\r\n        );\r\n    }\r\n\r\n    function getElectionCount() public view returns (uint256) {\r\n        return electionCount;\r\n    }\r\n\r\n    function updateElection(\r\n        uint256 _electionId,\r\n        string memory _title,\r\n        string memory _startDate,\r\n        string memory _endDate,\r\n        string memory _domainFilter,\r\n        string memory _email\r\n    ) public {\r\n        Election storage e = elections[_electionId];\r\n        e.name = _title;\r\n        e.startDate = _startDate;\r\n        e.endDate = _endDate;\r\n        e.domainFilter = _domainFilter;\r\n\r\n        CreatedElections[] storage ownedElectionsList = ownedElections[_email];\r\n        for (uint256 i = 0; i < ownedElectionsList.length; i++) {\r\n            if (ownedElectionsList[i].electionId == _electionId) {\r\n                ownedElectionsList[i].electionName = _title;\r\n                ownedElectionsList[i].startDate = _startDate;\r\n                ownedElectionsList[i].endDate = _endDate;\r\n                ownedElectionsList[i].domainFilter = _domainFilter;\r\n                break;\r\n            }\r\n        }\r\n    }\r\n\r\n    function getOwnedElections(string memory _email) public view returns (CreatedElections[] memory) {\r\n        return ownedElections[_email];\r\n    }\r\n\r\n    function getOwnedElectionNames(string memory _owner) public view returns (string[] memory) {\r\n        CreatedElections[] storage ownedElectionsList = ownedElections[_owner];\r\n        string[] memory names = new string[](ownedElectionsList.length);\r\n        for (uint256 i = 0; i < ownedElectionsList.length; i++) {\r\n            names[i] = elections[ownedElectionsList[i].electionId].name;\r\n        }\r\n        return names;\r\n    }\r\n\r\n    function getOwnedElectionIds(string memory _owner) public view returns (uint256[] memory) {\r\n        CreatedElections[] storage ownedElectionsList = ownedElections[_owner];\r\n        uint256[] memory ids = new uint256[](ownedElectionsList.length);\r\n        for (uint256 i = 0; i < ownedElectionsList.length; i++) {\r\n            ids[i] = ownedElectionsList[i].electionId;\r\n        }\r\n        return ids;\r\n    }\r\n\r\n    function getElectionIdByName(string memory _name) public view returns (uint256) {\r\n        for (uint256 i = 1; i <= electionCount; i++) {\r\n            if (compareStrings(elections[i].name, _name)) {\r\n                return i;\r\n            }\r\n        }\r\n        return 0;\r\n    }\r\n\r\n    function compareStrings(string memory s1, string memory s2) internal pure returns (bool) {\r\n        return keccak256(abi.encodePacked(s1)) == keccak256(abi.encodePacked(s2));\r\n    }\r\n\r\n    function getElectionDetails(uint256 _electionId)\r\n        public\r\n        view\r\n        returns (string memory, bool, uint256, string memory, string memory, string memory)\r\n    {\r\n        Election storage e = elections[_electionId];\r\n        return (e.name, e.isOpen, e.candidatesCount, e.startDate, e.endDate, e.domainFilter);\r\n    }\r\n\r\n    function closeElection(uint256 _electionId) public {\r\n        require(elections[_electionId].isOpen, \"Election is already closed\");\r\n        elections[_electionId].isOpen = false;\r\n    }\r\n\r\n    // ============================\r\n    // Candidate Management\r\n    // ============================\r\n\r\n    function addCandidates(\r\n        uint256 _electionId,\r\n        string[] memory _names,\r\n        string[] memory _positions,\r\n        string[] memory _platforms,\r\n        string[] memory _cdns,\r\n        string[] memory _partylists\r\n    ) public {\r\n        require(\r\n            _names.length == _positions.length &&\r\n            _positions.length == _platforms.length &&\r\n            _platforms.length == _cdns.length &&\r\n            _cdns.length == _partylists.length,\r\n            \"Input arrays must have same length\"\r\n        );\r\n\r\n        Election storage e = elections[_electionId];\r\n        for (uint256 i = 0; i < _names.length; i++) {\r\n            e.candidatesCount++; // start at 1\r\n            e.candidates[e.candidatesCount] = Candidate(\r\n                _names[i],\r\n                _partylists[i],\r\n                _positions[i],\r\n                _platforms[i],\r\n                _cdns[i],\r\n                0\r\n            );\r\n        }\r\n    }\r\n\r\n    function getElectionCandidates(uint256 _electionId)\r\n        public\r\n        view\r\n        returns (string[] memory, string[] memory, string[] memory, string[] memory, string[] memory)\r\n    {\r\n        Election storage e = elections[_electionId];\r\n        string[] memory names = new string[](e.candidatesCount);\r\n        string[] memory _positions = new string[](e.candidatesCount);\r\n        string[] memory platforms = new string[](e.candidatesCount);\r\n        string[] memory cdns = new string[](e.candidatesCount);\r\n        string[] memory partylists = new string[](e.candidatesCount);\r\n\r\n        for (uint256 i = 1; i <= e.candidatesCount; i++) {\r\n            names[i-1] = e.candidates[i].name;\r\n            _positions[i-1] = e.candidates[i].position;\r\n            platforms[i-1] = e.candidates[i].platform;\r\n            cdns[i-1] = e.candidates[i].cdn;\r\n            partylists[i-1] = e.candidates[i].partylist;\r\n        }\r\n\r\n        return (names, _positions, platforms, cdns, partylists);\r\n    }\r\n\r\n    function getElectionCandidateCount(uint256 _electionId) public view returns (uint256) {\r\n        return elections[_electionId].candidatesCount;\r\n    }\r\n\r\n    function getElectionCandidate(uint256 _electionId, uint256 _candidateId)\r\n        public\r\n        view\r\n        returns (string memory, string memory, string memory, string memory, string memory, uint256)\r\n    {\r\n        Election storage e = elections[_electionId];\r\n        require(_candidateId > 0 && _candidateId <= e.candidatesCount, \"Invalid candidate ID\");\r\n\r\n        return (\r\n            e.candidates[_candidateId].name,\r\n            e.candidates[_candidateId].position,\r\n            e.candidates[_candidateId].platform,\r\n            e.candidates[_candidateId].cdn,\r\n            e.candidates[_candidateId].partylist,\r\n            e.candidates[_candidateId].voteCount\r\n        );\r\n    }\r\n\r\n    function getCandidateIdByName(uint256 _electionId, string memory _name) public view returns (uint256) {\r\n        Election storage e = elections[_electionId];\r\n        for (uint256 i = 1; i <= e.candidatesCount; i++) {\r\n            if (compareStrings(e.candidates[i].name, _name)) {\r\n                return i;\r\n            }\r\n        }\r\n        return 0;\r\n    }\r\n\r\n    function updateCandidate(\r\n        uint256 _electionId,\r\n        uint256 _candidateId,\r\n        string memory _name,\r\n        string memory _position,\r\n        string memory _platform,\r\n        string memory _cdn\r\n    ) public {\r\n        Election storage e = elections[_electionId];\r\n        require(_candidateId > 0 && _candidateId <= e.candidatesCount, \"Invalid candidate ID\");\r\n\r\n        e.candidates[_candidateId].name = _name;\r\n        e.candidates[_candidateId].position = _position;\r\n        e.candidates[_candidateId].platform = _platform;\r\n        e.candidates[_candidateId].cdn = _cdn;\r\n    }\r\n\r\n    function deleteCandidate(uint256 _electionId, uint256 _candidateId) public {\r\n        Election storage e = elections[_electionId];\r\n        require(_candidateId > 0 && _candidateId <= e.candidatesCount, \"Invalid candidate ID\");\r\n\r\n        // Shift down (1-based indexing)\r\n        for (uint256 i = _candidateId; i < e.candidatesCount; i++) {\r\n            e.candidates[i] = e.candidates[i + 1];\r\n        }\r\n\r\n        delete e.candidates[e.candidatesCount];\r\n        e.candidatesCount--;\r\n    }\r\n\r\n    // ============================\r\n    // Voting\r\n    // ============================\r\n\r\n    function vote(uint256 _electionId, uint256[] memory _candidateIds, string memory _email) public {\r\n        Election storage e = elections[_electionId];\r\n        require(e.isOpen, \"Election is closed\");\r\n        require(!e.hasVoted[_email], \"Already voted\");\r\n\r\n        for (uint256 i = 0; i < _candidateIds.length; i++) {\r\n            require(_candidateIds[i] > 0 && _candidateIds[i] <= e.candidatesCount, \"Invalid candidate ID\");\r\n            e.candidates[_candidateIds[i]].voteCount++;\r\n        }\r\n\r\n        e.hasVoted[_email] = true;\r\n    }\r\n\r\n    function getElectionResults(uint256 _electionId)\r\n    public\r\n    view\r\n    returns (\r\n        string[] memory names,\r\n        string[] memory positions,\r\n        string[] memory partylists,\r\n        uint256[] memory votes\r\n    )\r\n    {\r\n        Election storage e = elections[_electionId];\r\n        uint256 count = e.candidatesCount;\r\n\r\n        names = new string[](count);\r\n        positions = new string[](count);\r\n        partylists = new string[](count);\r\n        votes = new uint256[](count);\r\n\r\n        // your candidates mapping is 1-based, so iterate from 1..count\r\n        for (uint256 i = 1; i <= count; i++) {\r\n            uint256 idx = i - 1; // array index (0-based)\r\n            names[idx] = e.candidates[i].name;\r\n            positions[idx] = e.candidates[i].position;\r\n            partylists[idx] = e.candidates[i].partylist;\r\n            votes[idx] = e.candidates[i].voteCount;\r\n        }\r\n\r\n        return (names, positions, partylists, votes);\r\n    }\r\n\r\n\r\n    function isElectionOpen(uint256 _electionId) public view returns (bool) {\r\n        Election storage e = elections[_electionId];\r\n        return e.isOpen;\r\n    }\r\n\r\n\r\n\r\n}\r\n",
  "sourcePath": "C:\\Users\\dizon\\OneDrive\\Documents\\GitHub\\SE2-BV\\contracts\\contracts\\Voting.sol",
  "compiler": {
    "name": "solc",
    "version": "0.5.16+commit.9c3226ce.Emscripten.clang"
  },
  "schemaVersion": "3.4.16",
  "updatedAt": "2025-09-20T14:57:33.445Z",
  "networkType": "ethereum",
  "devdoc": {
    "methods": {}
  },
  "userdoc": {
    "methods": {}
  }
}