{
  "contractName": "Voting",
  "abi": [
    {
      "constant": true,
      "inputs": [],
      "name": "electionCount",
      "outputs": [
        {
          "internalType": "uint256",
          "name": "",
          "type": "uint256"
        }
      ],
      "payable": false,
      "stateMutability": "view",
      "type": "function"
    },
    {
      "constant": true,
      "inputs": [
        {
          "internalType": "uint256",
          "name": "",
          "type": "uint256"
        }
      ],
      "name": "elections",
      "outputs": [
        {
          "internalType": "string",
          "name": "name",
          "type": "string"
        },
        {
          "internalType": "bool",
          "name": "isOpen",
          "type": "bool"
        },
        {
          "internalType": "uint256",
          "name": "candidatesCount",
          "type": "uint256"
        },
        {
          "internalType": "string",
          "name": "startDate",
          "type": "string"
        },
        {
          "internalType": "string",
          "name": "endDate",
          "type": "string"
        },
        {
          "internalType": "string",
          "name": "domainFilter",
          "type": "string"
        }
      ],
      "payable": false,
      "stateMutability": "view",
      "type": "function"
    },
    {
      "constant": true,
      "inputs": [
        {
          "internalType": "string",
          "name": "",
          "type": "string"
        },
        {
          "internalType": "uint256",
          "name": "",
          "type": "uint256"
        }
      ],
      "name": "ownedElections",
      "outputs": [
        {
          "internalType": "uint256",
          "name": "electionId",
          "type": "uint256"
        },
        {
          "internalType": "string",
          "name": "electionName",
          "type": "string"
        }
      ],
      "payable": false,
      "stateMutability": "view",
      "type": "function"
    },
    {
      "constant": true,
      "inputs": [
        {
          "internalType": "string",
          "name": "",
          "type": "string"
        },
        {
          "internalType": "uint256",
          "name": "",
          "type": "uint256"
        }
      ],
      "name": "positions",
      "outputs": [
        {
          "internalType": "string",
          "name": "",
          "type": "string"
        }
      ],
      "payable": false,
      "stateMutability": "view",
      "type": "function"
    },
    {
      "constant": false,
      "inputs": [
        {
          "internalType": "string",
          "name": "email",
          "type": "string"
        },
        {
          "internalType": "string[]",
          "name": "_positions",
          "type": "string[]"
        }
      ],
      "name": "listPositions",
      "outputs": [],
      "payable": false,
      "stateMutability": "nonpayable",
      "type": "function"
    },
    {
      "constant": true,
      "inputs": [
        {
          "internalType": "string",
          "name": "email",
          "type": "string"
        }
      ],
      "name": "getPositions",
      "outputs": [
        {
          "internalType": "string[]",
          "name": "",
          "type": "string[]"
        }
      ],
      "payable": false,
      "stateMutability": "view",
      "type": "function"
    },
    {
      "constant": false,
      "inputs": [
        {
          "internalType": "string",
          "name": "_name",
          "type": "string"
        },
        {
          "internalType": "string",
          "name": "_startDate",
          "type": "string"
        },
        {
          "internalType": "string",
          "name": "_endDate",
          "type": "string"
        },
        {
          "internalType": "string",
          "name": "_domainFilter",
          "type": "string"
        },
        {
          "internalType": "string",
          "name": "_email",
          "type": "string"
        }
      ],
      "name": "createElection",
      "outputs": [],
      "payable": false,
      "stateMutability": "nonpayable",
      "type": "function"
    },
    {
      "constant": true,
      "inputs": [],
      "name": "getElectionCount",
      "outputs": [
        {
          "internalType": "uint256",
          "name": "",
          "type": "uint256"
        }
      ],
      "payable": false,
      "stateMutability": "view",
      "type": "function"
    },
    {
      "constant": false,
      "inputs": [
        {
          "internalType": "uint256",
          "name": "_electionId",
          "type": "uint256"
        },
        {
          "internalType": "string",
          "name": "_title",
          "type": "string"
        },
        {
          "internalType": "string",
          "name": "_startDate",
          "type": "string"
        },
        {
          "internalType": "string",
          "name": "_endDate",
          "type": "string"
        },
        {
          "internalType": "string",
          "name": "_domainFilter",
          "type": "string"
        }
      ],
      "name": "updateElection",
      "outputs": [],
      "payable": false,
      "stateMutability": "nonpayable",
      "type": "function"
    },
    {
      "constant": true,
      "inputs": [
        {
          "internalType": "string",
          "name": "_email",
          "type": "string"
        }
      ],
      "name": "getOwnedElections",
      "outputs": [
        {
          "components": [
            {
              "internalType": "uint256",
              "name": "electionId",
              "type": "uint256"
            },
            {
              "internalType": "string",
              "name": "electionName",
              "type": "string"
            }
          ],
          "internalType": "struct Voting.CreatedElections[]",
          "name": "",
          "type": "tuple[]"
        }
      ],
      "payable": false,
      "stateMutability": "view",
      "type": "function"
    },
    {
      "constant": true,
      "inputs": [
        {
          "internalType": "string",
          "name": "_owner",
          "type": "string"
        }
      ],
      "name": "getOwnedElectionNames",
      "outputs": [
        {
          "internalType": "string[]",
          "name": "",
          "type": "string[]"
        }
      ],
      "payable": false,
      "stateMutability": "view",
      "type": "function"
    },
    {
      "constant": true,
      "inputs": [
        {
          "internalType": "string",
          "name": "_owner",
          "type": "string"
        }
      ],
      "name": "getOwnedElectionIds",
      "outputs": [
        {
          "internalType": "uint256[]",
          "name": "",
          "type": "uint256[]"
        }
      ],
      "payable": false,
      "stateMutability": "view",
      "type": "function"
    },
    {
      "constant": true,
      "inputs": [
        {
          "internalType": "string",
          "name": "_name",
          "type": "string"
        }
      ],
      "name": "getElectionIdByName",
      "outputs": [
        {
          "internalType": "uint256",
          "name": "",
          "type": "uint256"
        }
      ],
      "payable": false,
      "stateMutability": "view",
      "type": "function"
    },
    {
      "constant": true,
      "inputs": [
        {
          "internalType": "uint256",
          "name": "_electionId",
          "type": "uint256"
        }
      ],
      "name": "getElectionResults",
      "outputs": [
        {
          "internalType": "string[]",
          "name": "",
          "type": "string[]"
        },
        {
          "internalType": "uint256[]",
          "name": "",
          "type": "uint256[]"
        }
      ],
      "payable": false,
      "stateMutability": "view",
      "type": "function"
    },
    {
      "constant": true,
      "inputs": [
        {
          "internalType": "uint256",
          "name": "_electionId",
          "type": "uint256"
        }
      ],
      "name": "getElectionDetails",
      "outputs": [
        {
          "internalType": "string",
          "name": "",
          "type": "string"
        },
        {
          "internalType": "bool",
          "name": "",
          "type": "bool"
        },
        {
          "internalType": "uint256",
          "name": "",
          "type": "uint256"
        },
        {
          "internalType": "string",
          "name": "",
          "type": "string"
        },
        {
          "internalType": "string",
          "name": "",
          "type": "string"
        },
        {
          "internalType": "string",
          "name": "",
          "type": "string"
        }
      ],
      "payable": false,
      "stateMutability": "view",
      "type": "function"
    },
    {
      "constant": false,
      "inputs": [
        {
          "internalType": "uint256",
          "name": "_electionId",
          "type": "uint256"
        },
        {
          "internalType": "string[]",
          "name": "_names",
          "type": "string[]"
        },
        {
          "internalType": "string[]",
          "name": "_positions",
          "type": "string[]"
        },
        {
          "internalType": "string[]",
          "name": "_platforms",
          "type": "string[]"
        },
        {
          "internalType": "string[]",
          "name": "_cdns",
          "type": "string[]"
        },
        {
          "internalType": "string[]",
          "name": "_partylists",
          "type": "string[]"
        }
      ],
      "name": "addCandidates",
      "outputs": [],
      "payable": false,
      "stateMutability": "nonpayable",
      "type": "function"
    },
    {
      "constant": true,
      "inputs": [
        {
          "internalType": "uint256",
          "name": "_electionId",
          "type": "uint256"
        }
      ],
      "name": "getElectionCandidates",
      "outputs": [
        {
          "internalType": "string[]",
          "name": "",
          "type": "string[]"
        },
        {
          "internalType": "string[]",
          "name": "",
          "type": "string[]"
        },
        {
          "internalType": "string[]",
          "name": "",
          "type": "string[]"
        },
        {
          "internalType": "string[]",
          "name": "",
          "type": "string[]"
        },
        {
          "internalType": "string[]",
          "name": "",
          "type": "string[]"
        }
      ],
      "payable": false,
      "stateMutability": "view",
      "type": "function"
    },
    {
      "constant": true,
      "inputs": [
        {
          "internalType": "uint256",
          "name": "_electionId",
          "type": "uint256"
        }
      ],
      "name": "getElectionCandidateCount",
      "outputs": [
        {
          "internalType": "uint256",
          "name": "",
          "type": "uint256"
        }
      ],
      "payable": false,
      "stateMutability": "view",
      "type": "function"
    },
    {
      "constant": false,
      "inputs": [
        {
          "internalType": "uint256",
          "name": "_electionId",
          "type": "uint256"
        },
        {
          "internalType": "uint256",
          "name": "_candidateId",
          "type": "uint256"
        },
        {
          "internalType": "string",
          "name": "_name",
          "type": "string"
        },
        {
          "internalType": "string",
          "name": "_position",
          "type": "string"
        },
        {
          "internalType": "string",
          "name": "_platform",
          "type": "string"
        },
        {
          "internalType": "string",
          "name": "_cdn",
          "type": "string"
        }
      ],
      "name": "updateCandidate",
      "outputs": [],
      "payable": false,
      "stateMutability": "nonpayable",
      "type": "function"
    },
    {
      "constant": false,
      "inputs": [
        {
          "internalType": "uint256",
          "name": "_electionId",
          "type": "uint256"
        },
        {
          "internalType": "uint256",
          "name": "_candidateId",
          "type": "uint256"
        }
      ],
      "name": "deleteCandidate",
      "outputs": [],
      "payable": false,
      "stateMutability": "nonpayable",
      "type": "function"
    },
    {
      "constant": true,
      "inputs": [
        {
          "internalType": "uint256",
          "name": "_electionId",
          "type": "uint256"
        },
        {
          "internalType": "uint256",
          "name": "_candidateId",
          "type": "uint256"
        }
      ],
      "name": "getElectionCandidate",
      "outputs": [
        {
          "internalType": "string",
          "name": "",
          "type": "string"
        },
        {
          "internalType": "string",
          "name": "",
          "type": "string"
        },
        {
          "internalType": "string",
          "name": "",
          "type": "string"
        },
        {
          "internalType": "string",
          "name": "",
          "type": "string"
        },
        {
          "internalType": "string",
          "name": "",
          "type": "string"
        },
        {
          "internalType": "uint256",
          "name": "",
          "type": "uint256"
        }
      ],
      "payable": false,
      "stateMutability": "view",
      "type": "function"
    },
    {
      "constant": false,
      "inputs": [
        {
          "internalType": "uint256",
          "name": "_electionId",
          "type": "uint256"
        },
        {
          "internalType": "uint256[]",
          "name": "_candidateIds",
          "type": "uint256[]"
        },
        {
          "internalType": "string",
          "name": "_email",
          "type": "string"
        }
      ],
      "name": "vote",
      "outputs": [],
      "payable": false,
      "stateMutability": "nonpayable",
      "type": "function"
    },
    {
      "constant": false,
      "inputs": [
        {
          "internalType": "uint256",
          "name": "_electionId",
          "type": "uint256"
        }
      ],
      "name": "closeElection",
      "outputs": [],
      "payable": false,
      "stateMutability": "nonpayable",
      "type": "function"
    }
  ],
  "bytecode": "0x608060405234801561001057600080fd5b50613918806100206000396000f3fe608060405234801561001057600080fd5b506004361061014d5760003560e01c80635f5db526116100c3578063cf4a60601161007c578063cf4a6060146103f0578063e8ededa61461040c578063f60499241461043d578063f70171fb14610472578063fa65dd32146104a7578063fc265f06146104d75761014d565b80635f5db526146103095780637ea7af041461033a5780638def48da1461036a578063997d283014610386578063bade1157146103a4578063c14cfa21146103d45761014d565b8063213785a011610115578063213785a01461021a5780634628ba7f146102385780634ba6b8211461025457806350efbc75146102845780635e12845e146102a05780635e6fef01146102d45761014d565b806307ccd61714610152578063088b06631461018257806309e33d07146101b25780631227dd41146101ce578063193bdd8a146101fe575b600080fd5b61016c600480360361016791908101906129d4565b6104f3565b6040516101799190613425565b60405180910390f35b61019c60048036036101979190810190612bc4565b6105ae565b6040516101a99190613647565b60405180910390f35b6101cc60048036036101c79190810190612bc4565b6105d3565b005b6101e860048036036101e391908101906129d4565b61066f565b6040516101f59190613403565b60405180910390f35b61021860048036036102139190810190612a15565b610798565b005b6102226107cf565b60405161022f9190613647565b60405180910390f35b610252600480360361024d9190810190612e80565b6107d9565b005b61026e600480360361026991908101906129d4565b6108ad565b60405161027b9190613334565b60405180910390f35b61029e60048036036102999190810190612a81565b6109b4565b005b6102ba60048036036102b59190810190612bc4565b610ba7565b6040516102cb959493929190613356565b60405180910390f35b6102ee60048036036102e99190810190612bc4565b61112c565b6040516103009695949392919061356a565b60405180910390f35b610323600480360361031e9190810190612b70565b6113d5565b604051610331929190613662565b60405180910390f35b610354600480360361034f91908101906129d4565b6114c1565b6040516103619190613334565b60405180910390f35b610384600480360361037f9190810190612d6d565b61162e565b005b61038e6116b1565b60405161039b9190613647565b60405180910390f35b6103be60048036036103b991908101906129d4565b6116b7565b6040516103cb9190613647565b60405180910390f35b6103ee60048036036103e99190810190612cee565b6117a6565b005b61040a60048036036104059190810190612e44565b6118a5565b005b61042660048036036104219190810190612bc4565b611a0d565b6040516104349291906133cc565b60405180910390f35b61045760048036036104529190810190612bc4565b611bc9565b60405161046996959493929190613469565b60405180910390f35b61048c60048036036104879190810190612e44565b611e97565b60405161049e969594939291906134e6565b60405180910390f35b6104c160048036036104bc9190810190612b70565b61226b565b6040516104ce9190613447565b60405180910390f35b6104f160048036036104ec9190810190612bed565b612347565b005b606060008083604051610506919061331d565b908152602001604051809103902090506060818054905060405190808252806020026020018201604052801561054b5781602001602082028038833980820191505090505b50905060008090505b82805490508110156105a35782818154811061056c57fe5b90600052602060002090600202016000015482828151811061058a57fe5b6020026020010181815250508080600101915050610554565b508092505050919050565b6000806002600084815260200190815260200160002090508060030154915050919050565b6002600082815260200190815260200160002060010160009054906101000a900460ff1615610637576040517f08c379a000000000000000000000000000000000000000000000000000000000815260040161062e906135e7565b60405180910390fd5b600060026000838152602001908152602001600020905060008160010160006101000a81548160ff0219169083151502179055505050565b6060600082604051610681919061331d565b9081526020016040518091039020805480602002602001604051908101604052809291908181526020016000905b8282101561078d578382906000526020600020906002020160405180604001604052908160008201548152602001600182018054600181600116156101000203166002900480601f0160208091040260200160405190810160405280929190818152602001828054600181600116156101000203166002900480156107755780601f1061074a57610100808354040283529160200191610775565b820191906000526020600020905b81548152906001019060200180831161075857829003601f168201915b505050505081525050815260200190600101906106af565b505050509050919050565b806001836040516107a9919061331d565b908152602001604051809103902090805190602001906107ca9291906125a0565b505050565b6000600354905090565b600060026000888152602001908152602001600020905084816002016000888152602001908152602001600020600001908051906020019061081c929190612600565b50838160020160008881526020019081526020016000206002019080519060200190610849929190612600565b50828160020160008881526020019081526020016000206003019080519060200190610876929190612600565b508181600201600088815260200190815260200160002060040190805190602001906108a3929190612600565b5050505050505050565b60606001826040516108bf919061331d565b9081526020016040518091039020805480602002602001604051908101604052809291908181526020016000905b828210156109a9578382906000526020600020018054600181600116156101000203166002900480601f0160208091040260200160405190810160405280929190818152602001828054600181600116156101000203166002900480156109955780601f1061096a57610100808354040283529160200191610995565b820191906000526020600020905b81548152906001019060200180831161097857829003601f168201915b5050505050815260200190600101906108ed565b505050509050919050565b6003600081548092919060010191905055508460026000600354815260200190815260200160002060000190805190602001906109f2929190612600565b50600160026000600354815260200190815260200160002060010160006101000a81548160ff021916908315150217905550600060026000600354815260200190815260200160002060030181905550836002600060035481526020019081526020016000206004019080519060200190610a6e929190612600565b50826002600060035481526020019081526020016000206005019080519060200190610a9b929190612600565b50816002600060035481526020019081526020016000206006019080519060200190610ac8929190612600565b50600060026000600354815260200190815260200160002060070182604051610af1919061331d565b908152602001604051809103902060006101000a81548160ff021916908315150217905550600081604051610b26919061331d565b9081526020016040518091039020604051806040016040528060035481526020018781525090806001815401808255809150509060018203906000526020600020906002020160009091929091909150600082015181600001556020820151816001019080519060200190610b9c929190612680565b505050505050505050565b6060806060806060600060026000888152602001908152602001600020905060608160030154604051908082528060200260200182016040528015610c0057816020015b6060815260200190600190039081610beb5790505b50905060608260030154604051908082528060200260200182016040528015610c3d57816020015b6060815260200190600190039081610c285790505b50905060608360030154604051908082528060200260200182016040528015610c7a57816020015b6060815260200190600190039081610c655790505b50905060608460030154604051908082528060200260200182016040528015610cb757816020015b6060815260200190600190039081610ca25790505b50905060608560030154604051908082528060200260200182016040528015610cf457816020015b6060815260200190600190039081610cdf5790505b5090506000600190505b8660030154811161110d578660020160008281526020019081526020016000206000018054600181600116156101000203166002900480601f016020809104026020016040519081016040528092919081815260200182805460018160011615610100020316600290048015610db55780601f10610d8a57610100808354040283529160200191610db5565b820191906000526020600020905b815481529060010190602001808311610d9857829003601f168201915b5050505050866001830381518110610dc957fe5b60200260200101819052508660020160008281526020019081526020016000206002018054600181600116156101000203166002900480601f016020809104026020016040519081016040528092919081815260200182805460018160011615610100020316600290048015610e805780601f10610e5557610100808354040283529160200191610e80565b820191906000526020600020905b815481529060010190602001808311610e6357829003601f168201915b5050505050856001830381518110610e9457fe5b60200260200101819052508660020160008281526020019081526020016000206003018054600181600116156101000203166002900480601f016020809104026020016040519081016040528092919081815260200182805460018160011615610100020316600290048015610f4b5780601f10610f2057610100808354040283529160200191610f4b565b820191906000526020600020905b815481529060010190602001808311610f2e57829003601f168201915b5050505050846001830381518110610f5f57fe5b60200260200101819052508660020160008281526020019081526020016000206004018054600181600116156101000203166002900480601f0160208091040260200160405190810160405280929190818152602001828054600181600116156101000203166002900480156110165780601f10610feb57610100808354040283529160200191611016565b820191906000526020600020905b815481529060010190602001808311610ff957829003601f168201915b505050505083600183038151811061102a57fe5b60200260200101819052508660020160008281526020019081526020016000206001018054600181600116156101000203166002900480601f0160208091040260200160405190810160405280929190818152602001828054600181600116156101000203166002900480156110e15780601f106110b6576101008083540402835291602001916110e1565b820191906000526020600020905b8154815290600101906020018083116110c457829003601f168201915b50505050508260018303815181106110f557fe5b60200260200101819052508080600101915050610cfe565b5084848484849a509a509a509a509a5050505050505091939590929450565b6002602052806000526040600020600091509050806000018054600181600116156101000203166002900480601f0160208091040260200160405190810160405280929190818152602001828054600181600116156101000203166002900480156111d85780601f106111ad576101008083540402835291602001916111d8565b820191906000526020600020905b8154815290600101906020018083116111bb57829003601f168201915b5050505050908060010160009054906101000a900460ff1690806003015490806004018054600181600116156101000203166002900480601f01602080910402602001604051908101604052809291908181526020018280546001816001161561010002031660029004801561128f5780601f106112645761010080835404028352916020019161128f565b820191906000526020600020905b81548152906001019060200180831161127257829003601f168201915b505050505090806005018054600181600116156101000203166002900480601f01602080910402602001604051908101604052809291908181526020018280546001816001161561010002031660029004801561132d5780601f106113025761010080835404028352916020019161132d565b820191906000526020600020905b81548152906001019060200180831161131057829003601f168201915b505050505090806006018054600181600116156101000203166002900480601f0160208091040260200160405190810160405280929190818152602001828054600181600116156101000203166002900480156113cb5780601f106113a0576101008083540402835291602001916113cb565b820191906000526020600020905b8154815290600101906020018083116113ae57829003601f168201915b5050505050905086565b600082805160208101820180518482526020830160208501208183528095505050505050818154811061140457fe5b906000526020600020906002020160009150915050806000015490806001018054600181600116156101000203166002900480601f0160208091040260200160405190810160405280929190818152602001828054600181600116156101000203166002900480156114b75780601f1061148c576101008083540402835291602001916114b7565b820191906000526020600020905b81548152906001019060200180831161149a57829003601f168201915b5050505050905082565b6060600080836040516114d4919061331d565b908152602001604051809103902090506060818054905060405190808252806020026020018201604052801561151e57816020015b60608152602001906001900390816115095790505b50905060008090505b8280549050811015611623576002600084838154811061154357fe5b90600052602060002090600202016000015481526020019081526020016000206000018054600181600116156101000203166002900480601f0160208091040260200160405190810160405280929190818152602001828054600181600116156101000203166002900480156115fa5780601f106115cf576101008083540402835291602001916115fa565b820191906000526020600020905b8154815290600101906020018083116115dd57829003601f168201915b505050505082828151811061160b57fe5b60200260200101819052508080600101915050611527565b508092505050919050565b60006002600087815260200190815260200160002090508481600001908051906020019061165d929190612600565b5083816004019080519060200190611676929190612600565b508281600501908051906020019061168f929190612600565b50818160060190805190602001906116a8929190612600565b50505050505050565b60035481565b600080600190505b600354811161179b57611780600260008381526020019081526020016000206000018054600181600116156101000203166002900480601f0160208091040260200160405190810160405280929190818152602001828054600181600116156101000203166002900480156117755780601f1061174a57610100808354040283529160200191611775565b820191906000526020600020905b81548152906001019060200180831161175857829003601f168201915b505050505084612547565b1561178e57809150506117a1565b80806001019150506116bf565b50600090505b919050565b60006002600085815260200190815260200160002090508060010160009054906101000a900460ff1661180e576040517f08c379a000000000000000000000000000000000000000000000000000000000815260040161180590613607565b60405180910390fd5b60008090505b83518110156118655781600201600085838151811061182f57fe5b60200260200101518152602001908152602001600020600501600081548092919060010191905055508080600101915050611814565b506001816007018360405161187a919061331d565b908152602001604051809103902060006101000a81548160ff02191690831515021790555050505050565b6000600260008481526020019081526020016000209050806003015482106118cd5750611a09565b60008290505b60018260030154038110156119f15781600201600060018301815260200190815260200160002082600201600083815260200190815260200160002060008201816000019080546001816001161561010002031660029004611936929190612700565b506001820181600101908054600181600116156101000203166002900461195e929190612700565b5060028201816002019080546001816001161561010002031660029004611986929190612700565b50600382018160030190805460018160011615610100020316600290046119ae929190612700565b50600482018160040190805460018160011615610100020316600290046119d6929190612700565b506005820154816005015590505080806001019150506118d3565b50806003016000815480929190600190039190505550505b5050565b606080600060026000858152602001908152602001600020905060608160030154604051908082528060200260200182016040528015611a6157816020015b6060815260200190600190039081611a4c5790505b50905060608260030154604051908082528060200260200182016040528015611a995781602001602082028038833980820191505090505b5090506000600190505b83600301548111611bba578360020160008281526020019081526020016000206000018054600181600116156101000203166002900480601f016020809104026020016040519081016040528092919081815260200182805460018160011615610100020316600290048015611b5a5780601f10611b2f57610100808354040283529160200191611b5a565b820191906000526020600020905b815481529060010190602001808311611b3d57829003601f168201915b5050505050836001830381518110611b6e57fe5b602002602001018190525083600201600082815260200190815260200160002060050154826001830381518110611ba157fe5b6020026020010181815250508080600101915050611aa3565b50818194509450505050915091565b606060008060608060606000600260008981526020019081526020016000209050806000018160010160009054906101000a900460ff168260030154836004018460050185600601858054600181600116156101000203166002900480601f016020809104026020016040519081016040528092919081815260200182805460018160011615610100020316600290048015611ca65780601f10611c7b57610100808354040283529160200191611ca6565b820191906000526020600020905b815481529060010190602001808311611c8957829003601f168201915b50505050509550828054600181600116156101000203166002900480601f016020809104026020016040519081016040528092919081815260200182805460018160011615610100020316600290048015611d425780601f10611d1757610100808354040283529160200191611d42565b820191906000526020600020905b815481529060010190602001808311611d2557829003601f168201915b50505050509250818054600181600116156101000203166002900480601f016020809104026020016040519081016040528092919081815260200182805460018160011615610100020316600290048015611dde5780601f10611db357610100808354040283529160200191611dde565b820191906000526020600020905b815481529060010190602001808311611dc157829003601f168201915b50505050509150808054600181600116156101000203166002900480601f016020809104026020016040519081016040528092919081815260200182805460018160011615610100020316600290048015611e7a5780601f10611e4f57610100808354040283529160200191611e7a565b820191906000526020600020905b815481529060010190602001808311611e5d57829003601f168201915b505050505090509650965096509650965096505091939550919395565b6060806060806060600080600260008a815260200190815260200160002090508060020160008981526020019081526020016000206000018160020160008a81526020019081526020016000206002018260020160008b81526020019081526020016000206003018360020160008c81526020019081526020016000206004018460020160008d81526020019081526020016000206001018560020160008e815260200190815260200160002060050154858054600181600116156101000203166002900480601f016020809104026020016040519081016040528092919081815260200182805460018160011615610100020316600290048015611fdd5780601f10611fb257610100808354040283529160200191611fdd565b820191906000526020600020905b815481529060010190602001808311611fc057829003601f168201915b50505050509550848054600181600116156101000203166002900480601f0160208091040260200160405190810160405280929190818152602001828054600181600116156101000203166002900480156120795780601f1061204e57610100808354040283529160200191612079565b820191906000526020600020905b81548152906001019060200180831161205c57829003601f168201915b50505050509450838054600181600116156101000203166002900480601f0160208091040260200160405190810160405280929190818152602001828054600181600116156101000203166002900480156121155780601f106120ea57610100808354040283529160200191612115565b820191906000526020600020905b8154815290600101906020018083116120f857829003601f168201915b50505050509350828054600181600116156101000203166002900480601f0160208091040260200160405190810160405280929190818152602001828054600181600116156101000203166002900480156121b15780601f10612186576101008083540402835291602001916121b1565b820191906000526020600020905b81548152906001019060200180831161219457829003601f168201915b50505050509250818054600181600116156101000203166002900480601f01602080910402602001604051908101604052809291908181526020018280546001816001161561010002031660029004801561224d5780601f106122225761010080835404028352916020019161224d565b820191906000526020600020905b81548152906001019060200180831161223057829003601f168201915b50505050509150965096509650965096509650509295509295509295565b600182805160208101820180518482526020830160208501208183528095505050505050818154811061229a57fe5b90600052602060002001600091509150508054600181600116156101000203166002900480601f01602080910402602001604051908101604052809291908181526020018280546001816001161561010002031660029004801561233f5780601f106123145761010080835404028352916020019161233f565b820191906000526020600020905b81548152906001019060200180831161232257829003601f168201915b505050505081565b83518551148015612359575082518451145b8015612366575081518351145b8015612373575080518251145b6123b2576040517f08c379a00000000000000000000000000000000000000000000000000000000081526004016123a990613627565b60405180910390fd5b600060026000888152602001908152602001600020905060008090505b865181101561253d5781600301600081548092919060010191905055506040518060c0016040528088838151811061240357fe5b6020026020010151815260200184838151811061241c57fe5b6020026020010151815260200187838151811061243557fe5b6020026020010151815260200186838151811061244e57fe5b6020026020010151815260200185838151811061246757fe5b6020026020010151815260200160008152508260020160008460030154815260200190815260200160002060008201518160000190805190602001906124ae929190612680565b5060208201518160010190805190602001906124cb929190612680565b5060408201518160020190805190602001906124e8929190612680565b506060820151816003019080519060200190612505929190612680565b506080820151816004019080519060200190612522929190612680565b5060a0820151816005015590505080806001019150506123cf565b5050505050505050565b60008160405160200161255a919061331d565b6040516020818303038152906040528051906020012083604051602001612581919061331d565b6040516020818303038152906040528051906020012014905092915050565b8280548282559060005260206000209081019282156125ef579160200282015b828111156125ee5782518290805190602001906125de929190612680565b50916020019190600101906125c0565b5b5090506125fc9190612787565b5090565b828054600181600116156101000203166002900490600052602060002090601f016020900481019282601f1061264157805160ff191683800117855561266f565b8280016001018555821561266f579182015b8281111561266e578251825591602001919060010190612653565b5b50905061267c91906127b3565b5090565b828054600181600116156101000203166002900490600052602060002090601f016020900481019282601f106126c157805160ff19168380011785556126ef565b828001600101855582156126ef579182015b828111156126ee5782518255916020019190600101906126d3565b5b5090506126fc91906127b3565b5090565b828054600181600116156101000203166002900490600052602060002090601f016020900481019282601f106127395780548555612776565b8280016001018555821561277657600052602060002091601f016020900482015b8281111561277557825482559160010191906001019061275a565b5b50905061278391906127b3565b5090565b6127b091905b808211156127ac57600081816127a391906127d8565b5060010161278d565b5090565b90565b6127d591905b808211156127d15760008160009055506001016127b9565b5090565b90565b50805460018160011615610100020316600290046000825580601f106127fe575061281d565b601f01602090049060005260206000209081019061281c91906127b3565b5b50565b600082601f83011261283157600080fd5b813561284461283f826136bf565b613692565b9150818183526020840193506020810190508360005b8381101561288a57813586016128708882612917565b84526020840193506020830192505060018101905061285a565b5050505092915050565b600082601f8301126128a557600080fd5b81356128b86128b3826136e7565b613692565b915081818352602084019350602081019050838560208402820111156128dd57600080fd5b60005b8381101561290d57816128f388826129bf565b8452602084019350602083019250506001810190506128e0565b5050505092915050565b600082601f83011261292857600080fd5b813561293b6129368261370f565b613692565b9150808252602083016020830185838301111561295757600080fd5b61296283828461386b565b50505092915050565b600082601f83011261297c57600080fd5b813561298f61298a8261373b565b613692565b915080825260208301602083018583830111156129ab57600080fd5b6129b683828461386b565b50505092915050565b6000813590506129ce816138be565b92915050565b6000602082840312156129e657600080fd5b600082013567ffffffffffffffff811115612a0057600080fd5b612a0c8482850161296b565b91505092915050565b60008060408385031215612a2857600080fd5b600083013567ffffffffffffffff811115612a4257600080fd5b612a4e8582860161296b565b925050602083013567ffffffffffffffff811115612a6b57600080fd5b612a7785828601612820565b9150509250929050565b600080600080600060a08688031215612a9957600080fd5b600086013567ffffffffffffffff811115612ab357600080fd5b612abf8882890161296b565b955050602086013567ffffffffffffffff811115612adc57600080fd5b612ae88882890161296b565b945050604086013567ffffffffffffffff811115612b0557600080fd5b612b118882890161296b565b935050606086013567ffffffffffffffff811115612b2e57600080fd5b612b3a8882890161296b565b925050608086013567ffffffffffffffff811115612b5757600080fd5b612b638882890161296b565b9150509295509295909350565b60008060408385031215612b8357600080fd5b600083013567ffffffffffffffff811115612b9d57600080fd5b612ba985828601612917565b9250506020612bba858286016129bf565b9150509250929050565b600060208284031215612bd657600080fd5b6000612be4848285016129bf565b91505092915050565b60008060008060008060c08789031215612c0657600080fd5b6000612c1489828a016129bf565b965050602087013567ffffffffffffffff811115612c3157600080fd5b612c3d89828a01612820565b955050604087013567ffffffffffffffff811115612c5a57600080fd5b612c6689828a01612820565b945050606087013567ffffffffffffffff811115612c8357600080fd5b612c8f89828a01612820565b935050608087013567ffffffffffffffff811115612cac57600080fd5b612cb889828a01612820565b92505060a087013567ffffffffffffffff811115612cd557600080fd5b612ce189828a01612820565b9150509295509295509295565b600080600060608486031215612d0357600080fd5b6000612d11868287016129bf565b935050602084013567ffffffffffffffff811115612d2e57600080fd5b612d3a86828701612894565b925050604084013567ffffffffffffffff811115612d5757600080fd5b612d638682870161296b565b9150509250925092565b600080600080600060a08688031215612d8557600080fd5b6000612d93888289016129bf565b955050602086013567ffffffffffffffff811115612db057600080fd5b612dbc8882890161296b565b945050604086013567ffffffffffffffff811115612dd957600080fd5b612de58882890161296b565b935050606086013567ffffffffffffffff811115612e0257600080fd5b612e0e8882890161296b565b925050608086013567ffffffffffffffff811115612e2b57600080fd5b612e378882890161296b565b9150509295509295909350565b60008060408385031215612e5757600080fd5b6000612e65858286016129bf565b9250506020612e76858286016129bf565b9150509250929050565b60008060008060008060c08789031215612e9957600080fd5b6000612ea789828a016129bf565b9650506020612eb889828a016129bf565b955050604087013567ffffffffffffffff811115612ed557600080fd5b612ee189828a0161296b565b945050606087013567ffffffffffffffff811115612efe57600080fd5b612f0a89828a0161296b565b935050608087013567ffffffffffffffff811115612f2757600080fd5b612f3389828a0161296b565b92505060a087013567ffffffffffffffff811115612f5057600080fd5b612f5c89828a0161296b565b9150509295509295509295565b6000612f75838361316a565b905092915050565b6000612f8983836132c2565b905092915050565b6000612f9d83836132ff565b60208301905092915050565b6000612fb482613797565b612fbe81856137f5565b935083602082028501612fd085613767565b8060005b8581101561300c5784840389528151612fed8582612f69565b9450612ff8836137ce565b925060208a01995050600181019050612fd4565b50829750879550505050505092915050565b6000613029826137a2565b6130338185613806565b93508360208202850161304585613777565b8060005b8581101561308157848403895281516130628582612f7d565b945061306d836137db565b925060208a01995050600181019050613049565b50829750879550505050505092915050565b600061309e826137ad565b6130a88185613817565b93506130b383613787565b8060005b838110156130e45781516130cb8882612f91565b97506130d6836137e8565b9250506001810190506130b7565b5085935050505092915050565b6130fa81613855565b82525050565b600061310b826137c3565b6131158185613839565b935061312581856020860161387a565b61312e816138ad565b840191505092915050565b6000613144826137c3565b61314e818561384a565b935061315e81856020860161387a565b80840191505092915050565b6000613175826137b8565b61317f8185613828565b935061318f81856020860161387a565b613198816138ad565b840191505092915050565b60006131ae826137b8565b6131b88185613839565b93506131c881856020860161387a565b6131d1816138ad565b840191505092915050565b60006131e9601a83613839565b91507f456c656374696f6e20697320616c726561647920636c6f7365640000000000006000830152602082019050919050565b6000613229601283613839565b91507f456c656374696f6e20697320636c6f73656400000000000000000000000000006000830152602082019050919050565b6000613269602283613839565b91507f496e70757420617272617973206d75737420686176652073616d65206c656e6760008301527f74680000000000000000000000000000000000000000000000000000000000006020830152604082019050919050565b60006040830160008301516132da60008601826132ff565b50602083015184820360208601526132f2828261316a565b9150508091505092915050565b61330881613861565b82525050565b61331781613861565b82525050565b60006133298284613139565b915081905092915050565b6000602082019050818103600083015261334e8184612fa9565b905092915050565b600060a08201905081810360008301526133708188612fa9565b905081810360208301526133848187612fa9565b905081810360408301526133988186612fa9565b905081810360608301526133ac8185612fa9565b905081810360808301526133c08184612fa9565b90509695505050505050565b600060408201905081810360008301526133e68185612fa9565b905081810360208301526133fa8184613093565b90509392505050565b6000602082019050818103600083015261341d818461301e565b905092915050565b6000602082019050818103600083015261343f8184613093565b905092915050565b6000602082019050818103600083015261346181846131a3565b905092915050565b600060c08201905081810360008301526134838189613100565b905061349260208301886130f1565b61349f604083018761330e565b81810360608301526134b18186613100565b905081810360808301526134c58185613100565b905081810360a08301526134d98184613100565b9050979650505050505050565b600060c08201905081810360008301526135008189613100565b905081810360208301526135148188613100565b905081810360408301526135288187613100565b9050818103606083015261353c8186613100565b905081810360808301526135508185613100565b905061355f60a083018461330e565b979650505050505050565b600060c082019050818103600083015261358481896131a3565b905061359360208301886130f1565b6135a0604083018761330e565b81810360608301526135b281866131a3565b905081810360808301526135c681856131a3565b905081810360a08301526135da81846131a3565b9050979650505050505050565b60006020820190508181036000830152613600816131dc565b9050919050565b600060208201905081810360008301526136208161321c565b9050919050565b600060208201905081810360008301526136408161325c565b9050919050565b600060208201905061365c600083018461330e565b92915050565b6000604082019050613677600083018561330e565b818103602083015261368981846131a3565b90509392505050565b6000604051905081810181811067ffffffffffffffff821117156136b557600080fd5b8060405250919050565b600067ffffffffffffffff8211156136d657600080fd5b602082029050602081019050919050565b600067ffffffffffffffff8211156136fe57600080fd5b602082029050602081019050919050565b600067ffffffffffffffff82111561372657600080fd5b601f19601f8301169050602081019050919050565b600067ffffffffffffffff82111561375257600080fd5b601f19601f8301169050602081019050919050565b6000819050602082019050919050565b6000819050602082019050919050565b6000819050602082019050919050565b600081519050919050565b600081519050919050565b600081519050919050565b600081519050919050565b600081519050919050565b6000602082019050919050565b6000602082019050919050565b6000602082019050919050565b600082825260208201905092915050565b600082825260208201905092915050565b600082825260208201905092915050565b600082825260208201905092915050565b600082825260208201905092915050565b600081905092915050565b60008115159050919050565b6000819050919050565b82818337600083830152505050565b60005b8381101561389857808201518184015260208101905061387d565b838111156138a7576000848401525b50505050565b6000601f19601f8301169050919050565b6138c781613861565b81146138d257600080fd5b5056fea365627a7a72315820e403b32a55574486e91c7c73b640e4aaf4c1ac058b6f80c3a116cc61da141f006c6578706572696d656e74616cf564736f6c63430005100040",
  "source": "// SPDX-License-Identifier: MIT\r\npragma solidity  >=0.4.21 <=0.8.20;\r\npragma experimental ABIEncoderV2;\r\n\r\ncontract Voting {\r\n    mapping (string => CreatedElections[]) public ownedElections;\r\n\r\n    struct CreatedElections {\r\n        uint256 electionId;\r\n        string electionName;\r\n    }\r\n\r\n    mapping (string => string[]) public positions;\r\n\r\n    struct Candidate {\r\n        string name;\r\n        string partylist;\r\n        string position;\r\n        string platform;\r\n        string cdn;\r\n        uint256 voteCount;\r\n    }\r\n\r\n    struct Election {\r\n        string name;\r\n        bool isOpen;\r\n        mapping(uint256 => Candidate) candidates;\r\n        uint256 candidatesCount;\r\n        string startDate;\r\n        string endDate;\r\n        string domainFilter;\r\n        mapping(string => bool) hasVoted;\r\n    }\r\n\r\n    mapping(uint256 => Election) public elections;\r\n    uint256 public electionCount;\r\n\r\n    function listPositions(string memory email, string[] memory _positions) public {\r\n        positions[email] = _positions;\r\n    }\r\n\r\n    \r\n    function getPositions(string memory email) public view returns (string[] memory) {\r\n        return positions[email];\r\n    }\r\n\r\n    function createElection(string memory _name, string memory _startDate, string memory _endDate, string memory _domainFilter, string memory _email) public {\r\n        electionCount++;\r\n        elections[electionCount].name = _name;\r\n        elections[electionCount].isOpen = true;\r\n        elections[electionCount].candidatesCount = 0;\r\n        elections[electionCount].startDate = _startDate;\r\n        elections[electionCount].endDate = _endDate;\r\n        elections[electionCount].domainFilter = _domainFilter;\r\n        elections[electionCount].hasVoted[_email] = false;\r\n        ownedElections[_email].push(CreatedElections(electionCount, _name));\r\n    }\r\n\r\n    function getElectionCount() public view returns (uint256) {\r\n        return electionCount;\r\n    }\r\n    \r\n    function updateElection(uint256 _electionId, string memory _title, string memory _startDate, string memory _endDate, string memory _domainFilter) public {\r\n        Election storage e = elections[_electionId];\r\n        e.name = _title;\r\n        e.startDate = _startDate;\r\n        e.endDate = _endDate;\r\n        e.domainFilter = _domainFilter;\r\n    }\r\n\r\n    \r\n    function getOwnedElections(string memory _email) public view returns (CreatedElections[] memory) {\r\n        return ownedElections[_email];\r\n    }\r\n\r\n    function getOwnedElectionNames(string memory _owner) public view returns (string[] memory) {\r\n        CreatedElections[] storage ownedElectionsList = ownedElections[_owner];\r\n        string[] memory names = new string[](ownedElectionsList.length);\r\n        for (uint256 i = 0; i < ownedElectionsList.length; i++) {\r\n            names[i] = elections[ownedElectionsList[i].electionId].name;\r\n        }\r\n        return names;\r\n    }\r\n\r\n    function getOwnedElectionIds(string memory _owner) public view returns (uint256[] memory) {\r\n        CreatedElections[] storage ownedElectionsList = ownedElections[_owner];\r\n        uint256[] memory ids = new uint256[](ownedElectionsList.length);\r\n        for (uint256 i = 0; i < ownedElectionsList.length; i++) {\r\n            ids[i] = ownedElectionsList[i].electionId;\r\n        }\r\n        return ids;\r\n    }\r\n\r\n    \r\n    function getElectionIdByName(string memory _name) public view returns (uint256) {\r\n        for (uint256 i = 1; i <= electionCount; i++) {\r\n            if (compareStrings(elections[i].name, _name)) {\r\n                return i;\r\n            }\r\n        }\r\n        return 0;\r\n    }\r\n\r\n    function compareStrings(string memory s1, string memory s2) internal pure returns (bool) {\r\n        return keccak256(abi.encodePacked(s1)) == keccak256(abi.encodePacked(s2));\r\n    }\r\n\r\n\r\n    \r\n    function getElectionResults(uint256 _electionId) public view returns (string[] memory, uint256[] memory) {\r\n        Election storage e = elections[_electionId];\r\n        string[] memory names = new string[](e.candidatesCount);\r\n        uint256[] memory votes = new uint256[](e.candidatesCount);\r\n        for (uint256 i = 1; i <= e.candidatesCount; i++) {\r\n            names[i-1] = e.candidates[i].name;\r\n            votes[i-1] = e.candidates[i].voteCount;\r\n        }\r\n        return (names, votes);\r\n    }\r\n\r\n    \r\n    \r\n    function getElectionDetails(uint256 _electionId) public view returns (string memory, bool, uint256, string memory, string memory, string memory) {\r\n        Election storage e = elections[_electionId];\r\n        return (e.name, e.isOpen, e.candidatesCount, e.startDate, e.endDate, e.domainFilter);\r\n    }\r\n\r\n    \r\n    function addCandidates(uint256 _electionId, string[] memory _names, string[] memory _positions, string[] memory _platforms, string[] memory _cdns, string[] memory _partylists) public {\r\n        require(_names.length == _positions.length && _positions.length == _platforms.length && _platforms.length == _cdns.length && _cdns.length == _partylists.length, \"Input arrays must have same length\");\r\n        Election storage e = elections[_electionId];\r\n        for (uint256 i = 0; i < _names.length; i++) {\r\n            e.candidatesCount++;\r\n            e.candidates[e.candidatesCount] = Candidate(_names[i], _partylists[i], _positions[i], _platforms[i], _cdns[i], 0);\r\n        }\r\n    }\r\n\r\n    \r\n    \r\n    function getElectionCandidates(uint256 _electionId) public view returns (string[] memory, string[] memory, string[] memory, string[] memory, string[] memory) {\r\n        Election storage e = elections[_electionId];\r\n        string[] memory names = new string[](e.candidatesCount);\r\n        string[] memory _positions = new string[](e.candidatesCount);\r\n        string[] memory platforms = new string[](e.candidatesCount);\r\n        string[] memory cdns = new string[](e.candidatesCount);\r\n        string[] memory partylists = new string[](e.candidatesCount);\r\n        for (uint256 i = 1; i <= e.candidatesCount; i++) {\r\n            names[i-1] = e.candidates[i].name;\r\n            _positions[i-1] = e.candidates[i].position;\r\n            platforms[i-1] = e.candidates[i].platform;\r\n            cdns[i-1] = e.candidates[i].cdn;\r\n            partylists[i-1] = e.candidates[i].partylist;\r\n        }\r\n        return (names, _positions, platforms, cdns, partylists);\r\n    }\r\n\r\n    \r\n    function getElectionCandidateCount(uint256 _electionId) public view returns (uint256) {\r\n        Election storage e = elections[_electionId];\r\n        return e.candidatesCount;\r\n    }\r\n\r\n    \r\n    function updateCandidate(uint256 _electionId, uint256 _candidateId, string memory _name, string memory _position, string memory _platform, string memory _cdn) public {\r\n        Election storage e = elections[_electionId];\r\n        e.candidates[_candidateId].name = _name;\r\n        e.candidates[_candidateId].position = _position;\r\n        e.candidates[_candidateId].platform = _platform;\r\n        e.candidates[_candidateId].cdn = _cdn;\r\n    }\r\n\r\n    \r\n    function deleteCandidate(uint256 _electionId, uint256 _candidateId) public {\r\n        Election storage e = elections[_electionId];\r\n        if (_candidateId >= e.candidatesCount) return;\r\n\r\n        for (uint256 i = _candidateId; i < e.candidatesCount - 1; i++) {\r\n            e.candidates[i] = e.candidates[i+1];\r\n        }\r\n        e.candidatesCount--;\r\n    }\r\n\r\n    \r\n    function getElectionCandidate(uint256 _electionId, uint256 _candidateId) public view returns (string memory, string memory, string memory, string memory, string memory, uint) {\r\n        Election storage e = elections[_electionId];\r\n        return (e.candidates[_candidateId].name, e.candidates[_candidateId].position, e.candidates[_candidateId].platform, e.candidates[_candidateId].cdn, e.candidates[_candidateId].partylist, e.candidates[_candidateId].voteCount);\r\n    }\r\n\r\n\r\n    \r\n    function vote(uint256 _electionId, uint256[] memory _candidateIds, string memory _email) public {\r\n        Election storage e = elections[_electionId];\r\n        require(e.isOpen, \"Election is closed\");\r\n        for (uint256 i = 0; i < _candidateIds.length; i++) {\r\n            e.candidates[_candidateIds[i]].voteCount++;\r\n        }\r\n        e.hasVoted[_email] = true;\r\n    }\r\n\r\n    \r\n    function closeElection(uint256 _electionId) public {\r\n        require(!elections[_electionId].isOpen, \"Election is already closed\");\r\n        Election storage e = elections[_electionId];\r\n        e.isOpen = false;\r\n    }\r\n\r\n}\r\n",
  "sourcePath": "C:\\Users\\dizon\\OneDrive\\Documents\\GitHub\\SE2-BV\\contracts\\contracts\\Voting.sol",
  "compiler": {
    "name": "solc",
    "version": "0.5.16+commit.9c3226ce.Emscripten.clang"
  },
  "schemaVersion": "3.4.16",
  "updatedAt": "2025-09-17T19:27:32.924Z",
  "networkType": "ethereum",
  "devdoc": {
    "methods": {}
  },
  "userdoc": {
    "methods": {}
  }
}