{
  "contractName": "Voting",
  "abi": [
    {
      "constant": true,
      "inputs": [],
      "name": "electionCount",
      "outputs": [
        {
          "internalType": "uint256",
          "name": "",
          "type": "uint256"
        }
      ],
      "payable": false,
      "stateMutability": "view",
      "type": "function"
    },
    {
      "constant": true,
      "inputs": [
        {
          "internalType": "uint256",
          "name": "",
          "type": "uint256"
        }
      ],
      "name": "elections",
      "outputs": [
        {
          "internalType": "string",
          "name": "name",
          "type": "string"
        },
        {
          "internalType": "bool",
          "name": "isOpen",
          "type": "bool"
        },
        {
          "internalType": "uint256",
          "name": "candidatesCount",
          "type": "uint256"
        },
        {
          "internalType": "string",
          "name": "startDate",
          "type": "string"
        },
        {
          "internalType": "string",
          "name": "endDate",
          "type": "string"
        },
        {
          "internalType": "string",
          "name": "domainFilter",
          "type": "string"
        }
      ],
      "payable": false,
      "stateMutability": "view",
      "type": "function"
    },
    {
      "constant": true,
      "inputs": [
        {
          "internalType": "string",
          "name": "",
          "type": "string"
        },
        {
          "internalType": "uint256",
          "name": "",
          "type": "uint256"
        }
      ],
      "name": "ownedElections",
      "outputs": [
        {
          "internalType": "uint256",
          "name": "electionId",
          "type": "uint256"
        },
        {
          "internalType": "string",
          "name": "electionName",
          "type": "string"
        },
        {
          "internalType": "bool",
          "name": "isOpen",
          "type": "bool"
        },
        {
          "internalType": "string",
          "name": "startDate",
          "type": "string"
        },
        {
          "internalType": "string",
          "name": "endDate",
          "type": "string"
        },
        {
          "internalType": "string",
          "name": "domainFilter",
          "type": "string"
        }
      ],
      "payable": false,
      "stateMutability": "view",
      "type": "function"
    },
    {
      "constant": true,
      "inputs": [
        {
          "internalType": "string",
          "name": "",
          "type": "string"
        },
        {
          "internalType": "uint256",
          "name": "",
          "type": "uint256"
        }
      ],
      "name": "positions",
      "outputs": [
        {
          "internalType": "string",
          "name": "",
          "type": "string"
        }
      ],
      "payable": false,
      "stateMutability": "view",
      "type": "function"
    },
    {
      "constant": false,
      "inputs": [
        {
          "internalType": "string",
          "name": "email",
          "type": "string"
        },
        {
          "internalType": "string[]",
          "name": "_positions",
          "type": "string[]"
        }
      ],
      "name": "listPositions",
      "outputs": [],
      "payable": false,
      "stateMutability": "nonpayable",
      "type": "function"
    },
    {
      "constant": true,
      "inputs": [
        {
          "internalType": "string",
          "name": "email",
          "type": "string"
        }
      ],
      "name": "getPositions",
      "outputs": [
        {
          "internalType": "string[]",
          "name": "",
          "type": "string[]"
        }
      ],
      "payable": false,
      "stateMutability": "view",
      "type": "function"
    },
    {
      "constant": false,
      "inputs": [
        {
          "internalType": "string",
          "name": "_name",
          "type": "string"
        },
        {
          "internalType": "string",
          "name": "_startDate",
          "type": "string"
        },
        {
          "internalType": "string",
          "name": "_endDate",
          "type": "string"
        },
        {
          "internalType": "string",
          "name": "_domainFilter",
          "type": "string"
        },
        {
          "internalType": "string",
          "name": "_email",
          "type": "string"
        }
      ],
      "name": "createElection",
      "outputs": [],
      "payable": false,
      "stateMutability": "nonpayable",
      "type": "function"
    },
    {
      "constant": true,
      "inputs": [],
      "name": "getElectionCount",
      "outputs": [
        {
          "internalType": "uint256",
          "name": "",
          "type": "uint256"
        }
      ],
      "payable": false,
      "stateMutability": "view",
      "type": "function"
    },
    {
      "constant": false,
      "inputs": [
        {
          "internalType": "uint256",
          "name": "_electionId",
          "type": "uint256"
        },
        {
          "internalType": "string",
          "name": "_title",
          "type": "string"
        },
        {
          "internalType": "string",
          "name": "_startDate",
          "type": "string"
        },
        {
          "internalType": "string",
          "name": "_endDate",
          "type": "string"
        },
        {
          "internalType": "string",
          "name": "_domainFilter",
          "type": "string"
        },
        {
          "internalType": "string",
          "name": "_email",
          "type": "string"
        }
      ],
      "name": "updateElection",
      "outputs": [],
      "payable": false,
      "stateMutability": "nonpayable",
      "type": "function"
    },
    {
      "constant": true,
      "inputs": [
        {
          "internalType": "string",
          "name": "_email",
          "type": "string"
        }
      ],
      "name": "getOwnedElections",
      "outputs": [
        {
          "components": [
            {
              "internalType": "uint256",
              "name": "electionId",
              "type": "uint256"
            },
            {
              "internalType": "string",
              "name": "electionName",
              "type": "string"
            },
            {
              "internalType": "bool",
              "name": "isOpen",
              "type": "bool"
            },
            {
              "internalType": "string",
              "name": "startDate",
              "type": "string"
            },
            {
              "internalType": "string",
              "name": "endDate",
              "type": "string"
            },
            {
              "internalType": "string",
              "name": "domainFilter",
              "type": "string"
            }
          ],
          "internalType": "struct Voting.CreatedElections[]",
          "name": "",
          "type": "tuple[]"
        }
      ],
      "payable": false,
      "stateMutability": "view",
      "type": "function"
    },
    {
      "constant": true,
      "inputs": [
        {
          "internalType": "string",
          "name": "_owner",
          "type": "string"
        }
      ],
      "name": "getOwnedElectionNames",
      "outputs": [
        {
          "internalType": "string[]",
          "name": "",
          "type": "string[]"
        }
      ],
      "payable": false,
      "stateMutability": "view",
      "type": "function"
    },
    {
      "constant": true,
      "inputs": [
        {
          "internalType": "string",
          "name": "_owner",
          "type": "string"
        }
      ],
      "name": "getOwnedElectionIds",
      "outputs": [
        {
          "internalType": "uint256[]",
          "name": "",
          "type": "uint256[]"
        }
      ],
      "payable": false,
      "stateMutability": "view",
      "type": "function"
    },
    {
      "constant": true,
      "inputs": [
        {
          "internalType": "string",
          "name": "_name",
          "type": "string"
        }
      ],
      "name": "getElectionIdByName",
      "outputs": [
        {
          "internalType": "uint256",
          "name": "",
          "type": "uint256"
        }
      ],
      "payable": false,
      "stateMutability": "view",
      "type": "function"
    },
    {
      "constant": true,
      "inputs": [
        {
          "internalType": "uint256",
          "name": "_electionId",
          "type": "uint256"
        }
      ],
      "name": "getElectionDetails",
      "outputs": [
        {
          "internalType": "string",
          "name": "",
          "type": "string"
        },
        {
          "internalType": "bool",
          "name": "",
          "type": "bool"
        },
        {
          "internalType": "uint256",
          "name": "",
          "type": "uint256"
        },
        {
          "internalType": "string",
          "name": "",
          "type": "string"
        },
        {
          "internalType": "string",
          "name": "",
          "type": "string"
        },
        {
          "internalType": "string",
          "name": "",
          "type": "string"
        }
      ],
      "payable": false,
      "stateMutability": "view",
      "type": "function"
    },
    {
      "constant": false,
      "inputs": [
        {
          "internalType": "uint256",
          "name": "_electionId",
          "type": "uint256"
        }
      ],
      "name": "closeElection",
      "outputs": [],
      "payable": false,
      "stateMutability": "nonpayable",
      "type": "function"
    },
    {
      "constant": false,
      "inputs": [
        {
          "internalType": "uint256",
          "name": "_electionId",
          "type": "uint256"
        },
        {
          "internalType": "string[]",
          "name": "_names",
          "type": "string[]"
        },
        {
          "internalType": "string[]",
          "name": "_positions",
          "type": "string[]"
        },
        {
          "internalType": "string[]",
          "name": "_platforms",
          "type": "string[]"
        },
        {
          "internalType": "string[]",
          "name": "_cdns",
          "type": "string[]"
        },
        {
          "internalType": "string[]",
          "name": "_partylists",
          "type": "string[]"
        }
      ],
      "name": "addCandidates",
      "outputs": [],
      "payable": false,
      "stateMutability": "nonpayable",
      "type": "function"
    },
    {
      "constant": true,
      "inputs": [
        {
          "internalType": "uint256",
          "name": "_electionId",
          "type": "uint256"
        }
      ],
      "name": "getElectionCandidates",
      "outputs": [
        {
          "internalType": "string[]",
          "name": "",
          "type": "string[]"
        },
        {
          "internalType": "string[]",
          "name": "",
          "type": "string[]"
        },
        {
          "internalType": "string[]",
          "name": "",
          "type": "string[]"
        },
        {
          "internalType": "string[]",
          "name": "",
          "type": "string[]"
        },
        {
          "internalType": "string[]",
          "name": "",
          "type": "string[]"
        }
      ],
      "payable": false,
      "stateMutability": "view",
      "type": "function"
    },
    {
      "constant": true,
      "inputs": [
        {
          "internalType": "uint256",
          "name": "_electionId",
          "type": "uint256"
        }
      ],
      "name": "getElectionCandidateCount",
      "outputs": [
        {
          "internalType": "uint256",
          "name": "",
          "type": "uint256"
        }
      ],
      "payable": false,
      "stateMutability": "view",
      "type": "function"
    },
    {
      "constant": true,
      "inputs": [
        {
          "internalType": "uint256",
          "name": "_electionId",
          "type": "uint256"
        },
        {
          "internalType": "uint256",
          "name": "_candidateId",
          "type": "uint256"
        }
      ],
      "name": "getElectionCandidate",
      "outputs": [
        {
          "internalType": "string",
          "name": "",
          "type": "string"
        },
        {
          "internalType": "string",
          "name": "",
          "type": "string"
        },
        {
          "internalType": "string",
          "name": "",
          "type": "string"
        },
        {
          "internalType": "string",
          "name": "",
          "type": "string"
        },
        {
          "internalType": "string",
          "name": "",
          "type": "string"
        },
        {
          "internalType": "uint256",
          "name": "",
          "type": "uint256"
        }
      ],
      "payable": false,
      "stateMutability": "view",
      "type": "function"
    },
    {
      "constant": false,
      "inputs": [
        {
          "internalType": "uint256",
          "name": "_electionId",
          "type": "uint256"
        },
        {
          "internalType": "uint256",
          "name": "_candidateId",
          "type": "uint256"
        },
        {
          "internalType": "string",
          "name": "_name",
          "type": "string"
        },
        {
          "internalType": "string",
          "name": "_position",
          "type": "string"
        },
        {
          "internalType": "string",
          "name": "_platform",
          "type": "string"
        },
        {
          "internalType": "string",
          "name": "_cdn",
          "type": "string"
        }
      ],
      "name": "updateCandidate",
      "outputs": [],
      "payable": false,
      "stateMutability": "nonpayable",
      "type": "function"
    },
    {
      "constant": false,
      "inputs": [
        {
          "internalType": "uint256",
          "name": "_electionId",
          "type": "uint256"
        },
        {
          "internalType": "uint256",
          "name": "_candidateId",
          "type": "uint256"
        }
      ],
      "name": "deleteCandidate",
      "outputs": [],
      "payable": false,
      "stateMutability": "nonpayable",
      "type": "function"
    },
    {
      "constant": false,
      "inputs": [
        {
          "internalType": "uint256",
          "name": "_electionId",
          "type": "uint256"
        },
        {
          "internalType": "uint256[]",
          "name": "_candidateIds",
          "type": "uint256[]"
        },
        {
          "internalType": "string",
          "name": "_email",
          "type": "string"
        }
      ],
      "name": "vote",
      "outputs": [],
      "payable": false,
      "stateMutability": "nonpayable",
      "type": "function"
    },
    {
      "constant": true,
      "inputs": [
        {
          "internalType": "uint256",
          "name": "_electionId",
          "type": "uint256"
        }
      ],
      "name": "getElectionResults",
      "outputs": [
        {
          "internalType": "string[]",
          "name": "",
          "type": "string[]"
        },
        {
          "internalType": "uint256[]",
          "name": "",
          "type": "uint256[]"
        }
      ],
      "payable": false,
      "stateMutability": "view",
      "type": "function"
    }
  ],
  "bytecode": "0x608060405234801561001057600080fd5b506142ab806100206000396000f3fe608060405234801561001057600080fd5b506004361061014d5760003560e01c80635f5db526116100c3578063cf4a60601161007c578063cf4a6060146103f4578063e8ededa614610410578063f604992414610441578063f70171fb14610476578063fa65dd32146104ab578063fc265f06146104db5761014d565b80635f5db526146103095780637ea7af041461033e578063997d28301461036e5780639b1b5a351461038c578063bade1157146103a8578063c14cfa21146103d85761014d565b8063213785a011610115578063213785a01461021a5780634628ba7f146102385780634ba6b8211461025457806350efbc75146102845780635e12845e146102a05780635e6fef01146102d45761014d565b806307ccd61714610152578063088b06631461018257806309e33d07146101b25780631227dd41146101ce578063193bdd8a146101fe575b600080fd5b61016c600480360361016791908101906131c0565b6104f7565b6040516101799190613d2b565b60405180910390f35b61019c600480360361019791908101906133b0565b6105b2565b6040516101a99190613f8d565b60405180910390f35b6101cc60048036036101c791908101906133b0565b6105d2565b005b6101e860048036036101e391908101906131c0565b610667565b6040516101f59190613d09565b60405180910390f35b61021860048036036102139190810190613201565b610991565b005b6102226109c8565b60405161022f9190613f8d565b60405180910390f35b610252600480360361024d9190810190613696565b6109d2565b005b61026e600480360361026991908101906131c0565b610af9565b60405161027b9190613c3a565b60405180910390f35b61029e6004803603610299919081019061326d565b610c00565b005b6102ba60048036036102b591908101906133b0565b610e85565b6040516102cb959493929190613c5c565b60405180910390f35b6102ee60048036036102e991908101906133b0565b61140a565b60405161030096959493929190613e70565b60405180910390f35b610323600480360361031e919081019061335c565b6116b3565b60405161033596959493929190613fa8565b60405180910390f35b610358600480360361035391908101906131c0565b61198c565b6040516103659190613c3a565b60405180910390f35b610376611af9565b6040516103839190613f8d565b60405180910390f35b6103a660048036036103a19190810190613559565b611aff565b005b6103c260048036036103bd91908101906131c0565b611cb7565b6040516103cf9190613f8d565b60405180910390f35b6103f260048036036103ed91908101906134da565b611da6565b005b61040e6004803603610409919081019061365a565b611f8c565b005b61042a600480360361042591908101906133b0565b6121a6565b604051610438929190613cd2565b60405180910390f35b61045b600480360361045691908101906133b0565b612362565b60405161046d96959493929190613d6f565b60405180910390f35b610490600480360361048b919081019061365a565b612630565b6040516104a296959493929190613dec565b60405180910390f35b6104c560048036036104c0919081019061335c565b612a57565b6040516104d29190613d4d565b60405180910390f35b6104f560048036036104f091908101906133d9565b612b33565b005b60606000808360405161050a9190613c23565b908152602001604051809103902090506060818054905060405190808252806020026020018201604052801561054f5781602001602082028038833980820191505090505b50905060008090505b82805490508110156105a75782818154811061057057fe5b90600052602060002090600602016000015482828151811061058e57fe5b6020026020010181815250508080600101915050610558565b508092505050919050565b600060026000838152602001908152602001600020600301549050919050565b6002600082815260200190815260200160002060010160009054906101000a900460ff16610635576040517f08c379a000000000000000000000000000000000000000000000000000000000815260040161062c90613f0d565b60405180910390fd5b60006002600083815260200190815260200160002060010160006101000a81548160ff02191690831515021790555050565b60606000826040516106799190613c23565b9081526020016040518091039020805480602002602001604051908101604052809291908181526020016000905b8282101561098657838290600052602060002090600602016040518060c001604052908160008201548152602001600182018054600181600116156101000203166002900480601f01602080910402602001604051908101604052809291908181526020018280546001816001161561010002031660029004801561076d5780601f106107425761010080835404028352916020019161076d565b820191906000526020600020905b81548152906001019060200180831161075057829003601f168201915b505050505081526020016002820160009054906101000a900460ff16151515158152602001600382018054600181600116156101000203166002900480601f01602080910402602001604051908101604052809291908181526020018280546001816001161561010002031660029004801561082a5780601f106107ff5761010080835404028352916020019161082a565b820191906000526020600020905b81548152906001019060200180831161080d57829003601f168201915b50505050508152602001600482018054600181600116156101000203166002900480601f0160208091040260200160405190810160405280929190818152602001828054600181600116156101000203166002900480156108cc5780601f106108a1576101008083540402835291602001916108cc565b820191906000526020600020905b8154815290600101906020018083116108af57829003601f168201915b50505050508152602001600582018054600181600116156101000203166002900480601f01602080910402602001604051908101604052809291908181526020018280546001816001161561010002031660029004801561096e5780601f106109435761010080835404028352916020019161096e565b820191906000526020600020905b81548152906001019060200180831161095157829003601f168201915b505050505081525050815260200190600101906106a7565b505050509050919050565b806001836040516109a29190613c23565b908152602001604051809103902090805190602001906109c3929190612d8c565b505050565b6000600354905090565b60006002600088815260200190815260200160002090506000861180156109fd575080600301548611155b610a3c576040517f08c379a0000000000000000000000000000000000000000000000000000000008152600401610a3390613f4d565b60405180910390fd5b848160020160008881526020019081526020016000206000019080519060200190610a68929190612dec565b50838160020160008881526020019081526020016000206002019080519060200190610a95929190612dec565b50828160020160008881526020019081526020016000206003019080519060200190610ac2929190612dec565b50818160020160008881526020019081526020016000206004019080519060200190610aef929190612dec565b5050505050505050565b6060600182604051610b0b9190613c23565b9081526020016040518091039020805480602002602001604051908101604052809291908181526020016000905b82821015610bf5578382906000526020600020018054600181600116156101000203166002900480601f016020809104026020016040519081016040528092919081815260200182805460018160011615610100020316600290048015610be15780601f10610bb657610100808354040283529160200191610be1565b820191906000526020600020905b815481529060010190602001808311610bc457829003601f168201915b505050505081526020019060010190610b39565b505050509050919050565b600360008154809291906001019190505550846002600060035481526020019081526020016000206000019080519060200190610c3e929190612dec565b50600160026000600354815260200190815260200160002060010160006101000a81548160ff021916908315150217905550600060026000600354815260200190815260200160002060030181905550836002600060035481526020019081526020016000206004019080519060200190610cba929190612dec565b50826002600060035481526020019081526020016000206005019080519060200190610ce7929190612dec565b50816002600060035481526020019081526020016000206006019080519060200190610d14929190612dec565b50600060026000600354815260200190815260200160002060070182604051610d3d9190613c23565b908152602001604051809103902060006101000a81548160ff021916908315150217905550600081604051610d729190613c23565b90815260200160405180910390206040518060c0016040528060035481526020018781526020016001151581526020018681526020018581526020018481525090806001815401808255809150509060018203906000526020600020906006020160009091929091909150600082015181600001556020820151816001019080519060200190610e03929190612e6c565b5060408201518160020160006101000a81548160ff0219169083151502179055506060820151816003019080519060200190610e40929190612e6c565b506080820151816004019080519060200190610e5d929190612e6c565b5060a0820151816005019080519060200190610e7a929190612e6c565b505050505050505050565b6060806060806060600060026000888152602001908152602001600020905060608160030154604051908082528060200260200182016040528015610ede57816020015b6060815260200190600190039081610ec95790505b50905060608260030154604051908082528060200260200182016040528015610f1b57816020015b6060815260200190600190039081610f065790505b50905060608360030154604051908082528060200260200182016040528015610f5857816020015b6060815260200190600190039081610f435790505b50905060608460030154604051908082528060200260200182016040528015610f9557816020015b6060815260200190600190039081610f805790505b50905060608560030154604051908082528060200260200182016040528015610fd257816020015b6060815260200190600190039081610fbd5790505b5090506000600190505b866003015481116113eb578660020160008281526020019081526020016000206000018054600181600116156101000203166002900480601f0160208091040260200160405190810160405280929190818152602001828054600181600116156101000203166002900480156110935780601f1061106857610100808354040283529160200191611093565b820191906000526020600020905b81548152906001019060200180831161107657829003601f168201915b50505050508660018303815181106110a757fe5b60200260200101819052508660020160008281526020019081526020016000206002018054600181600116156101000203166002900480601f01602080910402602001604051908101604052809291908181526020018280546001816001161561010002031660029004801561115e5780601f106111335761010080835404028352916020019161115e565b820191906000526020600020905b81548152906001019060200180831161114157829003601f168201915b505050505085600183038151811061117257fe5b60200260200101819052508660020160008281526020019081526020016000206003018054600181600116156101000203166002900480601f0160208091040260200160405190810160405280929190818152602001828054600181600116156101000203166002900480156112295780601f106111fe57610100808354040283529160200191611229565b820191906000526020600020905b81548152906001019060200180831161120c57829003601f168201915b505050505084600183038151811061123d57fe5b60200260200101819052508660020160008281526020019081526020016000206004018054600181600116156101000203166002900480601f0160208091040260200160405190810160405280929190818152602001828054600181600116156101000203166002900480156112f45780601f106112c9576101008083540402835291602001916112f4565b820191906000526020600020905b8154815290600101906020018083116112d757829003601f168201915b505050505083600183038151811061130857fe5b60200260200101819052508660020160008281526020019081526020016000206001018054600181600116156101000203166002900480601f0160208091040260200160405190810160405280929190818152602001828054600181600116156101000203166002900480156113bf5780601f10611394576101008083540402835291602001916113bf565b820191906000526020600020905b8154815290600101906020018083116113a257829003601f168201915b50505050508260018303815181106113d357fe5b60200260200101819052508080600101915050610fdc565b5084848484849a509a509a509a509a5050505050505091939590929450565b6002602052806000526040600020600091509050806000018054600181600116156101000203166002900480601f0160208091040260200160405190810160405280929190818152602001828054600181600116156101000203166002900480156114b65780601f1061148b576101008083540402835291602001916114b6565b820191906000526020600020905b81548152906001019060200180831161149957829003601f168201915b5050505050908060010160009054906101000a900460ff1690806003015490806004018054600181600116156101000203166002900480601f01602080910402602001604051908101604052809291908181526020018280546001816001161561010002031660029004801561156d5780601f106115425761010080835404028352916020019161156d565b820191906000526020600020905b81548152906001019060200180831161155057829003601f168201915b505050505090806005018054600181600116156101000203166002900480601f01602080910402602001604051908101604052809291908181526020018280546001816001161561010002031660029004801561160b5780601f106115e05761010080835404028352916020019161160b565b820191906000526020600020905b8154815290600101906020018083116115ee57829003601f168201915b505050505090806006018054600181600116156101000203166002900480601f0160208091040260200160405190810160405280929190818152602001828054600181600116156101000203166002900480156116a95780601f1061167e576101008083540402835291602001916116a9565b820191906000526020600020905b81548152906001019060200180831161168c57829003601f168201915b5050505050905086565b60008280516020810182018051848252602083016020850120818352809550505050505081815481106116e257fe5b906000526020600020906006020160009150915050806000015490806001018054600181600116156101000203166002900480601f0160208091040260200160405190810160405280929190818152602001828054600181600116156101000203166002900480156117955780601f1061176a57610100808354040283529160200191611795565b820191906000526020600020905b81548152906001019060200180831161177857829003601f168201915b5050505050908060020160009054906101000a900460ff1690806003018054600181600116156101000203166002900480601f0160208091040260200160405190810160405280929190818152602001828054600181600116156101000203166002900480156118465780601f1061181b57610100808354040283529160200191611846565b820191906000526020600020905b81548152906001019060200180831161182957829003601f168201915b505050505090806004018054600181600116156101000203166002900480601f0160208091040260200160405190810160405280929190818152602001828054600181600116156101000203166002900480156118e45780601f106118b9576101008083540402835291602001916118e4565b820191906000526020600020905b8154815290600101906020018083116118c757829003601f168201915b505050505090806005018054600181600116156101000203166002900480601f0160208091040260200160405190810160405280929190818152602001828054600181600116156101000203166002900480156119825780601f1061195757610100808354040283529160200191611982565b820191906000526020600020905b81548152906001019060200180831161196557829003601f168201915b5050505050905086565b60606000808360405161199f9190613c23565b90815260200160405180910390209050606081805490506040519080825280602002602001820160405280156119e957816020015b60608152602001906001900390816119d45790505b50905060008090505b8280549050811015611aee5760026000848381548110611a0e57fe5b90600052602060002090600602016000015481526020019081526020016000206000018054600181600116156101000203166002900480601f016020809104026020016040519081016040528092919081815260200182805460018160011615610100020316600290048015611ac55780601f10611a9a57610100808354040283529160200191611ac5565b820191906000526020600020905b815481529060010190602001808311611aa857829003601f168201915b5050505050828281518110611ad657fe5b602002602001018190525080806001019150506119f2565b508092505050919050565b60035481565b600060026000888152602001908152602001600020905085816000019080519060200190611b2e929190612dec565b5084816004019080519060200190611b47929190612dec565b5083816005019080519060200190611b60929190612dec565b5082816006019080519060200190611b79929190612dec565b5060008083604051611b8b9190613c23565b9081526020016040518091039020905060008090505b8180549050811015611cac5788828281548110611bba57fe5b9060005260206000209060060201600001541415611c9f5787828281548110611bdf57fe5b90600052602060002090600602016001019080519060200190611c03929190612dec565b5086828281548110611c1157fe5b90600052602060002090600602016003019080519060200190611c35929190612dec565b5085828281548110611c4357fe5b90600052602060002090600602016004019080519060200190611c67929190612dec565b5084828281548110611c7557fe5b90600052602060002090600602016005019080519060200190611c99929190612dec565b50611cac565b8080600101915050611ba1565b505050505050505050565b600080600190505b6003548111611d9b57611d80600260008381526020019081526020016000206000018054600181600116156101000203166002900480601f016020809104026020016040519081016040528092919081815260200182805460018160011615610100020316600290048015611d755780601f10611d4a57610100808354040283529160200191611d75565b820191906000526020600020905b815481529060010190602001808311611d5857829003601f168201915b505050505084612d33565b15611d8e5780915050611da1565b8080600101915050611cbf565b50600090505b919050565b60006002600085815260200190815260200160002090508060010160009054906101000a900460ff16611e0e576040517f08c379a0000000000000000000000000000000000000000000000000000000008152600401611e0590613f2d565b60405180910390fd5b8060070182604051611e209190613c23565b908152602001604051809103902060009054906101000a900460ff1615611e7c576040517f08c379a0000000000000000000000000000000000000000000000000000000008152600401611e7390613eed565b60405180910390fd5b60008090505b8351811015611f4c576000848281518110611e9957fe5b6020026020010151118015611ec557508160030154848281518110611eba57fe5b602002602001015111155b611f04576040517f08c379a0000000000000000000000000000000000000000000000000000000008152600401611efb90613f4d565b60405180910390fd5b816002016000858381518110611f1657fe5b60200260200101518152602001908152602001600020600501600081548092919060010191905055508080600101915050611e82565b5060018160070183604051611f619190613c23565b908152602001604051809103902060006101000a81548160ff02191690831515021790555050505050565b6000600260008481526020019081526020016000209050600082118015611fb7575080600301548211155b611ff6576040517f08c379a0000000000000000000000000000000000000000000000000000000008152600401611fed90613f4d565b60405180910390fd5b60008290505b8160030154811015612117578160020160006001830181526020019081526020016000208260020160008381526020019081526020016000206000820181600001908054600181600116156101000203166002900461205c929190612eec565b5060018201816001019080546001816001161561010002031660029004612084929190612eec565b50600282018160020190805460018160011615610100020316600290046120ac929190612eec565b50600382018160030190805460018160011615610100020316600290046120d4929190612eec565b50600482018160040190805460018160011615610100020316600290046120fc929190612eec565b50600582015481600501559050508080600101915050611ffc565b5080600201600082600301548152602001908152602001600020600080820160006121429190612f73565b6001820160006121529190612f73565b6002820160006121629190612f73565b6003820160006121729190612f73565b6004820160006121829190612f73565b60058201600090555050806003016000815480929190600190039190505550505050565b6060806000600260008581526020019081526020016000209050606081600301546040519080825280602002602001820160405280156121fa57816020015b60608152602001906001900390816121e55790505b509050606082600301546040519080825280602002602001820160405280156122325781602001602082028038833980820191505090505b5090506000600190505b83600301548111612353578360020160008281526020019081526020016000206000018054600181600116156101000203166002900480601f0160208091040260200160405190810160405280929190818152602001828054600181600116156101000203166002900480156122f35780601f106122c8576101008083540402835291602001916122f3565b820191906000526020600020905b8154815290600101906020018083116122d657829003601f168201915b505050505083600183038151811061230757fe5b60200260200101819052508360020160008281526020019081526020016000206005015482600183038151811061233a57fe5b602002602001018181525050808060010191505061223c565b50818194509450505050915091565b606060008060608060606000600260008981526020019081526020016000209050806000018160010160009054906101000a900460ff168260030154836004018460050185600601858054600181600116156101000203166002900480601f01602080910402602001604051908101604052809291908181526020018280546001816001161561010002031660029004801561243f5780601f106124145761010080835404028352916020019161243f565b820191906000526020600020905b81548152906001019060200180831161242257829003601f168201915b50505050509550828054600181600116156101000203166002900480601f0160208091040260200160405190810160405280929190818152602001828054600181600116156101000203166002900480156124db5780601f106124b0576101008083540402835291602001916124db565b820191906000526020600020905b8154815290600101906020018083116124be57829003601f168201915b50505050509250818054600181600116156101000203166002900480601f0160208091040260200160405190810160405280929190818152602001828054600181600116156101000203166002900480156125775780601f1061254c57610100808354040283529160200191612577565b820191906000526020600020905b81548152906001019060200180831161255a57829003601f168201915b50505050509150808054600181600116156101000203166002900480601f0160208091040260200160405190810160405280929190818152602001828054600181600116156101000203166002900480156126135780601f106125e857610100808354040283529160200191612613565b820191906000526020600020905b8154815290600101906020018083116125f657829003601f168201915b505050505090509650965096509650965096505091939550919395565b6060806060806060600080600260008a81526020019081526020016000209050600088118015612664575080600301548811155b6126a3576040517f08c379a000000000000000000000000000000000000000000000000000000000815260040161269a90613f4d565b60405180910390fd5b8060020160008981526020019081526020016000206000018160020160008a81526020019081526020016000206002018260020160008b81526020019081526020016000206003018360020160008c81526020019081526020016000206004018460020160008d81526020019081526020016000206001018560020160008e815260200190815260200160002060050154858054600181600116156101000203166002900480601f0160208091040260200160405190810160405280929190818152602001828054600181600116156101000203166002900480156127c95780601f1061279e576101008083540402835291602001916127c9565b820191906000526020600020905b8154815290600101906020018083116127ac57829003601f168201915b50505050509550848054600181600116156101000203166002900480601f0160208091040260200160405190810160405280929190818152602001828054600181600116156101000203166002900480156128655780601f1061283a57610100808354040283529160200191612865565b820191906000526020600020905b81548152906001019060200180831161284857829003601f168201915b50505050509450838054600181600116156101000203166002900480601f0160208091040260200160405190810160405280929190818152602001828054600181600116156101000203166002900480156129015780601f106128d657610100808354040283529160200191612901565b820191906000526020600020905b8154815290600101906020018083116128e457829003601f168201915b50505050509350828054600181600116156101000203166002900480601f01602080910402602001604051908101604052809291908181526020018280546001816001161561010002031660029004801561299d5780601f106129725761010080835404028352916020019161299d565b820191906000526020600020905b81548152906001019060200180831161298057829003601f168201915b50505050509250818054600181600116156101000203166002900480601f016020809104026020016040519081016040528092919081815260200182805460018160011615610100020316600290048015612a395780601f10612a0e57610100808354040283529160200191612a39565b820191906000526020600020905b815481529060010190602001808311612a1c57829003601f168201915b50505050509150965096509650965096509650509295509295509295565b6001828051602081018201805184825260208301602085012081835280955050505050508181548110612a8657fe5b90600052602060002001600091509150508054600181600116156101000203166002900480601f016020809104026020016040519081016040528092919081815260200182805460018160011615610100020316600290048015612b2b5780601f10612b0057610100808354040283529160200191612b2b565b820191906000526020600020905b815481529060010190602001808311612b0e57829003601f168201915b505050505081565b83518551148015612b45575082518451145b8015612b52575081518351145b8015612b5f575080518251145b612b9e576040517f08c379a0000000000000000000000000000000000000000000000000000000008152600401612b9590613f6d565b60405180910390fd5b600060026000888152602001908152602001600020905060008090505b8651811015612d295781600301600081548092919060010191905055506040518060c00160405280888381518110612bef57fe5b60200260200101518152602001848381518110612c0857fe5b60200260200101518152602001878381518110612c2157fe5b60200260200101518152602001868381518110612c3a57fe5b60200260200101518152602001858381518110612c5357fe5b602002602001015181526020016000815250826002016000846003015481526020019081526020016000206000820151816000019080519060200190612c9a929190612e6c565b506020820151816001019080519060200190612cb7929190612e6c565b506040820151816002019080519060200190612cd4929190612e6c565b506060820151816003019080519060200190612cf1929190612e6c565b506080820151816004019080519060200190612d0e929190612e6c565b5060a082015181600501559050508080600101915050612bbb565b5050505050505050565b600081604051602001612d469190613c23565b6040516020818303038152906040528051906020012083604051602001612d6d9190613c23565b6040516020818303038152906040528051906020012014905092915050565b828054828255906000526020600020908101928215612ddb579160200282015b82811115612dda578251829080519060200190612dca929190612e6c565b5091602001919060010190612dac565b5b509050612de89190612fbb565b5090565b828054600181600116156101000203166002900490600052602060002090601f016020900481019282601f10612e2d57805160ff1916838001178555612e5b565b82800160010185558215612e5b579182015b82811115612e5a578251825591602001919060010190612e3f565b5b509050612e689190612fe7565b5090565b828054600181600116156101000203166002900490600052602060002090601f016020900481019282601f10612ead57805160ff1916838001178555612edb565b82800160010185558215612edb579182015b82811115612eda578251825591602001919060010190612ebf565b5b509050612ee89190612fe7565b5090565b828054600181600116156101000203166002900490600052602060002090601f016020900481019282601f10612f255780548555612f62565b82800160010185558215612f6257600052602060002091601f016020900482015b82811115612f61578254825591600101919060010190612f46565b5b509050612f6f9190612fe7565b5090565b50805460018160011615610100020316600290046000825580601f10612f995750612fb8565b601f016020900490600052602060002090810190612fb79190612fe7565b5b50565b612fe491905b80821115612fe05760008181612fd79190612f73565b50600101612fc1565b5090565b90565b61300991905b80821115613005576000816000905550600101612fed565b5090565b90565b600082601f83011261301d57600080fd5b813561303061302b82614052565b614025565b9150818183526020840193506020810190508360005b83811015613076578135860161305c8882613103565b845260208401935060208301925050600181019050613046565b5050505092915050565b600082601f83011261309157600080fd5b81356130a461309f8261407a565b614025565b915081818352602084019350602081019050838560208402820111156130c957600080fd5b60005b838110156130f957816130df88826131ab565b8452602084019350602083019250506001810190506130cc565b5050505092915050565b600082601f83011261311457600080fd5b8135613127613122826140a2565b614025565b9150808252602083016020830185838301111561314357600080fd5b61314e8382846141fe565b50505092915050565b600082601f83011261316857600080fd5b813561317b613176826140ce565b614025565b9150808252602083016020830185838301111561319757600080fd5b6131a28382846141fe565b50505092915050565b6000813590506131ba81614251565b92915050565b6000602082840312156131d257600080fd5b600082013567ffffffffffffffff8111156131ec57600080fd5b6131f884828501613157565b91505092915050565b6000806040838503121561321457600080fd5b600083013567ffffffffffffffff81111561322e57600080fd5b61323a85828601613157565b925050602083013567ffffffffffffffff81111561325757600080fd5b6132638582860161300c565b9150509250929050565b600080600080600060a0868803121561328557600080fd5b600086013567ffffffffffffffff81111561329f57600080fd5b6132ab88828901613157565b955050602086013567ffffffffffffffff8111156132c857600080fd5b6132d488828901613157565b945050604086013567ffffffffffffffff8111156132f157600080fd5b6132fd88828901613157565b935050606086013567ffffffffffffffff81111561331a57600080fd5b61332688828901613157565b925050608086013567ffffffffffffffff81111561334357600080fd5b61334f88828901613157565b9150509295509295909350565b6000806040838503121561336f57600080fd5b600083013567ffffffffffffffff81111561338957600080fd5b61339585828601613103565b92505060206133a6858286016131ab565b9150509250929050565b6000602082840312156133c257600080fd5b60006133d0848285016131ab565b91505092915050565b60008060008060008060c087890312156133f257600080fd5b600061340089828a016131ab565b965050602087013567ffffffffffffffff81111561341d57600080fd5b61342989828a0161300c565b955050604087013567ffffffffffffffff81111561344657600080fd5b61345289828a0161300c565b945050606087013567ffffffffffffffff81111561346f57600080fd5b61347b89828a0161300c565b935050608087013567ffffffffffffffff81111561349857600080fd5b6134a489828a0161300c565b92505060a087013567ffffffffffffffff8111156134c157600080fd5b6134cd89828a0161300c565b9150509295509295509295565b6000806000606084860312156134ef57600080fd5b60006134fd868287016131ab565b935050602084013567ffffffffffffffff81111561351a57600080fd5b61352686828701613080565b925050604084013567ffffffffffffffff81111561354357600080fd5b61354f86828701613157565b9150509250925092565b60008060008060008060c0878903121561357257600080fd5b600061358089828a016131ab565b965050602087013567ffffffffffffffff81111561359d57600080fd5b6135a989828a01613157565b955050604087013567ffffffffffffffff8111156135c657600080fd5b6135d289828a01613157565b945050606087013567ffffffffffffffff8111156135ef57600080fd5b6135fb89828a01613157565b935050608087013567ffffffffffffffff81111561361857600080fd5b61362489828a01613157565b92505060a087013567ffffffffffffffff81111561364157600080fd5b61364d89828a01613157565b9150509295509295509295565b6000806040838503121561366d57600080fd5b600061367b858286016131ab565b925050602061368c858286016131ab565b9150509250929050565b60008060008060008060c087890312156136af57600080fd5b60006136bd89828a016131ab565b96505060206136ce89828a016131ab565b955050604087013567ffffffffffffffff8111156136eb57600080fd5b6136f789828a01613157565b945050606087013567ffffffffffffffff81111561371457600080fd5b61372089828a01613157565b935050608087013567ffffffffffffffff81111561373d57600080fd5b61374989828a01613157565b92505060a087013567ffffffffffffffff81111561376657600080fd5b61377289828a01613157565b9150509295509295509295565b600061378b838361398f565b905092915050565b600061379f8383613b67565b905092915050565b60006137b38383613c05565b60208301905092915050565b60006137ca8261412a565b6137d48185614188565b9350836020820285016137e6856140fa565b8060005b858110156138225784840389528151613803858261377f565b945061380e83614161565b925060208a019950506001810190506137ea565b50829750879550505050505092915050565b600061383f82614135565b6138498185614199565b93508360208202850161385b8561410a565b8060005b8581101561389757848403895281516138788582613793565b94506138838361416e565b925060208a0199505060018101905061385f565b50829750879550505050505092915050565b60006138b482614140565b6138be81856141aa565b93506138c98361411a565b8060005b838110156138fa5781516138e188826137a7565b97506138ec8361417b565b9250506001810190506138cd565b5085935050505092915050565b613910816141e8565b82525050565b61391f816141e8565b82525050565b600061393082614156565b61393a81856141cc565b935061394a81856020860161420d565b61395381614240565b840191505092915050565b600061396982614156565b61397381856141dd565b935061398381856020860161420d565b80840191505092915050565b600061399a8261414b565b6139a481856141bb565b93506139b481856020860161420d565b6139bd81614240565b840191505092915050565b60006139d38261414b565b6139dd81856141cc565b93506139ed81856020860161420d565b6139f681614240565b840191505092915050565b6000613a0e600d836141cc565b91507f416c726561647920766f746564000000000000000000000000000000000000006000830152602082019050919050565b6000613a4e601a836141cc565b91507f456c656374696f6e20697320616c726561647920636c6f7365640000000000006000830152602082019050919050565b6000613a8e6012836141cc565b91507f456c656374696f6e20697320636c6f73656400000000000000000000000000006000830152602082019050919050565b6000613ace6014836141cc565b91507f496e76616c69642063616e6469646174652049440000000000000000000000006000830152602082019050919050565b6000613b0e6022836141cc565b91507f496e70757420617272617973206d75737420686176652073616d65206c656e6760008301527f74680000000000000000000000000000000000000000000000000000000000006020830152604082019050919050565b600060c083016000830151613b7f6000860182613c05565b5060208301518482036020860152613b97828261398f565b9150506040830151613bac6040860182613907565b5060608301518482036060860152613bc4828261398f565b91505060808301518482036080860152613bde828261398f565b91505060a083015184820360a0860152613bf8828261398f565b9150508091505092915050565b613c0e816141f4565b82525050565b613c1d816141f4565b82525050565b6000613c2f828461395e565b915081905092915050565b60006020820190508181036000830152613c5481846137bf565b905092915050565b600060a0820190508181036000830152613c7681886137bf565b90508181036020830152613c8a81876137bf565b90508181036040830152613c9e81866137bf565b90508181036060830152613cb281856137bf565b90508181036080830152613cc681846137bf565b90509695505050505050565b60006040820190508181036000830152613cec81856137bf565b90508181036020830152613d0081846138a9565b90509392505050565b60006020820190508181036000830152613d238184613834565b905092915050565b60006020820190508181036000830152613d4581846138a9565b905092915050565b60006020820190508181036000830152613d6781846139c8565b905092915050565b600060c0820190508181036000830152613d898189613925565b9050613d986020830188613916565b613da56040830187613c14565b8181036060830152613db78186613925565b90508181036080830152613dcb8185613925565b905081810360a0830152613ddf8184613925565b9050979650505050505050565b600060c0820190508181036000830152613e068189613925565b90508181036020830152613e1a8188613925565b90508181036040830152613e2e8187613925565b90508181036060830152613e428186613925565b90508181036080830152613e568185613925565b9050613e6560a0830184613c14565b979650505050505050565b600060c0820190508181036000830152613e8a81896139c8565b9050613e996020830188613916565b613ea66040830187613c14565b8181036060830152613eb881866139c8565b90508181036080830152613ecc81856139c8565b905081810360a0830152613ee081846139c8565b9050979650505050505050565b60006020820190508181036000830152613f0681613a01565b9050919050565b60006020820190508181036000830152613f2681613a41565b9050919050565b60006020820190508181036000830152613f4681613a81565b9050919050565b60006020820190508181036000830152613f6681613ac1565b9050919050565b60006020820190508181036000830152613f8681613b01565b9050919050565b6000602082019050613fa26000830184613c14565b92915050565b600060c082019050613fbd6000830189613c14565b8181036020830152613fcf81886139c8565b9050613fde6040830187613916565b8181036060830152613ff081866139c8565b9050818103608083015261400481856139c8565b905081810360a083015261401881846139c8565b9050979650505050505050565b6000604051905081810181811067ffffffffffffffff8211171561404857600080fd5b8060405250919050565b600067ffffffffffffffff82111561406957600080fd5b602082029050602081019050919050565b600067ffffffffffffffff82111561409157600080fd5b602082029050602081019050919050565b600067ffffffffffffffff8211156140b957600080fd5b601f19601f8301169050602081019050919050565b600067ffffffffffffffff8211156140e557600080fd5b601f19601f8301169050602081019050919050565b6000819050602082019050919050565b6000819050602082019050919050565b6000819050602082019050919050565b600081519050919050565b600081519050919050565b600081519050919050565b600081519050919050565b600081519050919050565b6000602082019050919050565b6000602082019050919050565b6000602082019050919050565b600082825260208201905092915050565b600082825260208201905092915050565b600082825260208201905092915050565b600082825260208201905092915050565b600082825260208201905092915050565b600081905092915050565b60008115159050919050565b6000819050919050565b82818337600083830152505050565b60005b8381101561422b578082015181840152602081019050614210565b8381111561423a576000848401525b50505050565b6000601f19601f8301169050919050565b61425a816141f4565b811461426557600080fd5b5056fea365627a7a72315820dcb13a5b9086e1211f73d93ca6bbfa3172c851c379a033ff2af1aedf16c5c60d6c6578706572696d656e74616cf564736f6c63430005100040",
  "source": "// SPDX-License-Identifier: MIT\r\npragma solidity >=0.4.21 <=0.8.20;\r\npragma experimental ABIEncoderV2;\r\n\r\ncontract Voting {\r\n    // ============================\r\n    // Structs & Storage\r\n    // ============================\r\n\r\n    struct CreatedElections {\r\n        uint256 electionId;\r\n        string electionName;\r\n        bool isOpen;\r\n        string startDate;\r\n        string endDate;\r\n        string domainFilter;\r\n    }\r\n\r\n    struct Candidate {\r\n        string name;\r\n        string partylist;\r\n        string position;\r\n        string platform;\r\n        string cdn;\r\n        uint256 voteCount;\r\n    }\r\n\r\n    struct Election {\r\n        string name;\r\n        bool isOpen;\r\n        mapping(uint256 => Candidate) candidates; // 1-based index\r\n        uint256 candidatesCount; // number of candidates\r\n        string startDate;\r\n        string endDate;\r\n        string domainFilter;\r\n        mapping(string => bool) hasVoted;\r\n    }\r\n\r\n    mapping (string => CreatedElections[]) public ownedElections;\r\n    mapping (string => string[]) public positions;\r\n    mapping (uint256 => Election) public elections;\r\n    uint256 public electionCount;\r\n\r\n    // ============================\r\n    // Position Management\r\n    // ============================\r\n\r\n    function listPositions(string memory email, string[] memory _positions) public {\r\n        positions[email] = _positions;\r\n    }\r\n\r\n    function getPositions(string memory email) public view returns (string[] memory) {\r\n        return positions[email];\r\n    }\r\n\r\n    // ============================\r\n    // Election Management\r\n    // ============================\r\n\r\n    function createElection(\r\n        string memory _name,\r\n        string memory _startDate,\r\n        string memory _endDate,\r\n        string memory _domainFilter,\r\n        string memory _email\r\n    ) public {\r\n        electionCount++;\r\n        elections[electionCount].name = _name;\r\n        elections[electionCount].isOpen = true;\r\n        elections[electionCount].candidatesCount = 0;\r\n        elections[electionCount].startDate = _startDate;\r\n        elections[electionCount].endDate = _endDate;\r\n        elections[electionCount].domainFilter = _domainFilter;\r\n        elections[electionCount].hasVoted[_email] = false;\r\n\r\n        ownedElections[_email].push(\r\n            CreatedElections(electionCount, _name, true, _startDate, _endDate, _domainFilter)\r\n        );\r\n    }\r\n\r\n    function getElectionCount() public view returns (uint256) {\r\n        return electionCount;\r\n    }\r\n\r\n    function updateElection(\r\n        uint256 _electionId,\r\n        string memory _title,\r\n        string memory _startDate,\r\n        string memory _endDate,\r\n        string memory _domainFilter,\r\n        string memory _email\r\n    ) public {\r\n        Election storage e = elections[_electionId];\r\n        e.name = _title;\r\n        e.startDate = _startDate;\r\n        e.endDate = _endDate;\r\n        e.domainFilter = _domainFilter;\r\n\r\n        CreatedElections[] storage ownedElectionsList = ownedElections[_email];\r\n        for (uint256 i = 0; i < ownedElectionsList.length; i++) {\r\n            if (ownedElectionsList[i].electionId == _electionId) {\r\n                ownedElectionsList[i].electionName = _title;\r\n                ownedElectionsList[i].startDate = _startDate;\r\n                ownedElectionsList[i].endDate = _endDate;\r\n                ownedElectionsList[i].domainFilter = _domainFilter;\r\n                break;\r\n            }\r\n        }\r\n    }\r\n\r\n    function getOwnedElections(string memory _email) public view returns (CreatedElections[] memory) {\r\n        return ownedElections[_email];\r\n    }\r\n\r\n    function getOwnedElectionNames(string memory _owner) public view returns (string[] memory) {\r\n        CreatedElections[] storage ownedElectionsList = ownedElections[_owner];\r\n        string[] memory names = new string[](ownedElectionsList.length);\r\n        for (uint256 i = 0; i < ownedElectionsList.length; i++) {\r\n            names[i] = elections[ownedElectionsList[i].electionId].name;\r\n        }\r\n        return names;\r\n    }\r\n\r\n    function getOwnedElectionIds(string memory _owner) public view returns (uint256[] memory) {\r\n        CreatedElections[] storage ownedElectionsList = ownedElections[_owner];\r\n        uint256[] memory ids = new uint256[](ownedElectionsList.length);\r\n        for (uint256 i = 0; i < ownedElectionsList.length; i++) {\r\n            ids[i] = ownedElectionsList[i].electionId;\r\n        }\r\n        return ids;\r\n    }\r\n\r\n    function getElectionIdByName(string memory _name) public view returns (uint256) {\r\n        for (uint256 i = 1; i <= electionCount; i++) {\r\n            if (compareStrings(elections[i].name, _name)) {\r\n                return i;\r\n            }\r\n        }\r\n        return 0;\r\n    }\r\n\r\n    function compareStrings(string memory s1, string memory s2) internal pure returns (bool) {\r\n        return keccak256(abi.encodePacked(s1)) == keccak256(abi.encodePacked(s2));\r\n    }\r\n\r\n    function getElectionDetails(uint256 _electionId)\r\n        public\r\n        view\r\n        returns (string memory, bool, uint256, string memory, string memory, string memory)\r\n    {\r\n        Election storage e = elections[_electionId];\r\n        return (e.name, e.isOpen, e.candidatesCount, e.startDate, e.endDate, e.domainFilter);\r\n    }\r\n\r\n    function closeElection(uint256 _electionId) public {\r\n        require(elections[_electionId].isOpen, \"Election is already closed\");\r\n        elections[_electionId].isOpen = false;\r\n    }\r\n\r\n    // ============================\r\n    // Candidate Management\r\n    // ============================\r\n\r\n    function addCandidates(\r\n        uint256 _electionId,\r\n        string[] memory _names,\r\n        string[] memory _positions,\r\n        string[] memory _platforms,\r\n        string[] memory _cdns,\r\n        string[] memory _partylists\r\n    ) public {\r\n        require(\r\n            _names.length == _positions.length &&\r\n            _positions.length == _platforms.length &&\r\n            _platforms.length == _cdns.length &&\r\n            _cdns.length == _partylists.length,\r\n            \"Input arrays must have same length\"\r\n        );\r\n\r\n        Election storage e = elections[_electionId];\r\n        for (uint256 i = 0; i < _names.length; i++) {\r\n            e.candidatesCount++; // start at 1\r\n            e.candidates[e.candidatesCount] = Candidate(\r\n                _names[i],\r\n                _partylists[i],\r\n                _positions[i],\r\n                _platforms[i],\r\n                _cdns[i],\r\n                0\r\n            );\r\n        }\r\n    }\r\n\r\n    function getElectionCandidates(uint256 _electionId)\r\n        public\r\n        view\r\n        returns (string[] memory, string[] memory, string[] memory, string[] memory, string[] memory)\r\n    {\r\n        Election storage e = elections[_electionId];\r\n        string[] memory names = new string[](e.candidatesCount);\r\n        string[] memory _positions = new string[](e.candidatesCount);\r\n        string[] memory platforms = new string[](e.candidatesCount);\r\n        string[] memory cdns = new string[](e.candidatesCount);\r\n        string[] memory partylists = new string[](e.candidatesCount);\r\n\r\n        for (uint256 i = 1; i <= e.candidatesCount; i++) {\r\n            names[i-1] = e.candidates[i].name;\r\n            _positions[i-1] = e.candidates[i].position;\r\n            platforms[i-1] = e.candidates[i].platform;\r\n            cdns[i-1] = e.candidates[i].cdn;\r\n            partylists[i-1] = e.candidates[i].partylist;\r\n        }\r\n\r\n        return (names, _positions, platforms, cdns, partylists);\r\n    }\r\n\r\n    function getElectionCandidateCount(uint256 _electionId) public view returns (uint256) {\r\n        return elections[_electionId].candidatesCount;\r\n    }\r\n\r\n    function getElectionCandidate(uint256 _electionId, uint256 _candidateId)\r\n        public\r\n        view\r\n        returns (string memory, string memory, string memory, string memory, string memory, uint256)\r\n    {\r\n        Election storage e = elections[_electionId];\r\n        require(_candidateId > 0 && _candidateId <= e.candidatesCount, \"Invalid candidate ID\");\r\n\r\n        return (\r\n            e.candidates[_candidateId].name,\r\n            e.candidates[_candidateId].position,\r\n            e.candidates[_candidateId].platform,\r\n            e.candidates[_candidateId].cdn,\r\n            e.candidates[_candidateId].partylist,\r\n            e.candidates[_candidateId].voteCount\r\n        );\r\n    }\r\n\r\n    function updateCandidate(\r\n        uint256 _electionId,\r\n        uint256 _candidateId,\r\n        string memory _name,\r\n        string memory _position,\r\n        string memory _platform,\r\n        string memory _cdn\r\n    ) public {\r\n        Election storage e = elections[_electionId];\r\n        require(_candidateId > 0 && _candidateId <= e.candidatesCount, \"Invalid candidate ID\");\r\n\r\n        e.candidates[_candidateId].name = _name;\r\n        e.candidates[_candidateId].position = _position;\r\n        e.candidates[_candidateId].platform = _platform;\r\n        e.candidates[_candidateId].cdn = _cdn;\r\n    }\r\n\r\n    function deleteCandidate(uint256 _electionId, uint256 _candidateId) public {\r\n        Election storage e = elections[_electionId];\r\n        require(_candidateId > 0 && _candidateId <= e.candidatesCount, \"Invalid candidate ID\");\r\n\r\n        // Shift down (1-based indexing)\r\n        for (uint256 i = _candidateId; i < e.candidatesCount; i++) {\r\n            e.candidates[i] = e.candidates[i + 1];\r\n        }\r\n\r\n        delete e.candidates[e.candidatesCount];\r\n        e.candidatesCount--;\r\n    }\r\n\r\n    // ============================\r\n    // Voting\r\n    // ============================\r\n\r\n    function vote(uint256 _electionId, uint256[] memory _candidateIds, string memory _email) public {\r\n        Election storage e = elections[_electionId];\r\n        require(e.isOpen, \"Election is closed\");\r\n        require(!e.hasVoted[_email], \"Already voted\");\r\n\r\n        for (uint256 i = 0; i < _candidateIds.length; i++) {\r\n            require(_candidateIds[i] > 0 && _candidateIds[i] <= e.candidatesCount, \"Invalid candidate ID\");\r\n            e.candidates[_candidateIds[i]].voteCount++;\r\n        }\r\n\r\n        e.hasVoted[_email] = true;\r\n    }\r\n\r\n    function getElectionResults(uint256 _electionId)\r\n        public\r\n        view\r\n        returns (string[] memory, uint256[] memory)\r\n    {\r\n        Election storage e = elections[_electionId];\r\n        string[] memory names = new string[](e.candidatesCount);\r\n        uint256[] memory votes = new uint256[](e.candidatesCount);\r\n\r\n        for (uint256 i = 1; i <= e.candidatesCount; i++) {\r\n            names[i-1] = e.candidates[i].name;\r\n            votes[i-1] = e.candidates[i].voteCount;\r\n        }\r\n\r\n        return (names, votes);\r\n    }\r\n}\r\n",
  "sourcePath": "C:\\Users\\dizon\\OneDrive\\Documents\\GitHub\\SE2-BV\\contracts\\contracts\\Voting.sol",
  "compiler": {
    "name": "solc",
    "version": "0.5.16+commit.9c3226ce.Emscripten.clang"
  },
  "schemaVersion": "3.4.16",
  "updatedAt": "2025-09-19T15:20:51.294Z",
  "networkType": "ethereum",
  "devdoc": {
    "methods": {}
  },
  "userdoc": {
    "methods": {}
  }
}