{
  "contractName": "Voting",
  "abi": [
    {
      "constant": true,
      "inputs": [],
      "name": "electionCount",
      "outputs": [
        {
          "internalType": "uint256",
          "name": "",
          "type": "uint256"
        }
      ],
      "payable": false,
      "stateMutability": "view",
      "type": "function"
    },
    {
      "constant": true,
      "inputs": [
        {
          "internalType": "uint256",
          "name": "",
          "type": "uint256"
        }
      ],
      "name": "elections",
      "outputs": [
        {
          "internalType": "string",
          "name": "name",
          "type": "string"
        },
        {
          "internalType": "bool",
          "name": "isOpen",
          "type": "bool"
        },
        {
          "internalType": "uint256",
          "name": "candidatesCount",
          "type": "uint256"
        },
        {
          "internalType": "string",
          "name": "startDate",
          "type": "string"
        },
        {
          "internalType": "string",
          "name": "endDate",
          "type": "string"
        },
        {
          "internalType": "string",
          "name": "domainFilter",
          "type": "string"
        }
      ],
      "payable": false,
      "stateMutability": "view",
      "type": "function"
    },
    {
      "constant": true,
      "inputs": [
        {
          "internalType": "string",
          "name": "",
          "type": "string"
        },
        {
          "internalType": "uint256",
          "name": "",
          "type": "uint256"
        }
      ],
      "name": "ownedElections",
      "outputs": [
        {
          "internalType": "uint256",
          "name": "electionId",
          "type": "uint256"
        },
        {
          "internalType": "string",
          "name": "electionName",
          "type": "string"
        },
        {
          "internalType": "bool",
          "name": "isOpen",
          "type": "bool"
        },
        {
          "internalType": "string",
          "name": "startDate",
          "type": "string"
        },
        {
          "internalType": "string",
          "name": "endDate",
          "type": "string"
        },
        {
          "internalType": "string",
          "name": "domainFilter",
          "type": "string"
        }
      ],
      "payable": false,
      "stateMutability": "view",
      "type": "function"
    },
    {
      "constant": true,
      "inputs": [
        {
          "internalType": "string",
          "name": "",
          "type": "string"
        },
        {
          "internalType": "uint256",
          "name": "",
          "type": "uint256"
        }
      ],
      "name": "positions",
      "outputs": [
        {
          "internalType": "string",
          "name": "",
          "type": "string"
        }
      ],
      "payable": false,
      "stateMutability": "view",
      "type": "function"
    },
    {
      "constant": false,
      "inputs": [
        {
          "internalType": "string",
          "name": "email",
          "type": "string"
        },
        {
          "internalType": "string[]",
          "name": "_positions",
          "type": "string[]"
        }
      ],
      "name": "listPositions",
      "outputs": [],
      "payable": false,
      "stateMutability": "nonpayable",
      "type": "function"
    },
    {
      "constant": true,
      "inputs": [
        {
          "internalType": "string",
          "name": "email",
          "type": "string"
        }
      ],
      "name": "getPositions",
      "outputs": [
        {
          "internalType": "string[]",
          "name": "",
          "type": "string[]"
        }
      ],
      "payable": false,
      "stateMutability": "view",
      "type": "function"
    },
    {
      "constant": false,
      "inputs": [
        {
          "internalType": "string",
          "name": "_name",
          "type": "string"
        },
        {
          "internalType": "string",
          "name": "_startDate",
          "type": "string"
        },
        {
          "internalType": "string",
          "name": "_endDate",
          "type": "string"
        },
        {
          "internalType": "string",
          "name": "_domainFilter",
          "type": "string"
        },
        {
          "internalType": "string",
          "name": "_email",
          "type": "string"
        }
      ],
      "name": "createElection",
      "outputs": [],
      "payable": false,
      "stateMutability": "nonpayable",
      "type": "function"
    },
    {
      "constant": true,
      "inputs": [],
      "name": "getElectionCount",
      "outputs": [
        {
          "internalType": "uint256",
          "name": "",
          "type": "uint256"
        }
      ],
      "payable": false,
      "stateMutability": "view",
      "type": "function"
    },
    {
      "constant": false,
      "inputs": [
        {
          "internalType": "uint256",
          "name": "_electionId",
          "type": "uint256"
        },
        {
          "internalType": "string",
          "name": "_title",
          "type": "string"
        },
        {
          "internalType": "string",
          "name": "_startDate",
          "type": "string"
        },
        {
          "internalType": "string",
          "name": "_endDate",
          "type": "string"
        },
        {
          "internalType": "string",
          "name": "_domainFilter",
          "type": "string"
        },
        {
          "internalType": "string",
          "name": "_email",
          "type": "string"
        }
      ],
      "name": "updateElection",
      "outputs": [],
      "payable": false,
      "stateMutability": "nonpayable",
      "type": "function"
    },
    {
      "constant": true,
      "inputs": [
        {
          "internalType": "string",
          "name": "_email",
          "type": "string"
        }
      ],
      "name": "getOwnedElections",
      "outputs": [
        {
          "components": [
            {
              "internalType": "uint256",
              "name": "electionId",
              "type": "uint256"
            },
            {
              "internalType": "string",
              "name": "electionName",
              "type": "string"
            },
            {
              "internalType": "bool",
              "name": "isOpen",
              "type": "bool"
            },
            {
              "internalType": "string",
              "name": "startDate",
              "type": "string"
            },
            {
              "internalType": "string",
              "name": "endDate",
              "type": "string"
            },
            {
              "internalType": "string",
              "name": "domainFilter",
              "type": "string"
            }
          ],
          "internalType": "struct Voting.CreatedElections[]",
          "name": "",
          "type": "tuple[]"
        }
      ],
      "payable": false,
      "stateMutability": "view",
      "type": "function"
    },
    {
      "constant": true,
      "inputs": [
        {
          "internalType": "string",
          "name": "_owner",
          "type": "string"
        }
      ],
      "name": "getOwnedElectionNames",
      "outputs": [
        {
          "internalType": "string[]",
          "name": "",
          "type": "string[]"
        }
      ],
      "payable": false,
      "stateMutability": "view",
      "type": "function"
    },
    {
      "constant": true,
      "inputs": [
        {
          "internalType": "string",
          "name": "_owner",
          "type": "string"
        }
      ],
      "name": "getOwnedElectionIds",
      "outputs": [
        {
          "internalType": "uint256[]",
          "name": "",
          "type": "uint256[]"
        }
      ],
      "payable": false,
      "stateMutability": "view",
      "type": "function"
    },
    {
      "constant": true,
      "inputs": [
        {
          "internalType": "string",
          "name": "_name",
          "type": "string"
        }
      ],
      "name": "getElectionIdByName",
      "outputs": [
        {
          "internalType": "uint256",
          "name": "",
          "type": "uint256"
        }
      ],
      "payable": false,
      "stateMutability": "view",
      "type": "function"
    },
    {
      "constant": true,
      "inputs": [
        {
          "internalType": "uint256",
          "name": "_electionId",
          "type": "uint256"
        }
      ],
      "name": "getElectionDetails",
      "outputs": [
        {
          "internalType": "string",
          "name": "",
          "type": "string"
        },
        {
          "internalType": "bool",
          "name": "",
          "type": "bool"
        },
        {
          "internalType": "uint256",
          "name": "",
          "type": "uint256"
        },
        {
          "internalType": "string",
          "name": "",
          "type": "string"
        },
        {
          "internalType": "string",
          "name": "",
          "type": "string"
        },
        {
          "internalType": "string",
          "name": "",
          "type": "string"
        }
      ],
      "payable": false,
      "stateMutability": "view",
      "type": "function"
    },
    {
      "constant": false,
      "inputs": [
        {
          "internalType": "uint256",
          "name": "_electionId",
          "type": "uint256"
        }
      ],
      "name": "closeElection",
      "outputs": [],
      "payable": false,
      "stateMutability": "nonpayable",
      "type": "function"
    },
    {
      "constant": false,
      "inputs": [
        {
          "internalType": "uint256",
          "name": "_electionId",
          "type": "uint256"
        },
        {
          "internalType": "string[]",
          "name": "_names",
          "type": "string[]"
        },
        {
          "internalType": "string[]",
          "name": "_positions",
          "type": "string[]"
        },
        {
          "internalType": "string[]",
          "name": "_platforms",
          "type": "string[]"
        },
        {
          "internalType": "string[]",
          "name": "_cdns",
          "type": "string[]"
        },
        {
          "internalType": "string[]",
          "name": "_partylists",
          "type": "string[]"
        }
      ],
      "name": "addCandidates",
      "outputs": [],
      "payable": false,
      "stateMutability": "nonpayable",
      "type": "function"
    },
    {
      "constant": true,
      "inputs": [
        {
          "internalType": "uint256",
          "name": "_electionId",
          "type": "uint256"
        }
      ],
      "name": "getElectionCandidates",
      "outputs": [
        {
          "internalType": "string[]",
          "name": "",
          "type": "string[]"
        },
        {
          "internalType": "string[]",
          "name": "",
          "type": "string[]"
        },
        {
          "internalType": "string[]",
          "name": "",
          "type": "string[]"
        },
        {
          "internalType": "string[]",
          "name": "",
          "type": "string[]"
        },
        {
          "internalType": "string[]",
          "name": "",
          "type": "string[]"
        }
      ],
      "payable": false,
      "stateMutability": "view",
      "type": "function"
    },
    {
      "constant": true,
      "inputs": [
        {
          "internalType": "uint256",
          "name": "_electionId",
          "type": "uint256"
        }
      ],
      "name": "getElectionCandidateCount",
      "outputs": [
        {
          "internalType": "uint256",
          "name": "",
          "type": "uint256"
        }
      ],
      "payable": false,
      "stateMutability": "view",
      "type": "function"
    },
    {
      "constant": true,
      "inputs": [
        {
          "internalType": "uint256",
          "name": "_electionId",
          "type": "uint256"
        },
        {
          "internalType": "uint256",
          "name": "_candidateId",
          "type": "uint256"
        }
      ],
      "name": "getElectionCandidate",
      "outputs": [
        {
          "internalType": "string",
          "name": "",
          "type": "string"
        },
        {
          "internalType": "string",
          "name": "",
          "type": "string"
        },
        {
          "internalType": "string",
          "name": "",
          "type": "string"
        },
        {
          "internalType": "string",
          "name": "",
          "type": "string"
        },
        {
          "internalType": "string",
          "name": "",
          "type": "string"
        },
        {
          "internalType": "uint256",
          "name": "",
          "type": "uint256"
        }
      ],
      "payable": false,
      "stateMutability": "view",
      "type": "function"
    },
    {
      "constant": true,
      "inputs": [
        {
          "internalType": "uint256",
          "name": "_electionId",
          "type": "uint256"
        },
        {
          "internalType": "string",
          "name": "_name",
          "type": "string"
        }
      ],
      "name": "getCandidateIdByName",
      "outputs": [
        {
          "internalType": "uint256",
          "name": "",
          "type": "uint256"
        }
      ],
      "payable": false,
      "stateMutability": "view",
      "type": "function"
    },
    {
      "constant": false,
      "inputs": [
        {
          "internalType": "uint256",
          "name": "_electionId",
          "type": "uint256"
        },
        {
          "internalType": "uint256",
          "name": "_candidateId",
          "type": "uint256"
        },
        {
          "internalType": "string",
          "name": "_name",
          "type": "string"
        },
        {
          "internalType": "string",
          "name": "_position",
          "type": "string"
        },
        {
          "internalType": "string",
          "name": "_platform",
          "type": "string"
        },
        {
          "internalType": "string",
          "name": "_cdn",
          "type": "string"
        }
      ],
      "name": "updateCandidate",
      "outputs": [],
      "payable": false,
      "stateMutability": "nonpayable",
      "type": "function"
    },
    {
      "constant": false,
      "inputs": [
        {
          "internalType": "uint256",
          "name": "_electionId",
          "type": "uint256"
        },
        {
          "internalType": "uint256",
          "name": "_candidateId",
          "type": "uint256"
        }
      ],
      "name": "deleteCandidate",
      "outputs": [],
      "payable": false,
      "stateMutability": "nonpayable",
      "type": "function"
    },
    {
      "constant": false,
      "inputs": [
        {
          "internalType": "uint256",
          "name": "_electionId",
          "type": "uint256"
        },
        {
          "internalType": "uint256[]",
          "name": "_candidateIds",
          "type": "uint256[]"
        },
        {
          "internalType": "string",
          "name": "_email",
          "type": "string"
        }
      ],
      "name": "vote",
      "outputs": [],
      "payable": false,
      "stateMutability": "nonpayable",
      "type": "function"
    },
    {
      "constant": true,
      "inputs": [
        {
          "internalType": "uint256",
          "name": "_electionId",
          "type": "uint256"
        }
      ],
      "name": "getElectionResults",
      "outputs": [
        {
          "internalType": "string[]",
          "name": "names",
          "type": "string[]"
        },
        {
          "internalType": "string[]",
          "name": "positions",
          "type": "string[]"
        },
        {
          "internalType": "string[]",
          "name": "partylists",
          "type": "string[]"
        },
        {
          "internalType": "uint256[]",
          "name": "votes",
          "type": "uint256[]"
        }
      ],
      "payable": false,
      "stateMutability": "view",
      "type": "function"
    }
  ],
  "bytecode": "0x608060405234801561001057600080fd5b50614677806100206000396000f3fe608060405234801561001057600080fd5b50600436106101585760003560e01c80635f5db526116100c3578063cf4a60601161007c578063cf4a60601461042f578063e8ededa61461044b578063f60499241461047e578063f70171fb146104b3578063fa65dd32146104e8578063fc265f061461051857610158565b80635f5db526146103445780637ea7af0414610379578063997d2830146103a95780639b1b5a35146103c7578063bade1157146103e3578063c14cfa211461041357610158565b806343e189101161011557806343e18910146102435780634628ba7f146102735780634ba6b8211461028f57806350efbc75146102bf5780635e12845e146102db5780635e6fef011461030f57610158565b806307ccd6171461015d578063088b06631461018d57806309e33d07146101bd5780631227dd41146101d9578063193bdd8a14610209578063213785a014610225575b600080fd5b6101776004803603610172919081019061350e565b610534565b60405161018491906140f7565b60405180910390f35b6101a760048036036101a291908101906136fe565b6105ef565b6040516101b49190614359565b60405180910390f35b6101d760048036036101d291908101906136fe565b61060f565b005b6101f360048036036101ee919081019061350e565b6106a4565b60405161020091906140d5565b60405180910390f35b610223600480360361021e919081019061354f565b6109ce565b005b61022d610a05565b60405161023a9190614359565b60405180910390f35b61025d600480360361025891908101906138a7565b610a0f565b60405161026a9190614359565b60405180910390f35b61028d60048036036102889190810190613a38565b610b1c565b005b6102a960048036036102a4919081019061350e565b610c43565b6040516102b69190613fdc565b60405180910390f35b6102d960048036036102d491908101906135bb565b610d4a565b005b6102f560048036036102f091908101906136fe565b610fcf565b604051610306959493929190613ffe565b60405180910390f35b610329600480360361032491908101906136fe565b611554565b60405161033b9695949392919061423c565b60405180910390f35b61035e600480360361035991908101906136aa565b6117fd565b60405161037096959493929190614374565b60405180910390f35b610393600480360361038e919081019061350e565b611ad6565b6040516103a09190613fdc565b60405180910390f35b6103b1611c43565b6040516103be9190614359565b60405180910390f35b6103e160048036036103dc91908101906138fb565b611c49565b005b6103fd60048036036103f8919081019061350e565b611e01565b60405161040a9190614359565b60405180910390f35b61042d60048036036104289190810190613828565b611ef0565b005b610449600480360361044491908101906139fc565b6120d6565b005b610465600480360361046091908101906136fe565b6122f0565b6040516104759493929190614074565b60405180910390f35b610498600480360361049391908101906136fe565b6126b0565b6040516104aa9695949392919061413b565b60405180910390f35b6104cd60048036036104c891908101906139fc565b61297e565b6040516104df969594939291906141b8565b60405180910390f35b61050260048036036104fd91908101906136aa565b612da5565b60405161050f9190614119565b60405180910390f35b610532600480360361052d9190810190613727565b612e81565b005b6060600080836040516105479190613fc5565b908152602001604051809103902090506060818054905060405190808252806020026020018201604052801561058c5781602001602082028038833980820191505090505b50905060008090505b82805490508110156105e4578281815481106105ad57fe5b9060005260206000209060060201600001548282815181106105cb57fe5b6020026020010181815250508080600101915050610595565b508092505050919050565b600060026000838152602001908152602001600020600301549050919050565b6002600082815260200190815260200160002060010160009054906101000a900460ff16610672576040517f08c379a0000000000000000000000000000000000000000000000000000000008152600401610669906142d9565b60405180910390fd5b60006002600083815260200190815260200160002060010160006101000a81548160ff02191690831515021790555050565b60606000826040516106b69190613fc5565b9081526020016040518091039020805480602002602001604051908101604052809291908181526020016000905b828210156109c357838290600052602060002090600602016040518060c001604052908160008201548152602001600182018054600181600116156101000203166002900480601f0160208091040260200160405190810160405280929190818152602001828054600181600116156101000203166002900480156107aa5780601f1061077f576101008083540402835291602001916107aa565b820191906000526020600020905b81548152906001019060200180831161078d57829003601f168201915b505050505081526020016002820160009054906101000a900460ff16151515158152602001600382018054600181600116156101000203166002900480601f0160208091040260200160405190810160405280929190818152602001828054600181600116156101000203166002900480156108675780601f1061083c57610100808354040283529160200191610867565b820191906000526020600020905b81548152906001019060200180831161084a57829003601f168201915b50505050508152602001600482018054600181600116156101000203166002900480601f0160208091040260200160405190810160405280929190818152602001828054600181600116156101000203166002900480156109095780601f106108de57610100808354040283529160200191610909565b820191906000526020600020905b8154815290600101906020018083116108ec57829003601f168201915b50505050508152602001600582018054600181600116156101000203166002900480601f0160208091040260200160405190810160405280929190818152602001828054600181600116156101000203166002900480156109ab5780601f10610980576101008083540402835291602001916109ab565b820191906000526020600020905b81548152906001019060200180831161098e57829003601f168201915b505050505081525050815260200190600101906106e4565b505050509050919050565b806001836040516109df9190613fc5565b90815260200160405180910390209080519060200190610a009291906130da565b505050565b6000600354905090565b6000806002600085815260200190815260200160002090506000600190505b81600301548111610b0f57610af38260020160008381526020019081526020016000206000018054600181600116156101000203166002900480601f016020809104026020016040519081016040528092919081815260200182805460018160011615610100020316600290048015610ae85780601f10610abd57610100808354040283529160200191610ae8565b820191906000526020600020905b815481529060010190602001808311610acb57829003601f168201915b505050505085613081565b15610b02578092505050610b16565b8080600101915050610a2e565b5060009150505b92915050565b6000600260008881526020019081526020016000209050600086118015610b47575080600301548611155b610b86576040517f08c379a0000000000000000000000000000000000000000000000000000000008152600401610b7d90614319565b60405180910390fd5b848160020160008881526020019081526020016000206000019080519060200190610bb292919061313a565b50838160020160008881526020019081526020016000206002019080519060200190610bdf92919061313a565b50828160020160008881526020019081526020016000206003019080519060200190610c0c92919061313a565b50818160020160008881526020019081526020016000206004019080519060200190610c3992919061313a565b5050505050505050565b6060600182604051610c559190613fc5565b9081526020016040518091039020805480602002602001604051908101604052809291908181526020016000905b82821015610d3f578382906000526020600020018054600181600116156101000203166002900480601f016020809104026020016040519081016040528092919081815260200182805460018160011615610100020316600290048015610d2b5780601f10610d0057610100808354040283529160200191610d2b565b820191906000526020600020905b815481529060010190602001808311610d0e57829003601f168201915b505050505081526020019060010190610c83565b505050509050919050565b600360008154809291906001019190505550846002600060035481526020019081526020016000206000019080519060200190610d8892919061313a565b50600160026000600354815260200190815260200160002060010160006101000a81548160ff021916908315150217905550600060026000600354815260200190815260200160002060030181905550836002600060035481526020019081526020016000206004019080519060200190610e0492919061313a565b50826002600060035481526020019081526020016000206005019080519060200190610e3192919061313a565b50816002600060035481526020019081526020016000206006019080519060200190610e5e92919061313a565b50600060026000600354815260200190815260200160002060070182604051610e879190613fc5565b908152602001604051809103902060006101000a81548160ff021916908315150217905550600081604051610ebc9190613fc5565b90815260200160405180910390206040518060c0016040528060035481526020018781526020016001151581526020018681526020018581526020018481525090806001815401808255809150509060018203906000526020600020906006020160009091929091909150600082015181600001556020820151816001019080519060200190610f4d9291906131ba565b5060408201518160020160006101000a81548160ff0219169083151502179055506060820151816003019080519060200190610f8a9291906131ba565b506080820151816004019080519060200190610fa79291906131ba565b5060a0820151816005019080519060200190610fc49291906131ba565b505050505050505050565b606080606080606060006002600088815260200190815260200160002090506060816003015460405190808252806020026020018201604052801561102857816020015b60608152602001906001900390816110135790505b5090506060826003015460405190808252806020026020018201604052801561106557816020015b60608152602001906001900390816110505790505b509050606083600301546040519080825280602002602001820160405280156110a257816020015b606081526020019060019003908161108d5790505b509050606084600301546040519080825280602002602001820160405280156110df57816020015b60608152602001906001900390816110ca5790505b5090506060856003015460405190808252806020026020018201604052801561111c57816020015b60608152602001906001900390816111075790505b5090506000600190505b86600301548111611535578660020160008281526020019081526020016000206000018054600181600116156101000203166002900480601f0160208091040260200160405190810160405280929190818152602001828054600181600116156101000203166002900480156111dd5780601f106111b2576101008083540402835291602001916111dd565b820191906000526020600020905b8154815290600101906020018083116111c057829003601f168201915b50505050508660018303815181106111f157fe5b60200260200101819052508660020160008281526020019081526020016000206002018054600181600116156101000203166002900480601f0160208091040260200160405190810160405280929190818152602001828054600181600116156101000203166002900480156112a85780601f1061127d576101008083540402835291602001916112a8565b820191906000526020600020905b81548152906001019060200180831161128b57829003601f168201915b50505050508560018303815181106112bc57fe5b60200260200101819052508660020160008281526020019081526020016000206003018054600181600116156101000203166002900480601f0160208091040260200160405190810160405280929190818152602001828054600181600116156101000203166002900480156113735780601f1061134857610100808354040283529160200191611373565b820191906000526020600020905b81548152906001019060200180831161135657829003601f168201915b505050505084600183038151811061138757fe5b60200260200101819052508660020160008281526020019081526020016000206004018054600181600116156101000203166002900480601f01602080910402602001604051908101604052809291908181526020018280546001816001161561010002031660029004801561143e5780601f106114135761010080835404028352916020019161143e565b820191906000526020600020905b81548152906001019060200180831161142157829003601f168201915b505050505083600183038151811061145257fe5b60200260200101819052508660020160008281526020019081526020016000206001018054600181600116156101000203166002900480601f0160208091040260200160405190810160405280929190818152602001828054600181600116156101000203166002900480156115095780601f106114de57610100808354040283529160200191611509565b820191906000526020600020905b8154815290600101906020018083116114ec57829003601f168201915b505050505082600183038151811061151d57fe5b60200260200101819052508080600101915050611126565b5084848484849a509a509a509a509a5050505050505091939590929450565b6002602052806000526040600020600091509050806000018054600181600116156101000203166002900480601f0160208091040260200160405190810160405280929190818152602001828054600181600116156101000203166002900480156116005780601f106115d557610100808354040283529160200191611600565b820191906000526020600020905b8154815290600101906020018083116115e357829003601f168201915b5050505050908060010160009054906101000a900460ff1690806003015490806004018054600181600116156101000203166002900480601f0160208091040260200160405190810160405280929190818152602001828054600181600116156101000203166002900480156116b75780601f1061168c576101008083540402835291602001916116b7565b820191906000526020600020905b81548152906001019060200180831161169a57829003601f168201915b505050505090806005018054600181600116156101000203166002900480601f0160208091040260200160405190810160405280929190818152602001828054600181600116156101000203166002900480156117555780601f1061172a57610100808354040283529160200191611755565b820191906000526020600020905b81548152906001019060200180831161173857829003601f168201915b505050505090806006018054600181600116156101000203166002900480601f0160208091040260200160405190810160405280929190818152602001828054600181600116156101000203166002900480156117f35780601f106117c8576101008083540402835291602001916117f3565b820191906000526020600020905b8154815290600101906020018083116117d657829003601f168201915b5050505050905086565b600082805160208101820180518482526020830160208501208183528095505050505050818154811061182c57fe5b906000526020600020906006020160009150915050806000015490806001018054600181600116156101000203166002900480601f0160208091040260200160405190810160405280929190818152602001828054600181600116156101000203166002900480156118df5780601f106118b4576101008083540402835291602001916118df565b820191906000526020600020905b8154815290600101906020018083116118c257829003601f168201915b5050505050908060020160009054906101000a900460ff1690806003018054600181600116156101000203166002900480601f0160208091040260200160405190810160405280929190818152602001828054600181600116156101000203166002900480156119905780601f1061196557610100808354040283529160200191611990565b820191906000526020600020905b81548152906001019060200180831161197357829003601f168201915b505050505090806004018054600181600116156101000203166002900480601f016020809104026020016040519081016040528092919081815260200182805460018160011615610100020316600290048015611a2e5780601f10611a0357610100808354040283529160200191611a2e565b820191906000526020600020905b815481529060010190602001808311611a1157829003601f168201915b505050505090806005018054600181600116156101000203166002900480601f016020809104026020016040519081016040528092919081815260200182805460018160011615610100020316600290048015611acc5780601f10611aa157610100808354040283529160200191611acc565b820191906000526020600020905b815481529060010190602001808311611aaf57829003601f168201915b5050505050905086565b606060008083604051611ae99190613fc5565b9081526020016040518091039020905060608180549050604051908082528060200260200182016040528015611b3357816020015b6060815260200190600190039081611b1e5790505b50905060008090505b8280549050811015611c385760026000848381548110611b5857fe5b90600052602060002090600602016000015481526020019081526020016000206000018054600181600116156101000203166002900480601f016020809104026020016040519081016040528092919081815260200182805460018160011615610100020316600290048015611c0f5780601f10611be457610100808354040283529160200191611c0f565b820191906000526020600020905b815481529060010190602001808311611bf257829003601f168201915b5050505050828281518110611c2057fe5b60200260200101819052508080600101915050611b3c565b508092505050919050565b60035481565b600060026000888152602001908152602001600020905085816000019080519060200190611c7892919061313a565b5084816004019080519060200190611c9192919061313a565b5083816005019080519060200190611caa92919061313a565b5082816006019080519060200190611cc392919061313a565b5060008083604051611cd59190613fc5565b9081526020016040518091039020905060008090505b8180549050811015611df65788828281548110611d0457fe5b9060005260206000209060060201600001541415611de95787828281548110611d2957fe5b90600052602060002090600602016001019080519060200190611d4d92919061313a565b5086828281548110611d5b57fe5b90600052602060002090600602016003019080519060200190611d7f92919061313a565b5085828281548110611d8d57fe5b90600052602060002090600602016004019080519060200190611db192919061313a565b5084828281548110611dbf57fe5b90600052602060002090600602016005019080519060200190611de392919061313a565b50611df6565b8080600101915050611ceb565b505050505050505050565b600080600190505b6003548111611ee557611eca600260008381526020019081526020016000206000018054600181600116156101000203166002900480601f016020809104026020016040519081016040528092919081815260200182805460018160011615610100020316600290048015611ebf5780601f10611e9457610100808354040283529160200191611ebf565b820191906000526020600020905b815481529060010190602001808311611ea257829003601f168201915b505050505084613081565b15611ed85780915050611eeb565b8080600101915050611e09565b50600090505b919050565b60006002600085815260200190815260200160002090508060010160009054906101000a900460ff16611f58576040517f08c379a0000000000000000000000000000000000000000000000000000000008152600401611f4f906142f9565b60405180910390fd5b8060070182604051611f6a9190613fc5565b908152602001604051809103902060009054906101000a900460ff1615611fc6576040517f08c379a0000000000000000000000000000000000000000000000000000000008152600401611fbd906142b9565b60405180910390fd5b60008090505b8351811015612096576000848281518110611fe357fe5b602002602001015111801561200f5750816003015484828151811061200457fe5b602002602001015111155b61204e576040517f08c379a000000000000000000000000000000000000000000000000000000000815260040161204590614319565b60405180910390fd5b81600201600085838151811061206057fe5b60200260200101518152602001908152602001600020600501600081548092919060010191905055508080600101915050611fcc565b50600181600701836040516120ab9190613fc5565b908152602001604051809103902060006101000a81548160ff02191690831515021790555050505050565b6000600260008481526020019081526020016000209050600082118015612101575080600301548211155b612140576040517f08c379a000000000000000000000000000000000000000000000000000000000815260040161213790614319565b60405180910390fd5b60008290505b816003015481101561226157816002016000600183018152602001908152602001600020826002016000838152602001908152602001600020600082018160000190805460018160011615610100020316600290046121a692919061323a565b50600182018160010190805460018160011615610100020316600290046121ce92919061323a565b50600282018160020190805460018160011615610100020316600290046121f692919061323a565b506003820181600301908054600181600116156101000203166002900461221e92919061323a565b506004820181600401908054600181600116156101000203166002900461224692919061323a565b50600582015481600501559050508080600101915050612146565b50806002016000826003015481526020019081526020016000206000808201600061228c91906132c1565b60018201600061229c91906132c1565b6002820160006122ac91906132c1565b6003820160006122bc91906132c1565b6004820160006122cc91906132c1565b60058201600090555050806003016000815480929190600190039190505550505050565b60608060608060006002600087815260200190815260200160002090506000816003015490508060405190808252806020026020018201604052801561234a57816020015b60608152602001906001900390816123355790505b5095508060405190808252806020026020018201604052801561238157816020015b606081526020019060019003908161236c5790505b509450806040519080825280602002602001820160405280156123b857816020015b60608152602001906001900390816123a35790505b509350806040519080825280602002602001820160405280156123ea5781602001602082028038833980820191505090505b5092506000600190505b81811161269a5760006001820390508360020160008381526020019081526020016000206000018054600181600116156101000203166002900480601f0160208091040260200160405190810160405280929190818152602001828054600181600116156101000203166002900480156124af5780601f10612484576101008083540402835291602001916124af565b820191906000526020600020905b81548152906001019060200180831161249257829003601f168201915b50505050508882815181106124c057fe5b60200260200101819052508360020160008381526020019081526020016000206002018054600181600116156101000203166002900480601f0160208091040260200160405190810160405280929190818152602001828054600181600116156101000203166002900480156125775780601f1061254c57610100808354040283529160200191612577565b820191906000526020600020905b81548152906001019060200180831161255a57829003601f168201915b505050505087828151811061258857fe5b60200260200101819052508360020160008381526020019081526020016000206001018054600181600116156101000203166002900480601f01602080910402602001604051908101604052809291908181526020018280546001816001161561010002031660029004801561263f5780601f106126145761010080835404028352916020019161263f565b820191906000526020600020905b81548152906001019060200180831161262257829003601f168201915b505050505086828151811061265057fe5b60200260200101819052508360020160008381526020019081526020016000206005015485828151811061268057fe5b6020026020010181815250505080806001019150506123f4565b5085858585955095509550955050509193509193565b606060008060608060606000600260008981526020019081526020016000209050806000018160010160009054906101000a900460ff168260030154836004018460050185600601858054600181600116156101000203166002900480601f01602080910402602001604051908101604052809291908181526020018280546001816001161561010002031660029004801561278d5780601f106127625761010080835404028352916020019161278d565b820191906000526020600020905b81548152906001019060200180831161277057829003601f168201915b50505050509550828054600181600116156101000203166002900480601f0160208091040260200160405190810160405280929190818152602001828054600181600116156101000203166002900480156128295780601f106127fe57610100808354040283529160200191612829565b820191906000526020600020905b81548152906001019060200180831161280c57829003601f168201915b50505050509250818054600181600116156101000203166002900480601f0160208091040260200160405190810160405280929190818152602001828054600181600116156101000203166002900480156128c55780601f1061289a576101008083540402835291602001916128c5565b820191906000526020600020905b8154815290600101906020018083116128a857829003601f168201915b50505050509150808054600181600116156101000203166002900480601f0160208091040260200160405190810160405280929190818152602001828054600181600116156101000203166002900480156129615780601f1061293657610100808354040283529160200191612961565b820191906000526020600020905b81548152906001019060200180831161294457829003601f168201915b505050505090509650965096509650965096505091939550919395565b6060806060806060600080600260008a815260200190815260200160002090506000881180156129b2575080600301548811155b6129f1576040517f08c379a00000000000000000000000000000000000000000000000000000000081526004016129e890614319565b60405180910390fd5b8060020160008981526020019081526020016000206000018160020160008a81526020019081526020016000206002018260020160008b81526020019081526020016000206003018360020160008c81526020019081526020016000206004018460020160008d81526020019081526020016000206001018560020160008e815260200190815260200160002060050154858054600181600116156101000203166002900480601f016020809104026020016040519081016040528092919081815260200182805460018160011615610100020316600290048015612b175780601f10612aec57610100808354040283529160200191612b17565b820191906000526020600020905b815481529060010190602001808311612afa57829003601f168201915b50505050509550848054600181600116156101000203166002900480601f016020809104026020016040519081016040528092919081815260200182805460018160011615610100020316600290048015612bb35780601f10612b8857610100808354040283529160200191612bb3565b820191906000526020600020905b815481529060010190602001808311612b9657829003601f168201915b50505050509450838054600181600116156101000203166002900480601f016020809104026020016040519081016040528092919081815260200182805460018160011615610100020316600290048015612c4f5780601f10612c2457610100808354040283529160200191612c4f565b820191906000526020600020905b815481529060010190602001808311612c3257829003601f168201915b50505050509350828054600181600116156101000203166002900480601f016020809104026020016040519081016040528092919081815260200182805460018160011615610100020316600290048015612ceb5780601f10612cc057610100808354040283529160200191612ceb565b820191906000526020600020905b815481529060010190602001808311612cce57829003601f168201915b50505050509250818054600181600116156101000203166002900480601f016020809104026020016040519081016040528092919081815260200182805460018160011615610100020316600290048015612d875780601f10612d5c57610100808354040283529160200191612d87565b820191906000526020600020905b815481529060010190602001808311612d6a57829003601f168201915b50505050509150965096509650965096509650509295509295509295565b6001828051602081018201805184825260208301602085012081835280955050505050508181548110612dd457fe5b90600052602060002001600091509150508054600181600116156101000203166002900480601f016020809104026020016040519081016040528092919081815260200182805460018160011615610100020316600290048015612e795780601f10612e4e57610100808354040283529160200191612e79565b820191906000526020600020905b815481529060010190602001808311612e5c57829003601f168201915b505050505081565b83518551148015612e93575082518451145b8015612ea0575081518351145b8015612ead575080518251145b612eec576040517f08c379a0000000000000000000000000000000000000000000000000000000008152600401612ee390614339565b60405180910390fd5b600060026000888152602001908152602001600020905060008090505b86518110156130775781600301600081548092919060010191905055506040518060c00160405280888381518110612f3d57fe5b60200260200101518152602001848381518110612f5657fe5b60200260200101518152602001878381518110612f6f57fe5b60200260200101518152602001868381518110612f8857fe5b60200260200101518152602001858381518110612fa157fe5b602002602001015181526020016000815250826002016000846003015481526020019081526020016000206000820151816000019080519060200190612fe89291906131ba565b5060208201518160010190805190602001906130059291906131ba565b5060408201518160020190805190602001906130229291906131ba565b50606082015181600301908051906020019061303f9291906131ba565b50608082015181600401908051906020019061305c9291906131ba565b5060a082015181600501559050508080600101915050612f09565b5050505050505050565b6000816040516020016130949190613fc5565b60405160208183030381529060405280519060200120836040516020016130bb9190613fc5565b6040516020818303038152906040528051906020012014905092915050565b828054828255906000526020600020908101928215613129579160200282015b828111156131285782518290805190602001906131189291906131ba565b50916020019190600101906130fa565b5b5090506131369190613309565b5090565b828054600181600116156101000203166002900490600052602060002090601f016020900481019282601f1061317b57805160ff19168380011785556131a9565b828001600101855582156131a9579182015b828111156131a857825182559160200191906001019061318d565b5b5090506131b69190613335565b5090565b828054600181600116156101000203166002900490600052602060002090601f016020900481019282601f106131fb57805160ff1916838001178555613229565b82800160010185558215613229579182015b8281111561322857825182559160200191906001019061320d565b5b5090506132369190613335565b5090565b828054600181600116156101000203166002900490600052602060002090601f016020900481019282601f1061327357805485556132b0565b828001600101855582156132b057600052602060002091601f016020900482015b828111156132af578254825591600101919060010190613294565b5b5090506132bd9190613335565b5090565b50805460018160011615610100020316600290046000825580601f106132e75750613306565b601f0160209004906000526020600020908101906133059190613335565b5b50565b61333291905b8082111561332e576000818161332591906132c1565b5060010161330f565b5090565b90565b61335791905b8082111561335357600081600090555060010161333b565b5090565b90565b600082601f83011261336b57600080fd5b813561337e6133798261441e565b6143f1565b9150818183526020840193506020810190508360005b838110156133c457813586016133aa8882613451565b845260208401935060208301925050600181019050613394565b5050505092915050565b600082601f8301126133df57600080fd5b81356133f26133ed82614446565b6143f1565b9150818183526020840193506020810190508385602084028201111561341757600080fd5b60005b83811015613447578161342d88826134f9565b84526020840193506020830192505060018101905061341a565b5050505092915050565b600082601f83011261346257600080fd5b81356134756134708261446e565b6143f1565b9150808252602083016020830185838301111561349157600080fd5b61349c8382846145ca565b50505092915050565b600082601f8301126134b657600080fd5b81356134c96134c48261449a565b6143f1565b915080825260208301602083018583830111156134e557600080fd5b6134f08382846145ca565b50505092915050565b6000813590506135088161461d565b92915050565b60006020828403121561352057600080fd5b600082013567ffffffffffffffff81111561353a57600080fd5b613546848285016134a5565b91505092915050565b6000806040838503121561356257600080fd5b600083013567ffffffffffffffff81111561357c57600080fd5b613588858286016134a5565b925050602083013567ffffffffffffffff8111156135a557600080fd5b6135b18582860161335a565b9150509250929050565b600080600080600060a086880312156135d357600080fd5b600086013567ffffffffffffffff8111156135ed57600080fd5b6135f9888289016134a5565b955050602086013567ffffffffffffffff81111561361657600080fd5b613622888289016134a5565b945050604086013567ffffffffffffffff81111561363f57600080fd5b61364b888289016134a5565b935050606086013567ffffffffffffffff81111561366857600080fd5b613674888289016134a5565b925050608086013567ffffffffffffffff81111561369157600080fd5b61369d888289016134a5565b9150509295509295909350565b600080604083850312156136bd57600080fd5b600083013567ffffffffffffffff8111156136d757600080fd5b6136e385828601613451565b92505060206136f4858286016134f9565b9150509250929050565b60006020828403121561371057600080fd5b600061371e848285016134f9565b91505092915050565b60008060008060008060c0878903121561374057600080fd5b600061374e89828a016134f9565b965050602087013567ffffffffffffffff81111561376b57600080fd5b61377789828a0161335a565b955050604087013567ffffffffffffffff81111561379457600080fd5b6137a089828a0161335a565b945050606087013567ffffffffffffffff8111156137bd57600080fd5b6137c989828a0161335a565b935050608087013567ffffffffffffffff8111156137e657600080fd5b6137f289828a0161335a565b92505060a087013567ffffffffffffffff81111561380f57600080fd5b61381b89828a0161335a565b9150509295509295509295565b60008060006060848603121561383d57600080fd5b600061384b868287016134f9565b935050602084013567ffffffffffffffff81111561386857600080fd5b613874868287016133ce565b925050604084013567ffffffffffffffff81111561389157600080fd5b61389d868287016134a5565b9150509250925092565b600080604083850312156138ba57600080fd5b60006138c8858286016134f9565b925050602083013567ffffffffffffffff8111156138e557600080fd5b6138f1858286016134a5565b9150509250929050565b60008060008060008060c0878903121561391457600080fd5b600061392289828a016134f9565b965050602087013567ffffffffffffffff81111561393f57600080fd5b61394b89828a016134a5565b955050604087013567ffffffffffffffff81111561396857600080fd5b61397489828a016134a5565b945050606087013567ffffffffffffffff81111561399157600080fd5b61399d89828a016134a5565b935050608087013567ffffffffffffffff8111156139ba57600080fd5b6139c689828a016134a5565b92505060a087013567ffffffffffffffff8111156139e357600080fd5b6139ef89828a016134a5565b9150509295509295509295565b60008060408385031215613a0f57600080fd5b6000613a1d858286016134f9565b9250506020613a2e858286016134f9565b9150509250929050565b60008060008060008060c08789031215613a5157600080fd5b6000613a5f89828a016134f9565b9650506020613a7089828a016134f9565b955050604087013567ffffffffffffffff811115613a8d57600080fd5b613a9989828a016134a5565b945050606087013567ffffffffffffffff811115613ab657600080fd5b613ac289828a016134a5565b935050608087013567ffffffffffffffff811115613adf57600080fd5b613aeb89828a016134a5565b92505060a087013567ffffffffffffffff811115613b0857600080fd5b613b1489828a016134a5565b9150509295509295509295565b6000613b2d8383613d31565b905092915050565b6000613b418383613f09565b905092915050565b6000613b558383613fa7565b60208301905092915050565b6000613b6c826144f6565b613b768185614554565b935083602082028501613b88856144c6565b8060005b85811015613bc45784840389528151613ba58582613b21565b9450613bb08361452d565b925060208a01995050600181019050613b8c565b50829750879550505050505092915050565b6000613be182614501565b613beb8185614565565b935083602082028501613bfd856144d6565b8060005b85811015613c395784840389528151613c1a8582613b35565b9450613c258361453a565b925060208a01995050600181019050613c01565b50829750879550505050505092915050565b6000613c568261450c565b613c608185614576565b9350613c6b836144e6565b8060005b83811015613c9c578151613c838882613b49565b9750613c8e83614547565b925050600181019050613c6f565b5085935050505092915050565b613cb2816145b4565b82525050565b613cc1816145b4565b82525050565b6000613cd282614522565b613cdc8185614598565b9350613cec8185602086016145d9565b613cf58161460c565b840191505092915050565b6000613d0b82614522565b613d1581856145a9565b9350613d258185602086016145d9565b80840191505092915050565b6000613d3c82614517565b613d468185614587565b9350613d568185602086016145d9565b613d5f8161460c565b840191505092915050565b6000613d7582614517565b613d7f8185614598565b9350613d8f8185602086016145d9565b613d988161460c565b840191505092915050565b6000613db0600d83614598565b91507f416c726561647920766f746564000000000000000000000000000000000000006000830152602082019050919050565b6000613df0601a83614598565b91507f456c656374696f6e20697320616c726561647920636c6f7365640000000000006000830152602082019050919050565b6000613e30601283614598565b91507f456c656374696f6e20697320636c6f73656400000000000000000000000000006000830152602082019050919050565b6000613e70601483614598565b91507f496e76616c69642063616e6469646174652049440000000000000000000000006000830152602082019050919050565b6000613eb0602283614598565b91507f496e70757420617272617973206d75737420686176652073616d65206c656e6760008301527f74680000000000000000000000000000000000000000000000000000000000006020830152604082019050919050565b600060c083016000830151613f216000860182613fa7565b5060208301518482036020860152613f398282613d31565b9150506040830151613f4e6040860182613ca9565b5060608301518482036060860152613f668282613d31565b91505060808301518482036080860152613f808282613d31565b91505060a083015184820360a0860152613f9a8282613d31565b9150508091505092915050565b613fb0816145c0565b82525050565b613fbf816145c0565b82525050565b6000613fd18284613d00565b915081905092915050565b60006020820190508181036000830152613ff68184613b61565b905092915050565b600060a08201905081810360008301526140188188613b61565b9050818103602083015261402c8187613b61565b905081810360408301526140408186613b61565b905081810360608301526140548185613b61565b905081810360808301526140688184613b61565b90509695505050505050565b6000608082019050818103600083015261408e8187613b61565b905081810360208301526140a28186613b61565b905081810360408301526140b68185613b61565b905081810360608301526140ca8184613c4b565b905095945050505050565b600060208201905081810360008301526140ef8184613bd6565b905092915050565b600060208201905081810360008301526141118184613c4b565b905092915050565b600060208201905081810360008301526141338184613d6a565b905092915050565b600060c08201905081810360008301526141558189613cc7565b90506141646020830188613cb8565b6141716040830187613fb6565b81810360608301526141838186613cc7565b905081810360808301526141978185613cc7565b905081810360a08301526141ab8184613cc7565b9050979650505050505050565b600060c08201905081810360008301526141d28189613cc7565b905081810360208301526141e68188613cc7565b905081810360408301526141fa8187613cc7565b9050818103606083015261420e8186613cc7565b905081810360808301526142228185613cc7565b905061423160a0830184613fb6565b979650505050505050565b600060c08201905081810360008301526142568189613d6a565b90506142656020830188613cb8565b6142726040830187613fb6565b81810360608301526142848186613d6a565b905081810360808301526142988185613d6a565b905081810360a08301526142ac8184613d6a565b9050979650505050505050565b600060208201905081810360008301526142d281613da3565b9050919050565b600060208201905081810360008301526142f281613de3565b9050919050565b6000602082019050818103600083015261431281613e23565b9050919050565b6000602082019050818103600083015261433281613e63565b9050919050565b6000602082019050818103600083015261435281613ea3565b9050919050565b600060208201905061436e6000830184613fb6565b92915050565b600060c0820190506143896000830189613fb6565b818103602083015261439b8188613d6a565b90506143aa6040830187613cb8565b81810360608301526143bc8186613d6a565b905081810360808301526143d08185613d6a565b905081810360a08301526143e48184613d6a565b9050979650505050505050565b6000604051905081810181811067ffffffffffffffff8211171561441457600080fd5b8060405250919050565b600067ffffffffffffffff82111561443557600080fd5b602082029050602081019050919050565b600067ffffffffffffffff82111561445d57600080fd5b602082029050602081019050919050565b600067ffffffffffffffff82111561448557600080fd5b601f19601f8301169050602081019050919050565b600067ffffffffffffffff8211156144b157600080fd5b601f19601f8301169050602081019050919050565b6000819050602082019050919050565b6000819050602082019050919050565b6000819050602082019050919050565b600081519050919050565b600081519050919050565b600081519050919050565b600081519050919050565b600081519050919050565b6000602082019050919050565b6000602082019050919050565b6000602082019050919050565b600082825260208201905092915050565b600082825260208201905092915050565b600082825260208201905092915050565b600082825260208201905092915050565b600082825260208201905092915050565b600081905092915050565b60008115159050919050565b6000819050919050565b82818337600083830152505050565b60005b838110156145f75780820151818401526020810190506145dc565b83811115614606576000848401525b50505050565b6000601f19601f8301169050919050565b614626816145c0565b811461463157600080fd5b5056fea365627a7a723158201e230d8a958de056851f1996f8dc8aa581468c453a4bda7b21bce0a8e06ece4e6c6578706572696d656e74616cf564736f6c63430005100040",
  "source": "// SPDX-License-Identifier: MIT\r\npragma solidity >=0.4.21 <=0.8.20;\r\npragma experimental ABIEncoderV2;\r\n\r\ncontract Voting {\r\n    // ============================\r\n    // Structs & Storage\r\n    // ============================\r\n\r\n    struct CreatedElections {\r\n        uint256 electionId;\r\n        string electionName;\r\n        bool isOpen;\r\n        string startDate;\r\n        string endDate;\r\n        string domainFilter;\r\n    }\r\n\r\n    struct Candidate {\r\n        string name;\r\n        string partylist;\r\n        string position;\r\n        string platform;\r\n        string cdn;\r\n        uint256 voteCount;\r\n    }\r\n\r\n    struct Election {\r\n        string name;\r\n        bool isOpen;\r\n        mapping(uint256 => Candidate) candidates; // 1-based index\r\n        uint256 candidatesCount; // number of candidates\r\n        string startDate;\r\n        string endDate;\r\n        string domainFilter;\r\n        mapping(string => bool) hasVoted;\r\n    }\r\n\r\n    mapping (string => CreatedElections[]) public ownedElections;\r\n    mapping (string => string[]) public positions;\r\n    mapping (uint256 => Election) public elections;\r\n    uint256 public electionCount;\r\n\r\n    // ============================\r\n    // Position Management\r\n    // ============================\r\n\r\n    function listPositions(string memory email, string[] memory _positions) public {\r\n        positions[email] = _positions;\r\n    }\r\n\r\n    function getPositions(string memory email) public view returns (string[] memory) {\r\n        return positions[email];\r\n    }\r\n\r\n    // ============================\r\n    // Election Management\r\n    // ============================\r\n\r\n    function createElection(\r\n        string memory _name,\r\n        string memory _startDate,\r\n        string memory _endDate,\r\n        string memory _domainFilter,\r\n        string memory _email\r\n    ) public {\r\n        electionCount++;\r\n        elections[electionCount].name = _name;\r\n        elections[electionCount].isOpen = true;\r\n        elections[electionCount].candidatesCount = 0;\r\n        elections[electionCount].startDate = _startDate;\r\n        elections[electionCount].endDate = _endDate;\r\n        elections[electionCount].domainFilter = _domainFilter;\r\n        elections[electionCount].hasVoted[_email] = false;\r\n\r\n        ownedElections[_email].push(\r\n            CreatedElections(electionCount, _name, true, _startDate, _endDate, _domainFilter)\r\n        );\r\n    }\r\n\r\n    function getElectionCount() public view returns (uint256) {\r\n        return electionCount;\r\n    }\r\n\r\n    function updateElection(\r\n        uint256 _electionId,\r\n        string memory _title,\r\n        string memory _startDate,\r\n        string memory _endDate,\r\n        string memory _domainFilter,\r\n        string memory _email\r\n    ) public {\r\n        Election storage e = elections[_electionId];\r\n        e.name = _title;\r\n        e.startDate = _startDate;\r\n        e.endDate = _endDate;\r\n        e.domainFilter = _domainFilter;\r\n\r\n        CreatedElections[] storage ownedElectionsList = ownedElections[_email];\r\n        for (uint256 i = 0; i < ownedElectionsList.length; i++) {\r\n            if (ownedElectionsList[i].electionId == _electionId) {\r\n                ownedElectionsList[i].electionName = _title;\r\n                ownedElectionsList[i].startDate = _startDate;\r\n                ownedElectionsList[i].endDate = _endDate;\r\n                ownedElectionsList[i].domainFilter = _domainFilter;\r\n                break;\r\n            }\r\n        }\r\n    }\r\n\r\n    function getOwnedElections(string memory _email) public view returns (CreatedElections[] memory) {\r\n        return ownedElections[_email];\r\n    }\r\n\r\n    function getOwnedElectionNames(string memory _owner) public view returns (string[] memory) {\r\n        CreatedElections[] storage ownedElectionsList = ownedElections[_owner];\r\n        string[] memory names = new string[](ownedElectionsList.length);\r\n        for (uint256 i = 0; i < ownedElectionsList.length; i++) {\r\n            names[i] = elections[ownedElectionsList[i].electionId].name;\r\n        }\r\n        return names;\r\n    }\r\n\r\n    function getOwnedElectionIds(string memory _owner) public view returns (uint256[] memory) {\r\n        CreatedElections[] storage ownedElectionsList = ownedElections[_owner];\r\n        uint256[] memory ids = new uint256[](ownedElectionsList.length);\r\n        for (uint256 i = 0; i < ownedElectionsList.length; i++) {\r\n            ids[i] = ownedElectionsList[i].electionId;\r\n        }\r\n        return ids;\r\n    }\r\n\r\n    function getElectionIdByName(string memory _name) public view returns (uint256) {\r\n        for (uint256 i = 1; i <= electionCount; i++) {\r\n            if (compareStrings(elections[i].name, _name)) {\r\n                return i;\r\n            }\r\n        }\r\n        return 0;\r\n    }\r\n\r\n    function compareStrings(string memory s1, string memory s2) internal pure returns (bool) {\r\n        return keccak256(abi.encodePacked(s1)) == keccak256(abi.encodePacked(s2));\r\n    }\r\n\r\n    function getElectionDetails(uint256 _electionId)\r\n        public\r\n        view\r\n        returns (string memory, bool, uint256, string memory, string memory, string memory)\r\n    {\r\n        Election storage e = elections[_electionId];\r\n        return (e.name, e.isOpen, e.candidatesCount, e.startDate, e.endDate, e.domainFilter);\r\n    }\r\n\r\n    function closeElection(uint256 _electionId) public {\r\n        require(elections[_electionId].isOpen, \"Election is already closed\");\r\n        elections[_electionId].isOpen = false;\r\n    }\r\n\r\n    // ============================\r\n    // Candidate Management\r\n    // ============================\r\n\r\n    function addCandidates(\r\n        uint256 _electionId,\r\n        string[] memory _names,\r\n        string[] memory _positions,\r\n        string[] memory _platforms,\r\n        string[] memory _cdns,\r\n        string[] memory _partylists\r\n    ) public {\r\n        require(\r\n            _names.length == _positions.length &&\r\n            _positions.length == _platforms.length &&\r\n            _platforms.length == _cdns.length &&\r\n            _cdns.length == _partylists.length,\r\n            \"Input arrays must have same length\"\r\n        );\r\n\r\n        Election storage e = elections[_electionId];\r\n        for (uint256 i = 0; i < _names.length; i++) {\r\n            e.candidatesCount++; // start at 1\r\n            e.candidates[e.candidatesCount] = Candidate(\r\n                _names[i],\r\n                _partylists[i],\r\n                _positions[i],\r\n                _platforms[i],\r\n                _cdns[i],\r\n                0\r\n            );\r\n        }\r\n    }\r\n\r\n    function getElectionCandidates(uint256 _electionId)\r\n        public\r\n        view\r\n        returns (string[] memory, string[] memory, string[] memory, string[] memory, string[] memory)\r\n    {\r\n        Election storage e = elections[_electionId];\r\n        string[] memory names = new string[](e.candidatesCount);\r\n        string[] memory _positions = new string[](e.candidatesCount);\r\n        string[] memory platforms = new string[](e.candidatesCount);\r\n        string[] memory cdns = new string[](e.candidatesCount);\r\n        string[] memory partylists = new string[](e.candidatesCount);\r\n\r\n        for (uint256 i = 1; i <= e.candidatesCount; i++) {\r\n            names[i-1] = e.candidates[i].name;\r\n            _positions[i-1] = e.candidates[i].position;\r\n            platforms[i-1] = e.candidates[i].platform;\r\n            cdns[i-1] = e.candidates[i].cdn;\r\n            partylists[i-1] = e.candidates[i].partylist;\r\n        }\r\n\r\n        return (names, _positions, platforms, cdns, partylists);\r\n    }\r\n\r\n    function getElectionCandidateCount(uint256 _electionId) public view returns (uint256) {\r\n        return elections[_electionId].candidatesCount;\r\n    }\r\n\r\n    function getElectionCandidate(uint256 _electionId, uint256 _candidateId)\r\n        public\r\n        view\r\n        returns (string memory, string memory, string memory, string memory, string memory, uint256)\r\n    {\r\n        Election storage e = elections[_electionId];\r\n        require(_candidateId > 0 && _candidateId <= e.candidatesCount, \"Invalid candidate ID\");\r\n\r\n        return (\r\n            e.candidates[_candidateId].name,\r\n            e.candidates[_candidateId].position,\r\n            e.candidates[_candidateId].platform,\r\n            e.candidates[_candidateId].cdn,\r\n            e.candidates[_candidateId].partylist,\r\n            e.candidates[_candidateId].voteCount\r\n        );\r\n    }\r\n\r\n    function getCandidateIdByName(uint256 _electionId, string memory _name) public view returns (uint256) {\r\n        Election storage e = elections[_electionId];\r\n        for (uint256 i = 1; i <= e.candidatesCount; i++) {\r\n            if (compareStrings(e.candidates[i].name, _name)) {\r\n                return i;\r\n            }\r\n        }\r\n        return 0;\r\n    }\r\n\r\n    function updateCandidate(\r\n        uint256 _electionId,\r\n        uint256 _candidateId,\r\n        string memory _name,\r\n        string memory _position,\r\n        string memory _platform,\r\n        string memory _cdn\r\n    ) public {\r\n        Election storage e = elections[_electionId];\r\n        require(_candidateId > 0 && _candidateId <= e.candidatesCount, \"Invalid candidate ID\");\r\n\r\n        e.candidates[_candidateId].name = _name;\r\n        e.candidates[_candidateId].position = _position;\r\n        e.candidates[_candidateId].platform = _platform;\r\n        e.candidates[_candidateId].cdn = _cdn;\r\n    }\r\n\r\n    function deleteCandidate(uint256 _electionId, uint256 _candidateId) public {\r\n        Election storage e = elections[_electionId];\r\n        require(_candidateId > 0 && _candidateId <= e.candidatesCount, \"Invalid candidate ID\");\r\n\r\n        // Shift down (1-based indexing)\r\n        for (uint256 i = _candidateId; i < e.candidatesCount; i++) {\r\n            e.candidates[i] = e.candidates[i + 1];\r\n        }\r\n\r\n        delete e.candidates[e.candidatesCount];\r\n        e.candidatesCount--;\r\n    }\r\n\r\n    // ============================\r\n    // Voting\r\n    // ============================\r\n\r\n    function vote(uint256 _electionId, uint256[] memory _candidateIds, string memory _email) public {\r\n        Election storage e = elections[_electionId];\r\n        require(e.isOpen, \"Election is closed\");\r\n        require(!e.hasVoted[_email], \"Already voted\");\r\n\r\n        for (uint256 i = 0; i < _candidateIds.length; i++) {\r\n            require(_candidateIds[i] > 0 && _candidateIds[i] <= e.candidatesCount, \"Invalid candidate ID\");\r\n            e.candidates[_candidateIds[i]].voteCount++;\r\n        }\r\n\r\n        e.hasVoted[_email] = true;\r\n    }\r\n\r\n    function getElectionResults(uint256 _electionId)\r\n    public\r\n    view\r\n    returns (\r\n        string[] memory names,\r\n        string[] memory positions,\r\n        string[] memory partylists,\r\n        uint256[] memory votes\r\n    )\r\n{\r\n    Election storage e = elections[_electionId];\r\n    uint256 count = e.candidatesCount;\r\n\r\n    names = new string[](count);\r\n    positions = new string[](count);\r\n    partylists = new string[](count);\r\n    votes = new uint256[](count);\r\n\r\n    // your candidates mapping is 1-based, so iterate from 1..count\r\n    for (uint256 i = 1; i <= count; i++) {\r\n        uint256 idx = i - 1; // array index (0-based)\r\n        names[idx] = e.candidates[i].name;\r\n        positions[idx] = e.candidates[i].position;\r\n        partylists[idx] = e.candidates[i].partylist;\r\n        votes[idx] = e.candidates[i].voteCount;\r\n    }\r\n\r\n    return (names, positions, partylists, votes);\r\n}\r\n\r\n\r\n\r\n}\r\n",
  "sourcePath": "C:\\Users\\dizon\\OneDrive\\Documents\\GitHub\\SE2-BV\\contracts\\contracts\\Voting.sol",
  "compiler": {
    "name": "solc",
    "version": "0.5.16+commit.9c3226ce.Emscripten.clang"
  },
  "schemaVersion": "3.4.16",
  "updatedAt": "2025-09-20T12:08:31.785Z",
  "networkType": "ethereum",
  "devdoc": {
    "methods": {}
  },
  "userdoc": {
    "methods": {}
  }
}