{
  "contractName": "Voting",
  "abi": [
    {
      "constant": true,
      "inputs": [],
      "name": "electionCount",
      "outputs": [
        {
          "internalType": "uint256",
          "name": "",
          "type": "uint256"
        }
      ],
      "payable": false,
      "stateMutability": "view",
      "type": "function"
    },
    {
      "constant": true,
      "inputs": [
        {
          "internalType": "uint256",
          "name": "",
          "type": "uint256"
        }
      ],
      "name": "elections",
      "outputs": [
        {
          "internalType": "string",
          "name": "name",
          "type": "string"
        },
        {
          "internalType": "bool",
          "name": "isOpen",
          "type": "bool"
        },
        {
          "internalType": "uint256",
          "name": "candidatesCount",
          "type": "uint256"
        },
        {
          "internalType": "string",
          "name": "startDate",
          "type": "string"
        },
        {
          "internalType": "string",
          "name": "endDate",
          "type": "string"
        },
        {
          "internalType": "string",
          "name": "domainFilter",
          "type": "string"
        }
      ],
      "payable": false,
      "stateMutability": "view",
      "type": "function"
    },
    {
      "constant": true,
      "inputs": [
        {
          "internalType": "string",
          "name": "",
          "type": "string"
        },
        {
          "internalType": "uint256",
          "name": "",
          "type": "uint256"
        }
      ],
      "name": "ownedElections",
      "outputs": [
        {
          "internalType": "uint256",
          "name": "electionId",
          "type": "uint256"
        },
        {
          "internalType": "string",
          "name": "electionName",
          "type": "string"
        },
        {
          "internalType": "bool",
          "name": "isOpen",
          "type": "bool"
        },
        {
          "internalType": "string",
          "name": "startDate",
          "type": "string"
        },
        {
          "internalType": "string",
          "name": "endDate",
          "type": "string"
        },
        {
          "internalType": "string",
          "name": "domainFilter",
          "type": "string"
        }
      ],
      "payable": false,
      "stateMutability": "view",
      "type": "function"
    },
    {
      "constant": true,
      "inputs": [
        {
          "internalType": "string",
          "name": "",
          "type": "string"
        },
        {
          "internalType": "uint256",
          "name": "",
          "type": "uint256"
        }
      ],
      "name": "positions",
      "outputs": [
        {
          "internalType": "string",
          "name": "",
          "type": "string"
        }
      ],
      "payable": false,
      "stateMutability": "view",
      "type": "function"
    },
    {
      "constant": false,
      "inputs": [
        {
          "internalType": "string",
          "name": "email",
          "type": "string"
        },
        {
          "internalType": "string[]",
          "name": "_positions",
          "type": "string[]"
        }
      ],
      "name": "listPositions",
      "outputs": [],
      "payable": false,
      "stateMutability": "nonpayable",
      "type": "function"
    },
    {
      "constant": true,
      "inputs": [
        {
          "internalType": "string",
          "name": "email",
          "type": "string"
        }
      ],
      "name": "getPositions",
      "outputs": [
        {
          "internalType": "string[]",
          "name": "",
          "type": "string[]"
        }
      ],
      "payable": false,
      "stateMutability": "view",
      "type": "function"
    },
    {
      "constant": false,
      "inputs": [
        {
          "internalType": "string",
          "name": "_name",
          "type": "string"
        },
        {
          "internalType": "string",
          "name": "_startDate",
          "type": "string"
        },
        {
          "internalType": "string",
          "name": "_endDate",
          "type": "string"
        },
        {
          "internalType": "string",
          "name": "_domainFilter",
          "type": "string"
        },
        {
          "internalType": "string",
          "name": "_email",
          "type": "string"
        }
      ],
      "name": "createElection",
      "outputs": [],
      "payable": false,
      "stateMutability": "nonpayable",
      "type": "function"
    },
    {
      "constant": true,
      "inputs": [],
      "name": "getElectionCount",
      "outputs": [
        {
          "internalType": "uint256",
          "name": "",
          "type": "uint256"
        }
      ],
      "payable": false,
      "stateMutability": "view",
      "type": "function"
    },
    {
      "constant": false,
      "inputs": [
        {
          "internalType": "uint256",
          "name": "_electionId",
          "type": "uint256"
        },
        {
          "internalType": "string",
          "name": "_title",
          "type": "string"
        },
        {
          "internalType": "string",
          "name": "_startDate",
          "type": "string"
        },
        {
          "internalType": "string",
          "name": "_endDate",
          "type": "string"
        },
        {
          "internalType": "string",
          "name": "_domainFilter",
          "type": "string"
        },
        {
          "internalType": "string",
          "name": "_email",
          "type": "string"
        }
      ],
      "name": "updateElection",
      "outputs": [],
      "payable": false,
      "stateMutability": "nonpayable",
      "type": "function"
    },
    {
      "constant": true,
      "inputs": [
        {
          "internalType": "string",
          "name": "_email",
          "type": "string"
        }
      ],
      "name": "getOwnedElections",
      "outputs": [
        {
          "components": [
            {
              "internalType": "uint256",
              "name": "electionId",
              "type": "uint256"
            },
            {
              "internalType": "string",
              "name": "electionName",
              "type": "string"
            },
            {
              "internalType": "bool",
              "name": "isOpen",
              "type": "bool"
            },
            {
              "internalType": "string",
              "name": "startDate",
              "type": "string"
            },
            {
              "internalType": "string",
              "name": "endDate",
              "type": "string"
            },
            {
              "internalType": "string",
              "name": "domainFilter",
              "type": "string"
            }
          ],
          "internalType": "struct Voting.CreatedElections[]",
          "name": "",
          "type": "tuple[]"
        }
      ],
      "payable": false,
      "stateMutability": "view",
      "type": "function"
    },
    {
      "constant": true,
      "inputs": [
        {
          "internalType": "string",
          "name": "_owner",
          "type": "string"
        }
      ],
      "name": "getOwnedElectionNames",
      "outputs": [
        {
          "internalType": "string[]",
          "name": "",
          "type": "string[]"
        }
      ],
      "payable": false,
      "stateMutability": "view",
      "type": "function"
    },
    {
      "constant": true,
      "inputs": [
        {
          "internalType": "string",
          "name": "_owner",
          "type": "string"
        }
      ],
      "name": "getOwnedElectionIds",
      "outputs": [
        {
          "internalType": "uint256[]",
          "name": "",
          "type": "uint256[]"
        }
      ],
      "payable": false,
      "stateMutability": "view",
      "type": "function"
    },
    {
      "constant": true,
      "inputs": [
        {
          "internalType": "string",
          "name": "_name",
          "type": "string"
        }
      ],
      "name": "getElectionIdByName",
      "outputs": [
        {
          "internalType": "uint256",
          "name": "",
          "type": "uint256"
        }
      ],
      "payable": false,
      "stateMutability": "view",
      "type": "function"
    },
    {
      "constant": true,
      "inputs": [
        {
          "internalType": "uint256",
          "name": "_electionId",
          "type": "uint256"
        }
      ],
      "name": "getElectionDetails",
      "outputs": [
        {
          "internalType": "string",
          "name": "",
          "type": "string"
        },
        {
          "internalType": "bool",
          "name": "",
          "type": "bool"
        },
        {
          "internalType": "uint256",
          "name": "",
          "type": "uint256"
        },
        {
          "internalType": "string",
          "name": "",
          "type": "string"
        },
        {
          "internalType": "string",
          "name": "",
          "type": "string"
        },
        {
          "internalType": "string",
          "name": "",
          "type": "string"
        }
      ],
      "payable": false,
      "stateMutability": "view",
      "type": "function"
    },
    {
      "constant": false,
      "inputs": [
        {
          "internalType": "uint256",
          "name": "_electionId",
          "type": "uint256"
        }
      ],
      "name": "closeElection",
      "outputs": [],
      "payable": false,
      "stateMutability": "nonpayable",
      "type": "function"
    },
    {
      "constant": false,
      "inputs": [
        {
          "internalType": "uint256",
          "name": "_electionId",
          "type": "uint256"
        },
        {
          "internalType": "string[]",
          "name": "_names",
          "type": "string[]"
        },
        {
          "internalType": "string[]",
          "name": "_positions",
          "type": "string[]"
        },
        {
          "internalType": "string[]",
          "name": "_platforms",
          "type": "string[]"
        },
        {
          "internalType": "string[]",
          "name": "_cdns",
          "type": "string[]"
        },
        {
          "internalType": "string[]",
          "name": "_partylists",
          "type": "string[]"
        }
      ],
      "name": "addCandidates",
      "outputs": [],
      "payable": false,
      "stateMutability": "nonpayable",
      "type": "function"
    },
    {
      "constant": true,
      "inputs": [
        {
          "internalType": "uint256",
          "name": "_electionId",
          "type": "uint256"
        }
      ],
      "name": "getElectionCandidates",
      "outputs": [
        {
          "internalType": "string[]",
          "name": "",
          "type": "string[]"
        },
        {
          "internalType": "string[]",
          "name": "",
          "type": "string[]"
        },
        {
          "internalType": "string[]",
          "name": "",
          "type": "string[]"
        },
        {
          "internalType": "string[]",
          "name": "",
          "type": "string[]"
        },
        {
          "internalType": "string[]",
          "name": "",
          "type": "string[]"
        }
      ],
      "payable": false,
      "stateMutability": "view",
      "type": "function"
    },
    {
      "constant": true,
      "inputs": [
        {
          "internalType": "uint256",
          "name": "_electionId",
          "type": "uint256"
        }
      ],
      "name": "getElectionCandidateCount",
      "outputs": [
        {
          "internalType": "uint256",
          "name": "",
          "type": "uint256"
        }
      ],
      "payable": false,
      "stateMutability": "view",
      "type": "function"
    },
    {
      "constant": true,
      "inputs": [
        {
          "internalType": "uint256",
          "name": "_electionId",
          "type": "uint256"
        },
        {
          "internalType": "uint256",
          "name": "_candidateId",
          "type": "uint256"
        }
      ],
      "name": "getElectionCandidate",
      "outputs": [
        {
          "internalType": "string",
          "name": "",
          "type": "string"
        },
        {
          "internalType": "string",
          "name": "",
          "type": "string"
        },
        {
          "internalType": "string",
          "name": "",
          "type": "string"
        },
        {
          "internalType": "string",
          "name": "",
          "type": "string"
        },
        {
          "internalType": "string",
          "name": "",
          "type": "string"
        },
        {
          "internalType": "uint256",
          "name": "",
          "type": "uint256"
        }
      ],
      "payable": false,
      "stateMutability": "view",
      "type": "function"
    },
    {
      "constant": true,
      "inputs": [
        {
          "internalType": "uint256",
          "name": "_electionId",
          "type": "uint256"
        },
        {
          "internalType": "string",
          "name": "_name",
          "type": "string"
        }
      ],
      "name": "getCandidateIdByName",
      "outputs": [
        {
          "internalType": "uint256",
          "name": "",
          "type": "uint256"
        }
      ],
      "payable": false,
      "stateMutability": "view",
      "type": "function"
    },
    {
      "constant": false,
      "inputs": [
        {
          "internalType": "uint256",
          "name": "_electionId",
          "type": "uint256"
        },
        {
          "internalType": "uint256",
          "name": "_candidateId",
          "type": "uint256"
        },
        {
          "internalType": "string",
          "name": "_name",
          "type": "string"
        },
        {
          "internalType": "string",
          "name": "_position",
          "type": "string"
        },
        {
          "internalType": "string",
          "name": "_platform",
          "type": "string"
        },
        {
          "internalType": "string",
          "name": "_cdn",
          "type": "string"
        },
        {
          "internalType": "string",
          "name": "_partylist",
          "type": "string"
        }
      ],
      "name": "updateCandidate",
      "outputs": [],
      "payable": false,
      "stateMutability": "nonpayable",
      "type": "function"
    },
    {
      "constant": false,
      "inputs": [
        {
          "internalType": "uint256",
          "name": "_electionId",
          "type": "uint256"
        },
        {
          "internalType": "uint256",
          "name": "_candidateId",
          "type": "uint256"
        }
      ],
      "name": "deleteCandidate",
      "outputs": [],
      "payable": false,
      "stateMutability": "nonpayable",
      "type": "function"
    },
    {
      "constant": false,
      "inputs": [
        {
          "internalType": "uint256",
          "name": "_electionId",
          "type": "uint256"
        },
        {
          "internalType": "uint256[]",
          "name": "_candidateIds",
          "type": "uint256[]"
        },
        {
          "internalType": "string",
          "name": "_email",
          "type": "string"
        }
      ],
      "name": "vote",
      "outputs": [],
      "payable": false,
      "stateMutability": "nonpayable",
      "type": "function"
    },
    {
      "constant": true,
      "inputs": [
        {
          "internalType": "uint256",
          "name": "_electionId",
          "type": "uint256"
        }
      ],
      "name": "getElectionResults",
      "outputs": [
        {
          "internalType": "string[]",
          "name": "names",
          "type": "string[]"
        },
        {
          "internalType": "string[]",
          "name": "positions",
          "type": "string[]"
        },
        {
          "internalType": "string[]",
          "name": "partylists",
          "type": "string[]"
        },
        {
          "internalType": "uint256[]",
          "name": "votes",
          "type": "uint256[]"
        }
      ],
      "payable": false,
      "stateMutability": "view",
      "type": "function"
    },
    {
      "constant": true,
      "inputs": [
        {
          "internalType": "uint256",
          "name": "_electionId",
          "type": "uint256"
        }
      ],
      "name": "isElectionOpen",
      "outputs": [
        {
          "internalType": "bool",
          "name": "",
          "type": "bool"
        }
      ],
      "payable": false,
      "stateMutability": "view",
      "type": "function"
    }
  ],
  "bytecode": "0x608060405234801561001057600080fd5b5061476a806100206000396000f3fe608060405234801561001057600080fd5b50600436106101735760003560e01c80635f5db526116100de578063cf4a606011610097578063f604992411610071578063f6049924146104c9578063f70171fb146104fe578063fa65dd3214610533578063fc265f061461056357610173565b8063cf4a60601461044a578063e3f27e3d14610466578063e8ededa61461049657610173565b80635f5db5261461035f5780637ea7af0414610394578063997d2830146103c45780639b1b5a35146103e2578063bade1157146103fe578063c14cfa211461042e57610173565b806326324f3a1161013057806326324f3a1461025e57806343e189101461027a5780634ba6b821146102aa57806350efbc75146102da5780635e12845e146102f65780635e6fef011461032a57610173565b806307ccd61714610178578063088b0663146101a857806309e33d07146101d85780631227dd41146101f4578063193bdd8a14610224578063213785a014610240575b600080fd5b610192600480360361018d91908101906135b9565b61057f565b60405161019f91906141cf565b60405180910390f35b6101c260048036036101bd91908101906137a9565b61063a565b6040516101cf919061444c565b60405180910390f35b6101f260048036036101ed91908101906137a9565b61065a565b005b61020e600480360361020991908101906135b9565b6106ef565b60405161021b91906141ad565b60405180910390f35b61023e600480360361023991908101906135fa565b610a19565b005b610248610a50565b604051610255919061444c565b60405180910390f35b61027860048036036102739190810190613ae3565b610a5a565b005b610294600480360361028f9190810190613952565b610baf565b6040516102a1919061444c565b60405180910390f35b6102c460048036036102bf91908101906135b9565b610cbc565b6040516102d191906140b4565b60405180910390f35b6102f460048036036102ef9190810190613666565b610dc3565b005b610310600480360361030b91908101906137a9565b611048565b6040516103219594939291906140d6565b60405180910390f35b610344600480360361033f91908101906137a9565b6115cd565b6040516103569695949392919061432f565b60405180910390f35b61037960048036036103749190810190613755565b611876565b60405161038b96959493929190614467565b60405180910390f35b6103ae60048036036103a991908101906135b9565b611b4f565b6040516103bb91906140b4565b60405180910390f35b6103cc611cbc565b6040516103d9919061444c565b60405180910390f35b6103fc60048036036103f791908101906139a6565b611cc2565b005b610418600480360361041391908101906135b9565b611e7a565b604051610425919061444c565b60405180910390f35b610448600480360361044391908101906138d3565b611f69565b005b610464600480360361045f9190810190613aa7565b61214f565b005b610480600480360361047b91908101906137a9565b612369565b60405161048d91906141f1565b60405180910390f35b6104b060048036036104ab91908101906137a9565b61239b565b6040516104c0949392919061414c565b60405180910390f35b6104e360048036036104de91908101906137a9565b61275b565b6040516104f59695949392919061422e565b60405180910390f35b61051860048036036105139190810190613aa7565b612a29565b60405161052a969594939291906142ab565b60405180910390f35b61054d60048036036105489190810190613755565b612e50565b60405161055a919061420c565b60405180910390f35b61057d600480360361057891908101906137d2565b612f2c565b005b606060008083604051610592919061409d565b90815260200160405180910390209050606081805490506040519080825280602002602001820160405280156105d75781602001602082028038833980820191505090505b50905060008090505b828054905081101561062f578281815481106105f857fe5b90600052602060002090600602016000015482828151811061061657fe5b60200260200101818152505080806001019150506105e0565b508092505050919050565b600060026000838152602001908152602001600020600301549050919050565b6002600082815260200190815260200160002060010160009054906101000a900460ff166106bd576040517f08c379a00000000000000000000000000000000000000000000000000000000081526004016106b4906143cc565b60405180910390fd5b60006002600083815260200190815260200160002060010160006101000a81548160ff02191690831515021790555050565b6060600082604051610701919061409d565b9081526020016040518091039020805480602002602001604051908101604052809291908181526020016000905b82821015610a0e57838290600052602060002090600602016040518060c001604052908160008201548152602001600182018054600181600116156101000203166002900480601f0160208091040260200160405190810160405280929190818152602001828054600181600116156101000203166002900480156107f55780601f106107ca576101008083540402835291602001916107f5565b820191906000526020600020905b8154815290600101906020018083116107d857829003601f168201915b505050505081526020016002820160009054906101000a900460ff16151515158152602001600382018054600181600116156101000203166002900480601f0160208091040260200160405190810160405280929190818152602001828054600181600116156101000203166002900480156108b25780601f10610887576101008083540402835291602001916108b2565b820191906000526020600020905b81548152906001019060200180831161089557829003601f168201915b50505050508152602001600482018054600181600116156101000203166002900480601f0160208091040260200160405190810160405280929190818152602001828054600181600116156101000203166002900480156109545780601f1061092957610100808354040283529160200191610954565b820191906000526020600020905b81548152906001019060200180831161093757829003601f168201915b50505050508152602001600582018054600181600116156101000203166002900480601f0160208091040260200160405190810160405280929190818152602001828054600181600116156101000203166002900480156109f65780601f106109cb576101008083540402835291602001916109f6565b820191906000526020600020905b8154815290600101906020018083116109d957829003601f168201915b5050505050815250508152602001906001019061072f565b505050509050919050565b80600183604051610a2a919061409d565b90815260200160405180910390209080519060200190610a4b929190613185565b505050565b6000600354905090565b6000600260008981526020019081526020016000209050600087118015610a85575080600301548711155b610ac4576040517f08c379a0000000000000000000000000000000000000000000000000000000008152600401610abb9061440c565b60405180910390fd5b858160020160008981526020019081526020016000206000019080519060200190610af09291906131e5565b50848160020160008981526020019081526020016000206002019080519060200190610b1d9291906131e5565b50838160020160008981526020019081526020016000206003019080519060200190610b4a9291906131e5565b50828160020160008981526020019081526020016000206004019080519060200190610b779291906131e5565b50818160020160008981526020019081526020016000206001019080519060200190610ba49291906131e5565b505050505050505050565b6000806002600085815260200190815260200160002090506000600190505b81600301548111610caf57610c938260020160008381526020019081526020016000206000018054600181600116156101000203166002900480601f016020809104026020016040519081016040528092919081815260200182805460018160011615610100020316600290048015610c885780601f10610c5d57610100808354040283529160200191610c88565b820191906000526020600020905b815481529060010190602001808311610c6b57829003601f168201915b50505050508561312c565b15610ca2578092505050610cb6565b8080600101915050610bce565b5060009150505b92915050565b6060600182604051610cce919061409d565b9081526020016040518091039020805480602002602001604051908101604052809291908181526020016000905b82821015610db8578382906000526020600020018054600181600116156101000203166002900480601f016020809104026020016040519081016040528092919081815260200182805460018160011615610100020316600290048015610da45780601f10610d7957610100808354040283529160200191610da4565b820191906000526020600020905b815481529060010190602001808311610d8757829003601f168201915b505050505081526020019060010190610cfc565b505050509050919050565b600360008154809291906001019190505550846002600060035481526020019081526020016000206000019080519060200190610e019291906131e5565b50600160026000600354815260200190815260200160002060010160006101000a81548160ff021916908315150217905550600060026000600354815260200190815260200160002060030181905550836002600060035481526020019081526020016000206004019080519060200190610e7d9291906131e5565b50826002600060035481526020019081526020016000206005019080519060200190610eaa9291906131e5565b50816002600060035481526020019081526020016000206006019080519060200190610ed79291906131e5565b50600060026000600354815260200190815260200160002060070182604051610f00919061409d565b908152602001604051809103902060006101000a81548160ff021916908315150217905550600081604051610f35919061409d565b90815260200160405180910390206040518060c0016040528060035481526020018781526020016001151581526020018681526020018581526020018481525090806001815401808255809150509060018203906000526020600020906006020160009091929091909150600082015181600001556020820151816001019080519060200190610fc6929190613265565b5060408201518160020160006101000a81548160ff0219169083151502179055506060820151816003019080519060200190611003929190613265565b506080820151816004019080519060200190611020929190613265565b5060a082015181600501908051906020019061103d929190613265565b505050505050505050565b60608060608060606000600260008881526020019081526020016000209050606081600301546040519080825280602002602001820160405280156110a157816020015b606081526020019060019003908161108c5790505b509050606082600301546040519080825280602002602001820160405280156110de57816020015b60608152602001906001900390816110c95790505b5090506060836003015460405190808252806020026020018201604052801561111b57816020015b60608152602001906001900390816111065790505b5090506060846003015460405190808252806020026020018201604052801561115857816020015b60608152602001906001900390816111435790505b5090506060856003015460405190808252806020026020018201604052801561119557816020015b60608152602001906001900390816111805790505b5090506000600190505b866003015481116115ae578660020160008281526020019081526020016000206000018054600181600116156101000203166002900480601f0160208091040260200160405190810160405280929190818152602001828054600181600116156101000203166002900480156112565780601f1061122b57610100808354040283529160200191611256565b820191906000526020600020905b81548152906001019060200180831161123957829003601f168201915b505050505086600183038151811061126a57fe5b60200260200101819052508660020160008281526020019081526020016000206002018054600181600116156101000203166002900480601f0160208091040260200160405190810160405280929190818152602001828054600181600116156101000203166002900480156113215780601f106112f657610100808354040283529160200191611321565b820191906000526020600020905b81548152906001019060200180831161130457829003601f168201915b505050505085600183038151811061133557fe5b60200260200101819052508660020160008281526020019081526020016000206003018054600181600116156101000203166002900480601f0160208091040260200160405190810160405280929190818152602001828054600181600116156101000203166002900480156113ec5780601f106113c1576101008083540402835291602001916113ec565b820191906000526020600020905b8154815290600101906020018083116113cf57829003601f168201915b505050505084600183038151811061140057fe5b60200260200101819052508660020160008281526020019081526020016000206004018054600181600116156101000203166002900480601f0160208091040260200160405190810160405280929190818152602001828054600181600116156101000203166002900480156114b75780601f1061148c576101008083540402835291602001916114b7565b820191906000526020600020905b81548152906001019060200180831161149a57829003601f168201915b50505050508360018303815181106114cb57fe5b60200260200101819052508660020160008281526020019081526020016000206001018054600181600116156101000203166002900480601f0160208091040260200160405190810160405280929190818152602001828054600181600116156101000203166002900480156115825780601f1061155757610100808354040283529160200191611582565b820191906000526020600020905b81548152906001019060200180831161156557829003601f168201915b505050505082600183038151811061159657fe5b6020026020010181905250808060010191505061119f565b5084848484849a509a509a509a509a5050505050505091939590929450565b6002602052806000526040600020600091509050806000018054600181600116156101000203166002900480601f0160208091040260200160405190810160405280929190818152602001828054600181600116156101000203166002900480156116795780601f1061164e57610100808354040283529160200191611679565b820191906000526020600020905b81548152906001019060200180831161165c57829003601f168201915b5050505050908060010160009054906101000a900460ff1690806003015490806004018054600181600116156101000203166002900480601f0160208091040260200160405190810160405280929190818152602001828054600181600116156101000203166002900480156117305780601f1061170557610100808354040283529160200191611730565b820191906000526020600020905b81548152906001019060200180831161171357829003601f168201915b505050505090806005018054600181600116156101000203166002900480601f0160208091040260200160405190810160405280929190818152602001828054600181600116156101000203166002900480156117ce5780601f106117a3576101008083540402835291602001916117ce565b820191906000526020600020905b8154815290600101906020018083116117b157829003601f168201915b505050505090806006018054600181600116156101000203166002900480601f01602080910402602001604051908101604052809291908181526020018280546001816001161561010002031660029004801561186c5780601f106118415761010080835404028352916020019161186c565b820191906000526020600020905b81548152906001019060200180831161184f57829003601f168201915b5050505050905086565b60008280516020810182018051848252602083016020850120818352809550505050505081815481106118a557fe5b906000526020600020906006020160009150915050806000015490806001018054600181600116156101000203166002900480601f0160208091040260200160405190810160405280929190818152602001828054600181600116156101000203166002900480156119585780601f1061192d57610100808354040283529160200191611958565b820191906000526020600020905b81548152906001019060200180831161193b57829003601f168201915b5050505050908060020160009054906101000a900460ff1690806003018054600181600116156101000203166002900480601f016020809104026020016040519081016040528092919081815260200182805460018160011615610100020316600290048015611a095780601f106119de57610100808354040283529160200191611a09565b820191906000526020600020905b8154815290600101906020018083116119ec57829003601f168201915b505050505090806004018054600181600116156101000203166002900480601f016020809104026020016040519081016040528092919081815260200182805460018160011615610100020316600290048015611aa75780601f10611a7c57610100808354040283529160200191611aa7565b820191906000526020600020905b815481529060010190602001808311611a8a57829003601f168201915b505050505090806005018054600181600116156101000203166002900480601f016020809104026020016040519081016040528092919081815260200182805460018160011615610100020316600290048015611b455780601f10611b1a57610100808354040283529160200191611b45565b820191906000526020600020905b815481529060010190602001808311611b2857829003601f168201915b5050505050905086565b606060008083604051611b62919061409d565b9081526020016040518091039020905060608180549050604051908082528060200260200182016040528015611bac57816020015b6060815260200190600190039081611b975790505b50905060008090505b8280549050811015611cb15760026000848381548110611bd157fe5b90600052602060002090600602016000015481526020019081526020016000206000018054600181600116156101000203166002900480601f016020809104026020016040519081016040528092919081815260200182805460018160011615610100020316600290048015611c885780601f10611c5d57610100808354040283529160200191611c88565b820191906000526020600020905b815481529060010190602001808311611c6b57829003601f168201915b5050505050828281518110611c9957fe5b60200260200101819052508080600101915050611bb5565b508092505050919050565b60035481565b600060026000888152602001908152602001600020905085816000019080519060200190611cf19291906131e5565b5084816004019080519060200190611d0a9291906131e5565b5083816005019080519060200190611d239291906131e5565b5082816006019080519060200190611d3c9291906131e5565b5060008083604051611d4e919061409d565b9081526020016040518091039020905060008090505b8180549050811015611e6f5788828281548110611d7d57fe5b9060005260206000209060060201600001541415611e625787828281548110611da257fe5b90600052602060002090600602016001019080519060200190611dc69291906131e5565b5086828281548110611dd457fe5b90600052602060002090600602016003019080519060200190611df89291906131e5565b5085828281548110611e0657fe5b90600052602060002090600602016004019080519060200190611e2a9291906131e5565b5084828281548110611e3857fe5b90600052602060002090600602016005019080519060200190611e5c9291906131e5565b50611e6f565b8080600101915050611d64565b505050505050505050565b600080600190505b6003548111611f5e57611f43600260008381526020019081526020016000206000018054600181600116156101000203166002900480601f016020809104026020016040519081016040528092919081815260200182805460018160011615610100020316600290048015611f385780601f10611f0d57610100808354040283529160200191611f38565b820191906000526020600020905b815481529060010190602001808311611f1b57829003601f168201915b50505050508461312c565b15611f515780915050611f64565b8080600101915050611e82565b50600090505b919050565b60006002600085815260200190815260200160002090508060010160009054906101000a900460ff16611fd1576040517f08c379a0000000000000000000000000000000000000000000000000000000008152600401611fc8906143ec565b60405180910390fd5b8060070182604051611fe3919061409d565b908152602001604051809103902060009054906101000a900460ff161561203f576040517f08c379a0000000000000000000000000000000000000000000000000000000008152600401612036906143ac565b60405180910390fd5b60008090505b835181101561210f57600084828151811061205c57fe5b60200260200101511180156120885750816003015484828151811061207d57fe5b602002602001015111155b6120c7576040517f08c379a00000000000000000000000000000000000000000000000000000000081526004016120be9061440c565b60405180910390fd5b8160020160008583815181106120d957fe5b60200260200101518152602001908152602001600020600501600081548092919060010191905055508080600101915050612045565b5060018160070183604051612124919061409d565b908152602001604051809103902060006101000a81548160ff02191690831515021790555050505050565b600060026000848152602001908152602001600020905060008211801561217a575080600301548211155b6121b9576040517f08c379a00000000000000000000000000000000000000000000000000000000081526004016121b09061440c565b60405180910390fd5b60008290505b81600301548110156122da578160020160006001830181526020019081526020016000208260020160008381526020019081526020016000206000820181600001908054600181600116156101000203166002900461221f9291906132e5565b50600182018160010190805460018160011615610100020316600290046122479291906132e5565b506002820181600201908054600181600116156101000203166002900461226f9291906132e5565b50600382018160030190805460018160011615610100020316600290046122979291906132e5565b50600482018160040190805460018160011615610100020316600290046122bf9291906132e5565b506005820154816005015590505080806001019150506121bf565b508060020160008260030154815260200190815260200160002060008082016000612305919061336c565b600182016000612315919061336c565b600282016000612325919061336c565b600382016000612335919061336c565b600482016000612345919061336c565b60058201600090555050806003016000815480929190600190039190505550505050565b6000806002600084815260200190815260200160002090508060010160009054906101000a900460ff16915050919050565b6060806060806000600260008781526020019081526020016000209050600081600301549050806040519080825280602002602001820160405280156123f557816020015b60608152602001906001900390816123e05790505b5095508060405190808252806020026020018201604052801561242c57816020015b60608152602001906001900390816124175790505b5094508060405190808252806020026020018201604052801561246357816020015b606081526020019060019003908161244e5790505b509350806040519080825280602002602001820160405280156124955781602001602082028038833980820191505090505b5092506000600190505b8181116127455760006001820390508360020160008381526020019081526020016000206000018054600181600116156101000203166002900480601f01602080910402602001604051908101604052809291908181526020018280546001816001161561010002031660029004801561255a5780601f1061252f5761010080835404028352916020019161255a565b820191906000526020600020905b81548152906001019060200180831161253d57829003601f168201915b505050505088828151811061256b57fe5b60200260200101819052508360020160008381526020019081526020016000206002018054600181600116156101000203166002900480601f0160208091040260200160405190810160405280929190818152602001828054600181600116156101000203166002900480156126225780601f106125f757610100808354040283529160200191612622565b820191906000526020600020905b81548152906001019060200180831161260557829003601f168201915b505050505087828151811061263357fe5b60200260200101819052508360020160008381526020019081526020016000206001018054600181600116156101000203166002900480601f0160208091040260200160405190810160405280929190818152602001828054600181600116156101000203166002900480156126ea5780601f106126bf576101008083540402835291602001916126ea565b820191906000526020600020905b8154815290600101906020018083116126cd57829003601f168201915b50505050508682815181106126fb57fe5b60200260200101819052508360020160008381526020019081526020016000206005015485828151811061272b57fe5b60200260200101818152505050808060010191505061249f565b5085858585955095509550955050509193509193565b606060008060608060606000600260008981526020019081526020016000209050806000018160010160009054906101000a900460ff168260030154836004018460050185600601858054600181600116156101000203166002900480601f0160208091040260200160405190810160405280929190818152602001828054600181600116156101000203166002900480156128385780601f1061280d57610100808354040283529160200191612838565b820191906000526020600020905b81548152906001019060200180831161281b57829003601f168201915b50505050509550828054600181600116156101000203166002900480601f0160208091040260200160405190810160405280929190818152602001828054600181600116156101000203166002900480156128d45780601f106128a9576101008083540402835291602001916128d4565b820191906000526020600020905b8154815290600101906020018083116128b757829003601f168201915b50505050509250818054600181600116156101000203166002900480601f0160208091040260200160405190810160405280929190818152602001828054600181600116156101000203166002900480156129705780601f1061294557610100808354040283529160200191612970565b820191906000526020600020905b81548152906001019060200180831161295357829003601f168201915b50505050509150808054600181600116156101000203166002900480601f016020809104026020016040519081016040528092919081815260200182805460018160011615610100020316600290048015612a0c5780601f106129e157610100808354040283529160200191612a0c565b820191906000526020600020905b8154815290600101906020018083116129ef57829003601f168201915b505050505090509650965096509650965096505091939550919395565b6060806060806060600080600260008a81526020019081526020016000209050600088118015612a5d575080600301548811155b612a9c576040517f08c379a0000000000000000000000000000000000000000000000000000000008152600401612a939061440c565b60405180910390fd5b8060020160008981526020019081526020016000206000018160020160008a81526020019081526020016000206002018260020160008b81526020019081526020016000206003018360020160008c81526020019081526020016000206004018460020160008d81526020019081526020016000206001018560020160008e815260200190815260200160002060050154858054600181600116156101000203166002900480601f016020809104026020016040519081016040528092919081815260200182805460018160011615610100020316600290048015612bc25780601f10612b9757610100808354040283529160200191612bc2565b820191906000526020600020905b815481529060010190602001808311612ba557829003601f168201915b50505050509550848054600181600116156101000203166002900480601f016020809104026020016040519081016040528092919081815260200182805460018160011615610100020316600290048015612c5e5780601f10612c3357610100808354040283529160200191612c5e565b820191906000526020600020905b815481529060010190602001808311612c4157829003601f168201915b50505050509450838054600181600116156101000203166002900480601f016020809104026020016040519081016040528092919081815260200182805460018160011615610100020316600290048015612cfa5780601f10612ccf57610100808354040283529160200191612cfa565b820191906000526020600020905b815481529060010190602001808311612cdd57829003601f168201915b50505050509350828054600181600116156101000203166002900480601f016020809104026020016040519081016040528092919081815260200182805460018160011615610100020316600290048015612d965780601f10612d6b57610100808354040283529160200191612d96565b820191906000526020600020905b815481529060010190602001808311612d7957829003601f168201915b50505050509250818054600181600116156101000203166002900480601f016020809104026020016040519081016040528092919081815260200182805460018160011615610100020316600290048015612e325780601f10612e0757610100808354040283529160200191612e32565b820191906000526020600020905b815481529060010190602001808311612e1557829003601f168201915b50505050509150965096509650965096509650509295509295509295565b6001828051602081018201805184825260208301602085012081835280955050505050508181548110612e7f57fe5b90600052602060002001600091509150508054600181600116156101000203166002900480601f016020809104026020016040519081016040528092919081815260200182805460018160011615610100020316600290048015612f245780601f10612ef957610100808354040283529160200191612f24565b820191906000526020600020905b815481529060010190602001808311612f0757829003601f168201915b505050505081565b83518551148015612f3e575082518451145b8015612f4b575081518351145b8015612f58575080518251145b612f97576040517f08c379a0000000000000000000000000000000000000000000000000000000008152600401612f8e9061442c565b60405180910390fd5b600060026000888152602001908152602001600020905060008090505b86518110156131225781600301600081548092919060010191905055506040518060c00160405280888381518110612fe857fe5b6020026020010151815260200184838151811061300157fe5b6020026020010151815260200187838151811061301a57fe5b6020026020010151815260200186838151811061303357fe5b6020026020010151815260200185838151811061304c57fe5b602002602001015181526020016000815250826002016000846003015481526020019081526020016000206000820151816000019080519060200190613093929190613265565b5060208201518160010190805190602001906130b0929190613265565b5060408201518160020190805190602001906130cd929190613265565b5060608201518160030190805190602001906130ea929190613265565b506080820151816004019080519060200190613107929190613265565b5060a082015181600501559050508080600101915050612fb4565b5050505050505050565b60008160405160200161313f919061409d565b6040516020818303038152906040528051906020012083604051602001613166919061409d565b6040516020818303038152906040528051906020012014905092915050565b8280548282559060005260206000209081019282156131d4579160200282015b828111156131d35782518290805190602001906131c3929190613265565b50916020019190600101906131a5565b5b5090506131e191906133b4565b5090565b828054600181600116156101000203166002900490600052602060002090601f016020900481019282601f1061322657805160ff1916838001178555613254565b82800160010185558215613254579182015b82811115613253578251825591602001919060010190613238565b5b50905061326191906133e0565b5090565b828054600181600116156101000203166002900490600052602060002090601f016020900481019282601f106132a657805160ff19168380011785556132d4565b828001600101855582156132d4579182015b828111156132d35782518255916020019190600101906132b8565b5b5090506132e191906133e0565b5090565b828054600181600116156101000203166002900490600052602060002090601f016020900481019282601f1061331e578054855561335b565b8280016001018555821561335b57600052602060002091601f016020900482015b8281111561335a57825482559160010191906001019061333f565b5b50905061336891906133e0565b5090565b50805460018160011615610100020316600290046000825580601f1061339257506133b1565b601f0160209004906000526020600020908101906133b091906133e0565b5b50565b6133dd91905b808211156133d957600081816133d0919061336c565b506001016133ba565b5090565b90565b61340291905b808211156133fe5760008160009055506001016133e6565b5090565b90565b600082601f83011261341657600080fd5b813561342961342482614511565b6144e4565b9150818183526020840193506020810190508360005b8381101561346f578135860161345588826134fc565b84526020840193506020830192505060018101905061343f565b5050505092915050565b600082601f83011261348a57600080fd5b813561349d61349882614539565b6144e4565b915081818352602084019350602081019050838560208402820111156134c257600080fd5b60005b838110156134f257816134d888826135a4565b8452602084019350602083019250506001810190506134c5565b5050505092915050565b600082601f83011261350d57600080fd5b813561352061351b82614561565b6144e4565b9150808252602083016020830185838301111561353c57600080fd5b6135478382846146bd565b50505092915050565b600082601f83011261356157600080fd5b813561357461356f8261458d565b6144e4565b9150808252602083016020830185838301111561359057600080fd5b61359b8382846146bd565b50505092915050565b6000813590506135b381614710565b92915050565b6000602082840312156135cb57600080fd5b600082013567ffffffffffffffff8111156135e557600080fd5b6135f184828501613550565b91505092915050565b6000806040838503121561360d57600080fd5b600083013567ffffffffffffffff81111561362757600080fd5b61363385828601613550565b925050602083013567ffffffffffffffff81111561365057600080fd5b61365c85828601613405565b9150509250929050565b600080600080600060a0868803121561367e57600080fd5b600086013567ffffffffffffffff81111561369857600080fd5b6136a488828901613550565b955050602086013567ffffffffffffffff8111156136c157600080fd5b6136cd88828901613550565b945050604086013567ffffffffffffffff8111156136ea57600080fd5b6136f688828901613550565b935050606086013567ffffffffffffffff81111561371357600080fd5b61371f88828901613550565b925050608086013567ffffffffffffffff81111561373c57600080fd5b61374888828901613550565b9150509295509295909350565b6000806040838503121561376857600080fd5b600083013567ffffffffffffffff81111561378257600080fd5b61378e858286016134fc565b925050602061379f858286016135a4565b9150509250929050565b6000602082840312156137bb57600080fd5b60006137c9848285016135a4565b91505092915050565b60008060008060008060c087890312156137eb57600080fd5b60006137f989828a016135a4565b965050602087013567ffffffffffffffff81111561381657600080fd5b61382289828a01613405565b955050604087013567ffffffffffffffff81111561383f57600080fd5b61384b89828a01613405565b945050606087013567ffffffffffffffff81111561386857600080fd5b61387489828a01613405565b935050608087013567ffffffffffffffff81111561389157600080fd5b61389d89828a01613405565b92505060a087013567ffffffffffffffff8111156138ba57600080fd5b6138c689828a01613405565b9150509295509295509295565b6000806000606084860312156138e857600080fd5b60006138f6868287016135a4565b935050602084013567ffffffffffffffff81111561391357600080fd5b61391f86828701613479565b925050604084013567ffffffffffffffff81111561393c57600080fd5b61394886828701613550565b9150509250925092565b6000806040838503121561396557600080fd5b6000613973858286016135a4565b925050602083013567ffffffffffffffff81111561399057600080fd5b61399c85828601613550565b9150509250929050565b60008060008060008060c087890312156139bf57600080fd5b60006139cd89828a016135a4565b965050602087013567ffffffffffffffff8111156139ea57600080fd5b6139f689828a01613550565b955050604087013567ffffffffffffffff811115613a1357600080fd5b613a1f89828a01613550565b945050606087013567ffffffffffffffff811115613a3c57600080fd5b613a4889828a01613550565b935050608087013567ffffffffffffffff811115613a6557600080fd5b613a7189828a01613550565b92505060a087013567ffffffffffffffff811115613a8e57600080fd5b613a9a89828a01613550565b9150509295509295509295565b60008060408385031215613aba57600080fd5b6000613ac8858286016135a4565b9250506020613ad9858286016135a4565b9150509250929050565b600080600080600080600060e0888a031215613afe57600080fd5b6000613b0c8a828b016135a4565b9750506020613b1d8a828b016135a4565b965050604088013567ffffffffffffffff811115613b3a57600080fd5b613b468a828b01613550565b955050606088013567ffffffffffffffff811115613b6357600080fd5b613b6f8a828b01613550565b945050608088013567ffffffffffffffff811115613b8c57600080fd5b613b988a828b01613550565b93505060a088013567ffffffffffffffff811115613bb557600080fd5b613bc18a828b01613550565b92505060c088013567ffffffffffffffff811115613bde57600080fd5b613bea8a828b01613550565b91505092959891949750929550565b6000613c058383613e09565b905092915050565b6000613c198383613fe1565b905092915050565b6000613c2d838361407f565b60208301905092915050565b6000613c44826145e9565b613c4e8185614647565b935083602082028501613c60856145b9565b8060005b85811015613c9c5784840389528151613c7d8582613bf9565b9450613c8883614620565b925060208a01995050600181019050613c64565b50829750879550505050505092915050565b6000613cb9826145f4565b613cc38185614658565b935083602082028501613cd5856145c9565b8060005b85811015613d115784840389528151613cf28582613c0d565b9450613cfd8361462d565b925060208a01995050600181019050613cd9565b50829750879550505050505092915050565b6000613d2e826145ff565b613d388185614669565b9350613d43836145d9565b8060005b83811015613d74578151613d5b8882613c21565b9750613d668361463a565b925050600181019050613d47565b5085935050505092915050565b613d8a816146a7565b82525050565b613d99816146a7565b82525050565b6000613daa82614615565b613db4818561468b565b9350613dc48185602086016146cc565b613dcd816146ff565b840191505092915050565b6000613de382614615565b613ded818561469c565b9350613dfd8185602086016146cc565b80840191505092915050565b6000613e148261460a565b613e1e818561467a565b9350613e2e8185602086016146cc565b613e37816146ff565b840191505092915050565b6000613e4d8261460a565b613e57818561468b565b9350613e678185602086016146cc565b613e70816146ff565b840191505092915050565b6000613e88600d8361468b565b91507f416c726561647920766f746564000000000000000000000000000000000000006000830152602082019050919050565b6000613ec8601a8361468b565b91507f456c656374696f6e20697320616c726561647920636c6f7365640000000000006000830152602082019050919050565b6000613f0860128361468b565b91507f456c656374696f6e20697320636c6f73656400000000000000000000000000006000830152602082019050919050565b6000613f4860148361468b565b91507f496e76616c69642063616e6469646174652049440000000000000000000000006000830152602082019050919050565b6000613f8860228361468b565b91507f496e70757420617272617973206d75737420686176652073616d65206c656e6760008301527f74680000000000000000000000000000000000000000000000000000000000006020830152604082019050919050565b600060c083016000830151613ff9600086018261407f565b50602083015184820360208601526140118282613e09565b91505060408301516140266040860182613d81565b506060830151848203606086015261403e8282613e09565b915050608083015184820360808601526140588282613e09565b91505060a083015184820360a08601526140728282613e09565b9150508091505092915050565b614088816146b3565b82525050565b614097816146b3565b82525050565b60006140a98284613dd8565b915081905092915050565b600060208201905081810360008301526140ce8184613c39565b905092915050565b600060a08201905081810360008301526140f08188613c39565b905081810360208301526141048187613c39565b905081810360408301526141188186613c39565b9050818103606083015261412c8185613c39565b905081810360808301526141408184613c39565b90509695505050505050565b600060808201905081810360008301526141668187613c39565b9050818103602083015261417a8186613c39565b9050818103604083015261418e8185613c39565b905081810360608301526141a28184613d23565b905095945050505050565b600060208201905081810360008301526141c78184613cae565b905092915050565b600060208201905081810360008301526141e98184613d23565b905092915050565b60006020820190506142066000830184613d90565b92915050565b600060208201905081810360008301526142268184613e42565b905092915050565b600060c08201905081810360008301526142488189613d9f565b90506142576020830188613d90565b614264604083018761408e565b81810360608301526142768186613d9f565b9050818103608083015261428a8185613d9f565b905081810360a083015261429e8184613d9f565b9050979650505050505050565b600060c08201905081810360008301526142c58189613d9f565b905081810360208301526142d98188613d9f565b905081810360408301526142ed8187613d9f565b905081810360608301526143018186613d9f565b905081810360808301526143158185613d9f565b905061432460a083018461408e565b979650505050505050565b600060c08201905081810360008301526143498189613e42565b90506143586020830188613d90565b614365604083018761408e565b81810360608301526143778186613e42565b9050818103608083015261438b8185613e42565b905081810360a083015261439f8184613e42565b9050979650505050505050565b600060208201905081810360008301526143c581613e7b565b9050919050565b600060208201905081810360008301526143e581613ebb565b9050919050565b6000602082019050818103600083015261440581613efb565b9050919050565b6000602082019050818103600083015261442581613f3b565b9050919050565b6000602082019050818103600083015261444581613f7b565b9050919050565b6000602082019050614461600083018461408e565b92915050565b600060c08201905061447c600083018961408e565b818103602083015261448e8188613e42565b905061449d6040830187613d90565b81810360608301526144af8186613e42565b905081810360808301526144c38185613e42565b905081810360a08301526144d78184613e42565b9050979650505050505050565b6000604051905081810181811067ffffffffffffffff8211171561450757600080fd5b8060405250919050565b600067ffffffffffffffff82111561452857600080fd5b602082029050602081019050919050565b600067ffffffffffffffff82111561455057600080fd5b602082029050602081019050919050565b600067ffffffffffffffff82111561457857600080fd5b601f19601f8301169050602081019050919050565b600067ffffffffffffffff8211156145a457600080fd5b601f19601f8301169050602081019050919050565b6000819050602082019050919050565b6000819050602082019050919050565b6000819050602082019050919050565b600081519050919050565b600081519050919050565b600081519050919050565b600081519050919050565b600081519050919050565b6000602082019050919050565b6000602082019050919050565b6000602082019050919050565b600082825260208201905092915050565b600082825260208201905092915050565b600082825260208201905092915050565b600082825260208201905092915050565b600082825260208201905092915050565b600081905092915050565b60008115159050919050565b6000819050919050565b82818337600083830152505050565b60005b838110156146ea5780820151818401526020810190506146cf565b838111156146f9576000848401525b50505050565b6000601f19601f8301169050919050565b614719816146b3565b811461472457600080fd5b5056fea365627a7a72315820dd67cb5f3ff14067eb3a7353666b743a1a45c5a2ffa9014e80db6084842da66a6c6578706572696d656e74616cf564736f6c63430005100040",
  "source": "// SPDX-License-Identifier: MIT\r\npragma solidity >=0.4.21 <=0.8.20;\r\npragma experimental ABIEncoderV2;\r\n\r\ncontract Voting {\r\n    // ============================\r\n    // Structs & Storage\r\n    // ============================\r\n\r\n    struct CreatedElections {\r\n        uint256 electionId;\r\n        string electionName;\r\n        bool isOpen;\r\n        string startDate;\r\n        string endDate;\r\n        string domainFilter;\r\n    }\r\n\r\n    struct Candidate {\r\n        string name;\r\n        string partylist;\r\n        string position;\r\n        string platform;\r\n        string cdn;\r\n        uint256 voteCount;\r\n    }\r\n\r\n    struct Election {\r\n        string name;\r\n        bool isOpen;\r\n        mapping(uint256 => Candidate) candidates; // 1-based index\r\n        uint256 candidatesCount; // number of candidates\r\n        string startDate;\r\n        string endDate;\r\n        string domainFilter;\r\n        mapping(string => bool) hasVoted;\r\n    }\r\n\r\n    mapping (string => CreatedElections[]) public ownedElections;\r\n    mapping (string => string[]) public positions;\r\n    mapping (uint256 => Election) public elections;\r\n    uint256 public electionCount;\r\n\r\n    // ============================\r\n    // Position Management\r\n    // ============================\r\n\r\n    function listPositions(string memory email, string[] memory _positions) public {\r\n        positions[email] = _positions;\r\n    }\r\n\r\n    function getPositions(string memory email) public view returns (string[] memory) {\r\n        return positions[email];\r\n    }\r\n\r\n    // ============================\r\n    // Election Management\r\n    // ============================\r\n\r\n    function createElection(\r\n        string memory _name,\r\n        string memory _startDate,\r\n        string memory _endDate,\r\n        string memory _domainFilter,\r\n        string memory _email\r\n    ) public {\r\n        electionCount++;\r\n        elections[electionCount].name = _name;\r\n        elections[electionCount].isOpen = true;\r\n        elections[electionCount].candidatesCount = 0;\r\n        elections[electionCount].startDate = _startDate;\r\n        elections[electionCount].endDate = _endDate;\r\n        elections[electionCount].domainFilter = _domainFilter;\r\n        elections[electionCount].hasVoted[_email] = false;\r\n\r\n        ownedElections[_email].push(\r\n            CreatedElections(electionCount, _name, true, _startDate, _endDate, _domainFilter)\r\n        );\r\n    }\r\n\r\n    function getElectionCount() public view returns (uint256) {\r\n        return electionCount;\r\n    }\r\n\r\n    function updateElection(\r\n        uint256 _electionId,\r\n        string memory _title,\r\n        string memory _startDate,\r\n        string memory _endDate,\r\n        string memory _domainFilter,\r\n        string memory _email\r\n    ) public {\r\n        Election storage e = elections[_electionId];\r\n        e.name = _title;\r\n        e.startDate = _startDate;\r\n        e.endDate = _endDate;\r\n        e.domainFilter = _domainFilter;\r\n\r\n        CreatedElections[] storage ownedElectionsList = ownedElections[_email];\r\n        for (uint256 i = 0; i < ownedElectionsList.length; i++) {\r\n            if (ownedElectionsList[i].electionId == _electionId) {\r\n                ownedElectionsList[i].electionName = _title;\r\n                ownedElectionsList[i].startDate = _startDate;\r\n                ownedElectionsList[i].endDate = _endDate;\r\n                ownedElectionsList[i].domainFilter = _domainFilter;\r\n                break;\r\n            }\r\n        }\r\n    }\r\n\r\n    function getOwnedElections(string memory _email) public view returns (CreatedElections[] memory) {\r\n        return ownedElections[_email];\r\n    }\r\n\r\n    function getOwnedElectionNames(string memory _owner) public view returns (string[] memory) {\r\n        CreatedElections[] storage ownedElectionsList = ownedElections[_owner];\r\n        string[] memory names = new string[](ownedElectionsList.length);\r\n        for (uint256 i = 0; i < ownedElectionsList.length; i++) {\r\n            names[i] = elections[ownedElectionsList[i].electionId].name;\r\n        }\r\n        return names;\r\n    }\r\n\r\n    function getOwnedElectionIds(string memory _owner) public view returns (uint256[] memory) {\r\n        CreatedElections[] storage ownedElectionsList = ownedElections[_owner];\r\n        uint256[] memory ids = new uint256[](ownedElectionsList.length);\r\n        for (uint256 i = 0; i < ownedElectionsList.length; i++) {\r\n            ids[i] = ownedElectionsList[i].electionId;\r\n        }\r\n        return ids;\r\n    }\r\n\r\n    function getElectionIdByName(string memory _name) public view returns (uint256) {\r\n        for (uint256 i = 1; i <= electionCount; i++) {\r\n            if (compareStrings(elections[i].name, _name)) {\r\n                return i;\r\n            }\r\n        }\r\n        return 0;\r\n    }\r\n\r\n    function compareStrings(string memory s1, string memory s2) internal pure returns (bool) {\r\n        return keccak256(abi.encodePacked(s1)) == keccak256(abi.encodePacked(s2));\r\n    }\r\n\r\n    function getElectionDetails(uint256 _electionId)\r\n        public\r\n        view\r\n        returns (string memory, bool, uint256, string memory, string memory, string memory)\r\n    {\r\n        Election storage e = elections[_electionId];\r\n        return (e.name, e.isOpen, e.candidatesCount, e.startDate, e.endDate, e.domainFilter);\r\n    }\r\n\r\n    function closeElection(uint256 _electionId) public {\r\n        require(elections[_electionId].isOpen, \"Election is already closed\");\r\n        elections[_electionId].isOpen = false;\r\n    }\r\n\r\n    // ============================\r\n    // Candidate Management\r\n    // ============================\r\n\r\n    function addCandidates(\r\n        uint256 _electionId,\r\n        string[] memory _names,\r\n        string[] memory _positions,\r\n        string[] memory _platforms,\r\n        string[] memory _cdns,\r\n        string[] memory _partylists\r\n    ) public {\r\n        require(\r\n            _names.length == _positions.length &&\r\n            _positions.length == _platforms.length &&\r\n            _platforms.length == _cdns.length &&\r\n            _cdns.length == _partylists.length,\r\n            \"Input arrays must have same length\"\r\n        );\r\n\r\n        Election storage e = elections[_electionId];\r\n        for (uint256 i = 0; i < _names.length; i++) {\r\n            e.candidatesCount++; // start at 1\r\n            e.candidates[e.candidatesCount] = Candidate(\r\n                _names[i],\r\n                _partylists[i],\r\n                _positions[i],\r\n                _platforms[i],\r\n                _cdns[i],\r\n                0\r\n            );\r\n        }\r\n    }\r\n\r\n    function getElectionCandidates(uint256 _electionId)\r\n        public\r\n        view\r\n        returns (string[] memory, string[] memory, string[] memory, string[] memory, string[] memory)\r\n    {\r\n        Election storage e = elections[_electionId];\r\n        string[] memory names = new string[](e.candidatesCount);\r\n        string[] memory _positions = new string[](e.candidatesCount);\r\n        string[] memory platforms = new string[](e.candidatesCount);\r\n        string[] memory cdns = new string[](e.candidatesCount);\r\n        string[] memory partylists = new string[](e.candidatesCount);\r\n\r\n        for (uint256 i = 1; i <= e.candidatesCount; i++) {\r\n            names[i-1] = e.candidates[i].name;\r\n            _positions[i-1] = e.candidates[i].position;\r\n            platforms[i-1] = e.candidates[i].platform;\r\n            cdns[i-1] = e.candidates[i].cdn;\r\n            partylists[i-1] = e.candidates[i].partylist;\r\n        }\r\n\r\n        return (names, _positions, platforms, cdns, partylists);\r\n    }\r\n\r\n    function getElectionCandidateCount(uint256 _electionId) public view returns (uint256) {\r\n        return elections[_electionId].candidatesCount;\r\n    }\r\n\r\n    function getElectionCandidate(uint256 _electionId, uint256 _candidateId)\r\n        public\r\n        view\r\n        returns (string memory, string memory, string memory, string memory, string memory, uint256)\r\n    {\r\n        Election storage e = elections[_electionId];\r\n        require(_candidateId > 0 && _candidateId <= e.candidatesCount, \"Invalid candidate ID\");\r\n\r\n        return (\r\n            e.candidates[_candidateId].name,\r\n            e.candidates[_candidateId].position,\r\n            e.candidates[_candidateId].platform,\r\n            e.candidates[_candidateId].cdn,\r\n            e.candidates[_candidateId].partylist,\r\n            e.candidates[_candidateId].voteCount\r\n        );\r\n    }\r\n\r\n    function getCandidateIdByName(uint256 _electionId, string memory _name) public view returns (uint256) {\r\n        Election storage e = elections[_electionId];\r\n        for (uint256 i = 1; i <= e.candidatesCount; i++) {\r\n            if (compareStrings(e.candidates[i].name, _name)) {\r\n                return i;\r\n            }\r\n        }\r\n        return 0;\r\n    }\r\n\r\n    function updateCandidate(\r\n        uint256 _electionId,\r\n        uint256 _candidateId,\r\n        string memory _name,\r\n        string memory _position,\r\n        string memory _platform,\r\n        string memory _cdn,\r\n        string memory _partylist\r\n    ) public {\r\n        Election storage e = elections[_electionId];\r\n        require(_candidateId > 0 && _candidateId <= e.candidatesCount, \"Invalid candidate ID\");\r\n\r\n        e.candidates[_candidateId].name = _name;\r\n        e.candidates[_candidateId].position = _position;\r\n        e.candidates[_candidateId].platform = _platform;\r\n        e.candidates[_candidateId].cdn = _cdn;\r\n        e.candidates[_candidateId].partylist = _partylist;\r\n    }\r\n\r\n    function deleteCandidate(uint256 _electionId, uint256 _candidateId) public {\r\n        Election storage e = elections[_electionId];\r\n        require(_candidateId > 0 && _candidateId <= e.candidatesCount, \"Invalid candidate ID\");\r\n\r\n        // Shift down (1-based indexing)\r\n        for (uint256 i = _candidateId; i < e.candidatesCount; i++) {\r\n            e.candidates[i] = e.candidates[i + 1];\r\n        }\r\n\r\n        delete e.candidates[e.candidatesCount];\r\n        e.candidatesCount--;\r\n    }\r\n\r\n    // ============================\r\n    // Voting\r\n    // ============================\r\n\r\n    function vote(uint256 _electionId, uint256[] memory _candidateIds, string memory _email) public {\r\n        Election storage e = elections[_electionId];\r\n        require(e.isOpen, \"Election is closed\");\r\n        require(!e.hasVoted[_email], \"Already voted\");\r\n\r\n        for (uint256 i = 0; i < _candidateIds.length; i++) {\r\n            require(_candidateIds[i] > 0 && _candidateIds[i] <= e.candidatesCount, \"Invalid candidate ID\");\r\n            e.candidates[_candidateIds[i]].voteCount++;\r\n        }\r\n\r\n        e.hasVoted[_email] = true;\r\n    }\r\n\r\n    function getElectionResults(uint256 _electionId)\r\n    public\r\n    view\r\n    returns (\r\n        string[] memory names,\r\n        string[] memory positions,\r\n        string[] memory partylists,\r\n        uint256[] memory votes\r\n    )\r\n    {\r\n        Election storage e = elections[_electionId];\r\n        uint256 count = e.candidatesCount;\r\n\r\n        names = new string[](count);\r\n        positions = new string[](count);\r\n        partylists = new string[](count);\r\n        votes = new uint256[](count);\r\n\r\n        // your candidates mapping is 1-based, so iterate from 1..count\r\n        for (uint256 i = 1; i <= count; i++) {\r\n            uint256 idx = i - 1; // array index (0-based)\r\n            names[idx] = e.candidates[i].name;\r\n            positions[idx] = e.candidates[i].position;\r\n            partylists[idx] = e.candidates[i].partylist;\r\n            votes[idx] = e.candidates[i].voteCount;\r\n        }\r\n\r\n        return (names, positions, partylists, votes);\r\n    }\r\n\r\n\r\n    function isElectionOpen(uint256 _electionId) public view returns (bool) {\r\n        Election storage e = elections[_electionId];\r\n        return e.isOpen;\r\n    }\r\n\r\n\r\n\r\n}\r\n",
  "sourcePath": "C:\\Users\\dizon\\OneDrive\\Documents\\GitHub\\SE2-BV\\contracts\\contracts\\Voting.sol",
  "compiler": {
    "name": "solc",
    "version": "0.5.16+commit.9c3226ce.Emscripten.clang"
  },
  "schemaVersion": "3.4.16",
  "updatedAt": "2025-09-21T07:37:10.374Z",
  "networkType": "ethereum",
  "devdoc": {
    "methods": {}
  },
  "userdoc": {
    "methods": {}
  }
}